:020000040000FA
:100000000C944F010C9480010C9480010C9480019D
:100010000C9480010C9480010C9480010C9480015C
:100020000C9480010C9480010C9480010C9480014C
:100030000C9480010C9480010C9480010C9480013C
:100040000C9480010C9480010C9480010C9480012C
:100050000C9480010C9480010C9480010C94E80AAB
:100060000C9480010C94B20A0C94880A0C948001C0
:100070000C9480010C9480010C9480010C948001FC
:100080000C9480010C9480010C9480010C948001EC
:100090000C9480010C9480010C9480010C948001DC
:1000A0000C9480010C9480010C9480010C948001CC
:1000B0000C9480010C9480010C9480010C948001BC
:1000C0000C9480010C9480010C9480010C948001AC
:1000D0000C9480010C9480010C9480010C9480019C
:1000E0000C9480010C9468020C9484110C94FE0210
:1000F0000C948A110C94DF030C94ED030C94D5033B
:100100000C94C0030C94BA030C945C0A0C949502F2
:100110000C94A2050C94FA030C94FA040C94C803F2
:100120000C94DA110C94C6020C94A4020C94D9031A
:100130000C94F9040C94D4070C94E3030C944B0333
:100140000C94C4030C94F1030C94CC030C94E703BB
:100150000C949E050C94F5030C94B8090C94800E35
:100160000C94A9110C94FB030C94420B0C94B80250
:100170000C94BB110C94FF030C94CF0300002100DE
:10018000240027002A002D00300033000101000068
:10019000040107010A0100002200250028002B00AD
:1001A0002E003100340002010000050108010B019E
:1001B000000020002300260029002C002F00320020
:1001C00000010000030106010901050505050705F9
:1001D00008080808020202020A0A080804040404C3
:1001E00001010101010101010303030303030303EF
:1001F000040707070C0C0C0C0C0C0C0C020202027E
:1002000006060606060606060B0B0B0B0B0B0B0B66
:100210000102102020080810204010204080020118
:1002200002010804020101020408102040808040FD
:1002300020100804020180040201804020100804FC
:10024000020108040201010204081020408001029A
:1002500004081020408000000A0B02090C0D0E0853
:10026000070304010000000000000000000000007F
:10027000000000000000000000000000000000007E
:10028000000012111000000000000000000000003B
:10029000000000000000000000000000420B1124DC
:1002A0001FBECFEFD1E2DEBFCDBF00E00CBF12E03A
:1002B000A0E0B2E0E0E8F9E200E00BBF02C0079086
:1002C0000D92A23BB107D9F724E0A2EBB2E001C046
:1002D0001D92AA3DB207E1F711E0CFE4D1E000E0C2
:1002E00006C021970109802FFE010E94B114CE346F
:1002F000D10780E00807A9F70E94420C0C94BE14B5
:100300000C940000E0916B03F0916C03309719F0AE
:1003100086EA93E019958091A703823F09F4BAC059
:1003200090F5803C09F499C0B8F4803909F44FC0C5
:1003300040F4E0916F03F0917003803809F44BC0F2
:100340000895803A09F484C0E0917503F091760332
:10035000803B09F440C00895803E09F462C040F437
:10036000E0917903F0917A03803D09F47AC0089511
:10037000803F09F47DC0E0917F03F0918003813FCD
:1003800009F49BC008958A3FC1F1A8F4863F09F49F
:1003900099C040F4E0918303F0918403833F09F412
:1003A0008CC00895883F09F1E0918B03F0918C0394
:1003B000893FF9F008958C3F51F120F18E3F61F1B2
:1003C000E0919303F09194038F3F99F00895E091A9
:1003D0007103F0917203309709F479C04091A90339
:1003E0006091A8038091A6031994E0918703F0918E
:1003F0008803309709F46BC01994E0918903F09158
:100400008A03F7CFE0918D03F0918E03F2CFE09154
:100410008F03F0919003EDCFE0919103F09192035F
:10042000E8CFE0917B03F0917C03309709F44FC053
:100430006091A90320E8629FB001112460787F7366
:100440008091A8038F77682B70528091A60319942E
:10045000E0917303F0917403BECFE0917703F091C4
:1004600078033097A1F16091A8038091A6031994B5
:10047000E0917D03F0917E03309749F16091A803EC
:100480007091A9036138710510F060E870E08AEAA4
:1004900093E01994E0918103F09182033097B9F0D1
:1004A0008091A90320E8829FC001112480789F7366
:1004B0002091A8032F77822B1994309741F08091D7
:1004C000A8031994E0918503F091860392CF0895D3
:1004D000AF92BF92CF92DF92EF92FF920F931F9352
:1004E000CF93DF936C017B018B01040F151FEB0190
:1004F0005E01AE18BF08C017D10759F06991D60147
:10050000ED91FC910190F081E02DC6011995892BA8
:1005100079F7C501DF91CF911F910F91FF90EF9077
:10052000DF90CF90BF90AF900895FC01538D448D24
:10053000252F30E0842F90E0821B930B541710F08E
:10054000CF96089501970895FC01918D828D98179B
:1005500061F0A28DAE0FBF2FB11D5D968C91928D73
:100560009F5F9F73928F90E008958FEF9FEF0895A4
:10057000FC01918D828D981731F0828DE80FF11D6D
:10058000858D90E008958FEF9FEF0895FC01918D88
:10059000228D892F90E0805C9F4F821B91098F7381
:1005A000992708958BE394E00E94C60221E0892BED
:1005B00009F420E0822F0895FC01A48DA80FB92F23
:1005C000B11DA35ABF4F2C91848D90E001968F737B
:1005D0009927848FA689B7892C93A089B1898C919A
:1005E000837080648C93938D848D981306C00288E9
:1005F000F389E02D80818F7D80830895EF92FF92B3
:100600000F931F93CF93DF93EC0181E0888F9B8D35
:100610008C8D98131AC0E889F989808185FF15C0EF
:100620009FB7F894EE89FF896083E889F989808112
:100630008370806480839FBF81E090E0DF91CF91E1
:100640001F910F91FF90EF900895F62E0B8D10E003
:100650000F5F1F4F0F731127E02E8C8D8E110CC072
:100660000FB607FCFACFE889F989808185FFF5CFBD
:10067000CE010E94DC02F1CFEB8DEC0FFD2FF11DBE
:10068000E35AFF4FF0829FB7F8940B8FEA89FB89FA
:1006900080818062CFCFCF93DF93EC01888D882358
:1006A000B9F0AA89BB89E889F9898C9185FD03C0D5
:1006B000808186FD0DC00FB607FCF7CF8C9185FFBA
:1006C000F2CF808185FFEDCFCE010E94DC02E9CF21
:1006D000DF91CF91089580E090E0892B29F00E946E
:1006E000D20281110E94000080E090E0892B49F045
:1006F00080E090E0892B29F00E94000081110E9487
:10070000000080E090E0892B49F080E090E0892BA8
:1007100029F00E94000081110E94000080E090E01A
:10072000892B49F080E090E0892B29F00E9400009D
:1007300081110C94000008958150823108F05AC054
:10074000E82FF0E08827E855FC4F8F4F0C94B11448
:10075000C803CC03BA03C003C403FA03CF03D50311
:10076000D903DF03E303E703ED03F103FA03F50322
:10077000FB03FF03809180008F77809380000895B2
:10078000809180008F7DF9CF80918000877FF5CFA9
:1007900084B58F7784BD089584B58F7DFBCF80911C
:1007A000B0008F778093B00008958091B0008F7D66
:1007B000F9CF809190008F77809390000895809179
:1007C00090008F7DF9CF80919000877FF5CF809149
:1007D000A0008F778093A00008958091A0008F7D66
:1007E000F9CF8091A000877FF5CF809120018F778E
:1007F000809320010895809120018F7DF9CF809111
:100800002001877FF5CFCF93DF93282F30E0F901C8
:10081000EA5AFD4F8491F901E05FFD4FD491F9014F
:10082000E653FE4FC491CC23A1F081110E949C039A
:10083000EC2FF0E0EE0FFF1FE055FE4FA591B491B5
:10084000EC91ED2381E090E009F480E0DF91CF911D
:10085000089580E090E0FACF1F93CF93DF93282F85
:1008600030E0F901EA5AFD4F8491F901E05FFD4F54
:10087000D491F901E653FE4FC491CC23A9F0162F71
:1008800081110E949C03EC2FF0E0EE0FFF1FEA564F
:10089000FE4FA591B4918FB7F894EC91111108C057
:1008A000D095DE23DC938FBFDF91CF911F91089508
:1008B000DE2BF8CFCF93DF9390E0FC01E05FFD4F9C
:1008C000249186539E4FFC0184918823C9F090E0C7
:1008D000880F991FFC01E458FE4FA591B491FC01CB
:1008E000EA56FE4FC591D49161110DC09FB7F8949F
:1008F0008C91209582238C938881282328839FBF05
:10090000DF91CF910895623051F49FB7F8943C91F4
:10091000822F809583238C93E8812E2BEFCF8FB786
:10092000F894EC912E2B2C938FBFEACF3FB7F8941D
:100930008091B7029091B802A091B902B091BA0229
:1009400026B5A89B05C02F3F19F00196A11DB11D2A
:100950003FBFBA2FA92F982F8827BC01CD01620F66
:10096000711D811D911D42E0660F771F881F991F21
:100970004A95D1F708958F929F92AF92BF92CF92EE
:10098000DF92EF92FF924B015C010E9496046B0193
:100990007C010E9496046C197D098E099F09683EAE
:1009A000734081059105A8F321E0821A9108A108FE
:1009B000B10888EEC80E83E0D81EE11CF11C81143A
:1009C0009104A104B10429F7FF90EF90DF90CF903C
:1009D000BF90AF909F908F9008952FB7F89460913B
:1009E000B3027091B4028091B5029091B6022FBF0C
:1009F0000895089590E080E0089587FF0AC09CE084
:100A0000980F923030F08D3F21F0803F18F4807FB6
:100A1000089580E00895982F9F7E282F2F7C2038FE
:100A200039F0803E29F081E0903C19F080E0089593
:100A300081E00895DC018D919C91DC01ED91FC91A8
:100A40000190F081E02D19941F93CF93DF932150F3
:100A5000203118F587FF21C0D42F162FC82F622F01
:100A6000682B80919503909196030E941A05612F3F
:100A70006F7780919503909196030E941A05CF7E1F
:100A8000C03C59F06D2F6F7780919503909196033C
:100A9000DF91CF911F910C941A05DF91CF911F9197
:100AA0000895242F462F682F80EB0C942405262FC1
:100AB00040E0682F80EC0C9424056D3F48F46A3FB9
:100AC00010F4683F39F4FC01808191810C941A057F
:100AD0006E3FC8F70895813E10F40C942405883FBA
:100AE00028F0682F85E993E00C945D0508950F9335
:100AF0001F93CF9307E112E0C0E0F80181918F01CD
:100B0000909106029C130CC061E00E942C04C093DB
:100B10000602CF5FC43089F7CF911F910F910895DE
:100B200060E00E942C04F5CFFC01908592FF04C088
:100B3000917081E02289291380E00895862F642F27
:100B40000C945A04FC0181890E94030421E0892B42
:100B500009F420E0822F0895CF92DF92EF92FF9266
:100B60000F931F93CF93DF93EC0188858B7F88874A
:100B7000CE010E94A205182F8885869581701817CE
:100B8000B9F00E94ED046A837B838C839D83888502
:100B900092E089278887888582FB882780F9DF9102
:100BA000CF911F910F91FF90EF90DF90CF9008951C
:100BB0000E94ED04CA80DB80EC80FD80AB01BC01AB
:100BC0004C195D096E097F098E819F81B0E0A0E01C
:100BD000481759076A077B07F0F288858170181754
:100BE000D1F20E94ED046A837B838C839D83888588
:100BF00091E08927846088870E94ED0409851A8521
:100C00002B853C85601B710B820B930B6D877E8758
:100C10008F87988B0E94ED0469877A878B879C87E2
:100C2000BACFCF93DF93EC0118860E94A2058823E8
:100C300019F08885836088870E94ED046A837B832E
:100C40008C839D83DF91CF9108958F929F92AF9275
:100C5000BF920F931F93CF93DF93CDB7DEB7A197CA
:100C60000FB6F894DEBF0FBECDBF19A2423008F414
:100C70004AE08E010F5D1F4F842E912CB12CA12CC8
:100C8000A50194010E948F14E62FB901CA01EA3030
:100C900044F5E05DD801EE938D01232B242B252B09
:100CA00079F790E080E0109769F0FD010190002055
:100CB000E9F73197AF014A1B5B0BBD0183E593E078
:100CC0000E946802A1960FB6F894DEBF0FBECDBF9A
:100CD000DF91CF911F910F91BF90AF909F908F9018
:100CE0000895E95CD7CFFC0101900020E9F7319726
:100CF000AF01481B590BBC0183E593E00C946802DB
:100D0000CF93DF93EC0160E08E810E942C0461E0C0
:100D10008E810E942C0460E08E810E942C048BE85E
:100D200091E00197F1F7DF91CF910895CF92DF9293
:100D3000EF92FF920F931F93CF93DF936C017C018F
:100D400087E0E80EF11CD0E0C0E0062F10E0B8010B
:100D50000C2E02C0759567950A94E2F76170F70151
:100D600081917F010E942C042196C430D10579F72E
:100D7000C601DF91CF911F910F91FF90EF90DF900F
:100D8000CF900C948006CF92DF92EF92FF920F9358
:100D90001F93CF93DF93EC01F62E642F8C810E947A
:100DA0002C048D818F3F19F060E00E942C040F2DE0
:100DB00010E08F8584FF25C06E0187E0C80ED11C2E
:100DC000F12CE12CB8010E2C02C0759567950A94A0
:100DD000E2F76170F60181916F010E942C04FFEF30
:100DE000EF1AFF0A88E0E816F10461F7CE01DF91FF
:100DF000CF911F910F91FF90EF90DF90CF900C94C7
:100E00008006B80184E0759567958A95E1F7CE0173
:100E10000E9496066F2DCE01DF91CF911F910F9109
:100E2000FF90EF90DF90CF900C94960640E0682FF3
:100E300083E593E00C94C30690916603691710F064
:100E40006FEF690FE62FF0E0ED5AFC4F9489890FA0
:100E500080680C94160781E00E9416078BE39FE1DF
:100E60000197F1F70895CF93DF93823029F49091A1
:100E70006203986090936203809366031092670305
:100E800080E48093680380E18093690380E5809328
:100E90006A0361E0809157030E945A0480915803CD
:100EA0008F3F19F061E00E945A0461E0809159037C
:100EB0000E945A04C3E5D3E09E012355334080913C
:100EC000620384FD0BC084E090E021962817390767
:100ED00044F461E08E810E945A04EECF88E090E0F5
:100EE000F4CF8BE39DE00197F1F760E08091570329
:100EF0000E942C0460E0809159030E942C04809190
:100F000058038F3F19F060E00E942C048091620327
:100F100084FD34C063E083E593E00E949606CBE451
:100F2000D6E4CE010197F1F763E083E593E00E94F8
:100F300096062197F1F763E083E593E00E94960619
:100F400083E592E00197F1F762E083E593E00E9488
:100F500096068091620380620E94160784E0809367
:100F600063038CE00E9416070E942B0782E08093A7
:100F7000640386E0DF91CF910C94160780620E9493
:100F800016078BE496E40197F1F780916203806283
:100F90000E94160783E592E00197F1F780916203C2
:100FA00080620E941607D5CF41E00E94C30681E00F
:100FB00090E00895CF92DF92EF92FF926C01990F2B
:100FC000EE08FF08F7FE16C041E06DE283E593E00E
:100FD0000E94C30666277727CB016C197D098E090D
:100FE0009F094AE00E9425060196FF90EF90DF904E
:100FF000CF9008954AE0C701B601FF90EF90DF90CF
:10100000CF900C942506CF93DF938091C702811176
:101010007FC00E942B0760E081E00E941C0781E4F2
:1010200092E00E947306C091C102D091C202CA3000
:10103000D10520F461E084E00E941C07CE010A97EC
:101040008A35910520F461E083E00E941C07CE01FF
:10105000845691098438934020F461E082E00E9434
:101060001C07CE010E94DA0760E089E00E941C079D
:1010700086E492E00E94730661E08BE00E941C0708
:1010800080910602803821F48DE492E00E9473067C
:1010900080910602811104C08FE492E00E947306E1
:1010A00080910602813021F481E592E00E9473066E
:1010B00080910602823021F483E592E00E9473065B
:1010C00080910602833021F485E592E00E94730648
:1010D00060E086E00E941C0787E592E00E947306AC
:1010E00061E086E00E941C0787E592E00E9473069B
:1010F00060E087E00E941C0787E592E00E9473068B
:1011000061E087E00E941C0787E592E00E94730679
:101110008091C702813091F40E942B0760E083E048
:101120000E941C0789E592E00E94730661E080E05E
:101130000E941C0784E692E00E9473068091C70219
:10114000823009F012C10E942B0760E080E00E940B
:101150001C0785E792E00E94730661E083E00E942D
:101160001C078091BB029091BC028A30910510F45B
:101170000E94DA078091BB029091BC020A978A30E4
:10118000910510F40E94DA078091BB029091BC0295
:1011900044978A30910510F40E94DA078091BB02CF
:1011A0009091BC024E978A30910510F40E94DA07A4
:1011B0008091BB029091BC0288978A30910510F40F
:1011C0000E94DA078091BB029091BC02C2978A30DC
:1011D000910510F40E94DA078091BB029091BC0245
:1011E000CC978A30910510F40E94DA078091BB02F7
:1011F0009091BC02865491098A30910510F40E94A6
:10120000DA078091BB029091BC02805591098A3027
:10121000910510F40E94DA078091BB029091BC0204
:101220008A5591098A30910510F40E94DA0760E02E
:101230008BE00E941C078DE792E00E94730661E03C
:101240008DE00E941C078091BB029091BC020A971E
:1012500020F48FE492E00E9473068091BB0290918B
:10126000BC020A970A9720F481E592E00E94730677
:101270008091BB029091BC0244970A9720F483E5C9
:1012800092E00E9473068091BB029091BC024E973F
:101290000A9720F485E592E00E9473068091BB02D4
:1012A0009091BC0288970A9720F483E892E00E940C
:1012B00073068091BB029091BC02C2970A9720F4FA
:1012C00085E892E00E9473068091BB029091BC0277
:1012D000CC970A9720F487E892E00E9473068091E9
:1012E000BB029091BC02865491090A9720F489E8C8
:1012F00092E00E9473068091BB029091BC028055DF
:1013000091090A9720F48BE892E00E94730680917D
:10131000BB029091BC028A5591090A9720F48DE88E
:1013200092E00E94730660E088E00E941C0787E557
:1013300092E00E94730661E088E00E941C0787E546
:1013400092E00E94730660E089E00E941C0787E536
:1013500092E00E94730661E089E00E941C0787E525
:1013600092E0DF91CF910C947306DF91CF910895B5
:10137000BF92CF92DF92EF92FF920F931F93CF9382
:10138000DF93D62FC42F8091C702813031F587E0DB
:10139000E82E82E0F82E10E000E0BB24B394F701C1
:1013A00081917F018D1314C0CF3709F054C0C8015B
:1013B00089539D4F6C01FC018181813049F461E0CA
:1013C000F801EC5EFD4F81810E942C04F601118230
:1013D0000F5F1F4F0630110511F7E7E0F2E081E0E3
:1013E00090E021E031913D1307C0CF3709F047C0AD
:1013F000DC01A150BE4F1C9201968730910591F7F8
:101400008091C7029FEF980F923008F03FC08D2F58
:101410008F7DB9F45091C1024091C20290E080E00A
:101420002C2F30E02817390711F4522F432F019643
:1014300084369105B9F75093C1024093C202DD236F
:1014400049F1DF91CF911F910F91FF90EF90DF90C5
:10145000CF90BF900895C111BBCFC80189539D4F54
:101460006C01FC0181818111B3CF60E0F801EC5E79
:10147000FD4F81810E942C04F601B182A9CFC111D8
:10148000BBCFDC01A150BE4F2C93B6CF8111D7CF7B
:10149000D032A9F6D0E0D093C202C093C1020E941C
:1014A0007705DF91CF911F910F91FF90EF90DF9023
:1014B000CF90BF900C940308CF93DF93C62F8091F9
:1014C000C702811109C0D4E0C09306020E947705CB
:1014D0000E940308D150C1F78091C7028150823029
:1014E00078F480910602CC2321F0C13029F481E008
:1014F00001C080E0C82F02C0C23029F4C0930602A8
:10150000DF91CF910895C330A9F7F8CF0E94B914A5
:101510001F920F920FB60F9211240BB60F922F93BA
:101520003F934F935F936F937F938F939F93AF936B
:10153000BF93EF93FF938BE394E00E94DC02FF9153
:10154000EF91BF91AF919F918F917F916F915F913B
:101550004F913F912F910F900BBE0F900FBE0F90A8
:101560001F9018951F920F920FB60F9211240BB671
:101570000F922F938F939F93EF93FF93E0914B04E0
:10158000F0914C048081E0915104F091520482FD6D
:101590001DC09081809154048F5F8F7320915504FA
:1015A000821741F0E0915404F0E0E55CFB4F958F29
:1015B00080935404FF91EF919F918F912F910F9001
:1015C0000BBE0F900FBE0F901F9018958081F2CF29
:1015D0001F920F920FB60F9211242F933F938F9368
:1015E0009F93AF93BF938091B3029091B402A09167
:1015F000B502B091B6023091B20223E0230F2D372D
:1016000058F50196A11DB11D2093B2028093B3023B
:101610009093B402A093B502B093B6028091B70242
:101620009091B802A091B902B091BA020196A11DA1
:10163000B11D8093B7029093B802A093B902B09302
:10164000BA02BF91AF919F918F913F912F910F90CF
:101650000FBE0F901F90189526E8230F0296A11D2C
:10166000B11DD2CFFC0112821382148215828AE04E
:1016700090E097838683108681E392E09183808354
:10168000118A08950F931F93CF93EBE3F4E0138235
:10169000128288EE93E0A0E0B0E084839583A68375
:1016A000B7838FE192E09183808385EC90E095870A
:1016B000848784EC90E09787868780EC90E0918B1C
:1016C000808B81EC90E0938B828B82EC90E0958B09
:1016D000848B86EC90E0978B868B118E128E138E06
:1016E000148EF093D904E093D804EBE6F3E0118272
:1016F000108213821282158214821782168211863A
:101700001086138612861586148617861686118A09
:10171000108A138A128A158A148A178A168A118ED9
:10172000108E138E128E158E148E178E168E11A299
:1017300010A213A212A215A214A217A216A211A6F9
:1017400010A688ED94E093A782A714A615A616A666
:1017500013AA12AA15AA14AA8FEF9FEF97AB86AB14
:1017600091AF80AF83E08093A50313AE14AE15AEA6
:1017700016AE10922A04EAEAF3E080E8DF011D9237
:101780008A95E9F710922D0410922E0410922F04DE
:1017900010923004109231041092320410923304EB
:1017A00010923404109235041092360410923704CB
:1017B000109238041092390410923A04E3E5F3E0F1
:1017C0001382128289E392E0918380838FE1848384
:1017D0008FEF858381E2868383E2878385E280873A
:1017E00087E2818789E282871386148615861686AA
:1017F000178681E00E94330780E493E00E94320B59
:10180000E0E4F3E001E312E011830083C1E0C28B66
:101810008DE293E00E94320BEDE2F3E0118300834E
:10182000C28B8AE193E00E94320BEAE1F3E011837C
:101830000083C28B87E093E00E94320BE7E0F3E085
:1018400011830083C28B84EF92E00E94320BE4EF9D
:10185000F2E011830083C28B81EE92E00E94320B92
:10186000E1EEF2E011830083C28B8EEC92E00E94E5
:10187000320BEEECF2E011830083C28BCF911F910B
:101880000F910895789484B5826084BD84B5816099
:1018900084BD85B5826085BD85B5816085BD80913B
:1018A0006E00816080936E001092810080918100B3
:1018B00082608093810080918100816080938100AB
:1018C000809180008160809380008091B10084606D
:1018D0008093B1008091B00081608093B0008091CE
:1018E000910082608093910080919100816080934B
:1018F0009100809190008160809390008091A10080
:1019000082608093A1008091A10081608093A100FA
:101910008091A00081608093A0008091210182606D
:101920008093210180912101816080932101809128
:10193000200181608093200180917A0084608093EF
:101940007A0080917A00826080937A0080917A0098
:10195000816080937A0080917A00806880937A0019
:101960001092C100E0919503F09196030190F081EF
:10197000E02DA089B189D2E0DC93A485B5851C92C5
:10198000A685B7858FE38C93108EA489B589C6E0B0
:10199000CC93A289B3898C9180618C93A289B389FD
:1019A0008C9188608C93A289B3898C9180688C9388
:1019B0000288F389E02D80818F7D808310929703C8
:1019C00010929903109298031092A00310929F0313
:1019D00010929E0310929D038FEF9FEF9093A203AE
:1019E0008093A1039093A4038093A3030E94ED042A
:1019F00060932D0470932E0480932F0490933004F1
:101A000010922A041092A7031092A6031092A80322
:101A10001092A90310922C0410922B048091A5031C
:101A20008170826081608093A503E0914B04F09106
:101A30004C04D083E0914704F09148041082E09177
:101A40004904F0914A0480E1808310925304E091AC
:101A50004F04F0915004C083E0914D04F0914E0486
:101A6000808180618083E0914D04F0914E048081FB
:101A700088608083E0914D04F0914E0480818068FD
:101A80008083E0914D04F0914E0480818F7D8083AE
:101A900088EB99E090937603809375038CE59AE048
:101AA0009093780380937703C4E1D2E00BE112E0D6
:101AB00061E089910E945A040C171D07C9F7CDE017
:101AC000D2E004E112E062E089910E945A040C170E
:101AD0001D07C9F782E08093510380E493E00E94E0
:101AE0001106C9E1D0E0D0934703C093460310929A
:101AF000520383E080933E038DE293E00E9411063F
:101B0000D0933403C093330384E080932B038AE1A2
:101B100093E00E941106D0932103C09320031092FA
:101B20002C0385E08093180387E093E00E94110660
:101B3000D0930E03C0930D031092190386E0809397
:101B4000050384EF92E00E941106D093FB02C0933C
:101B5000FA021092060387E08093F20281EE92E08F
:101B60000E941106D093E802C093E7021092F3029C
:101B700088E08093DF028EEC92E00E941106D09301
:101B8000D502C093D4021092E00282E00E94330793
:101B900060E080E00E941C070E942B0760E080E06C
:101BA0000E941C078FE892E00E94730661E080E0CB
:101BB0000E941C0780EA92E00E94730668EE73E0C0
:101BC00080E090E00E94BB040E94030841E060E0D6
:101BD00080E00E94510561E080E00E94570560E8C6
:101BE000462E512CC1E072E0672E712CEE24E39456
:101BF000F12CF3E6AF2EB12CA6E02A2EA2E03A2E6D
:101C0000D090970320E12D1508F47AC0E091950358
:101C1000F091960380819181DC01ED91FC9100842B
:101C2000F185E02D1995892B09F46AC080913A0459
:101C30008E7F80933A04E0919503F0919603808122
:101C40009181DC01ED91FC910284F385E02D1995E1
:101C5000182F8D3F09F454C080919F039091A003E9
:101C6000009709F066C210939A0300919803802FA1
:101C70000E94FD040E940B05882351F017FD08C047
:101C800000939A0310939B03F092A003E0929F03AA
:101C900010919A03812F0E94FD04813F09F416C21E
:101CA00008F0ADC1803B39F068F4803921F0803A0A
:101CB00011F0803879F4E3E0F0E0F0939E03E093D4
:101CC0009D0308C2803D09F401C208F089C1803C2F
:101CD00009F4FCC180913A04816080933A04E09158
:101CE0006D03F0916E03309709F019951092A003DF
:101CF00010929F0310929E0310929D0310929803DE
:101D000080E493E00E94AC0580E493E00E94940597
:101D10008823A1F08091C7028F5F833008F05EC3F3
:101D20008093C7028091C70281115BC360E089E0A4
:101D30000E942C040E9403080E9477058DE293E024
:101D40000E94AC05809135038570853031F5109186
:101D5000C70280913A0390913B03A0913C03B0915C
:101D60003D0360E0853F9140A105B10508F4C2C381
:101D70008AE00E942C041F5F133008F076C3109392
:101D8000C7028091C702811173C360E089E00E949D
:101D90002C040E9403080E9477058AE193E00E94C8
:101DA000AC051091C70211111DC48AE193E00E9495
:101DB00094058823A1F08091C1029091C2020196FE
:101DC000843691050CF009C49093C2028093C1023D
:101DD00020E8209306020E9403080E947705809164
:101DE0002203817090912C0361E0981360E08BE0F6
:101DF0000E942C0487E093E00E94AC051091C7027A
:101E0000111149C487E093E00E949405882389F06A
:101E10001092060241E06091C10280E00E945105EB
:101E200061E0809106020E9457050E9403080E940B
:101E3000770584EF92E00E94AC051091C702111162
:101E40007BC484EF92E00E949405882389F0C093BC
:101E5000060241E06091C10280E00E94510561E00C
:101E6000809106020E9457050E9403080E94770590
:101E700081EE92E00E94AC051091C7021111ADC431
:101E800081EE92E00E949405882391F082E0809395
:101E9000060241E06091C10280E00E94510561E0CC
:101EA000809106020E9457050E9403080E94770550
:101EB0008EEC92E00E94AC051091C7021111DEC4B5
:101EC0008EEC92E00E949405882391F033E03093E9
:101ED000060241E06091C10280E00E94510561E08C
:101EE000809106020E9457050E9403080E94770510
:101EF00080910602803809F045C00E94ED040091EF
:101F0000C3021091C4022091C5023091C602601B29
:101F1000710B820B930B643F71408105910590F129
:101F20008CE00E94030461E0892B09F060E08CE002
:101F30000E942C048DE00E94030461E0892B09F0CB
:101F400060E08DE00E942C0486E30E94030461E0BF
:101F5000892B09F060E086E30E942C0487E30E944D
:101F6000030461E0892B09F060E087E30E942C0400
:101F70000E94ED046093C3027093C4028093C50273
:101F80009093C6028091C702823039F50E94ED0419
:101F90000091C3021091C4022091C5023091C60283
:101FA000601B710B820B930B6A3F710581059105D4
:101FB000A0F089E00E94030461E0892B09F060E051
:101FC00089E00E942C040E94ED046093C302709388
:101FD000C4028093C5029093C6020E946B0310CE88
:101FE000803E09F468CE803F09F074CE50929E0383
:101FF00040929D03109298038093AA036BC0873F81
:10200000A9F308F05CC0833F09F460C008F453CE24
:10201000863F09F05FCE8093A7031092A60310922B
:10202000A8031092A903C0932A041092A00310924F
:102030009F0310929E0310929D038091A703803905
:1020400039F48091A903811103C0A0E8A093A703EC
:102050008091A7038058813630F48091A603D8166A
:1020600011F0D11002C00E9482018091A503382F87
:10207000317080FF45CE982F9E7F09F441CE90911C
:10208000A70320E8290F213608F022C12091A603DA
:10209000D21619F031E0D11030E08695823009F483
:1020A00010C1833009F411C1813009F029CE40916B
:1020B000A9036091A803892F0E946B0521CE8D3F53
:1020C00008F4A9CF8E3F08F0A6CF04CE70929E03ED
:1020D00060929D0320919F033091A00340919D0346
:1020E00050919E034150510924173507D8F0809331
:1020F000A7031F701F5F1093A60380919B0380931B
:10210000A8031092A903F0922C04E0922B041092E1
:10211000A00310929F0310929E0310929D03C09300
:102120002A048BCF2F5F3F4F3093A00320939F0350
:10213000E7CD17FF0CC01D3F08F047C0183F08F05F
:1021400047C0103F09F451C0173F09F44EC0209119
:102150009A03FC01E559FC4F203F19F0273F09F095
:102160006DC017AF00919D0310919E0398012150FF
:1021700031098217930708F49EC090909A03E0EF0C
:102180009E1619F0F7EF9F125BC01091290420EF03
:10219000209329042093A70330E83093A8031092DA
:1021A000A9031092A60350922C0440922B04C093D2
:1021B0002A040E94820187EF8093AA031093AB0345
:1021C0007092A00360929F039BCD1E3F08F4BFCF87
:1021D0001093A7031092A8031092A9031092A603CC
:1021E000F0922C04E0922B049ACF2091AA03203F76
:1021F00019F0273F09F06ECD9C012F5F3F4F8559A5
:102200009C4FDC01DF961C93B0EFB093A7032093A3
:10221000A8033093A9031092A60330932C042093B3
:102220002B04C0932A041092A00310929F031092D3
:102230009E0310929D0310929803FFCE17A792CF92
:10224000892D0E94FD04D82F8093A7030E940B05BF
:10225000882339F1892D8F708F5F8093A603809139
:102260009B038093A80380919C030330110509F020
:1022700080E08093A9031092A00310929F03109214
:102280009E0310929D03C0932A04D03B39F060F462
:10229000D03921F0D03A11F0D03869F690929803F5
:1022A000CCCE1092A603DBCFD03DC1F3D03EB1F32C
:1022B000D03C09F6F3CF01969093A00380939F033F
:1022C0001FCD332309F41CCDF2CE311119CDEFCE41
:1022D000E0E1E90FE03108F013CDF0E08827EC5899
:1022E000FE4E8F4F0C94B1148A11DA11BB11A91153
:1022F000800E800E8411800E8411800E8411841152
:102300008411800E84118411692F85E993E00E9465
:102310005D05F6CCC090A803D090A903B1E8CB1618
:10232000D10418F050E8C52ED12C0BE613E0C801FB
:102330008B5693408C159D0508F0E2CCF80167ADF3
:1023400080919503909196030E941A050F5F1F4F8D
:10235000EECF1091A80363EF8091950390919603BF
:102360000E941A05612F6F778091950390919603D3
:102370000E941A05C5CC0091A903F0E80F9F8001C7
:1023800011248091A803082B62EF8091950390910E
:1023900096030E941A05602F6F77809195039091A4
:1023A00096030E941A05000F012F001F110B1195B3
:1023B000602FD9CF6091A80320E1629FB001112462
:1023C00060771091A9031F70162B61EF8091950320
:1023D000909196030E941A05612FC6CF1092C702F2
:1023E000A1CC8130E1F561E089E00E942C040E94DB
:1023F000030820E0C22E22E0D22E35E1832E32E007
:10240000932E07EC12E0D6019D916D01F4018191AC
:102410004F0191111EC061E00E942C04D801119659
:102420001C920F5F1F4FF6E0CF16F2E0DF0659F760
:1024300060E080E00E942C0460E080E00E942C04B8
:1024400060E080E00E942C0460E080E00E942C04A8
:1024500075CC60E00E942C04F801C183E2CF823089
:1024600009F06CCC0E94030869CC1092C70289CC99
:102470008130D1F561E089E00E942C040E940308BC
:1024800080E0C82E82E0D82E95E1892E92E0992E28
:1024900007EC12E0D6019D916D01F40181914F018D
:1024A00091111CC061E00E942C04D80111961C926D
:1024B0000F5F1F4F2C143D0469F760E080E00E941D
:1024C0002C0460E080E00E942C0460E080E00E9428
:1024D0002C0460E080E00E942C045FCC60E00E944D
:1024E0002C04F801C183E4CF823009F056CC0E945D
:1024F000030853CC8AE00E942C04111124C080915F
:10250000C1029091C202019797FD18C09093C20238
:102510008093C102F0E8F09306020E9403080E9433
:10252000770561E08AE00E942C0464E670E080E0B8
:1025300090E00E94BB0460E08AE0CDCFB092C2027E
:10254000A092C102E7CF113069F58091C8028130B5
:10255000D9F441E06FE783E30E94510561E08AE02E
:102560000E942C041092C8028091C902811115CCDE
:1025700041E060E084E30E94510560E08BE00E944E
:102580002C04C093C90209CC8111EECF41E060E078
:1025900083E30E94510560E08AE00E942C041093BE
:1025A000C802E2CF123009F0F8CB8091BB029091C3
:1025B000BC02019797FD0CC09093BC028093BB02B4
:1025C0000E94030862E08091BB020E945705A9CFD8
:1025D000B092BC02A092BB02F3CF1092C202109242
:1025E000C102F6CB1130A1F58AE193E00E94940577
:1025F000882309F4FFCB8091C9028130D9F441E0EE
:102600006FE784E30E94510561E08BE00E942C0497
:102610001092C9028091C8028111ECCB41E060E0C8
:1026200083E30E94510560E08AE00E942C04C0937D
:10263000C802E0CB8111EECF41E060E084E30E946C
:10264000510560E08BE00E942C041093C902E2CF98
:10265000123009F0CFCB8AE193E00E9494058823E1
:1026600009F4BDCB8091BB029091BC0201968436E7
:10267000910564F49093BC028093BB020E9403080E
:1026800062E08091BB020E945705A9CB1092BC0268
:102690001092BB02F3CF113029F587E093E00E943E
:1026A0009405882309F4C5CB8091CA02813061F476
:1026B00041E06FE785E30E94510561E08CE00E94F4
:1026C0002C041092CA02B5CB8111B3CB41E060E07B
:1026D00085E30E94510560E08CE00E942C04109379
:1026E000CA02A7CB123009F0A4CB87E093E00E9486
:1026F0009405882359F08091BD02813099F442E01D
:102700006FE785E30E9451051092BD0280910F038F
:1027100081709091190361E0981360E08CE00E9451
:102720002C0487CB8111F2CF42E060E085E30E9468
:102730005105C093BD02EACF113029F584EF92E034
:102740000E949405882309F493CB8091CB028130B9
:1027500061F441E06FE786E30E94510561E08DE09E
:102760000E942C041092CB0283CB811181CB41E0DB
:1027700060E086E30E94510560E08DE00E942C0439
:102780001093CB0275CB123009F072CB84EF92E03C
:102790000E949405882359F08091BE02813099F4FB
:1027A00042E06FE786E30E9451051092BE028091DD
:1027B000FC0281709091060361E0981360E08DE067
:1027C0000E942C0455CB8111F2CF42E060E086E3F9
:1027D0000E945105C093BE02EACF113029F581EE67
:1027E00092E00E949405882309F462CB8091CC0288
:1027F000813061F441E06FE787E30E94510561E0B9
:1028000086E30E942C041092CC0252CB811150CB53
:1028100041E060E087E30E94510560E086E30E94AA
:102820002C041093CC0244CB123009F041CB81EE42
:1028300092E00E949405882359F08091BF02813074
:1028400099F442E06FE787E30E9451051092BF02BE
:102850008091E90281709091F30261E0981360E049
:1028600086E30E942C0424CB8111F2CF42E060E089
:1028700087E30E945105C093BF02EACF113029F5CA
:102880008EEC92E00E949405882309F431CB80916C
:10289000CD02813061F441E06FE788E30E94510589
:1028A00061E087E30E942C041092CD0221CB8111BC
:1028B0001FCB41E060E088E30E94510560E087E3C0
:1028C0000E942C041093CD0213CB123009F010CBD0
:1028D0008EEC92E00E949405882359F08091C0020A
:1028E000813099F442E06FE788E30E94510510922D
:1028F000C0028091D60281709091E00261E098134D
:1029000060E087E30E942C04F3CA8111F2CF42E019
:1029100060E088E30E945105C093C002EACFA1E2C3
:102920001A2EAA1BBB1BFD010DC0AA1FBB1FEE1F49
:10293000FF1FA217B307E407F50720F0A21BB30B94
:10294000E40BF50B661F771F881F991F1A9469F710
:1029500060957095809590959B01AC01BD01CF016C
:102960000895EE0FFF1F881F8BBF0790F691E02D93
:10297000199481E090E0F8940C94BE14F894FFCF81
:102980000101010101018033343536373802030477
:1029900005060708090A0B0C0D363700000000FE7B
:1029A00002680295024B03C602A402B802000000AE
:1029B00000A2059E0500000000D4076802FA04F991
:1029C0000442414E4B00505245534554003F004194
:1029D000004200430044007C004D494449205045DA
:1029E00044414C004D4F44453A20494E44495649D4
:1029F0004455414C005041545445524E0053747953
:102A00006C6500450046004700480049004A002028
:102A100020202020204D4944492020202020200033
:102A2000202020504544414C424F41524420202018
:022A30000000A4
:020000040003F7
:10E000000D9489F10D94B2F10D94B2F10D94B2F129
:10E010000D94B2F10D94B2F10D94B2F10D94B2F1F0
:10E020000D94B2F10D94B2F10D94B2F10D94B2F1E0
:10E030000D94B2F10D94B2F10D94B2F10D94B2F1D0
:10E040000D94B2F10D94B2F10D94B2F10D94B2F1C0
:10E050000D94B2F10D94B2F10D94B2F10D94B2F1B0
:10E060000D94B2F10D94B2F10D94B2F10D94B2F1A0
:10E070000D94B2F10D94B2F10D94B2F10D94B2F190
:10E080000D94B2F10D94B2F10D94B2F10D94B2F180
:10E090000D94B2F10D94B2F10D94B2F10D94B2F170
:10E0A0000D94B2F10D94B2F10D94B2F10D94B2F160
:10E0B0000D94B2F10D94B2F10D94B2F10D94B2F150
:10E0C0000D94B2F10D94B2F10D94B2F10D94B2F140
:10E0D0000D94B2F10D94B2F10D94B2F10D94B2F130
:10E0E0000D94B2F141546D656761323536300041AF
:10E0F000726475696E6F206578706C6F72657220DE
:10E1000073746B3530305632206279204D4C530099
:10E11000426F6F746C6F616465723E004875683F52
:10E1200000436F6D70696C6564206F6E203D200048
:10E130004350552054797065202020203D20005FF9
:10E140005F4156525F415243485F5F3D2000415658
:10E1500052204C696243205665723D20004743437C
:10E160002056657273696F6E203D20004350552024
:10E1700049442020202020203D20004C6F7720663D
:10E18000757365202020203D20004869676820665F
:10E190007573652020203D200045787420667573D6
:10E1A00065202020203D20004C6F636B2066757336
:10E1B000652020203D20004D617220203720323024
:10E1C000313300312E362E3800342E332E350056A2
:10E1D00023202020414444522020206F7020636F70
:10E1E00064652020202020696E73747275637469E1
:10E1F0006F6E2061646472202020496E74657272B3
:10E20000757074006E6F20766563746F7200726A49
:10E210006D702020006A6D70200057686174207056
:10E220006F72743A00506F7274206E6F7420737541
:10E2300070706F72746564004D7573742062652030
:10E2400061206C6574746572002000577269747483
:10E25000696E672045450052656164696E672045B7
:10E26000450045452065727220636E743D00504F35
:10E27000525400303D5A65726F2061646472003FF1
:10E280003D43505520737461747300403D454550C3
:10E29000524F4D207465737400423D426C696E6B41
:10E2A000204C454400453D44756D70204545505215
:10E2B0004F4D00463D44756D7020464C415348001B
:10E2C000483D48656C70004C3D4C69737420492F83
:10E2D0004F20506F72747300513D51756974005234
:10E2E0003D44756D702052414D00563D73686F7707
:10E2F00020696E7465727275707420566563746FF0
:10E30000727300593D506F727420626C696E6B00BD
:10E310002A0011241FBECFEFD1E2DEBFCDBF01E046
:10E320000CBF12E0A0E0B2E0EEE1FDEF03E00BBFB6
:10E3300002C007900D92A030B107D9F712E0A0E01B
:10E34000B2E001C01D92AE30B107E1F70F9460F367
:10E350000D948DFE01E20EBF0FEF0DBF11241FBE05
:10E360000D9460F30D9400F020E030E040ED57E0B4
:10E3700005C0FA013197F1F72F5F3F4F2817390792
:10E38000C0F308959C01260F311DC901A0E0B0E043
:10E390002F5F3F4FABBFFC018791882361F08093D3
:10E3A000C6008091C00086FFFCCF8091C0008064D1
:10E3B0008093C000EACF08958DE08093C6008091DD
:10E3C000C00086FFFCCF8091C00080648093C000B5
:10E3D0008AE08093C6008091C00086FFFCCF8091C8
:10E3E000C00080648093C00008950F94C2F10F9420
:10E3F000DCF10895FC019081992359F09093C600B7
:10E400008091C00086FFFCCF8091C0008064809323
:10E41000C0003196992379F70895282F982F929567
:10E420009F70892F805D8A3308F0895F8093C600D2
:10E430008091C00086FFFCCF8091C00080648093F3
:10E44000C000822F8F70982F905D9A3308F0995FEB
:10E450009093C6008091C00086FFFCCF8091C000E1
:10E4600080648093C00008959C01FB01853691056E
:10E470001CF46330710594F0C90164E670E00F94F8
:10E480002EFE605D7F4F6093C6008091C00086FFC6
:10E49000FCCF8091C00080648093C0002B30310598
:10E4A00014F43297B4F0C90164E670E00F942EFEC4
:10E4B0006AE070E00F942EFE605D7F4F6093C600AF
:10E4C0008091C00086FFFCCF8091C0008064809363
:10E4D000C000C9016AE070E00F942EFEC0968093E0
:10E4E000C6008091C00086FFFCCF8091C000806490
:10E4F0008093C00008951F93182F8EE692EE60E07F
:10E500000F94C2F11093C6008091C00086FFFCCF2B
:10E510008091C00080648093C0000F94DCF11F9153
:10E5200008952F923F924F925F926F927F928F92B7
:10E530009F92AF92BF92CF92DF92EF92FF920F9392
:10E540001F93DF93CF93CDB7DEB762970FB6F894E2
:10E55000DEBF0FBECDBF382E622ECA01DB015C01CB
:10E560006D01772420E2222E2E010894411C511CBB
:10E570008BC081E0A81680E0B80681E0C80680E084
:10E58000D80628F0C601AA27BB270F940DF2BB2797
:10E59000AD2D9C2D8B2D0F940DF28A2D0F940DF225
:10E5A0002092C6008091C00086FFFCCF8091C00001
:10E5B00080648093C0009DE29093C6008091C0006B
:10E5C00086FFFCCF8091C00080648093C0002092C1
:10E5D000C6008091C00086FFFCCF8091C00080649F
:10E5E0008093C00019828601750188249924A1E0D6
:10E5F0003A1651F03A1620F0B2E03B1661F409C029
:10E600000BBFF701779007C0C7010F9477FE782EF4
:10E6100002C0F7017080872D0F940DF22092C60082
:10E620008091C00086FFFCCF8091C0008064809301
:10E63000C000872D8052F401EF70F0708F3520F408
:10E64000E40DF51D708204C0E40DF51D8EE280839B
:10E650000894E11CF11C011D111D0894811C911CE2
:10E6600090E18916910409F0C2CF80E190E0A0E02A
:10E67000B0E0A80EB91ECA1EDB1E198AC2010F9493
:10E68000FAF10F94DCF16A94662009F072CF629679
:10E690000FB6F894DEBF0FBECDBFCF91DF911F91B3
:10E6A0000F91FF90EF90DF90CF90BF90AF909F9031
:10E6B0008F907F906F905F904F903F902F90089534
:10E6C0002F923F924F925F926F927F928F929F9282
:10E6D000AF92BF92CF92DF92EF92FF920F931F9370
:10E6E000DF93CF93CDB7DEB7CD53D1400FB6F894BB
:10E6F000DEBF0FBECDBF01E20EBF0FEF0DBF94B75F
:10E70000F894A89514BE80916000886180936000A1
:10E7100010926000789493FF05C0E0910002F091A0
:10E7200001021995279A2F9A8091C00082608093E8
:10E73000C00080E18093C40088E18093C1000000A4
:10E74000EE24FF24870144E0A42EB12CCC24DD2448
:10E7500024C0C5010197F1F70894E11CF11C011DCB
:10E76000111D21E2E2162EE4F20620E0020720E06D
:10E77000120718F031E0C32ED12CC801B70127ECE5
:10E780003BE140E050E00F9441FE611571058105C9
:10E79000910519F485B1805885B98091C00087FD35
:10E7A00003C0C114D104A9F2A6014F5F5F4FC25E3E
:10E7B000DE4F59834883CE51D140C25EDE4F8881FF
:10E7C0009981CE51D140019711F00D9410FEC05D9A
:10E7D000DE4F19821882C053D14060E0C15DDE4F28
:10E7E0001882CF52D14088249924C35DDE4F19820C
:10E7F0001882CD52D140C05EDE4F188219821A8233
:10E800001B82C052D140CE5CDE4F188219821A8220
:10E810001B82C253D140EE24FF2487010BBFF701B6
:10E8200007911691C45CDE4F19830883CC53D14005
:10E830000D940BFEC25EDE4F28813981CE51D1404E
:10E840002130310509F52091C600C25EDE4F1982E4
:10E850001882CE51D14022C02F5F3F4F4F4F5F4FA4
:10E86000213082E138078AE7480780E0580780F0C6
:10E87000C45CDE4FE881F981CC53D140EF5FFF4F9C
:10E8800019F0EE27FF27099420E030E040E050E047
:10E890008091C00087FFE0CF2091C600C35DDE4FAE
:10E8A00048815981CD52D1404F5F5F4FC35DDE4FEC
:10E8B00059834883CD52D140213209F063C64A3092
:10E8C000510508F05FC60894811C911C53E0851621
:10E8D000910409F059C600E010E018C081E280936D
:10E8E000C6008091C00086FFFCCF8091C00080648C
:10E8F0008093C0002F5F3F4F2931310579F70F9486
:10E90000DCF10F5F1F4F0530110519F020E030E0FA
:10E91000E5CF10920A0210920B0210920C02109294
:10E920000D02109206021092070210920802109235
:10E930000902109202021092030210920402109235
:10E9400005028FEE90EE60E00F94F5F180E191EE1C
:10E9500060E00F94C2F18091C00087FFFCCF9091DE
:10E96000C600903608F09F759032B8F09093C600BC
:10E970008091C00086FFFCCF8091C00080648093AE
:10E98000C000A0E2A093C6008091C00086FFFCCF2B
:10E990008091C00080648093C000983409F4D7C18E
:10E9A0009934B8F4923409F459C1933458F490333B
:10E9B00019F1903308F4E3C59F33A1F1903409F0C5
:10E9C000DEC5BDC0953409F470C1963409F0D7C5D1
:10E9D00098C1923509F42BC2933538F49C3409F46C
:10E9E000F5C1913509F0CBC518C2963509F445C279
:10E9F000993509F0C4C567C483E792EE62E00F94CD
:10EA0000F5F110920602109207021092080210927D
:10EA1000090210920A0210920B0210920C0210923C
:10EA20000D0213C18FE792EE62E00F94F5F18FEEC5
:10EA300090EE60E00F94F5F181E291EE60E00F94CA
:10EA4000C2F187EB91EE60E00F94F5F180E391EE77
:10EA500060E00F94C2F184EE90EE60E00F94F5F167
:10EA60008FE391EE60E00F94C2F186E090E061E008
:10EA700070E00F9434F20F94DCF18DE591EE60E0DC
:10EA80000F94C2F189EC91EE60E00F94F5F18EE401
:10EA900091EE60E00F94C2F183EC91EE60E00F9490
:10EAA000F5F18CE691EE60E00F94C2F18EE10F94E7
:10EAB0000DF288E90F940DF281E00F940DF20F949E
:10EAC000DCF18BE791EE60E00F94C2F119E0E0E039
:10EAD000F0E010935700E4918E2F0F940DF20F94F5
:10EAE000DCF18AE891EE60E00F94C2F1E3E0F0E03F
:10EAF00010935700E4918E2F0F940DF20F94DCF1D8
:10EB000089E991EE60E00F94C2F1E2E0F0E0109349
:10EB10005700E4918E2F0F940DF20F94DCF188EAE8
:10EB200091EE60E00F94C2F1E1E0F0E01093570045
:10EB30001491812F0F940DF20F94DCF107CF8BE825
:10EB400092EE62E00F94F5F18BE492EE60E00F94A8
:10EB5000F5F10F94DCF100E010E019C0C8016F2D51
:10EB60000F947FFEFF2031F489E492EE60E00F9471
:10EB7000C2F10BC0F092C6008091C00086FFFCCFAE
:10EB80008091C00080648093C0000F5F1F4FC80158
:10EB900081519F41A0E0B0E0ABBFFC01F790BAE229
:10EBA000FB1621F0E2E000301E07C1F60F94DCF105
:10EBB0000F94DCF187E592EE60E00F94F5F10F948D
:10EBC000DCF1CC24DD2400E010E01EC0C8010F946D
:10EBD00077FEF82E882331F489E492EE60E00F94FA
:10EBE000C2F10BC08093C6008091C00086FFFCCFAD
:10EBF0008091C00080648093C000FE1419F00894D6
:10EC0000C11CD11C0F5F1F4FC80181519F41A0E063
:10EC1000B0E0ABBFFC01E790FAE2EF1621F022E092
:10EC20000030120799F60F94DCF10F94DCF182E6C4
:10EC300092EE60E00F94C2F1C60161E070E00F94C3
:10EC400034F20F94DCF10F94DCF110920202109276
:10EC50000302109204021092050278CE89E992EE26
:10EC600062E00F94F5F1279A2F9A16C02F9880E052
:10EC700090E0E0EDF7E03197F1F7019684369105E9
:10EC8000C1F72F9A80E090E0E0EDF7E03197F1F7DF
:10EC9000019684369105C1F78091C00087FFE6CFC9
:10ECA0008091C00087FFFCCF64C485EA92EE62E0E9
:10ECB0000F94F5F140910202509103026091040219
:10ECC0007091050281E020E10F9491F2809102029F
:10ECD00090910302A0910402B091050280509F4FD1
:10ECE000AF4FBF4F8093020290930302A0930402A0
:10ECF000B093050280509041A040B04008F426CE69
:10ED0000A4CF83EB92EE62E00F94F5F140910602FE
:10ED100050910702609108027091090280E020E1A1
:10ED20000F9491F28091060290910702A09108023F
:10ED3000B091090280509F4FAF4FBF4F80930602A2
:10ED400090930702A0930802B0930902FFCD80ECD4
:10ED500092EE62E00F94F5F183E792EE60E00F949B
:10ED6000F5F18FE792EE60E00F94F5F18BE892EE0B
:10ED700060E00F94F5F189E992EE60E00F94F5F10F
:10ED800085EA92EE60E00F94F5F183EB92EE60E09D
:10ED90000F94F5F180EC92EE60E00F94F5F187ECC2
:10EDA00092EE60E00F94F5F188ED92EE60E00F9442
:10EDB000F5F18FED92EE60E00F94F5F18AEE92EEB0
:10EDC00060E00F94F5F183E093EEBDCD87EC92EE19
:10EDD00062E00F94F5F181E40F947BF282E40F94EA
:10EDE0007BF283E40F947BF284E40F947BF285E45E
:10EDF0000F947BF286E40F947BF287E40F947BF20E
:10EE000088E40F947BF28AE40F947BF28BE40F94F6
:10EE10007BF28CE40F947BF299CD88ED92EE62E068
:10EE20000F94F5F1772473948824992409C48FED05
:10EE300092EE62E00F94F5F140910A0250910B02BC
:10EE400060910C0270910D0282E020E10F9491F22A
:10EE500080910A0290910B02A0910C02B0910D02D8
:10EE600080509F4FAF4FBF4F80930A0290930B0289
:10EE7000A0930C02B0930D0269CD8AEE92EE62E08F
:10EE80000F94F5F184EE90EE60E00F94F5F18FECC5
:10EE900091EE60E00F94F5F1662477244301CC5D98
:10EEA000DE4F19821882C452D140D401C301B695F5
:10EEB000A79597958795CA5DDE4F88839983AA8326
:10EEC000BB83C652D140CC5DDE4FA881B981C4520C
:10EED000D1401196CC5DDE4FB983A883C452D14096
:10EEE000CD0162E070E00F9434F2B0E2B093C6005E
:10EEF0008091C00086FFFCCF8091C0008064809329
:10EF0000C000EDE2E093C6008091C00086FFFCCF18
:10EF10008091C00080648093C000F0E2F093C6004E
:10EF20008091C00086FFFCCF8091C00080648093F8
:10EF3000C000CA5DDE4FE880F9800A811B81C6529D
:10EF4000D140BB27A12F902F8F2D0F940DF2CA5DBA
:10EF5000DE4F8881C652D1400F940DF2B0E2FB2EF5
:10EF6000F092C6008091C00086FFFCCF8091C00067
:10EF700080648093C0000DE30093C6008091C000C0
:10EF800086FFFCCF8091C00080648093C00010E2B7
:10EF90001093C6008091C00086FFFCCF8091C00016
:10EFA00080648093C0008BBEF3012791C65DDE4F65
:10EFB0002883CA52D140A22EBB24CC24DD2408943D
:10EFC000611C711C811C911C8BBEF3018791282E42
:10EFD0003324442455240894611C711C811C911C09
:10EFE0008BBEF3013791C55DDE4F3883CB52D140E4
:10EFF0000894611C711C811C911C8BBEF30147910C
:10F00000C45DDE4F4883CC52D140ADEFEA2EAFEF66
:10F01000FA2EAFEF0A2FAFEF1A2F6E0C7F1C801E57
:10F02000911E142D032DF22CEE24EA0CFB1C0C1D5A
:10F030001D1D0F940DF220E22093C6008091C000A8
:10F0400086FFFCCF8091C00080648093C000C65DC5
:10F05000DE4F8881CA52D1400F940DF230E23093D6
:10F06000C6008091C00086FFFCCF8091C000806404
:10F070008093C000C45DDE4F8881CC52D1400F9494
:10F080000DF240E24093C6008091C00086FFFCCFA5
:10F090008091C00080648093C000C55DDE4F888190
:10F0A000CB52D1400F940DF250E25093C6008091A4
:10F0B000C00086FFFCCF8091C00080648093C000B8
:10F0C0008FEFE8168FEFF80680E0080780E018075A
:10F0D00031F484E092EE60E00F94C2F1DFC0D80119
:10F0E000C7018070907CA070B0708050904CA040A0
:10F0F000B040D1F52FEF3FE340E050E0E222F322B1
:10F1000004231523CA5DDE4FA880B980CA80DB8046
:10F11000C652D140AE0CBF1CC01ED11EAA0CBB1CD7
:10F12000CC1CDD1C8EE092EE60E00F94C2F1BB2798
:10F13000A12F902F8F2D0F940DF28E2D0F940DF285
:10F1400030E23093C6008091C00086FFFCCF8091F2
:10F15000C00080648093C0004EE34093C60080915D
:10F16000C00086FFFCCF87C08EE09EEFA0E0B0E03D
:10F17000E822F9220A231B239CE0E91694E9F90608
:10F1800090E0090790E0190709F088C0C45DDE4FE0
:10F19000A881CC52D140EA2EFF2400E010E0102FCD
:10F1A0000F2DFE2CEE24C55DDE4FB881CB52D14031
:10F1B000EB0EF11C011D111DD601C501817090706F
:10F1C000A070B070DC0199278827E80EF91E0A1F8D
:10F1D0001B1F20EF30E040E050E0A222B322C42207
:10F1E000D52241E1AA0CBB1CCC1CDD1C4A95D1F7F1
:10F1F000EA0CFB1C0C1D1D1D81E090E0A0E0B0E0BE
:10F20000282239224A225B2235E1220C331C441C7D
:10F21000551C3A95D1F7E20CF31C041D151D57013E
:10F220006801AA0CBB1CCC1CDD1C85E192EE60E0E1
:10F230000F94C2F1C801AA27BB270F940DF2BB2778
:10F24000A12F902F8F2D0F940DF28E2D0F940DF274
:10F2500090E29093C6008091C00086FFFCCF809121
:10F26000C00080648093C000AEE3A093C60080918C
:10F27000C00086FFFCCF8091C00080648093C000F6
:10F28000C601AA27BB270F940DF2BB27AD2D9C2DDD
:10F290008B2D0F940DF28A2D0F940DF20F94DCF14B
:10F2A000CC5DDE4FE881F981C452D140F99709F471
:10F2B0004DCBF4E0EF2EF12C012D112D6E0C7F1CA7
:10F2C000801E911EF2CD83E093EE62E00F94F5F183
:10F2D0008AE192EE60E00F94C2F18091C00087FF56
:10F2E000FCCF1091C6001F751093C6008091C0001E
:10F2F00086FFFCCF8091C00080648093C0000F9493
:10F30000DCF1812F81548A3108F036C1163409F4BA
:10F3100095C0173490F4133409F44EC0143430F40B
:10F320001134F1F0123409F01DC130C0143409F465
:10F3300059C0153409F016C16BC01A3409F4C4C0A1
:10F340001B3438F4173409F48FC0183409F00AC19B
:10F35000A1C01B3409F4D2C01C3409F003C1E8C0B9
:10F360008FEF81B90DC082B1809582B980E090E0C5
:10F37000E0EDF7E03197F1F70196883C9105C1F790
:10F380008091C00087FFEFCF12B8EFC08FEF84B934
:10F390000DC085B1809585B980E090E0E0EDF7E0A3
:10F3A0003197F1F70196883C9105C1F78091C00033
:10F3B00087FFEFCF15B8D9C08FEF87B90DC088B1DF
:10F3C000809588B980E090E0E0EDF7E03197F1F7C3
:10F3D0000196883C9105C1F78091C00087FFEFCF6F
:10F3E00018B8C3C08FEF8AB90DC08BB180958BB9A7
:10F3F00080E090E0E0EDF7E03197F1F70196883C8E
:10F400009105C1F78091C00087FFEFCF1BB8ADC059
:10F410008FEF8DB90DC08EB180958EB980E090E0F0
:10F42000E0EDF7E03197F1F70196883C9105C1F7DF
:10F430008091C00087FFEFCF1EB897C08FEF80BBD1
:10F440000DC081B3809581BB80E090E0E0EDF7E0F6
:10F450003197F1F70196883C9105C1F78091C00082
:10F4600087FFEFCF11BA81C08FEF83BB0DC084B38C
:10F47000809584BB80E090E0E0EDF7E03197F1F714
:10F480000196883C9105C1F78091C00087FFEFCFBE
:10F4900014BA6BC08FEF809301010FC080910201FD
:10F4A00080958093020180E090E0E0EDF7E03197F5
:10F4B000F1F70196883C9105C1F78091C00087FF64
:10F4C000EDCF1092020151C08FEF809304010FC065
:10F4D0008091050180958093050180E090E0E0ED4A
:10F4E000F7E03197F1F70196883C9105C1F78091DB
:10F4F000C00087FFEDCF1092050137C08FEF8093DA
:10F5000007010FC08091080180958093080180E079
:10F5100090E0E0EDF7E03197F1F70196883C910536
:10F52000C1F78091C00087FFEDCF109208011DC088
:10F530008FEF80930A010FC080910B01809580931B
:10F540000B0180E090E0E0EDF7E03197F1F70196F4
:10F55000883C9105C1F78091C00087FFEDCF1092E4
:10F560000B0103C085E292EEEEC98091C00087FFD7
:10F57000FCCF8091C600EAC988E392EEE4C98CE131
:10F5800091EEE1C988249924933011F1943028F444
:10F59000913089F09230B8F408C0953061F195301F
:10F5A000F0F0963009F048C043C02B3109F042C951
:10F5B00091E06BE13FC96227C15DDE4F2883CF52E6
:10F5C000D14092E037C9B22FA0E0622793E032C960
:10F5D000822F90E0A82BB92B622794E02BC92E3004
:10F5E00009F039C3622795E0C05DDE4F19821882A9
:10F5F000C053D1401FC9E1E0F0E0EC0FFD1FC05D3A
:10F60000DE4F08811981C053D140E00FF11F2083E4
:10F610000F5F1F4FC05DDE4F19830883C053D14079
:10F6200062270A171B0709F005C9D80196E002C92D
:10F63000261709F010C303C0973009F0FBC87724E0
:10F640009981933109F412C19431C8F4963009F4C8
:10F65000D8C0973050F4923009F406C1933009F4C1
:10F660006DC0913009F059C253C0913109F477C08F
:10F67000923108F0BBC0903109F04FC2F5C098310B
:10F6800009F487C0993150F4953109F4EFC09531F0
:10F6900008F4C6C1963109F040C2C2C19A3109F4DA
:10F6A0006CC09A3108F491C09B3109F45BC09D3164
:10F6B00009F033C29D81903359F48F81882311F46E
:10F6C0009EE11CC0813011F091E018C098E916C08D
:10F6D000892F807591F0903539F4E0E0F0E089E011
:10F6E0008093570094910AC0983539F4E3E0F0E034
:10F6F00089E080935700949101C090E01A821B82A8
:10F700008D818C831D829E831F8227E030E009C299
:10F710001A8288E08B8381E48C8386E58D8382E581
:10F720008E8389E48F8383E5888780E589878FE5E9
:10F730008A8782E38B872BE030E0F3C18A818139AD
:10F7400041F0823941F0803911F48FE005C080E04A
:10F7500003C082E001C08AE01A828B8344C0772410
:10F76000739482C08D81882311F48EE12CC0813086
:10F7700011F081E028C088E926C01A82E1E0F0E0BB
:10F7800089E08093570084918B831C8224E030E0D1
:10F79000C8C18B81803589F48C81883039F4E2E0EE
:10F7A000F0E089E08093570084910DC0E0E0F0E044
:10F7B00089E080935700849106C0E3E0F0E089E09F
:10F7C0008093570084911A82DFCF8D81836C99E0FA
:10F7D000E1E0F0E0082E90935700E89507B600FCB2
:10F7E000FDCF1A821B8223E030E09BC180EC8A832C
:10F7F000CE5CDE4F188219821A821B82C253D1401E
:10F800008EC18A8190E0A0E0B0E0582F44273327D2
:10F8100022278B8190E0A0E0B0E0DC0199278827C7
:10F82000282B392B4A2B5B2B8D8190E0A0E0B0E098
:10F83000282B392B4A2B5B2B8C8190E0A0E0B0E089
:10F84000BA2FA92F982F8827282B392B4A2B5B2BCF
:10F85000220F331F441F551FC05EDE4F288339839C
:10F860004A835B83C052D1401A8259C13A81C95C34
:10F87000DE4F3883C753D140CA5CDE4F1882C6536F
:10F88000D1408B81C82EDD24CA5CDE4F488159816E
:10F89000C653D140C42AD52A933109F082C0CE5C28
:10F8A000DE4F88819981AA81BB81C253D1408050AB
:10F8B000904CA340B04030F583E0CE5CDE4FE88052
:10F8C000F9800A811B81C253D140F70100935B008C
:10F8D00080935700E89507B600FCFDCFCE5CDE4F65
:10F8E000088119812A813B81C253D14000501F4FAA
:10F8F0002F4F3F4FCE5CDE4F088319832A833B8313
:10F90000C253D140C05EDE4F488159816A817B81FC
:10F91000C052D140DE011B9631E08C9111962C91A2
:10F9200011971296C75CDE4F2883C953D140C85C3B
:10F93000DE4F1882C853D14090E0C85CDE4FE881AA
:10F94000F981C853D1408E2B9F2B0C01FA01609393
:10F950005B0030935700E89511244E5F5F4F6F4F67
:10F960007F4F0EEFE02E0FEFF02ECE0CDF1CC114F8
:10F97000D10499F685E0C05EDE4F088119812A81A5
:10F980003B81C052D140F80120935B008093570027
:10F99000E89507B600FCFDCF81E180935700E8951C
:10F9A00035C0C05EDE4F88819981AA81BB81C0527B
:10F9B000D140B695A795979587957C018601ABE0D8
:10F9C000AA2EB12CAC0EBD1E0BC0D5016D915D01F0
:10F9D000C7010F947FFE0894E11CF11C01501040F8
:10F9E0000115110591F7A60160E070E0440F551F65
:10F9F000661F771FC05EDE4FE880F9800A811B8199
:10FA0000C052D1404E0D5F1D601F711F1A82C05E33
:10FA1000DE4F488359836A837B83C052D1407FC0C5
:10FA2000FA80C55CDE4FF882CB53D140C65CDE4F16
:10FA30001882CA53D1408B81C82EDD24C65CDE4FAC
:10FA400008811981CA53D140C02AD12A1A828981DA
:10FA5000BE016D5F7F4F843121F59601C05EDE4FA0
:10FA6000E880F9800A811B81C052D1400BBFF701A9
:10FA700087919691DB018C9311969C936E5F7F4FDB
:10FA8000D801C7010296A11DB11DC05EDE4F88835B
:10FA90009983AA83BB83C052D14022503040F1F6F3
:10FAA00036C0C05EDE4F288139814A815B81C052F9
:10FAB000D1400894C108D108760100E010E0089414
:10FAC000C11CD11C0894E11CF11C011D111DE20E8A
:10FAD000F31E041F151F21BDBB27A52F942F832FB5
:10FAE00082BD2F5F3F4F4F4F5F4FF89A80B5DB01CC
:10FAF0008D93BD012E153F054007510761F7C05E8C
:10FB0000DE4F288339834A835B83C052D1409601FC
:10FB10002D5F3F4FFB01108204C080EC8A8322E0FE
:10FB200030E08BE18093C6008091C00086FFFCCF5F
:10FB30008091C00080648093C000C15DDE4FF88179
:10FB4000CF52D140F093C6008091C00086FFFCCF19
:10FB50008091C00080648093C000432F3093C60022
:10FB60008091C00086FFFCCF8091C00080648093AC
:10FB7000C000922F2093C6008091C00086FFFCCF6A
:10FB80008091C00080648093C0008EE08093C600A6
:10FB90008091C00086FFFCCF8091C000806480937C
:10FBA000C00065E1C15DDE4FE880CF52D1406E25D7
:10FBB00069276427FE01319610C090819093C6009A
:10FBC0008091C00086FFFCCF31968091C000806498
:10FBD0008093C0006927215030402115310569F715
:10FBE0006093C6008091C00086FFFCCF8091C0006A
:10FBF00080648093C00085B1805885B9772081F4F6
:10FC0000C15DDE4F0881CF52D1400F5FC15DDE4F35
:10FC10000883CF52D14090E0A0E0B0E00D941AF4F8
:10FC200027982F9880E090E020ED37E0F901319798
:10FC3000F1F7019684369105C9F700008091C00064
:10FC40008D7F8093C00081E180935700E895EE2777
:10FC5000FF270994FFCF90E00D941AF497FB092E2B
:10FC600007260AD077FD04D02ED006D000201AF443
:10FC7000709561957F4F0895F6F7909581959F4F08
:10FC80000895A1E21A2EAA1BBB1BFD010DC0AA1FDD
:10FC9000BB1FEE1FFF1FA217B307E407F50720F0F5
:10FCA000A21BB30BE40BF50B661F771F881F991F70
:10FCB0001A9469F760957095809590959B01AC01B9
:10FCC000BD01CF010895AA1BBB1B51E107C0AA1FAC
:10FCD000BB1FA617B70710F0A61BB70B881F991FED
:10FCE0005A95A9F780959095BC01CD010895F99991
:10FCF000FECF92BD81BDF89A992780B50895262F31
:10FD0000F999FECF1FBA92BD81BD20BD0FB6F89400
:0EFD1000FA9AF99A0FBE01960895F894FFCF63
:00000001FF
