:020000040000FA
:100000000C9451010C9482010C9482010C94820195
:100010000C9482010C9482010C9482010C94820154
:100020000C9482010C9482010C9482010C94820144
:100030000C9482010C9482010C9482010C94820134
:100040000C9482010C9482010C9482010C94820124
:100050000C9482010C9482010C9482010C94020E87
:100060000C9482010C94CC0D0C94A20D0C94820182
:100070000C9482010C9482010C9482010C948201F4
:100080000C9482010C9482010C9482010C948201E4
:100090000C9482010C9482010C9482010C948201D4
:1000A0000C9482010C9482010C9482010C948201C4
:1000B0000C9482010C9482010C9482010C948201B4
:1000C0000C9482010C9482010C9482010C948201A4
:1000D0000C9482010C9482010C9482010C94820194
:1000E0000C9482010C94E1030C9474140C941D1470
:1000F0000C94D00A0C94BC030C94C2030C942314EB
:100100000C94E5030C94E9030C94D7030C948F0B27
:100110000C94F3030C94CA030C946A020C94210609
:100120000C94D1030C94CE030C94BA020C94FB04EF
:100130000C9401040C94C8020C94C6030C94EF03B5
:100140000C9443140C945C0E0C94FC030C949702D6
:100150000C9455140C94FD030C94A6020C94B1114C
:100160000C9457080C94DB030C9400030C94F703D5
:100170000C94010D0C9425060C944D030C94FC0476
:1001800000002100240027002A002D003000330049
:1001900001010000040107010A01000022002500FE
:1001A00028002B002E003100340002010000050160
:1001B00008010B01000020002300260029002C006C
:1001C0002F003200000100000301060109010505AE
:1001D0000505070508080808020202020A0A0808BD
:1001E00004040404010101010101010103030303EB
:1001F00003030303040707070C0C0C0C0C0C0C0C7A
:100200000202020206060606060606060B0B0B0B8A
:100210000B0B0B0B010210202008081020401020AF
:1002200040800201020108040201010204081020BA
:1002300040808040201008040201800402018040B8
:100240002010080402010804020101020408102021
:100250004080010204081020408000000A0B0209BF
:100260000C0D0E0807030401000000000000000050
:10027000000000000000000000000000000000007E
:10028000000000000000121110000000000000003B
:10029000000000000000000000000000000000005E
:1002A0005C0E11241FBECFEFD1E2DEBFCDBF00E058
:1002B0000CBF12E0A0E0B2E0E4E4FDE200E00BBF1E
:1002C00002C007900D92AC3DB107D9F725E0ACED27
:1002D000B2E001C01D92A430B207E1F711E0C1E520
:1002E000D1E000E006C021970109802FFE010E94A5
:1002F0009316C035D10780E00807A9F70E945C0F6C
:100300000C94A0160C940000E0919503F0919603D4
:10031000309719F080ED93E019958091D103823FD9
:1003200009F4BAC090F5803C09F499C0B8F480395A
:1003300009F44FC040F4E0919903F0919A0380389A
:1003400009F44BC00895803A09F484C0E0919F03FA
:10035000F091A003803B09F440C00895803E09F469
:1003600062C040F4E091A303F091A403803D09F43E
:100370007AC00895803F09F47DC0E091A903F0910F
:10038000AA03813F09F49BC008958A3FC1F1A8F4F4
:10039000863F09F499C040F4E091AD03F091AE03BB
:1003A000833F09F48CC00895883F09F1E091B503BB
:1003B000F091B603893FF9F008958C3F51F120F197
:1003C0008E3F61F1E091BD03F091BE038F3F99F044
:1003D0000895E0919B03F0919C03309709F479C054
:1003E0004091D3036091D2038091D0031994E0919E
:1003F000B103F091B203309709F46BC01994E09106
:10040000B303F091B403F7CFE091B703F091B803D1
:10041000F2CFE091B903F091BA03EDCFE091BB03C5
:10042000F091BC03E8CFE091A503F091A6033097CB
:1004300009F44FC06091D30320E8629FB0011124FA
:1004400060787F738091D2038F77682B7052809190
:10045000D0031994E0919D03F0919E03BECFE091EB
:10046000A103F091A2033097A1F16091D203809192
:10047000D0031994E091A703F091A803309749F1B4
:100480006091D2037091D3036138710510F060E878
:1004900070E084ED93E01994E091AB03F091AC032C
:1004A0003097B9F08091D30320E8829FC0011124D6
:1004B00080789F732091D2032F77822B19943097E5
:1004C00041F08091D2031994E091AF03F091B00311
:1004D00092CF0895AF92BF92CF92DF92EF92FF92A8
:1004E0000F931F93CF93DF936C017B018B01040F5C
:1004F000151FEB015E01AE18BF08C017D10759F0F8
:100500006991D601ED91FC910190F081E02DC60139
:100510001995892B79F7C501DF91CF911F910F9123
:10052000FF90EF90DF90CF90BF90AF900895FC01C7
:10053000538D448D252F30E0842F90E0821B930B48
:10054000541710F0CF96089501970895FC01918DEE
:10055000828D981761F0A28DAE0FBF2FB11D5D96F1
:100560008C91928D9F5F9F73928F90E008958FEF93
:100570009FEF0895FC01918D828D981731F0828D47
:10058000E80FF11D858D90E008958FEF9FEF08959E
:10059000FC01918D228D892F90E0805C9F4F821B02
:1005A00091098F739927089585E694E00E94C80207
:1005B00021E0892B09F420E0822F0895FC01A48D0D
:1005C000A80FB92FB11DA35ABF4F2C91848D90E075
:1005D00001968F739927848FA689B7892C93A08958
:1005E000B1898C91837080648C93938D848D9813E2
:1005F00006C00288F389E02D80818F7D8083089575
:10060000EF92FF920F931F93CF93DF93EC0181E062
:10061000888F9B8D8C8D98131AC0E889F989808109
:1006200085FF15C09FB7F894EE89FF896083E8893C
:10063000F98980818370806480839FBF81E090E02E
:10064000DF91CF911F910F91FF90EF900895F62EBB
:100650000B8D10E00F5F1F4F0F731127E02E8C8D55
:100660008E110CC00FB607FCFACFE889F98980819A
:1006700085FFF5CFCE010E94DE02F1CFEB8DEC0FAE
:10068000FD2FF11DE35AFF4FF0829FB7F8940B8FB7
:10069000EA89FB8980818062CFCFCF93DF93EC0121
:1006A000888D8823B9F0AA89BB89E889F9898C915A
:1006B00085FD03C0808186FD0DC00FB607FCF7CF16
:1006C0008C9185FFF2CF808185FFEDCFCE010E9416
:1006D000DE02E9CFDF91CF91089580E090E0892B91
:1006E00029F00E94D40281110E94000080E090E075
:1006F000892B49F080E090E0892B29F00E940000CE
:1007000081110E94000080E090E0892B49F080E098
:1007100090E0892B29F00E94000081110E940000C6
:1007200080E090E0892B49F080E090E0892B29F06F
:100730000E94000081110C940000089581508231C4
:1007400008F05AC0E82FF0E08827E655FC4F8F4F9D
:100750000C949316CA03CE03BC03C203C603FC0366
:10076000D103D703DB03E103E503E903EF03F3035D
:10077000FC03F703FD030104809180008F778093D1
:1007800080000895809180008F7DF9CF8091800056
:10079000877FF5CF84B58F7784BD089584B58F7D2D
:1007A000FBCF8091B0008F778093B0000895809147
:1007B000B0008F7DF9CF809190008F77809390006B
:1007C0000895809190008F7DF9CF80919000877F70
:1007D000F5CF8091A0008F778093A000089580913D
:1007E000A0008F7DF9CF8091A000877FF5CF809109
:1007F00020018F77809320010895809120018F7DC3
:10080000F9CF80912001877FF5CFCF93DF93282FF9
:1008100030E0F901E65AFD4F8491F901EC5EFD4F9D
:10082000D491F901E253FE4FC491CC23A1F0811180
:100830000E949E03EC2FF0E0EE0FFF1FEC54FE4FE2
:10084000A591B491EC91ED2381E090E009F480E072
:10085000DF91CF91089580E090E0FACF1F93CF937E
:10086000DF93282F30E0F901E65AFD4F8491F9011A
:10087000EC5EFD4FD491F901E253FE4FC491CC23BD
:10088000A9F0162F81110E949E03EC2FF0E0EE0FCD
:10089000FF1FE656FE4FA591B4918FB7F894EC91E7
:1008A000111108C0D095DE23DC938FBFDF91CF916B
:1008B0001F910895DE2BF8CFCF93DF9390E0FC01DA
:1008C000EC5EFD4F249182539E4FFC01849188235E
:1008D000C9F090E0880F991FFC01E058FE4FA591E8
:1008E000B491FC01E656FE4FC591D49161110DC043
:1008F0009FB7F8948C91209582238C93888128232C
:1009000028839FBFDF91CF910895623051F49FB744
:10091000F8943C91822F809583238C93E8812E2B31
:10092000EFCF8FB7F894EC912E2B2C938FBFEACF9B
:100930003FB7F8948091E1029091E202A091E30226
:10094000B091E40226B5A89B05C02F3F19F001968F
:10095000A11DB11D3FBFBA2FA92F982F8827BC0119
:10096000CD01620F711D811D911D42E0660F771F41
:10097000881F991F4A95D1F708958F929F92AF9241
:10098000BF92CF92DF92EF92FF924B015C010E94E7
:1009900098046B017C010E9498046C197D098E09F2
:1009A0009F09683E734081059105A8F321E0821AF2
:1009B0009108A108B10888EEC80E83E0D81EE11C9A
:1009C000F11C81149104A104B10429F7FF90EF9068
:1009D000DF90CF90BF90AF909F908F9008952FB7EA
:1009E000F8946091DD027091DE028091DF029091B7
:1009F000E0022FBF0895089590E080E0089587FFFA
:100A00000AC09CE0980F923030F08D3F21F0803F7B
:100A100018F4807F089580E00895982F9F7E282FF6
:100A20002F7C203839F0803E29F081E0903C19F08D
:100A300080E0089581E00895DC018D919C91DC01B6
:100A4000ED91FC910190F081E02D19941F93CF93CB
:100A5000DF932150203118F587FF21C0D42F162FA6
:100A6000C82F622F682B8091BF039091C0030E9412
:100A70001C05612F6F778091BF039091C0030E9486
:100A80001C05CF7EC03C59F06D2F6F778091BF035E
:100A90009091C003DF91CF911F910C941C05DF91C1
:100AA000CF911F910895242F462F682F80EB0C942F
:100AB0002605262F40E0682F80EC0C9426056D3F1C
:100AC00048F46A3F10F4683F39F4FC018081918159
:100AD0000C941C056E3FC8F70895813E10F40C94E9
:100AE0002605883F28F0682F8FEB93E00C945F0574
:100AF0000895CF93DF93CEE1D2E060E089910E9428
:100B00002E0482E0C532D807C1F7DF91CF91089556
:100B10000F931F93CF9301E212E0C0E0F80181919F
:100B20008F01909110029C130CC061E00E942E0472
:100B3000C0931002CF5FC43089F7CF911F910F91FE
:100B4000089560E00E942E04F5CF0F931F93CF937A
:100B50009091F102933069F5C82F0E94EF04009143
:100B6000ED021091EE022091EF023091F002601B35
:100B7000710B820B930B6A3F710581059105C8F0DB
:100B8000EC2FF0E0E25EFD4FC0818C2F0E94050447
:100B900061E0892B09F060E08C2F0E942E040E94F6
:100BA000EF046093ED027093EE028093EF02909356
:100BB000F002CF911F910F9108950F931F93809191
:100BC000F1028230D9F50E94EF040091ED021091FC
:100BD000EE022091EF023091F002AB01BC01401B0C
:100BE000510B620B730B8091040290910502092E48
:100BF000000CAA0BBB0B481759076A077B07F0F0DC
:100C000089E00E94050461E0892B09F060E089E039
:100C10000E942E048DE00E94050461E0892B09F0FA
:100C200060E08DE00E942E040E94EF046093ED02CC
:100C30007093EE028093EF029093F0021F910F9158
:100C40000895862F642F0C945C04FC0181890E9416
:100C5000050421E0892B09F420E0822F0895CF922A
:100C6000DF92EF92FF920F931F93CF93DF93EC01EC
:100C700088858B7F8887CE010E942506182F88855E
:100C8000869581701817B9F00E94EF046A837B8300
:100C90008C839D83888592E089278887888582FB5D
:100CA000882780F9DF91CF911F910F91FF90EF90EE
:100CB000DF90CF9008950E94EF04CA80DB80EC8023
:100CC000FD80AB01BC014C195D096E097F098E8165
:100CD0009F81B0E0A0E0481759076A077B07F0F250
:100CE000888581701817D1F20E94EF046A837B8394
:100CF0008C839D83888591E08927846088870E9402
:100D0000EF0409851A852B853C85601B710B820BCE
:100D1000930B6D877E878F87988B0E94EF0469877E
:100D20007A878B879C87BACFCF93DF93EC011886A5
:100D30000E942506882319F08885836088870E9491
:100D4000EF046A837B838C839D83DF91CF91089529
:100D50008F929F92AF92BF920F931F93CF93DF9387
:100D6000CDB7DEB7A1970FB6F894DEBF0FBECDBFEB
:100D700019A2423008F44AE08E010F5D1F4F842E05
:100D8000912CB12CA12CA50194010E947116E62F83
:100D9000B901CA01EA3044F5E05DD801EE938D0156
:100DA000232B242B252B79F790E080E0109769F016
:100DB000FD0101900020E9F73197AF014A1B5B0B61
:100DC000BD018DE793E00E946A02A1960FB6F894E8
:100DD000DEBF0FBECDBFDF91CF911F910F91BF90AE
:100DE000AF909F908F900895E95CD7CFFC01019060
:100DF0000020E9F73197AF01481B590BBC018DE783
:100E000093E00C946A02CF93DF93EC0160E08E8153
:100E10000E942E0461E08E810E942E0460E08E818B
:100E20000E942E048BE891E00197F1F7DF91CF91BA
:100E30000895CF92DF92EF92FF920F931F93CF937B
:100E4000DF936C017C0187E0E80EF11CD0E0C0E08C
:100E5000062F10E0B8010C2E02C0759567950A9414
:100E6000E2F76170F70181917F010E942E042196C3
:100E7000C430D10579F7C601DF91CF911F910F9151
:100E8000FF90EF90DF90CF900C940307CF92DF920A
:100E9000EF92FF920F931F93CF93DF93EC01F62E07
:100EA000642F8C810E942E048D818F3F19F060E0A9
:100EB0000E942E040F2D10E08F8584FF25C06E0147
:100EC00087E0C80ED11CF12CE12CB8010E2C02C019
:100ED000759567950A94E2F76170F60181916F014B
:100EE0000E942E04FFEFEF1AFF0A88E0E816F104D3
:100EF00061F7CE01DF91CF911F910F91FF90EF909D
:100F0000DF90CF900C940307B80184E07595679546
:100F10008A95E1F7CE010E9419076F2DCE01DF916E
:100F2000CF911F910F91FF90EF90DF90CF900C9495
:100F3000190740E0682F8DE793E00C9446079091E5
:100F40009003691710F06FEF690FE62FF0E0E35898
:100F5000FC4F9489890F80680C94990781E00E9466
:100F600099078BE39FE10197F1F70895CF93DF9302
:100F7000823029F490918C03986090938C03809335
:100F800090031092910380E48093920380E1809318
:100F9000930380E58093940361E0809181030E9434
:100FA0005C04809182038F3F19F061E00E945C0431
:100FB00061E0809183030E945C04CDE7D3E09E0151
:100FC0002D57334080918C0384FD0BC084E090E06A
:100FD00021962817390744F461E08E810E945C0451
:100FE000EECF88E090E0F4CF8BE39DE00197F1F73E
:100FF00060E0809181030E942E0460E08091830371
:101000000E942E04809182038F3F19F060E00E94BD
:101010002E0480918C0384FD34C063E08DE793E05F
:101020000E941907CBE4D6E4CE010197F1F763E003
:101030008DE793E00E9419072197F1F763E08DE7B0
:1010400093E00E94190783E592E00197F1F762E0CF
:101050008DE793E00E94190780918C0380620E94C3
:10106000990784E080938D038CE00E9499070E9489
:10107000AE0782E080938E0386E0DF91CF910C94DF
:10108000990780620E9499078BE496E40197F1F733
:1010900080918C0380620E94990783E592E001971A
:1010A000F1F780918C0380620E949907D5CF41E0CF
:1010B0000E94460781E090E00895CF92DF92EF9280
:1010C000FF926C01990FEE08FF08F7FE16C041E091
:1010D0006DE28DE793E00E94460766277727CB01F4
:1010E0006C197D098E099F094AE00E94A8060196A5
:1010F000FF90EF90DF90CF9008954AE0C701B601CE
:10110000FF90EF90DF90CF900C94A806CF93DF93E1
:101110008091F10281117FC00E94AE0760E081E002
:101120000E949F078BE492E00E94F606C091EB02BA
:10113000D091EC02CA30D10520F461E084E00E9435
:101140009F07CE010A978A35910520F461E083E07C
:101150000E949F07CE01845691098438934020F461
:1011600061E082E00E949F07CE010E945D0860E07E
:1011700089E00E949F0780E592E00E94F60661E008
:101180008BE00E949F0780911002803821F487E550
:1011900092E00E94F60680911002811104C089E558
:1011A00092E00E94F60680911002813021F48BE5D6
:1011B00092E00E94F60680911002823021F48DE5C3
:1011C00092E00E94F60680911002833021F48FE5B0
:1011D00092E00E94F60660E086E00E949F0781E6AA
:1011E00092E00E94F60661E086E00E949F0781E699
:1011F00092E00E94F60660E087E00E949F0781E689
:1012000092E00E94F60661E087E00E949F0781E677
:1012100092E00E94F6068091F102813091F40E94E2
:10122000AE0760E083E00E949F0783E692E00E94A1
:10123000F60661E080E00E949F078EE692E00E9441
:10124000F6068091F102823009F010C10E94AE07CB
:1012500060E080E00E949F078FE792E00E94F60620
:1012600061E083E00E949F078091E5029091E60291
:101270008A30910510F40E945D088091E5029091FA
:10128000E6020A978A30910510F40E945D08809169
:10129000E5029091E60244978A30910510F40E948D
:1012A0005D088091E5029091E6024E978A309105A3
:1012B00010F40E945D088091E5029091E602889703
:1012C0008A30910510F40E945D088091E5029091AA
:1012D000E602C2978A30910510F40E945D08809161
:1012E000E5029091E602CC978A30910510F40E94B5
:1012F0005D088091E5029091E602865491098A305A
:10130000910510F40E945D088091E5029091E6023B
:10131000805591098A30910510F40E945D088091F2
:10132000E5029091E6028A5591098A30910510F400
:101330000E945D0860E08BE00E949F0787E892E0D2
:101340000E94F60661E08DE00E949F078091E50211
:101350009091E6020A9720F489E592E00E94F60651
:101360008091E5029091E6020A970A9720F48BE5B6
:1013700092E00E94F6068091E5029091E602449781
:101380000A9720F48DE592E00E94F6068091E5022E
:101390009091E6024E970A9720F48FE592E00E9422
:1013A000F6068091E5029091E60288970A9720F46C
:1013B0008DE892E00E94F6068091E5029091E602A7
:1013C000C2970A9720F48FE892E00E94F606809177
:1013D000E5029091E602CC970A9720F481E992E029
:1013E0000E94F6068091E5029091E60286549109EA
:1013F0000A9720F483E992E00E94F6068091E502C4
:101400009091E602805591090A9720F485E992E0CF
:101410000E94F6068091E5029091E6028A559109B4
:101420000A9720F487E992E00E94F60660E088E0DF
:101430000E949F0781E692E00E94F60661E088E044
:101440000E949F0781E692E00E94F60660E089E034
:101450000E949F0781E692E00E94F60661E089E023
:101460000E949F0781E692E00E94F6068091F102B9
:10147000833009F092C00E94AE0760E080E00E94D5
:101480009F0789E992E00E94F60661E087E00E94EA
:101490009F0780910002909101020C9721F48AEA43
:1014A00092E00E94F6068091000290910102892B41
:1014B00021F48DE592E00E94F60680910002909161
:1014C0000102019721F48AEA92E00E94F6068091D7
:1014D000000290910102029721F48FE592E00E94B0
:1014E000F6068091000290910102039721F48DEAA3
:1014F00092E00E94F606809100029091010204970A
:1015000021F48DE892E00E94F6068091000290910D
:101510000102059721F48FE892E00E94F60680917F
:10152000000290910102069721F480EB92E00E9464
:10153000F6068091000290910102079721F481E95B
:1015400092E00E94F60680910002909101020897B5
:1015500021F483EB92E00E94F606809100029091C4
:101560000102099721F489E592E00E94F606809134
:101570000002909101020A9721F486EB92E00E940A
:10158000F60680910002909101020B9731F48BE5F1
:1015900092E0DF91CF910C94F606DF91CF91089500
:1015A000AF92BF92DF92EF92FF920F931F93CF9370
:1015B000DF93062F142F8091F102813049F581E1EC
:1015C000E82E82E0F82EC1E0D0E0DD24D394F701CC
:1015D00081917F01801318C01F3709F081C0CE01AF
:1015E0008F509D4F5C01FC018081813069F461E086
:1015F000FE01E25EFD4F80810E942E04F501108203
:10160000FE01E75FFD4F10822196C730D105F9F644
:101610008091F102813041F1E1E1F2E021E030E03E
:1016200091E04191401307C01F3709F071C0D90103
:10163000A75FBD4F1C922F5F3F4F2730310589F7C1
:10164000811112C0802F8F7D09F040C0812F90E062
:101650009093EC028093EB020E9488050E9486081A
:101660008091F102882391F1902F9F7DB1F46091D8
:10167000EB029091EC0230E020E0412F50E0421765
:10168000530711F4642F952F2F5F3F4F24363105F8
:10169000B1F76093EB029093EC028330B9F40B370F
:1016A000A9F4111113C08CE090E090930102809393
:1016B00000020E948608CEE1D2E005E212E060E07E
:1016C00089910E942E040C171D07C9F7DF91CF9155
:1016D0001F910F91FF90EF90DF90BF90AF90089512
:1016E000111192CFCE018F509D4F5C01FC01808182
:1016F00081118ACF60E0FE01E25EFD4F80810E9491
:101700002E04F501D082FE01E75FFD4FD0827CCF31
:10171000111191CFD901A75FBD4F9C938CCFCF936F
:10172000DF93C62F8091F102811109C0D4E0C093EC
:1017300010020E9488050E948608D150C1F780914E
:10174000F102882379F080911002CC2321F0C1307E
:1017500029F481E001C080E0C82F02C0C23029F422
:10176000C0931002DF91CF910895C330A9F7F8CF4D
:10177000DF92EF92FF920F931F93CF93DF938091AD
:10178000F102811112C00E9479050E9486080E9410
:10179000880541E060E086E7DF91CF911F910F91CE
:1017A000FF90EF90DF900C9453058130A9F50E94D3
:1017B00079050E94860861E089E00E942E0441E0DC
:1017C00060E086E70E9453050AE012E08FE1E82E10
:1017D00082E0F82EC1EFD2E0DD24D394F80191919C
:1017E0008F01F70181917F01911111C061E00E9489
:1017F0002E0419822196F2E000311F0779F7DF915C
:10180000CF911F910F91FF90EF90DF90089560E0CE
:101810000E942E04D982EECF823089F40E9479058D
:101820000E9486088091060261E0882321F08130C1
:1018300009F0AFCF60E08CE00E942E04AACF833085
:10184000F1F60E94790541E06FE786E70E945305B3
:10185000DF91CF911F910F91FF90EF90DF900C944B
:101860008608CF93C091F102C11113C083E0809329
:10187000100241E06091EB0280E00E94530561E0BC
:10188000809110020E9459050E948608CF910C9405
:101890008805C13019F58091F702813079F441E073
:1018A0006FE788E30E94530561E087E30E942E04FE
:1018B0001092F70210920F02CF9108958111FCCF80
:1018C00041E060E088E30E94530560E087E30E9406
:1018D0002E04C093F702C0930F02EECFC23061F71F
:1018E000809109028130B1F442E06FE788E30E9401
:1018F000530561E087E30E942E0464E670E080E017
:1019000090E00E94BD0460E087E30E942E041092E4
:101910000902D2CF8111D0CF42E060E088E30E947B
:10192000530561E087E30E942E0464E670E080E0E6
:1019300090E00E94BD0460E087E30E942E0481E0F5
:1019400080930902B9CFCF93C091F102C11113C0A6
:1019500082E08093100241E06091EB0280E00E94FF
:10196000530561E0809110020E9459050E9486088B
:10197000CF910C948805C13019F58091F602813021
:1019800079F441E06FE787E30E94530561E086E365
:101990000E942E041092F60210920E02CF9108952A
:1019A0008111FCCF41E060E087E30E94530560E0D5
:1019B00086E30E942E04C093F602C0930E02EECF7F
:1019C000C23061F780910802813061F442E06FE734
:1019D00087E30E94530561E086E30E942E04109283
:1019E0000802DCCF8111DACF42E060E087E30E9499
:1019F000530560E086E30E942E0481E08093080294
:101A0000CDCFFF920F931F93CF93DF938091F1027D
:101A1000833009F071C0C42FF62E453108F072C032
:101A200081E00E94A5058BEE8C0F843108F06FC019
:101A300082E00E94A50587ED8C0F853108F06CC00F
:101A400083E00E94A50582EC8C0F61E0833008F0F2
:101A500060E089E00E942E048FEB8C0F863108F045
:101A600060C084E00E94A50589EA8C0F843108F0EB
:101A70005DC085E00E94A505CB56C53108F05BC06E
:101A800086E00E94A505D0E0C0E00F2D10E0FC1616
:101A900049F1CE010C960817190721F10C96081789
:101AA000190701F10C9608171907E1F00C960817B1
:101AB0001907C1F00C9608171907A1F00C96081722
:101AC000190781F00C960817190761F00C96081792
:101AD000190741F00C960817190721F00C96081702
:101AE000190731F4D0930102C09300020E948608C6
:101AF0002196CC30D10559F6DF91CF911F910F91EE
:101B0000FF90089560E08AE00E942E048CCF60E090
:101B10008BE00E942E048FCF60E08CE00E942E04A8
:101B200092CF60E08DE00E942E049ECF60E086E3BD
:101B30000E942E04A1CF60E087E30E942E04A3CF71
:101B40000E949B161F920F920FB60F9211240BB694
:101B50000F922F933F934F935F936F937F938F9346
:101B60009F93AF93BF93EF93FF9385E694E00E941A
:101B7000DE02FF91EF91BF91AF919F918F917F9185
:101B80006F915F914F913F912F910F900BBE0F90EE
:101B90000FBE0F901F9018951F920F920FB60F92C5
:101BA00011240BB60F922F938F939F93EF93FF9374
:101BB000E0917504F09176048081E0917B04F091CE
:101BC0007C0482FD1DC0908180917E048F5F8F73A5
:101BD00020917F04821741F0E0917E04F0E0EB5900
:101BE000FB4F958F80937E04FF91EF919F918F9192
:101BF0002F910F900BBE0F900FBE0F901F90189556
:101C00008081F2CF1F920F920FB60F9211242F9363
:101C10003F938F939F93AF93BF938091DD029091F9
:101C2000DE02A091DF02B091E0023091DC0223E0FD
:101C3000230F2D3758F50196A11DB11D2093DC020D
:101C40008093DD029093DE02A093DF02B093E00266
:101C50008091E1029091E202A091E302B091E4024E
:101C60000196A11DB11D8093E1029093E202A09321
:101C7000E302B093E402BF91AF919F918F913F91A6
:101C80002F910F900FBE0F901F90189526E8230FED
:101C90000296A11DB11DD2CFFC01128213821482C3
:101CA00015828AE090E09783868310868BE392E02A
:101CB00091838083118A08950F931F93CF93E5E654
:101CC000F4E01382128288EE93E0A0E0B0E0848317
:101CD0009583A683B78389E292E09183808385EC24
:101CE00090E09587848784EC90E09787868780ECE6
:101CF00090E0918B808B81EC90E0938B828B82ECD7
:101D000090E0958B848B86EC90E0978B868B118E80
:101D1000128E138E148EF0930305E0930205E5E90D
:101D2000F3E01182108213821282158214821782CC
:101D300016821186108613861286158614861786DB
:101D40001686118A108A138A128A158A148A178AAB
:101D5000168A118E108E138E128E158E148E178E7B
:101D6000168E11A210A213A212A215A214A217A2DB
:101D700016A211A610A682E095E093A782A714A64A
:101D800015A616A613AA12AA15AA14AA8FEF9FEFDA
:101D900097AB86AB91AF80AF83E08093CF0313AE58
:101DA00014AE15AE16AE10925404E4EDF3E080E8E4
:101DB000DF011D928A95E9F710925704109258049A
:101DC0001092590410925A0410925B0410925C0411
:101DD00010925D0410925E0410925F0410926004F1
:101DE00010926104109262041092630410926404D1
:101DF000EDE7F3E01382128283E492E09183808323
:101E00008FE184838FEF858381E2868383E28783FA
:101E100085E2808787E2818789E28287138614863C
:101E200015861686178681E00E94B6078AE693E03B
:101E30000E944C0EEAE6F3E00BE312E0118300830C
:101E4000C1E0C28B87E593E00E944C0EE7E5F3E02A
:101E500011830083C28B84E493E00E944C0EE4E47F
:101E6000F3E011830083C28B81E393E00E944C0E68
:101E7000E1E3F3E011830083C28B8EE193E00E94E3
:101E80004C0EEEE1F3E011830083C28B8BE093E014
:101E90000E944C0EEBE0F3E011830083C28B88EFCD
:101EA00092E00E944C0EE8EFF2E011830083C28BB7
:101EB000CF911F910F910895CF93DF9300D0CDB7AD
:101EC000DEB7789484B5826084BD84B5816084BDBA
:101ED00085B5826085BD85B5816085BD80916E00C8
:101EE000816080936E0010928100809181008260F9
:101EF0008093810080918100816080938100809136
:101F000080008160809380008091B1008460809324
:101F1000B1008091B00081608093B0008091910009
:101F20008260809391008091910081608093910004
:101F3000809190008160809390008091A1008260E8
:101F40008093A1008091A10081608093A100809185
:101F5000A00081608093A000809121018260809325
:101F600021018091210181608093210180912001D4
:101F700081608093200180917A00846080937A0050
:101F800080917A00826080937A0080917A008160EB
:101F900080937A0080917A00806880937A00109212
:101FA000C100E091BF03F091C0030190F081E02DEA
:101FB000A089B18922E02C93A485B5851C92A685C1
:101FC000B7858FE38C93108EA489B58936E03C9356
:101FD000A289B3898C9180618C93A289B3898C91F9
:101FE00088608C93A289B3898C9180688C930288D5
:101FF000F389E02D80818F7D80831092C103109240
:10200000C3031092C2031092CA031092C903109224
:10201000C8031092C7038FEF9FEF9093CC03809378
:10202000CB039093CE038093CD030E94EF04609383
:102030005704709358048093590490935A04109253
:1020400054041092D1031092D0031092D203109234
:10205000D30310925604109255048091CF038170DF
:10206000826081608093CF03E0917504F0917604E3
:1020700042E04083E0917104F09172041082E0919B
:102080007304F091740480E1808310927D04E091E8
:102090007904F0917A0486E08083E0917704F091EE
:1020A0007804808180618083E0917704F0917804E6
:1020B000808188608083E0917704F091780480814A
:1020C00080688083E0917704F091780480818F7D2F
:1020D000808380ED9AE09093A00380939F038FE824
:1020E0009BE09093A2038093A10381E09DE09093F5
:1020F0009C0380939B031092CF03AEE1B2E0BB83BD
:10210000AA8361E0EA81FB818191FB83EA830E94DB
:102110005C042A813B812552324099F707E112E0A5
:1021200062E0D8018D918D010E945C04B2E00E3115
:102130001B07B1F782E08093090388EF92E00E94C9
:10214000940609E110E01093FF020093FE02109242
:102150000A0383E080937B038AE693E00E9494065F
:10216000109371030093700384E08093680387E504
:1021700093E00E94940610935E0300935D03109217
:10218000690385E08093550384E493E00E949406FC
:1021900010934B0300934A031092560386E08093FA
:1021A000420381E393E00E94940610933803009366
:1021B00037031092430387E080932F038EE193E06F
:1021C0000E94940610932503009324031092300379
:1021D00088E080931C038BE093E00E9494061093A8
:1021E00012030093110310921D0382E00E94B607B0
:1021F00060E080E00E949F070E94AE0760E080E000
:102200000E949F0789EB92E00E94F60661E080E061
:102210000E949F078AEC92E00E94F60668EE73E047
:1022200080E090E00E94BD040E94860841E060E0EA
:1022300080E00E94530561E080E00E94590520E89B
:10224000422E512C7724739430E8632E40EF242ED5
:1022500052E0A52EB12CEE24E394F12C73E6872EE8
:10226000912CE091C103E983E13108F07AC0E0915B
:10227000BF03F091C00380819181DC01ED91FC915D
:102280000084F185E02D1995892B09F46AC08091AD
:1022900064048E7F80936404E091BF03F091C003D7
:1022A00080819181DC01ED91FC910284F385E02D28
:1022B0001995182F8D3F09F454C08091C90390914E
:1022C000CA03009709F0D0C11093C4030091C20360
:1022D000802F0E94FF040E940D05882351F017FDF6
:1022E00008C00093C4031093C503F092CA03E092A0
:1022F000C9031091C403812F0E94FF04813F09F498
:1023000080C108F016C1803B39F068F4803921F0B3
:10231000803A11F0803879F4E3E0F0E0F093C803FC
:10232000E093C70372C1803D09F46BC108F0F2C0AD
:10233000803C09F466C180916404816080936404E8
:10234000E0919703F0919803309709F01995109256
:10235000CA031092C9031092C8031092C7031092C7
:10236000C20388EF92E00E942F068091000382FF53
:102370000FC0817090910A0398130AC08091F102F6
:102380008F5F843008F0C4C28093F1020E94B80BC2
:102390008AE693E00E942F06809172038570853053
:1023A00091F48091770390917803A0917903B09193
:1023B0007A038D3B9240A105B10508F4ACC210929E
:1023C000F1020E94B80B87E593E00E942F068091EE
:1023D0005F038570853091F480916403909165036B
:1023E000A0916603B09167038D3B9240A105B105B2
:1023F00008F4F9C27092F1020E94B80B84E493E0F1
:102400000E942F0680914C038570853099F480914D
:10241000510390915203A0915303B09154038D3B0B
:102420009240A105B10508F448C382E08093F1020F
:102430000E94B80B81E393E00E942F06809139033C
:102440008570853099F480913E0390913F03A0916F
:102450004003B09141038D3B9240A105B10508F4C2
:10246000A3C383E08093F1020E94B80B8EE193E056
:102470000E942F06809126038570853011F40E94FA
:10248000A30C8BE093E00E942F06809113038570CC
:10249000853011F40E94310C8091F102811135C018
:1024A00080911002803889F50E94EF040091ED02BE
:1024B0001091EE022091EF023091F002601B710B3F
:1024C000820B930B643F714081059105F0F001E2AE
:1024D00012E0D801DD908D018D2D0E94050461E090
:1024E000892B09F060E08D2D0E942E04EA81FB818A
:1024F000E017F10771F70E94EF046093ED0270930B
:10250000EE028093EF029093F0020E94DD050E949C
:102510006D03A7CE803E09F4FFCE803F09F00BCFBC
:102520005092C8034092C7031092C2038093D40311
:102530006CC0873FA9F308F05DC0833F09F461C018
:1025400008F4EACE863F09F0F6CE8093D1031092CC
:10255000D0031092D2031092D303709254041092BD
:10256000CA031092C9031092C8031092C703809146
:10257000D103803931F48091D303811102C060927C
:10258000D1038091D1038058813638F48091D003F3
:102590003981381711F0311102C00E9484018091F5
:1025A000CF03382F317080FFDCCE982F9E7F09F447
:1025B000D8CE9091D10320E8290F213608F021C10F
:1025C0002091D0034981421719F031E0411130E0E8
:1025D0008695823009F40EC1833009F40FC1813031
:1025E00009F0BFCE4091D3036091D203892F0E949E
:1025F0006D05B7CE8D3F08F4A8CF8E3F08F0A5CF6C
:102600009ACEB092C803A092C7032091C90330911B
:10261000CA034091C7035091C80341505109241780
:102620003507D8F08093D1031F701F5F1093D0033C
:102630008091C5038093D2031092D303F092560485
:10264000E09255041092CA031092C9031092C80375
:102650001092C703709254048ACF2F5F3F4F30937C
:10266000CA032093C9037DCE17FF0CC01D3F08F09D
:1026700045C0183F08F044C0103F09F44EC0173F52
:1026800009F44BC02091C403FC01EB56FC4F203FE2
:1026900019F0273F09F069C017AFC090C703D09069
:1026A000C8039601215031098217930708F49CC092
:1026B0003090C403B0EF3B1619F0E7EF3E1257C05D
:1026C00010915304209253042092D1036092D203BC
:1026D0001092D3031092D0035092560440925504A6
:1026E000709254040E948401F7EFF093D403109386
:1026F000D503B092CA03A092C90333CE1E3F10F295
:102700001093D1031092D2031092D3031092D003EE
:10271000F0925604E09255049DCF2091D403203FBF
:1027200019F0273F09F007CE9C012F5F3F4F8B56D2
:102730009C4FDC01DF961C932092D1032093D2039F
:102740003093D3031092D003309356042093550452
:10275000709254041092CA031092C9031092C803D5
:102760001092C7031092C20302CF17A796CF832DF2
:102770000E94FF04182F8093D1030E940D05882327
:1027800041F1832D8F708F5F8093D0038091C503BB
:102790008093D2038091C60323E0C216D10409F0CE
:1027A00080E08093D3031092CA031092C903109261
:1027B000C8031092C70370925404103B39F060F4C0
:1027C000103921F0103A11F0103861F63092C2033E
:1027D000CECE1092D003DACF103DC1F3103EB1F34C
:1027E000103C09F0BFCFF2CF01969093CA038093BB
:1027F000C903B7CD332309F4B4CDF4CE3111B1CD33
:10280000F1CEE0E1E90FE03108F0ABCDF0E0882750
:10281000E35FFB4E8F4F0C949316231474145514DE
:102820004314B111B1111D14B1111D14B1111D14B6
:102830001D141D14B1111D141D14692F8FEB93E08D
:102840000E945F058ECDC090D203D090D30381E863
:10285000C816D10418F090E8C92ED12C05E913E070
:10286000C801855993408C159D0508F07ACDD80193
:10287000DF966C918091BF039091C0030E941C056C
:102880000F5F1F4FEDCF1091D20363EF8091BF0315
:102890009091C0030E941C05612F6F778091BF0348
:1028A0009091C0030E941C055CCD0091D303B0E859
:1028B0000B9F800111248091D203082B62EF80913D
:1028C000BF039091C0030E941C05602F6F77809119
:1028D000BF039091C0030E941C05000F012F001F31
:1028E000110B1195602FD9CF6091D203E0E16E9F5B
:1028F000B001112460771091D3031F70162B61EF84
:102900008091BF039091C0030E941C05612FC6CF28
:102910001092F1023BCD1091F102111125C080916E
:10292000EB029091EC02019797FD19C09093EC0295
:102930008093EB02609210020E9486080E94880534
:1029400061E08AE00E942E0464E670E080E090E09E
:102950000E94BD0460E08AE00E942E0434CD909273
:10296000EC028092EB02E6CF113011F58091F20279
:10297000813071F441E06FE783E30E94530561E029
:102980008AE00E942E041092F20210920A021BCDDD
:10299000811119CD41E060E083E30E94530560E0BE
:1029A0008AE00E942E041093F20210930A020BCDCB
:1029B000123009F008CD8091E5029091E60201976E
:1029C00097FD0CC09093E6028093E5020E94860872
:1029D00062E08091E5020E945905B2CF9092E60232
:1029E0008092E502F3CF1091F102111126C080917F
:1029F000EB029091EC02019684369105CCF4909311
:102A0000EC028093EB02609210020E9486080E9402
:102A1000880561E08BE00E942E0464E670E080E0AF
:102A200090E00E94BD0460E08BE00E942E04E6CCA2
:102A30001092EC021092EB02E6CF113011F580916A
:102A4000F302813071F441E06FE784E30E945305A3
:102A500061E08BE00E942E041092F30210920B02B0
:102A6000CDCC8111CBCC41E060E084E30E945305E2
:102A700060E08BE00E942E041093F30210930B028F
:102A8000BDCC123009F0BACC8091E5029091E602FB
:102A900001968436910564F49093E6028093E502F2
:102AA0000E94860862E08091E5020E945905B1CF3C
:102AB0001092E6021092E502F3CF1091F10211118B
:102AC00012C01092100241E06091EB0280E00E947F
:102AD000530561E0809110020E9459050E9486080A
:102AE0000E948805A7CC113011F58091F402813045
:102AF00071F441E06FE785E30E94530561E08CE0EB
:102B00000E942E041092F40210920C0293CC8111B8
:102B100091CC41E060E085E30E94530560E08CE0E9
:102B20000E942E041093F40210930C0283CC1230F6
:102B3000F1F480910602813061F442E06FE785E3B1
:102B40000E94530561E08CE00E942E041092060260
:102B500071CC81116FCC42E060E085E30E945305A7
:102B600060E08CE00E942E047092060263CC133069
:102B700009F060CC80910202813051F441E06FE7AE
:102B800087E70E9453050E9486081092020252CCE9
:102B9000811150CC41E060E087E70E9453050E941C
:102BA00086087092020246CC1091F102111112C0F7
:102BB0007092100241E06091EB0280E00E945305A8
:102BC00061E0809110020E9459050E9486080E94CF
:102BD00088054CCC113011F58091F502813071F4EB
:102BE00041E06FE786E30E94530561E08DE00E94BB
:102BF0002E041092F50210920D0238CC811136CCC1
:102C000041E060E086E30E94530560E08DE00E94B1
:102C10002E041093F50210930D0228CC123009F007
:102C200043C0809107028130B1F442E06FE786E350
:102C30000E945305109207020E94EF040E94EF04C5
:102C40006093E7027093E8028093E9029093EA02AE
:102C50000E94DD050BCC811109CC42E060E086E3E7
:102C60000E945305709207020E94EF040091E70250
:102C70001091E8022091E9023091EA02DC01CB01D7
:102C8000801B910BA20BB30B8C019D01015011090C
:102C900021093109073E134021053105C8F69093FB
:102CA000050280930402CACF133009F0DFCB809174
:102CB0000302813051F441E06FE788E70E94530539
:102CC0000E94860810920302D1CB8111CFCB41E044
:102CD00060E088E70E9453050E9486087092030214
:102CE000C5CBA1E21A2EAA1BBB1BFD010DC0AA1F5A
:102CF000BB1FEE1FFF1FA217B307E407F50720F065
:102D0000A21BB30BE40BF50B661F771F881F991FDF
:102D10001A9469F760957095809590959B01AC0128
:102D2000BD01CF010895EE0FFF1F881F8BBF0790D5
:102D3000F691E02D199481E090E0F8940C94A0169F
:102D4000F894FFCF0C0001015802010101010101BB
:102D5000010101018033343536373802030405069A
:102D60000708090A0B0C0D36370000000000036A43
:102D70000297024D03C802A602BA02000000002515
:102D80000621060000000057086A02FC04FB04420A
:102D9000414E4B00505245534554003F00410042C4
:102DA00000430044007C004D4944492050454441C3
:102DB0004C004D4F44453A20494E444956494455EC
:102DC000414C005041545445524E005374796C6547
:102DD00000450046004700480049004A00202020E6
:102DE000202054554E4552202020202020004323EF
:102DF00000442300462300472300412300202020D5
:102E00002020204D4944492020202020200020203F
:102E100020504544414C424F415244202020000064
:020000040003F7
:10E000000D9489F10D94B2F10D94B2F10D94B2F129
:10E010000D94B2F10D94B2F10D94B2F10D94B2F1F0
:10E020000D94B2F10D94B2F10D94B2F10D94B2F1E0
:10E030000D94B2F10D94B2F10D94B2F10D94B2F1D0
:10E040000D94B2F10D94B2F10D94B2F10D94B2F1C0
:10E050000D94B2F10D94B2F10D94B2F10D94B2F1B0
:10E060000D94B2F10D94B2F10D94B2F10D94B2F1A0
:10E070000D94B2F10D94B2F10D94B2F10D94B2F190
:10E080000D94B2F10D94B2F10D94B2F10D94B2F180
:10E090000D94B2F10D94B2F10D94B2F10D94B2F170
:10E0A0000D94B2F10D94B2F10D94B2F10D94B2F160
:10E0B0000D94B2F10D94B2F10D94B2F10D94B2F150
:10E0C0000D94B2F10D94B2F10D94B2F10D94B2F140
:10E0D0000D94B2F10D94B2F10D94B2F10D94B2F130
:10E0E0000D94B2F141546D656761323536300041AF
:10E0F000726475696E6F206578706C6F72657220DE
:10E1000073746B3530305632206279204D4C530099
:10E11000426F6F746C6F616465723E004875683F52
:10E1200000436F6D70696C6564206F6E203D200048
:10E130004350552054797065202020203D20005FF9
:10E140005F4156525F415243485F5F3D2000415658
:10E1500052204C696243205665723D20004743437C
:10E160002056657273696F6E203D20004350552024
:10E1700049442020202020203D20004C6F7720663D
:10E18000757365202020203D20004869676820665F
:10E190007573652020203D200045787420667573D6
:10E1A00065202020203D20004C6F636B2066757336
:10E1B000652020203D20004D617220203720323024
:10E1C000313300312E362E3800342E332E350056A2
:10E1D00023202020414444522020206F7020636F70
:10E1E00064652020202020696E73747275637469E1
:10E1F0006F6E2061646472202020496E74657272B3
:10E20000757074006E6F20766563746F7200726A49
:10E210006D702020006A6D70200057686174207056
:10E220006F72743A00506F7274206E6F7420737541
:10E2300070706F72746564004D7573742062652030
:10E2400061206C6574746572002000577269747483
:10E25000696E672045450052656164696E672045B7
:10E26000450045452065727220636E743D00504F35
:10E27000525400303D5A65726F2061646472003FF1
:10E280003D43505520737461747300403D454550C3
:10E29000524F4D207465737400423D426C696E6B41
:10E2A000204C454400453D44756D70204545505215
:10E2B0004F4D00463D44756D7020464C415348001B
:10E2C000483D48656C70004C3D4C69737420492F83
:10E2D0004F20506F72747300513D51756974005234
:10E2E0003D44756D702052414D00563D73686F7707
:10E2F00020696E7465727275707420566563746FF0
:10E30000727300593D506F727420626C696E6B00BD
:10E310002A0011241FBECFEFD1E2DEBFCDBF01E046
:10E320000CBF12E0A0E0B2E0EEE1FDEF03E00BBFB6
:10E3300002C007900D92A030B107D9F712E0A0E01B
:10E34000B2E001C01D92AE30B107E1F70F9460F367
:10E350000D948DFE01E20EBF0FEF0DBF11241FBE05
:10E360000D9460F30D9400F020E030E040ED57E0B4
:10E3700005C0FA013197F1F72F5F3F4F2817390792
:10E38000C0F308959C01260F311DC901A0E0B0E043
:10E390002F5F3F4FABBFFC018791882361F08093D3
:10E3A000C6008091C00086FFFCCF8091C0008064D1
:10E3B0008093C000EACF08958DE08093C6008091DD
:10E3C000C00086FFFCCF8091C00080648093C000B5
:10E3D0008AE08093C6008091C00086FFFCCF8091C8
:10E3E000C00080648093C00008950F94C2F10F9420
:10E3F000DCF10895FC019081992359F09093C600B7
:10E400008091C00086FFFCCF8091C0008064809323
:10E41000C0003196992379F70895282F982F929567
:10E420009F70892F805D8A3308F0895F8093C600D2
:10E430008091C00086FFFCCF8091C00080648093F3
:10E44000C000822F8F70982F905D9A3308F0995FEB
:10E450009093C6008091C00086FFFCCF8091C000E1
:10E4600080648093C00008959C01FB01853691056E
:10E470001CF46330710594F0C90164E670E00F94F8
:10E480002EFE605D7F4F6093C6008091C00086FFC6
:10E49000FCCF8091C00080648093C0002B30310598
:10E4A00014F43297B4F0C90164E670E00F942EFEC4
:10E4B0006AE070E00F942EFE605D7F4F6093C600AF
:10E4C0008091C00086FFFCCF8091C0008064809363
:10E4D000C000C9016AE070E00F942EFEC0968093E0
:10E4E000C6008091C00086FFFCCF8091C000806490
:10E4F0008093C00008951F93182F8EE692EE60E07F
:10E500000F94C2F11093C6008091C00086FFFCCF2B
:10E510008091C00080648093C0000F94DCF11F9153
:10E5200008952F923F924F925F926F927F928F92B7
:10E530009F92AF92BF92CF92DF92EF92FF920F9392
:10E540001F93DF93CF93CDB7DEB762970FB6F894E2
:10E55000DEBF0FBECDBF382E622ECA01DB015C01CB
:10E560006D01772420E2222E2E010894411C511CBB
:10E570008BC081E0A81680E0B80681E0C80680E084
:10E58000D80628F0C601AA27BB270F940DF2BB2797
:10E59000AD2D9C2D8B2D0F940DF28A2D0F940DF225
:10E5A0002092C6008091C00086FFFCCF8091C00001
:10E5B00080648093C0009DE29093C6008091C0006B
:10E5C00086FFFCCF8091C00080648093C0002092C1
:10E5D000C6008091C00086FFFCCF8091C00080649F
:10E5E0008093C00019828601750188249924A1E0D6
:10E5F0003A1651F03A1620F0B2E03B1661F409C029
:10E600000BBFF701779007C0C7010F9477FE782EF4
:10E6100002C0F7017080872D0F940DF22092C60082
:10E620008091C00086FFFCCF8091C0008064809301
:10E63000C000872D8052F401EF70F0708F3520F408
:10E64000E40DF51D708204C0E40DF51D8EE280839B
:10E650000894E11CF11C011D111D0894811C911CE2
:10E6600090E18916910409F0C2CF80E190E0A0E02A
:10E67000B0E0A80EB91ECA1EDB1E198AC2010F9493
:10E68000FAF10F94DCF16A94662009F072CF629679
:10E690000FB6F894DEBF0FBECDBFCF91DF911F91B3
:10E6A0000F91FF90EF90DF90CF90BF90AF909F9031
:10E6B0008F907F906F905F904F903F902F90089534
:10E6C0002F923F924F925F926F927F928F929F9282
:10E6D000AF92BF92CF92DF92EF92FF920F931F9370
:10E6E000DF93CF93CDB7DEB7CD53D1400FB6F894BB
:10E6F000DEBF0FBECDBF01E20EBF0FEF0DBF94B75F
:10E70000F894A89514BE80916000886180936000A1
:10E7100010926000789493FF05C0E0910002F091A0
:10E7200001021995279A2F9A8091C00082608093E8
:10E73000C00080E18093C40088E18093C1000000A4
:10E74000EE24FF24870144E0A42EB12CCC24DD2448
:10E7500024C0C5010197F1F70894E11CF11C011DCB
:10E76000111D21E2E2162EE4F20620E0020720E06D
:10E77000120718F031E0C32ED12CC801B70127ECE5
:10E780003BE140E050E00F9441FE611571058105C9
:10E79000910519F485B1805885B98091C00087FD35
:10E7A00003C0C114D104A9F2A6014F5F5F4FC25E3E
:10E7B000DE4F59834883CE51D140C25EDE4F8881FF
:10E7C0009981CE51D140019711F00D9410FEC05D9A
:10E7D000DE4F19821882C053D14060E0C15DDE4F28
:10E7E0001882CF52D14088249924C35DDE4F19820C
:10E7F0001882CD52D140C05EDE4F188219821A8233
:10E800001B82C052D140CE5CDE4F188219821A8220
:10E810001B82C253D140EE24FF2487010BBFF701B6
:10E8200007911691C45CDE4F19830883CC53D14005
:10E830000D940BFEC25EDE4F28813981CE51D1404E
:10E840002130310509F52091C600C25EDE4F1982E4
:10E850001882CE51D14022C02F5F3F4F4F4F5F4FA4
:10E86000213082E138078AE7480780E0580780F0C6
:10E87000C45CDE4FE881F981CC53D140EF5FFF4F9C
:10E8800019F0EE27FF27099420E030E040E050E047
:10E890008091C00087FFE0CF2091C600C35DDE4FAE
:10E8A00048815981CD52D1404F5F5F4FC35DDE4FEC
:10E8B00059834883CD52D140213209F063C64A3092
:10E8C000510508F05FC60894811C911C53E0851621
:10E8D000910409F059C600E010E018C081E280936D
:10E8E000C6008091C00086FFFCCF8091C00080648C
:10E8F0008093C0002F5F3F4F2931310579F70F9486
:10E90000DCF10F5F1F4F0530110519F020E030E0FA
:10E91000E5CF10920A0210920B0210920C02109294
:10E920000D02109206021092070210920802109235
:10E930000902109202021092030210920402109235
:10E9400005028FEE90EE60E00F94F5F180E191EE1C
:10E9500060E00F94C2F18091C00087FFFCCF9091DE
:10E96000C600903608F09F759032B8F09093C600BC
:10E970008091C00086FFFCCF8091C00080648093AE
:10E98000C000A0E2A093C6008091C00086FFFCCF2B
:10E990008091C00080648093C000983409F4D7C18E
:10E9A0009934B8F4923409F459C1933458F490333B
:10E9B00019F1903308F4E3C59F33A1F1903409F0C5
:10E9C000DEC5BDC0953409F470C1963409F0D7C5D1
:10E9D00098C1923509F42BC2933538F49C3409F46C
:10E9E000F5C1913509F0CBC518C2963509F445C279
:10E9F000993509F0C4C567C483E792EE62E00F94CD
:10EA0000F5F110920602109207021092080210927D
:10EA1000090210920A0210920B0210920C0210923C
:10EA20000D0213C18FE792EE62E00F94F5F18FEEC5
:10EA300090EE60E00F94F5F181E291EE60E00F94CA
:10EA4000C2F187EB91EE60E00F94F5F180E391EE77
:10EA500060E00F94C2F184EE90EE60E00F94F5F167
:10EA60008FE391EE60E00F94C2F186E090E061E008
:10EA700070E00F9434F20F94DCF18DE591EE60E0DC
:10EA80000F94C2F189EC91EE60E00F94F5F18EE401
:10EA900091EE60E00F94C2F183EC91EE60E00F9490
:10EAA000F5F18CE691EE60E00F94C2F18EE10F94E7
:10EAB0000DF288E90F940DF281E00F940DF20F949E
:10EAC000DCF18BE791EE60E00F94C2F119E0E0E039
:10EAD000F0E010935700E4918E2F0F940DF20F94F5
:10EAE000DCF18AE891EE60E00F94C2F1E3E0F0E03F
:10EAF00010935700E4918E2F0F940DF20F94DCF1D8
:10EB000089E991EE60E00F94C2F1E2E0F0E0109349
:10EB10005700E4918E2F0F940DF20F94DCF188EAE8
:10EB200091EE60E00F94C2F1E1E0F0E01093570045
:10EB30001491812F0F940DF20F94DCF107CF8BE825
:10EB400092EE62E00F94F5F18BE492EE60E00F94A8
:10EB5000F5F10F94DCF100E010E019C0C8016F2D51
:10EB60000F947FFEFF2031F489E492EE60E00F9471
:10EB7000C2F10BC0F092C6008091C00086FFFCCFAE
:10EB80008091C00080648093C0000F5F1F4FC80158
:10EB900081519F41A0E0B0E0ABBFFC01F790BAE229
:10EBA000FB1621F0E2E000301E07C1F60F94DCF105
:10EBB0000F94DCF187E592EE60E00F94F5F10F948D
:10EBC000DCF1CC24DD2400E010E01EC0C8010F946D
:10EBD00077FEF82E882331F489E492EE60E00F94FA
:10EBE000C2F10BC08093C6008091C00086FFFCCFAD
:10EBF0008091C00080648093C000FE1419F00894D6
:10EC0000C11CD11C0F5F1F4FC80181519F41A0E063
:10EC1000B0E0ABBFFC01E790FAE2EF1621F022E092
:10EC20000030120799F60F94DCF10F94DCF182E6C4
:10EC300092EE60E00F94C2F1C60161E070E00F94C3
:10EC400034F20F94DCF10F94DCF110920202109276
:10EC50000302109204021092050278CE89E992EE26
:10EC600062E00F94F5F1279A2F9A16C02F9880E052
:10EC700090E0E0EDF7E03197F1F7019684369105E9
:10EC8000C1F72F9A80E090E0E0EDF7E03197F1F7DF
:10EC9000019684369105C1F78091C00087FFE6CFC9
:10ECA0008091C00087FFFCCF64C485EA92EE62E0E9
:10ECB0000F94F5F140910202509103026091040219
:10ECC0007091050281E020E10F9491F2809102029F
:10ECD00090910302A0910402B091050280509F4FD1
:10ECE000AF4FBF4F8093020290930302A0930402A0
:10ECF000B093050280509041A040B04008F426CE69
:10ED0000A4CF83EB92EE62E00F94F5F140910602FE
:10ED100050910702609108027091090280E020E1A1
:10ED20000F9491F28091060290910702A09108023F
:10ED3000B091090280509F4FAF4FBF4F80930602A2
:10ED400090930702A0930802B0930902FFCD80ECD4
:10ED500092EE62E00F94F5F183E792EE60E00F949B
:10ED6000F5F18FE792EE60E00F94F5F18BE892EE0B
:10ED700060E00F94F5F189E992EE60E00F94F5F10F
:10ED800085EA92EE60E00F94F5F183EB92EE60E09D
:10ED90000F94F5F180EC92EE60E00F94F5F187ECC2
:10EDA00092EE60E00F94F5F188ED92EE60E00F9442
:10EDB000F5F18FED92EE60E00F94F5F18AEE92EEB0
:10EDC00060E00F94F5F183E093EEBDCD87EC92EE19
:10EDD00062E00F94F5F181E40F947BF282E40F94EA
:10EDE0007BF283E40F947BF284E40F947BF285E45E
:10EDF0000F947BF286E40F947BF287E40F947BF20E
:10EE000088E40F947BF28AE40F947BF28BE40F94F6
:10EE10007BF28CE40F947BF299CD88ED92EE62E068
:10EE20000F94F5F1772473948824992409C48FED05
:10EE300092EE62E00F94F5F140910A0250910B02BC
:10EE400060910C0270910D0282E020E10F9491F22A
:10EE500080910A0290910B02A0910C02B0910D02D8
:10EE600080509F4FAF4FBF4F80930A0290930B0289
:10EE7000A0930C02B0930D0269CD8AEE92EE62E08F
:10EE80000F94F5F184EE90EE60E00F94F5F18FECC5
:10EE900091EE60E00F94F5F1662477244301CC5D98
:10EEA000DE4F19821882C452D140D401C301B695F5
:10EEB000A79597958795CA5DDE4F88839983AA8326
:10EEC000BB83C652D140CC5DDE4FA881B981C4520C
:10EED000D1401196CC5DDE4FB983A883C452D14096
:10EEE000CD0162E070E00F9434F2B0E2B093C6005E
:10EEF0008091C00086FFFCCF8091C0008064809329
:10EF0000C000EDE2E093C6008091C00086FFFCCF18
:10EF10008091C00080648093C000F0E2F093C6004E
:10EF20008091C00086FFFCCF8091C00080648093F8
:10EF3000C000CA5DDE4FE880F9800A811B81C6529D
:10EF4000D140BB27A12F902F8F2D0F940DF2CA5DBA
:10EF5000DE4F8881C652D1400F940DF2B0E2FB2EF5
:10EF6000F092C6008091C00086FFFCCF8091C00067
:10EF700080648093C0000DE30093C6008091C000C0
:10EF800086FFFCCF8091C00080648093C00010E2B7
:10EF90001093C6008091C00086FFFCCF8091C00016
:10EFA00080648093C0008BBEF3012791C65DDE4F65
:10EFB0002883CA52D140A22EBB24CC24DD2408943D
:10EFC000611C711C811C911C8BBEF3018791282E42
:10EFD0003324442455240894611C711C811C911C09
:10EFE0008BBEF3013791C55DDE4F3883CB52D140E4
:10EFF0000894611C711C811C911C8BBEF30147910C
:10F00000C45DDE4F4883CC52D140ADEFEA2EAFEF66
:10F01000FA2EAFEF0A2FAFEF1A2F6E0C7F1C801E57
:10F02000911E142D032DF22CEE24EA0CFB1C0C1D5A
:10F030001D1D0F940DF220E22093C6008091C000A8
:10F0400086FFFCCF8091C00080648093C000C65DC5
:10F05000DE4F8881CA52D1400F940DF230E23093D6
:10F06000C6008091C00086FFFCCF8091C000806404
:10F070008093C000C45DDE4F8881CC52D1400F9494
:10F080000DF240E24093C6008091C00086FFFCCFA5
:10F090008091C00080648093C000C55DDE4F888190
:10F0A000CB52D1400F940DF250E25093C6008091A4
:10F0B000C00086FFFCCF8091C00080648093C000B8
:10F0C0008FEFE8168FEFF80680E0080780E018075A
:10F0D00031F484E092EE60E00F94C2F1DFC0D80119
:10F0E000C7018070907CA070B0708050904CA040A0
:10F0F000B040D1F52FEF3FE340E050E0E222F322B1
:10F1000004231523CA5DDE4FA880B980CA80DB8046
:10F11000C652D140AE0CBF1CC01ED11EAA0CBB1CD7
:10F12000CC1CDD1C8EE092EE60E00F94C2F1BB2798
:10F13000A12F902F8F2D0F940DF28E2D0F940DF285
:10F1400030E23093C6008091C00086FFFCCF8091F2
:10F15000C00080648093C0004EE34093C60080915D
:10F16000C00086FFFCCF87C08EE09EEFA0E0B0E03D
:10F17000E822F9220A231B239CE0E91694E9F90608
:10F1800090E0090790E0190709F088C0C45DDE4FE0
:10F19000A881CC52D140EA2EFF2400E010E0102FCD
:10F1A0000F2DFE2CEE24C55DDE4FB881CB52D14031
:10F1B000EB0EF11C011D111DD601C501817090706F
:10F1C000A070B070DC0199278827E80EF91E0A1F8D
:10F1D0001B1F20EF30E040E050E0A222B322C42207
:10F1E000D52241E1AA0CBB1CCC1CDD1C4A95D1F7F1
:10F1F000EA0CFB1C0C1D1D1D81E090E0A0E0B0E0BE
:10F20000282239224A225B2235E1220C331C441C7D
:10F21000551C3A95D1F7E20CF31C041D151D57013E
:10F220006801AA0CBB1CCC1CDD1C85E192EE60E0E1
:10F230000F94C2F1C801AA27BB270F940DF2BB2778
:10F24000A12F902F8F2D0F940DF28E2D0F940DF274
:10F2500090E29093C6008091C00086FFFCCF809121
:10F26000C00080648093C000AEE3A093C60080918C
:10F27000C00086FFFCCF8091C00080648093C000F6
:10F28000C601AA27BB270F940DF2BB27AD2D9C2DDD
:10F290008B2D0F940DF28A2D0F940DF20F94DCF14B
:10F2A000CC5DDE4FE881F981C452D140F99709F471
:10F2B0004DCBF4E0EF2EF12C012D112D6E0C7F1CA7
:10F2C000801E911EF2CD83E093EE62E00F94F5F183
:10F2D0008AE192EE60E00F94C2F18091C00087FF56
:10F2E000FCCF1091C6001F751093C6008091C0001E
:10F2F00086FFFCCF8091C00080648093C0000F9493
:10F30000DCF1812F81548A3108F036C1163409F4BA
:10F3100095C0173490F4133409F44EC0143430F40B
:10F320001134F1F0123409F01DC130C0143409F465
:10F3300059C0153409F016C16BC01A3409F4C4C0A1
:10F340001B3438F4173409F48FC0183409F00AC19B
:10F35000A1C01B3409F4D2C01C3409F003C1E8C0B9
:10F360008FEF81B90DC082B1809582B980E090E0C5
:10F37000E0EDF7E03197F1F70196883C9105C1F790
:10F380008091C00087FFEFCF12B8EFC08FEF84B934
:10F390000DC085B1809585B980E090E0E0EDF7E0A3
:10F3A0003197F1F70196883C9105C1F78091C00033
:10F3B00087FFEFCF15B8D9C08FEF87B90DC088B1DF
:10F3C000809588B980E090E0E0EDF7E03197F1F7C3
:10F3D0000196883C9105C1F78091C00087FFEFCF6F
:10F3E00018B8C3C08FEF8AB90DC08BB180958BB9A7
:10F3F00080E090E0E0EDF7E03197F1F70196883C8E
:10F400009105C1F78091C00087FFEFCF1BB8ADC059
:10F410008FEF8DB90DC08EB180958EB980E090E0F0
:10F42000E0EDF7E03197F1F70196883C9105C1F7DF
:10F430008091C00087FFEFCF1EB897C08FEF80BBD1
:10F440000DC081B3809581BB80E090E0E0EDF7E0F6
:10F450003197F1F70196883C9105C1F78091C00082
:10F4600087FFEFCF11BA81C08FEF83BB0DC084B38C
:10F47000809584BB80E090E0E0EDF7E03197F1F714
:10F480000196883C9105C1F78091C00087FFEFCFBE
:10F4900014BA6BC08FEF809301010FC080910201FD
:10F4A00080958093020180E090E0E0EDF7E03197F5
:10F4B000F1F70196883C9105C1F78091C00087FF64
:10F4C000EDCF1092020151C08FEF809304010FC065
:10F4D0008091050180958093050180E090E0E0ED4A
:10F4E000F7E03197F1F70196883C9105C1F78091DB
:10F4F000C00087FFEDCF1092050137C08FEF8093DA
:10F5000007010FC08091080180958093080180E079
:10F5100090E0E0EDF7E03197F1F70196883C910536
:10F52000C1F78091C00087FFEDCF109208011DC088
:10F530008FEF80930A010FC080910B01809580931B
:10F540000B0180E090E0E0EDF7E03197F1F70196F4
:10F55000883C9105C1F78091C00087FFEDCF1092E4
:10F560000B0103C085E292EEEEC98091C00087FFD7
:10F57000FCCF8091C600EAC988E392EEE4C98CE131
:10F5800091EEE1C988249924933011F1943028F444
:10F59000913089F09230B8F408C0953061F195301F
:10F5A000F0F0963009F048C043C02B3109F042C951
:10F5B00091E06BE13FC96227C15DDE4F2883CF52E6
:10F5C000D14092E037C9B22FA0E0622793E032C960
:10F5D000822F90E0A82BB92B622794E02BC92E3004
:10F5E00009F039C3622795E0C05DDE4F19821882A9
:10F5F000C053D1401FC9E1E0F0E0EC0FFD1FC05D3A
:10F60000DE4F08811981C053D140E00FF11F2083E4
:10F610000F5F1F4FC05DDE4F19830883C053D14079
:10F6200062270A171B0709F005C9D80196E002C92D
:10F63000261709F010C303C0973009F0FBC87724E0
:10F640009981933109F412C19431C8F4963009F4C8
:10F65000D8C0973050F4923009F406C1933009F4C1
:10F660006DC0913009F059C253C0913109F477C08F
:10F67000923108F0BBC0903109F04FC2F5C098310B
:10F6800009F487C0993150F4953109F4EFC09531F0
:10F6900008F4C6C1963109F040C2C2C19A3109F4DA
:10F6A0006CC09A3108F491C09B3109F45BC09D3164
:10F6B00009F033C29D81903359F48F81882311F46E
:10F6C0009EE11CC0813011F091E018C098E916C08D
:10F6D000892F807591F0903539F4E0E0F0E089E011
:10F6E0008093570094910AC0983539F4E3E0F0E034
:10F6F00089E080935700949101C090E01A821B82A8
:10F700008D818C831D829E831F8227E030E009C299
:10F710001A8288E08B8381E48C8386E58D8382E581
:10F720008E8389E48F8383E5888780E589878FE5E9
:10F730008A8782E38B872BE030E0F3C18A818139AD
:10F7400041F0823941F0803911F48FE005C080E04A
:10F7500003C082E001C08AE01A828B8344C0772410
:10F76000739482C08D81882311F48EE12CC0813086
:10F7700011F081E028C088E926C01A82E1E0F0E0BB
:10F7800089E08093570084918B831C8224E030E0D1
:10F79000C8C18B81803589F48C81883039F4E2E0EE
:10F7A000F0E089E08093570084910DC0E0E0F0E044
:10F7B00089E080935700849106C0E3E0F0E089E09F
:10F7C0008093570084911A82DFCF8D81836C99E0FA
:10F7D000E1E0F0E0082E90935700E89507B600FCB2
:10F7E000FDCF1A821B8223E030E09BC180EC8A832C
:10F7F000CE5CDE4F188219821A821B82C253D1401E
:10F800008EC18A8190E0A0E0B0E0582F44273327D2
:10F8100022278B8190E0A0E0B0E0DC0199278827C7
:10F82000282B392B4A2B5B2B8D8190E0A0E0B0E098
:10F83000282B392B4A2B5B2B8C8190E0A0E0B0E089
:10F84000BA2FA92F982F8827282B392B4A2B5B2BCF
:10F85000220F331F441F551FC05EDE4F288339839C
:10F860004A835B83C052D1401A8259C13A81C95C34
:10F87000DE4F3883C753D140CA5CDE4F1882C6536F
:10F88000D1408B81C82EDD24CA5CDE4F488159816E
:10F89000C653D140C42AD52A933109F082C0CE5C28
:10F8A000DE4F88819981AA81BB81C253D1408050AB
:10F8B000904CA340B04030F583E0CE5CDE4FE88052
:10F8C000F9800A811B81C253D140F70100935B008C
:10F8D00080935700E89507B600FCFDCFCE5CDE4F65
:10F8E000088119812A813B81C253D14000501F4FAA
:10F8F0002F4F3F4FCE5CDE4F088319832A833B8313
:10F90000C253D140C05EDE4F488159816A817B81FC
:10F91000C052D140DE011B9631E08C9111962C91A2
:10F9200011971296C75CDE4F2883C953D140C85C3B
:10F93000DE4F1882C853D14090E0C85CDE4FE881AA
:10F94000F981C853D1408E2B9F2B0C01FA01609393
:10F950005B0030935700E89511244E5F5F4F6F4F67
:10F960007F4F0EEFE02E0FEFF02ECE0CDF1CC114F8
:10F97000D10499F685E0C05EDE4F088119812A81A5
:10F980003B81C052D140F80120935B008093570027
:10F99000E89507B600FCFDCF81E180935700E8951C
:10F9A00035C0C05EDE4F88819981AA81BB81C0527B
:10F9B000D140B695A795979587957C018601ABE0D8
:10F9C000AA2EB12CAC0EBD1E0BC0D5016D915D01F0
:10F9D000C7010F947FFE0894E11CF11C01501040F8
:10F9E0000115110591F7A60160E070E0440F551F65
:10F9F000661F771FC05EDE4FE880F9800A811B8199
:10FA0000C052D1404E0D5F1D601F711F1A82C05E33
:10FA1000DE4F488359836A837B83C052D1407FC0C5
:10FA2000FA80C55CDE4FF882CB53D140C65CDE4F16
:10FA30001882CA53D1408B81C82EDD24C65CDE4FAC
:10FA400008811981CA53D140C02AD12A1A828981DA
:10FA5000BE016D5F7F4F843121F59601C05EDE4FA0
:10FA6000E880F9800A811B81C052D1400BBFF701A9
:10FA700087919691DB018C9311969C936E5F7F4FDB
:10FA8000D801C7010296A11DB11DC05EDE4F88835B
:10FA90009983AA83BB83C052D14022503040F1F6F3
:10FAA00036C0C05EDE4F288139814A815B81C052F9
:10FAB000D1400894C108D108760100E010E0089414
:10FAC000C11CD11C0894E11CF11C011D111DE20E8A
:10FAD000F31E041F151F21BDBB27A52F942F832FB5
:10FAE00082BD2F5F3F4F4F4F5F4FF89A80B5DB01CC
:10FAF0008D93BD012E153F054007510761F7C05E8C
:10FB0000DE4F288339834A835B83C052D1409601FC
:10FB10002D5F3F4FFB01108204C080EC8A8322E0FE
:10FB200030E08BE18093C6008091C00086FFFCCF5F
:10FB30008091C00080648093C000C15DDE4FF88179
:10FB4000CF52D140F093C6008091C00086FFFCCF19
:10FB50008091C00080648093C000432F3093C60022
:10FB60008091C00086FFFCCF8091C00080648093AC
:10FB7000C000922F2093C6008091C00086FFFCCF6A
:10FB80008091C00080648093C0008EE08093C600A6
:10FB90008091C00086FFFCCF8091C000806480937C
:10FBA000C00065E1C15DDE4FE880CF52D1406E25D7
:10FBB00069276427FE01319610C090819093C6009A
:10FBC0008091C00086FFFCCF31968091C000806498
:10FBD0008093C0006927215030402115310569F715
:10FBE0006093C6008091C00086FFFCCF8091C0006A
:10FBF00080648093C00085B1805885B9772081F4F6
:10FC0000C15DDE4F0881CF52D1400F5FC15DDE4F35
:10FC10000883CF52D14090E0A0E0B0E00D941AF4F8
:10FC200027982F9880E090E020ED37E0F901319798
:10FC3000F1F7019684369105C9F700008091C00064
:10FC40008D7F8093C00081E180935700E895EE2777
:10FC5000FF270994FFCF90E00D941AF497FB092E2B
:10FC600007260AD077FD04D02ED006D000201AF443
:10FC7000709561957F4F0895F6F7909581959F4F08
:10FC80000895A1E21A2EAA1BBB1BFD010DC0AA1FDD
:10FC9000BB1FEE1FFF1FA217B307E407F50720F0F5
:10FCA000A21BB30BE40BF50B661F771F881F991F70
:10FCB0001A9469F760957095809590959B01AC01B9
:10FCC000BD01CF010895AA1BBB1B51E107C0AA1FAC
:10FCD000BB1FA617B70710F0A61BB70B881F991FED
:10FCE0005A95A9F780959095BC01CD010895F99991
:10FCF000FECF92BD81BDF89A992780B50895262F31
:10FD0000F999FECF1FBA92BD81BD20BD0FB6F89400
:0EFD1000FA9AF99A0FBE01960895F894FFCF63
:00000001FF
