:100000000C9462000C948A000C948A000C948A0070
:100010000C948A000C948A000C948A000C948A0038
:100020000C948A000C948A000C948A000C948A0028
:100030000C948A000C948A000C948A000C948A0018
:100040000C94AC0D0C948A000C947A0D0C94540D05
:100050000C948A000C948A000C948A000C948A00F8
:100060000C94F60D0C948A00000000002400270078
:100070002A0000000000250028002B0000000000DE
:1000800023002600290004040404040404040202DA
:100090000202020203030303030301020408102007
:1000A0004080010204081020010204081020000012
:1000B0000008000201000003040700000000000027
:1000C0000000210F11241FBECFEFD8E0DEBFCDBF4F
:1000D00011E0A0E0B1E0E0E3FEE202C005900D9285
:1000E000A43DB107D9F724E0A4EDB1E001C01D9211
:1000F000A139B207E1F710E0C2E6D0E004C02197D1
:10010000FE010E940B17C136D107C9F70E942210C9
:100110000C9416170C940000E0912203F091230335
:10012000309719F08DE593E0099580915E03823F49
:1001300009F4BAC090F5803C09F499C0B8F480394C
:1001400009F44FC040F4E0912603F0912703803872
:1001500009F44BC00895803A09F484C0E0912C035F
:10016000F0912D03803B09F440C00895803E09F4CE
:1001700062C040F4E0913003F0913103803D09F416
:100180007AC00895803F09F47DC0E0913603F09174
:100190003703813F09F49BC008958A3FC1F1A8F459
:1001A000863F09F499C040F4E0913A03F0913B0393
:1001B000833F09F48CC00895883F09F1E091420320
:1001C000F0914303893FF9F008958C3F51F120F1FC
:1001D0008E3F61F1E0914A03F0914B038F3F99F01C
:1001E0000895E0912803F0912903309709F479C02C
:1001F0004091600360915F0380915D030994E091F9
:100200003E03F0913F03309709F46BC00994E091ED
:100210004003F0914103F7CFE0914403F09145038F
:10022000F2CFE0914603F0914703EDCFE091480310
:10023000F0914903E8CFE0913203F0913303309716
:1002400009F44FC06091600320E8629FB00111245F
:1002500060787F7380915F038F77682B70528091F5
:100260005D030994E0912A03F0912B03BECFE09146
:100270002E03F0912F033097A1F160915F038091DD
:100280005D030994E0913403F0913503309749F10F
:1002900060915F03709160036138710510F060E850
:1002A00070E081E693E00994E0913803F09139031E
:1002B0003097B9F08091600320E8829FC00111243B
:1002C00080789F7320915F032F77822B099430975A
:1002D00041F080915F030994E0913C03F0913D036C
:1002E00092CF0895AF92BF92CF92DF92EF92FF929A
:1002F0000F931F93CF93DF936C017B018B01040F4E
:10030000151FEB015E01AE18BF08C017D10759F0E9
:100310006991D601ED91FC910190F081E02DC6012B
:100320000995892B79F7C501DF91CF911F910F9125
:10033000FF90EF90DF90CF90BF90AF900895FC01B9
:10034000538D448D252F30E0842F90E0821B930B3A
:10035000541710F0CF96089501970895FC01918DE0
:10036000828D981761F0A28DAE0FBF2FB11D5D96E3
:100370008C91928D9F5F9F73928F90E008958FEF85
:100380009FEF0895FC01918D828D981731F0828D39
:10039000E80FF11D858D90E008958FEF9FEF089590
:1003A000FC01918D228D892F90E0805C9F4F821BF4
:1003B00091098F739927089582EF93E00E94D001ED
:1003C00021E0892B09F420E0822F089580E090E05D
:1003D000892B29F00E94DC0181110C940000089502
:1003E000FC01A48DA80FB92FB11DA35ABF4F2C91AA
:1003F000848D90E001968F739927848FA689B789A1
:100400002C93A089B1898C91837080648C93938D97
:10041000848D981306C00288F389E02D80818F7D3A
:1004200080830895EF92FF920F931F93CF93DF93F2
:10043000EC0181E0888F9B8D8C8D98131AC0E88920
:10044000F989808185FF15C09FB7F894EE89FF89EF
:100450006083E889F98980818370806480839FBF8D
:1004600081E090E0DF91CF911F910F91FF90EF908D
:100470000895F62E0B8D10E00F5F1F4F0F7311279D
:10048000E02E8C8D8E110CC00FB607FCFACFE889D8
:10049000F989808185FFF5CFCE010E94F001F1CF6F
:1004A000EB8DEC0FFD2FF11DE35AFF4FF0829FB74C
:1004B000F8940B8FEA89FB8980818062CFCFCF933C
:1004C000DF93EC01888D8823B9F0AA89BB89E8897C
:1004D000F9898C9185FD03C0808186FD0DC00FB622
:1004E00007FCF7CF8C9185FFF2CF808185FFEDCFA0
:1004F000CE010E94F001E9CFDF91CF9108958330C2
:1005000081F028F4813099F08230A9F00895873085
:10051000A9F08830C9F08430B1F4809180008F7DDB
:1005200003C0809180008F7780938000089584B508
:100530008F7784BD089584B58F7DFBCF8091B00007
:100540008F778093B00008958091B0008F7DF9CFB0
:10055000CF93DF93282F30E0F901E255FF4F8491CC
:10056000F901E656FF4FD491F901EA57FF4FC491C4
:10057000CC23A1F081110E947F02EC2FF0E0EE0F5E
:10058000FF1FE458FF4FA591B491EC91ED2381E05A
:1005900090E009F480E0DF91CF91089580E090E051
:1005A000FACF1F93CF93DF93282F30E0F901E25564
:1005B000FF4F8491F901E656FF4FD491F901EA57B4
:1005C000FF4FC491CC23A9F0162F81110E947F0206
:1005D000EC2FF0E0EE0FFF1FEE58FF4FA591B49106
:1005E0008FB7F894EC91111108C0D095DE23DC93FD
:1005F0008FBFDF91CF911F910895DE2BF8CFCF935E
:10060000DF9390E0FC01E656FF4F24918A579F4FFD
:10061000FC0184918823C9F090E0880F991FFC01A8
:10062000E859FF4FA591B491FC01EE58FF4FC591D9
:10063000D49161110DC09FB7F8948C9120958223BD
:100640008C938881282328839FBFDF91CF910895C1
:10065000623051F49FB7F8943C91822F80958323A8
:100660008C93E8812E2BEFCF8FB7F894EC912E2B43
:100670002C938FBFEACF3FB7F89480916E02909190
:100680006F02A0917002B091710226B5A89B05C0BF
:100690002F3F19F00196A11DB11D3FBFBA2FA92F01
:1006A000982F8827BC01CD01620F711D811D911DFE
:1006B00042E0660F771F881F991F4A95D1F708956A
:1006C0008F929F92AF92BF92CF92DF92EF92FF9262
:1006D0000E943B034B015C0184E6C82ED12CE12C27
:1006E000F12C0E943B03681979098A099B09683E2D
:1006F000734081059105A8F321E0C21AD108E108F1
:10070000F10888EE880E83E0981EA11CB11CC1146C
:10071000D104E104F10429F7FF90EF90DF90CF902E
:10072000BF90AF909F908F9008952FB7F8946091ED
:100730006A0270916B0280916C0290916D022FBFE2
:10074000089508951F93CF93DF93C1E0C093D5011F
:10075000882399F1D091B8001091BA008091BC0023
:100760008A7B8093BC0060E082E10E94D10260E05D
:1007700083E10E94D10210923F02C0933E02109288
:10078000190261E082E10E94D10261E083E10E94EE
:10079000D1028091B9008E7F8093B9008091B90019
:1007A0008D7F8093B90088E48093B80085E48093BE
:1007B000BC001093BA00D093B800DF91CF911F9185
:1007C00008952091F601260F3327331F213231057A
:1007D000ECF420913F02FC0190E080E0243069F0CD
:1007E00082E00895A091F6012191AC014A525E4F3A
:1007F000A40FB52FB11D2C930196861798F3809105
:10080000F601680F6093F60180E0089581E0089595
:1008100008958FEF9FEF08958FEF9FEF08958091D8
:10082000D40190E09195819591090895CF92DF923E
:10083000EF92FF920F931F93CF93DF937C01CB0135
:100840008A0120914502222389F0EB016B01C40E3D
:10085000D51ECC15DD0569F06991D701ED91FC91AC
:100860000190F081E02DC7010995F3CF642F0E941C
:10087000E103C801DF91CF911F910F91FF90EF909D
:10088000DF90CF900895CF93DF931F92CDB7DEB75F
:100890006983209145022223F9F0209168022032D9
:1008A00058F021E030E0FC013383228390E080E0C7
:1008B0000F90DF91CF91089580914602E82FF0E0EC
:1008C000E95BFD4F998190838F5F8093460280930F
:1008D000680281E090E0ECCF61E0CE0101960E94D9
:1008E000E103F7CFCF92DF92EF92FF920F931F9326
:1008F000CF93DF93FC01C48121E020934502C09394
:10090000670210924602109268028385682B85E880
:1009100092E00E944304D0916802D13208F092C064
:100920000E943B036B017C0180913F02811165C0F5
:1009300082E080933F0281E080933E028FEF8093BC
:100940003D0210923C02D0933B02A7E4B2E0EBE1FF
:10095000F2E080E0D81385C010921A0280911A024A
:10096000CC0FC82BC0931A0280911902813009F074
:100970007CC0109219020E943B036B017C018091A4
:100980001A028093BB008091410290914202A09193
:100990004302B0914402892B8A2B8B2B99F00E9441
:1009A0003B03009141021091420220914302309199
:1009B00044026C197D098E099F090617170728073D
:1009C0003907E0F18091BC0083FDD9CF85EC80939D
:1009D000BC000E943B036B017C0180913F0282308E
:1009E00009F445C080913D028F3F61F180913D0245
:1009F000803241F180913D0225C080914102909169
:100A00004202A0914302B0914402892B8A2B8B2B86
:100A100009F48ACF0E943B030091410210914202E7
:100A200020914302309144026C197D098E099F097F
:100A3000061717072807390708F076CF809140027C
:100A40000E94A20310924602109268021092450280
:100A5000DF91CF911F910F91FF90EF90DF90CF909A
:100A600008959D9191938F5F75CF85EEB0CF809162
:100A7000410290914202A0914302B0914402892B1D
:100A80008A2B8B2B09F4A9CF0E943B0300914102D2
:100A90001091420220914302309144026C197D0969
:100AA0008E099F09061717072807390708F095CF01
:100AB000C5CF90E080E0089587FF0AC09CE0980FC2
:100AC000923030F08D3F21F0803F18F4807F089500
:100AD00080E00895982F9F7E282F2F7C203839F0B2
:100AE000803E29F081E0903C19F080E0089581E09B
:100AF0000895DC018D919C91DC01ED91FC910190B8
:100B0000F081E02D09941F93CF93DF932150203182
:100B100018F587FF21C0D42F162FC82F622F682BFE
:100B200080914C0390914D030E947905612F6F775E
:100B300080914C0390914D030E947905CF7EC03C7B
:100B400059F06D2F6F7780914C0390914D03DF9199
:100B5000CF911F910C947905DF91CF911F9108954A
:100B6000242F462F682F80EB0C948305262F40E01E
:100B7000682F80EC0C9483056D3F48F46A3F10F4B5
:100B8000683F39F4FC01808191810C9479056E3FB6
:100B9000C8F70895813E10F40C948305883F28F02F
:100BA000682F8CE493E00C94BC050895CF93DF93F9
:100BB000C6E2D1E060E089910E94D10281E0CD32AD
:100BC000D807C1F7DF91CF9108950F931F93CF936B
:100BD00009E211E0C0E0F80181918F0190911001CC
:100BE0009C130CC061E00E94D102C0931001CF5F42
:100BF000C43089F7CF911F910F91089560E00E9452
:100C0000D102F5CF0F931F93CF9390917E02933033
:100C100069F5C82F0E94950300917A0210917B021A
:100C200020917C0230917D02601B710B820B930B33
:100C30006A3F710581059105C8F0EC2FF0E0EA5D8F
:100C4000FE4FC0818C2F0E94A80261E0892B09F021
:100C500060E08C2F0E94D1020E94950360937A027B
:100C600070937B0280937C0290937D02CF911F91C1
:100C70000F9108950F931F9380917E028230D9F5D2
:100C80000E94950300917A0210917B0220917C02D0
:100C900030917D02AB01BC01401B510B620B730B09
:100CA0008091040190910501092E000CAA0BBB0B49
:100CB000481759076A077B07F0F089E00E94A802ED
:100CC00061E0892B09F060E089E00E94D1028DE0AB
:100CD0000E94A80261E0892B09F060E08DE00E948B
:100CE000D1020E94950360937A0270937B028093F5
:100CF0007C0290937D021F910F910895862F642F9F
:100D00000C94FF02FC0181890E94A80221E0892B3A
:100D100009F420E0822F0895CF92DF92EF92FF92A4
:100D20000F931F93CF93DF93EC0188858B7F888788
:100D3000CE010E948206182F88858695817018172B
:100D4000B9F00E9495036A837B838C839D83888599
:100D500092E089278887888582FB882780F9DF9140
:100D6000CF911F910F91FF90EF90DF90CF9008955A
:100D70000E949503CA80DB80EC80FD80AB01BC0142
:100D80004C195D096E097F098E819F81B0E0A0E05A
:100D9000481759076A077B07F0F288858170181792
:100DA000D1F20E9495036A837B838C839D8388851F
:100DB00091E08927846088870E94950309851A85B8
:100DC0002B853C85601B710B820B930B6D877E8797
:100DD0008F87988B0E94950369877A878B879C877A
:100DE000BACFCF93DF93EC0118860E948206882346
:100DF00019F08885836088870E9495036A837B83C6
:100E00008C839D83DF91CF9108958F929F92AF92B3
:100E1000BF920F931F93CF93DF93CDB7DEB7A19708
:100E20000FB6F894DEBF0FBECDBF19A2423008F452
:100E30004AE08E010F5D1F4F842E912CB12CA12C06
:100E4000A50194010E94E916E62FB901CA01EA3012
:100E500044F5E05DD801EE938D01232B242B252B47
:100E600079F790E080E0109769F0FD010190002093
:100E7000E9F73197AF014A1B5B0BBD0186E193E0B7
:100E80000E947201A1960FB6F894DEBF0FBECDBFCF
:100E9000DF91CF911F910F91BF90AF909F908F9056
:100EA0000895E95CD7CFFC0101900020E9F7319764
:100EB000AF01481B590BBC0186E193E00C94720111
:100EC0000F931F93CF938C01C62F64600E9472040E
:100ED0006C2F6B7FC8010E94720483EC90E0019735
:100EE000F1F7CF911F910F910895FF920F931F93E8
:100EF000CF93DF938C01D62FC42F862F807FF82EBF
:100F0000F42A6F2DC8010E9472046F2DC8010E943F
:100F1000600780E1D89FB0011124C62B6C2FC80157
:100F20000E9472046C2FC801DF91CF911F910F9125
:100F3000FF900C946007CF93DF93CDB7DEB728976F
:100F40000FB6F894DEBF0FBECDBF98E0E1E1F1E04F
:100F5000DE01119601900D929A95E1F790911E0392
:100F6000961708F46FEF262F30E0220F331F41E071
:100F700050E04C0F5D1F240F351FF9016081680F91
:100F8000606840E086E193E028960FB6F894DEBFF3
:100F90000FBECDBFDF91CF910C94750740E061E0AB
:100FA00086E193E00E9475078BE39FE10197F1F7DB
:100FB000089541E00E94750781E090E00895CF9286
:100FC000DF92EF92FF926C01990FEE08FF08F7FE97
:100FD00016C041E06DE286E193E00E947507662746
:100FE0007727CB016C197D098E099F094AE00E9481
:100FF00005070196FF90EF90DF90CF9008954AE0AB
:10100000C701B601FF90EF90DF90CF900C940507D9
:10101000CF93DF9380917E0281117FC00E94CE0723
:1010200060E081E00E949B0785E691E00E94530703
:10103000C0917802D0917902CA30D10520F461E0E4
:1010400084E00E949B07CE010A978A35910520F41F
:1010500061E083E00E949B07CE01845691098438A9
:10106000934020F461E082E00E949B07CE010E9441
:10107000DF0760E089E00E949B078AE691E00E941A
:10108000530761E08BE00E949B078091100180383C
:1010900021F481E791E00E945307809110018111B2
:1010A00004C083E791E00E945307809110018130D2
:1010B00021F485E791E00E9453078091100182306E
:1010C00021F487E791E00E9453078091100183305B
:1010D00021F489E791E00E94530760E086E00E94D6
:1010E0009B078BE791E00E94530761E086E00E9436
:1010F0009B078BE791E00E94530760E087E00E9426
:101100009B078BE791E00E94530761E087E00E9414
:101110009B078BE791E00E94530780917E0281300C
:1011200091F40E94CE0760E083E00E949B078DE768
:1011300091E00E94530761E080E00E949B0788E8ED
:1011400091E00E94530780917E02823009F010C125
:101150000E94CE0760E080E00E949B0789E991E051
:101160000E94530761E083E00E949B078091720216
:10117000909173028A30910510F40E94DF078091EC
:101180007202909173020A978A30910510F40E94BE
:10119000DF07809172029091730244978A30910523
:1011A00010F40E94DF0780917202909173024E97B3
:1011B0008A30910510F40E94DF07809172029091AD
:1011C000730288978A30910510F40E94DF0780919E
:1011D000720290917302C2978A30910510F40E94B6
:1011E000DF078091720290917302CC978A3091054B
:1011F00010F40E94DF07809172029091730286546E
:1012000091098A30910510F40E94DF0780917202E3
:1012100090917302805591098A30910510F40E94D3
:10122000DF0780917202909173028A5591098A308A
:10123000910510F40E94DF0760E08BE00E949B079D
:1012400081EA91E00E94530761E08DE00E949B07D4
:1012500080917202909173020A9720F483E791E0E3
:101260000E94530780917202909173020A970A9725
:1012700020F485E791E00E945307809172029091DB
:10128000730244970A9720F487E791E00E9453077E
:1012900080917202909173024E970A9720F489E729
:1012A00091E00E9453078091720290917302889797
:1012B0000A9720F487EA91E00E9453078091720216
:1012C00090917302C2970A9720F489EA91E00E94F4
:1012D00053078091720290917302CC970A9720F481
:1012E0008BEA91E00E945307809172029091730201
:1012F000865491090A9720F48DEA91E00E945307E1
:101300008091720290917302805591090A9720F49E
:101310008FEA91E00E9453078091720290917302CC
:101320008A5591090A9720F481EB91E00E945307B6
:1013300060E088E00E949B078BE791E00E945307E2
:1013400061E088E00E949B078BE791E00E945307D1
:1013500060E089E00E949B078BE791E00E945307C1
:1013600061E089E00E949B078BE791E00E945307B0
:1013700080917E02833009F092C00E94CE0760E027
:1013800080E00E949B0783EB91E00E94530761E09D
:1013900087E00E949B0780910001909101010C97CA
:1013A00021F484EC91E00E94530780910001909118
:1013B0000101892B21F487E791E00E945307809176
:1013C000000190910101019721F484EC91E00E94C9
:1013D00053078091000190910101029721F489E760
:1013E00091E00E94530780910001909101010397C1
:1013F00021F487EC91E00E945307809100019091C5
:101400000101049721F487EA91E00E94530780913B
:10141000000190910101059721F489EA91E00E9471
:1014200053078091000190910101069721F48AEC05
:1014300091E00E945307809100019091010107976C
:1014400021F48BEA91E00E94530780910001909172
:101450000101089721F48DEC91E00E9453078091DF
:10146000000190910101099721F483E791E00E9426
:10147000530780910001909101010A9721F480EDBA
:1014800091E00E94530780910001909101010B9718
:1014900031F485E791E0DF91CF910C945307DF9110
:1014A000CF910895AF92BF92DF92EF92FF920F9388
:1014B0001F93CF93DF93062F142F80917E028130EC
:1014C00049F589E1E82E81E0F82EC1E0D0E0DD2485
:1014D000D394F70181917F01801318C01F3709F061
:1014E00081C0CE0182589D4F5C01FC01808181301A
:1014F00069F461E0FE01EA5DFE4F80810E94D10245
:10150000F5011082FE01E75FFE4F10822196C73081
:10151000D105F9F680917E02813041F1E9E1F1E0F7
:1015200021E030E091E04191401307C01F3709F0FE
:1015300071C0D901A75FBE4F1C922F5F3F4F27306C
:10154000310589F7811112C0802F8F7D09F040C0CD
:10155000812F90E090937902809378020E94E505B4
:101560000E94080880917E02882391F1902F9F7D30
:10157000B1F4609178029091790230E020E0412F3F
:1015800050E04217530711F4642F952F2F5F3F4F00
:1015900024363105B1F76093780290937902833055
:1015A000B9F40B37A9F4111113C08CE090E09093BB
:1015B0000101809300010E940808C6E2D1E00DE21B
:1015C00011E060E089910E94D1020C171D07C9F754
:1015D000DF91CF911F910F91FF90EF90DF90BF901F
:1015E000AF900895111192CFCE0182589D4F5C01AA
:1015F000FC01808181118ACF60E0FE01EA5DFE4F2F
:1016000080810E94D102F501D082FE01E75FFE4F8A
:10161000D0827CCF111191CFD901A75FBE4F9C938F
:101620008CCFCF93DF93C62F80917E02811109C0AA
:10163000D4E0C09310010E94E5050E940808D15033
:10164000C1F780917E02882379F080911001CC232C
:1016500021F0C13029F481E001C080E0C82F02C030
:10166000C23029F4C0931001DF91CF910895C330A7
:10167000A9F7F8CFDF92EF92FF920F931F93CF93CA
:10168000DF9380917E02811112C00E94D6050E94D4
:1016900008080E94E50541E060E086E7DF91CF9110
:1016A0001F910F91FF90EF90DF900C94B005813067
:1016B000A9F50E94D6050E94080861E089E00E9411
:1016C000D10241E060E086E70E94B0050AE011E047
:1016D00087E2E82E81E0F82ECEE7D2E0DD24D39435
:1016E000F80191918F01F70181917F01911111C052
:1016F00061E00E94D10219822196F1E000311F07BA
:1017000079F7DF91CF911F910F91FF90EF90DF90CC
:10171000089560E00E94D102D982EECF823089F430
:101720000E94D6050E9408088091060161E0882386
:1017300021F0813009F0AFCF60E08CE00E94D1024F
:10174000AACF8330F1F60E94D60541E06FE786E725
:101750000E94B005DF91CF911F910F91FF90EF9004
:10176000DF900C940808CF93C0917E02C11113C082
:1017700083E08093100141E06091780280E00E9454
:10178000B00561E0809110010E94B6050E94080832
:10179000CF910C94E505C13019F580918402813018
:1017A00079F441E06FE788E30E94B00561E08FE0E3
:1017B0000E94D1021092840210920F01CF910895DD
:1017C0008111FCCF41E060E088E30E94B00560E059
:1017D0008FE00E94D102C0938402C0930F01EECF2C
:1017E000C23061F780910901813091F442E06FE7E6
:1017F00088E30E94B00561E08FE00E94D1020E9460
:10180000600360E08FE00E94D10210920901D6CF00
:101810008111D4CF42E060E088E30E94B00561E02E
:101820008FE00E94D1020E94600360E08FE00E947E
:10183000D10281E080930901C1CFCF93C0917E0294
:10184000C11113C082E08093100141E060917802E1
:1018500080E00E94B00561E0809110010E94B60511
:101860000E940808CF910C94E505C13019F58091CC
:101870008302813079F441E06FE787E30E94B0058D
:1018800061E08EE00E94D1021092830210920E015C
:10189000CF9108958111FCCF41E060E087E30E9481
:1018A000B00560E08EE00E94D102C0938302C09335
:1018B0000E01EECFC23061F780910801813061F4F2
:1018C00042E06FE787E30E94B00561E08EE00E948E
:1018D000D10210920801DCCF8111DACF42E060E042
:1018E00087E30E94B00560E08EE00E94D10281E0B3
:1018F00080930801CDCFFF920F931F93CF93DF9377
:1019000080917E02833009F071C0C42FF62E4531DC
:1019100008F072C081E00E9402068BEE8C0F8431C9
:1019200008F06FC082E00E94020687ED8C0F8531BF
:1019300008F06CC083E00E94020682EC8C0F61E02C
:10194000833008F060E089E00E94D1028FEB8C0FB9
:10195000863108F060C084E00E94020689EA8C0F9C
:10196000843108F05DC085E00E940206CB56C53187
:1019700008F05BC086E00E940206D0E0C0E00F2DB8
:1019800010E0FC1649F1CE010C960817190721F159
:101990000C960817190701F10C9608171907E1F0C2
:1019A0000C9608171907C1F00C9608171907A1F033
:1019B0000C960817190781F00C960817190761F0A3
:1019C0000C960817190741F00C960817190721F013
:1019D0000C960817190731F4D0930101C093000148
:1019E0000E9408082196CC30D10559F6DF91CF919D
:1019F0001F910F91FF90089560E08AE00E94D1024C
:101A00008CCF60E08BE00E94D1028FCF60E08CE051
:101A10000E94D10292CF60E08DE00E94D1029ECF61
:101A200060E08EE00E94D102A1CF60E08FE00E94D2
:101A3000D102A3CF0E94111785ED8093BC00809145
:101A4000410290914202A0914302B0914402079654
:101A5000A11DB11D23E0B695A795979587952A9569
:101A6000D1F72091BC0024FD03C010923F020895DD
:101A700040914102509142026091430270914402B0
:101A8000452B462B472B69F30097A105B10541F083
:101A900025E32A95F1F700000197A109B109E1CFEB
:101AA000809140020C94A2031F920F920FB60F92E6
:101AB00011242F933F934F935F936F937F938F9353
:101AC0009F93AF93BF93EF93FF9382EF93E00E94B6
:101AD000F001FF91EF91BF91AF919F918F917F9115
:101AE0006F915F914F913F912F910F900FBE0F908B
:101AF0001F9018951F920F920FB60F9211242F93DB
:101B00008F939F93EF93FF93E0910204F09103046E
:101B10008081E0910804F091090482FD1BC090814E
:101B200080910B048F5F8F7320910C04821741F01A
:101B3000E0910B04F0E0EE50FC4F958F80930B0486
:101B4000FF91EF919F918F912F910F900FBE0F906A
:101B50001F9018958081F4CF1F920F920FB60F92AD
:101B600011242F933F938F939F93AF93BF938091B3
:101B70006A0290916B02A0916C02B0916D0230915B
:101B8000690223E0230F2D3758F50196A11DB11DE1
:101B90002093690280936A0290936B02A0936C0277
:101BA000B0936D0280916E0290916F02A0917002CD
:101BB000B09171020196A11DB11D80936E029093A8
:101BC0006F02A0937002B0937102BF91AF919F9189
:101BD0008F913F912F910F900FBE0F901F901895EE
:101BE00026E8230F0296A11DB11DD2CF1F920F929E
:101BF0000FB60F9211242F933F934F935F936F93E0
:101C00007F938F939F93AF93BF93EF93FF938091B5
:101C1000B900887F803609F44AC0F0F5883209F4AB
:101C2000A5C018F5803109F499C0B8F4882309F4E7
:101C3000F5C0883009F492C0FF91EF91BF91AF9148
:101C40009F918F917F916F915F914F913F912F91D4
:101C50000F900FBE0F901F901895883109F486C021
:101C6000803251F780933D0214C0803409F49BC048
:101C700040F48033B9F38833F9F680933D0285EC64
:101C8000AEC0803509F483C0883509F494C0883427
:101C900099F60E941C0DD0CF883909F48AC038F516
:101CA000883729F050F4883611F0803729F683E020
:101CB00080933F021092180255C0883809F479C009
:101CC000803919F0803809F0B7CF8091180280323E
:101CD00008F06FC0E091180281E08E0F8093180227
:101CE0008091BB00F0E0E850FE4F80833BC0803B1A
:101CF00039F0D0F4803A09F477C0883A09F09CCFE3
:101D000084E080933F021092F7011092F601F0E018
:101D1000E0E009958091F60181110FC081E0809388
:101D2000F6011092D60109C0803C09F4A8CF883C86
:101D300009F4A5CF883B09F07FCFE091F70181E05E
:101D40008E0F8093F701F0E0EA52FE4F808180937E
:101D5000BB009091F7018091F60129C080911A0291
:101D60008093BB0085EC8093BC0066CF90913C02D1
:101D700080913B02981758F5E0913C0281E08E0F6C
:101D800080933C02F0E0E55EFD4F8081E9CFE09179
:101D90003C0281E08E0F80933C028091BB00F0E01A
:101DA000E55EFD4F808390913C0280913B02981745
:101DB000C8F285E8D8CFE0913C0281E08E0F809395
:101DC0003C028091BB00F0E0E55EFD4F8083809196
:101DD0003E0281115ECF81E08093190284EA8093F4
:101DE000BC0010923F0228CF85EC8093BC0010927B
:101DF0003F0280911802803230F4E0911802F0E046
:101E0000E850FE4F10826091180270E088EF91E078
:101E1000F0E0E0E00995109218020ECF10923D021A
:101E200038CFFC0112821382148215828AE090E07E
:101E300097838683108685E591E091838083118A5C
:101E400008950F931F93CF93E2EFF3E01382128272
:101E500048EE53E060E070E0448355836683778307
:101E600081E391E09183808385EC90E0958784877E
:101E700084EC90E09787868780EC90E0918B808B54
:101E800081EC90E0938B828B82EC90E0958B848B3D
:101E900086EC90E0978B868B118E128E138E148EAB
:101EA000A5E8B2E013961C921E92129714964D93D9
:101EB0005D936D937C93179783E491E08D939C934E
:101EC000F0939004E0938F04E2E2F3E01182108239
:101ED000138212821582148217821682118610864E
:101EE000138612861586148617861686118A108A1E
:101EF000138A128A158A148A178A168A118E108EEE
:101F0000138E128E158E148E178E168E11A210A29D
:101F100013A212A215A214A217A216A211A610A60D
:101F20008FE894E093A782A714A615A616A613AA75
:101F300012AA15AA14AA8FEF9FEF97AB86AB91AFA9
:101F400080AF83E080935C0313AE14AE15AE16AE83
:101F50001092E103E1E6F3E080E8DF011D928A954B
:101F6000E9F71092E4031092E5031092E603109251
:101F7000E7031092E8031092E9031092EA0310922B
:101F8000EB031092EC031092ED031092EE0310920B
:101F9000EF031092F0031092F103E6E1F3E01382F5
:101FA00012828DE591E09183808387E2848380E1D2
:101FB000818782E08287138683E093E00E94110F7D
:101FC000E3E0F3E005E511E011830083C1E0C28B9B
:101FD00080EF92E00E94110FE0EFF2E011830083A6
:101FE000C28B8DED92E00E94110FEDEDF2E01183B6
:101FF0000083C28B8AEC92E00E94110FEAECF2E0BF
:1020000011830083C28B87EB92E00E94110FE7EBF4
:10201000F2E011830083C28B84EA92E00E94110FE8
:10202000E4EAF2E011830083C28B81E992E00E942E
:10203000110FE1E9F2E011830083C28BCF911F9170
:102040000F910895CF93DF9300D01F92CDB7DEB7E5
:10205000789484B5826084BD84B5816084BD85B583
:10206000826085BD85B5816085BD80916E0081608F
:1020700080936E0010928100809181008260809335
:102080008100809181008160809381008091800037
:102090008160809380008091B10084608093B10062
:1020A0008091B00081608093B00080917A0084605C
:1020B00080937A0080917A00826080937A00809188
:1020C0007A00816080937A0080917A0080688093A2
:1020D0007A001092C100E0914C03F0914D03019001
:1020E000F081E02DA089B18922E02C93A485B585EB
:1020F0001C92A685B7858FE38C93108EA489B58931
:1021000036E03C93A289B3898C9180618C93A2893B
:10211000B3898C9188608C93A289B3898C918068F3
:102120008C930288F389E02D80818F7D80831092CB
:102130004E031092500310924F03109257031092C7
:10214000560310925503109254038FEF9FEF909314
:1021500059038093580390935B0380935A030E9422
:1021600095036093E4037093E5038093E6039093F3
:10217000E7031092E10310925E0310925D03109248
:102180005F03109260031092E3031092E2038091C8
:102190005C0381708260816080935C03E091020443
:1021A000F091030442E04083E091FE03F091FF03CD
:1021B0001082E0910004F091010480E1808310928C
:1021C0000A04E0910604F091070486E08083E09120
:1021D0000404F0910504808180618083E09104040F
:1021E000F0910504808188608083E0910404F0917F
:1021F0000504808180688083E0910404F0910504E7
:1022000080818F7D808382E59AE090932D03809377
:102210002C0381E19BE090932F0380932E038BE7A7
:102220009CE0909329038093280310925C03A6E21C
:10223000B1E0BB83AA8361E0EA81FB818191FB83EA
:10224000EA830E94FF022A813B812D52314099F797
:102250000FE111E062E0D8018D918D010E94FF0233
:10226000B1E006321B07B1F782E08093A20281E958
:1022700092E00E94F10609E110E0109398020093A9
:1022800097021092A30283E08093140383E093E00B
:102290000E94F10610930A030093090384E08093DF
:1022A000010380EF92E00E94F1061093F702009381
:1022B000F6021092020385E08093EE028DED92E02B
:1022C0000E94F1061093E4020093E3021092EF02E1
:1022D00086E08093DB028AEC92E00E94F106109384
:1022E000D1020093D0021092DC0287E08093C802F2
:1022F00087EB92E00E94F1061093BE020093BD02AC
:102300001092C90288E08093B50284EA92E00E94AC
:10231000F1061093AB020093AA021092B60241E0BC
:1023200060E080E00E94B00561E080E00E94B605B8
:1023300040E8442E512C52E0A52EB12CEE24E3941B
:10234000F12C73E6872E912C7724739420E8622E6B
:1023500030EF332EE0914E03E983E13108F07AC08B
:10236000E0914C03F0914D0380819181DC01ED916E
:10237000FC910084F185E02D0995892B09F46AC050
:102380008091F1038E7F8093F103E0914C03F091F3
:102390004D0380819181DC01ED91FC910284F385F4
:1023A000E02D0995182F8D3F09F454C080915603F4
:1023B00090915703009709F0D9C1109351030091F0
:1023C0004F03802F0E945C050E946A05882351F00C
:1023D00017FD08C00093510310935203F092570366
:1023E000E092560310915103812F0E945C05813FBA
:1023F00009F489C108F020C1803B39F068F48039C4
:1024000021F0803A11F0803879F4E3E0F0E0F093C5
:102410005503E09354037BC1803D09F474C108F077
:10242000FCC0803C09F46FC18091F103816080930E
:10243000F103E0912403F0912503309709F0099509
:1024400010925703109256031092550310925403A2
:1024500010924F0381E992E00E948C0680919902CC
:1024600082FF0FC081709091A30298130AC08091DF
:102470007E028F5F843008F0CBC280937E020E9480
:102480003A0B83E093E00E948C0680910B038570E9
:10249000853091F48091100390911103A091120363
:1024A000B09113038D3B9240A105B10508F4B3C26E
:1024B00010927E020E943A0B80EF92E00E948C06FE
:1024C0008091F8028570853091F48091FD029091A1
:1024D000FE02A091FF02B09100038D3B9240A10546
:1024E000B10508F4FCC270927E020E943A0B8DED99
:1024F00092E00E948C068091E5028570853099F407
:102500008091EA029091EB02A091EC02B091ED0271
:102510008D3B9240A105B10508F447C382E080934A
:102520007E020E943A0B8AEC92E00E948C06809117
:10253000D2028570853099F48091D7029091D802AB
:10254000A091D902B091DA028D3B9240A105B1056C
:1025500008F4A2C383E080937E020E943A0B87EBCB
:1025600092E00E948C068091BF028570853011F444
:102570000E941D0C84EA92E00E948C068091AC02BD
:102580008570853011F40E94B30B80917E02811119
:1025900035C080911001803889F50E949503009123
:1025A0007A0210917B0220917C0230917D02601BA7
:1025B000710B820B930B643F714081059105F0F024
:1025C00009E211E0D801DD908D018D2D0E94A80255
:1025D00061E0892B09F060E08D2D0E94D102EA8133
:1025E000FB81E017F10771F70E94950360937A026F
:1025F00070937B0280937C0290937D020E943A0646
:1026000020E030E0232B09F4A5CE0E94DC018823D2
:1026100009F49ACE0E94000097CE803E09F4F5CED0
:10262000803F09F001CF509255034092540310921D
:102630004F03809361036BC0873FA9F308F05CC030
:10264000833F09F460C008F4E0CE863F09F0ECCE89
:1026500080935E0310925D0310925F0310926003FB
:102660007092E10310925703109256031092550393
:102670001092540380915E03803931F4809160039D
:10268000811102C060925E0380915E0380588136A2
:1026900038F480915D033981381711F0311102C08F
:1026A0000E948C0090915C03392F317090FFD2CE44
:1026B000892F8E7F09F4CECE80915E0320E8280F0B
:1026C000213608F020C120915D034981421719F09D
:1026D00031E0411130E09695923009F40DC193300C
:1026E00009F40EC1913009F0B5CE409160036091BC
:1026F0005F030E94CA05AECE8D3F08F4A9CF8E3F7E
:1027000008F0A6CF91CEB0925503A0925403209129
:102710005603309157034091540350915503415053
:10272000510924173507D8F080935E031F701F5F8F
:1027300010935D038091520380935F0310926003B6
:10274000F092E303E092E2031092570310925603D3
:1027500010925503109254037092E1038BCF2F5FB8
:102760003F4F309357032093560374CE17FF0CC08E
:102770001D3F08F045C0183F08F044C0103F09F461
:102780004EC0173F09F44BC020915103FC01EE5D90
:10279000FC4F203F19F0273F09F069C017AFC090E8
:1027A0005403D090550396012150310982179307A5
:1027B00008F49CC020905103B0EF2B1619F0E7EFFE
:1027C0002E1257C01091E0033092E00330925E0366
:1027D00060925F031092600310925D035092E303D6
:1027E0004092E2037092E1030E948C00F7EFF093B5
:1027F000610310936203B0925703A09256032ACE4E
:102800001E3F10F210935E0310925F03109260035C
:1028100010925D03F092E303E092E2039DCF2091DA
:102820006103203F19F0273F09F0FECD9C012F5F87
:102830003F4F8E5D9C4FDC01DF961C9330925E0310
:1028400020935F033093600310925D033093E303A2
:102850002093E2037092E103109257031092560303
:10286000109255031092540310924F0303CF17A7F1
:1028700096CF822D0E945C05182F80935E030E94E4
:102880006A05882341F1822D8F708F5F80935D03ED
:102890008091520380935F038091530323E0C2161B
:1028A000D10409F080E080936003109257031092E6
:1028B000560310925503109254037092E103103B9B
:1028C00039F060F4103921F0103A11F0103861F647
:1028D00020924F03CFCE10925D03DACF103DC1F3AB
:1028E000103EB1F3103C09F0BFCFF2CF01969093A8
:1028F000570380935603AECD332309F4ABCDF5CE09
:102900003111A8CDF2CEE0E1E80FE03108F0A2CD20
:10291000F0E0E357FB4E0C940B17A314F414D514FA
:10292000C3142A122A129D142A129D142A129D14CD
:102930009D149D142A129D149D14682F8CE493E01D
:102940000E94BC0587CDC0905F03D090600381E8F2
:10295000C816D10418F090E8C92ED12C02E213E079
:10296000C801825293408C159D0508F073CDD801A3
:10297000DF966C9180914C0390914D030E947905F4
:102980000F5F1F4FEDCF10915F0363EF80914C03FA
:1029900090914D030E947905612F6F7780914C03D0
:1029A00090914D030E94790555CD00916003B0E8E8
:1029B0000B9F8001112480915F03082B62EF8091AF
:1029C0004C0390914D030E947905602F6F778091A1
:1029D0004C0390914D030E947905000F012F001FB9
:1029E000110B1195602FD9CF60915F03E0E16E9FCD
:1029F000B00111246077109160031F70162B61EFF6
:102A000080914C0390914D030E947905612FC6CFB0
:102A100010927E0234CD10917E02111121C080915E
:102A2000780290917902019797FD15C090937902F1
:102A300080937802609210010E9408080E94E505C8
:102A400061E08AE00E94D1020E94600360E08AE0B7
:102A50000E94D10231CD9092790280927802EACF21
:102A6000113011F580917F02813071F441E06FE700
:102A700083E30E94B00561E08AE00E94D1021092D7
:102A80007F0210920A0118CD811116CD41E060E05D
:102A900083E30E94B00560E08AE00E94D1021093B7
:102AA0007F0210930A0108CD123009F005CD809104
:102AB000720290917302019797FD0CC0909373027C
:102AC000809372020E94080862E0809172020E9464
:102AD000B605B6CF9092730280927202F3CF109136
:102AE0007E02111122C080917802909179020196A4
:102AF00084369105ACF490937902809378026092C9
:102B000010010E9408080E94E50561E08BE00E9428
:102B1000D1020E94600360E08BE00E94D102E7CC0A
:102B20001092790210927802EACF113011F580915B
:102B30008002813071F441E06FE784E30E94B005C8
:102B400061E08BE00E94D1021092800210920B0192
:102B5000CECC8111CCCC41E060E084E30E94B00592
:102B600060E08BE00E94D1021093800210930B0171
:102B7000BECC123009F0BBCC8091720290917302EE
:102B800001968436910564F49093730280937202E7
:102B90000E94080862E0809172020E94B605B5CFDB
:102BA0001092730210927202F3CF10917E021111F3
:102BB00012C01092100141E06091780280E00E9402
:102BC000B00561E0809110010E94B6050E940808DE
:102BD0000E94E505A8CC113011F580918102813069
:102BE00071F441E06FE785E30E94B00561E08CE09D
:102BF0000E94D1021092810210920C0194CC81119A
:102C000092CC41E060E085E30E94B00560E08CE09A
:102C10000E94D1021093810210930C0184CC1230D7
:102C2000F1F480910601813061F442E06FE785E3C1
:102C30000E94B00561E08CE00E94D1021092060172
:102C400072CC811170CC42E060E085E30E94B00557
:102C500060E08CE00E94D1027092060164CC1330D7
:102C600009F061CC80910201813051F441E06FE7BD
:102C700087E70E94B0050E9408081092020153CC19
:102C8000811151CC41E060E087E70E94B0050E94CD
:102C900008087092020147CC10917E02111112C0F7
:102CA0007092100141E06091780280E00E94B005CE
:102CB00061E0809110010E94B6050E9408080E9400
:102CC000E5054DCC113011F580918202813071F40F
:102CD00041E06FE786E30E94B00561E08DE00E946D
:102CE000D1021092820210920D0139CC811137CCA1
:102CF00041E060E086E30E94B00560E08DE00E9464
:102D0000D1021093820210930D0129CC123009F0E8
:102D100043C0809107018130B1F442E06FE786E360
:102D20000E94B005109207010E9495030E9495032E
:102D30006093740270937502809376029093770289
:102D40000E943A060CCC81110ACC42E060E086E396
:102D50000E94B005709207010E94950300917402D1
:102D6000109175022091760230917702DC01CB013F
:102D7000801B910BA20BB30B8C019D01015011091B
:102D800021093109073E134021053105C8F690930A
:102D9000050180930401CACF133009F0E0CB809184
:102DA0000301813051F441E06FE788E70E94B005EC
:102DB0000E94080810920301D2CB8111D0CB41E0D0
:102DC00060E088E70E94B0050E9408087092030145
:102DD000C6CBA1E21A2EAA1BBB1BFD010DC0AA1F68
:102DE000BB1FEE1FFF1FA217B307E407F50720F074
:102DF000A21BB30BE40BF50B661F771F881F991FEF
:102E00001A9469F760957095809590959B01AC0137
:102E1000BD01CF010895EE0FFF1F0590F491E02D45
:102E2000099481E090E0F8940C941617F894FFCF81
:102E30000C00010158020101010101010101010120
:102E40008000004000140054003334353637380217
:102E5000030405060708090A0B0C0D0E0F000000FD
:102E600000120272019F015F02D001AE01C2010097
:102E700000000043041604590508040F040C04095B
:102E8000040000000082067E0600000000D90772E0
:102E9000015905A10342414E4B0050524553455440
:102EA000003F0041004200430044007C004D494483
:102EB0004920504544414C004D4F44453A20494E2D
:102EC000444956494455414C005041545445524E92
:102ED000005374796C65004500460047004800497E
:102EE000004A00202020202054554E45522020200A
:102EF00020202000432300442300462300472300D2
:042F00004123000069
:00000001FF
