:100000000C945B010C948C010C948C010C948C016D
:100010000C948C010C948C010C948C010C948C012C
:100020000C948C010C948C010C948C010C948C011C
:100030000C948C010C948C010C948C010C948C010C
:100040000C948C010C948C010C948C010C948C01FC
:100050000C948C010C948C010C948C010C94FE0A71
:100060000C948C010C94C80A0C949E0A0C948C017C
:100070000C948C010C948C010C948C010C948C01CC
:100080000C948C010C948C010C948C010C948C01BC
:100090000C948C010C948C010C948C010C94480BE6
:1000A0000C948C010C948C010C948C010C948C019C
:1000B0000C948C010C948C010C948C010C948C018C
:1000C0000C948C010C948C010C948C010C948C017C
:1000D0000C948C010C948C010C948C010C948C016C
:1000E0000C948C010C9474020C9468070C940A0311
:1000F0000C94780C0C94E5030C9406040C94C40244
:100100000C94C0060C94A1020C94BD080C94070436
:100110000C9476050C94D0030C94F0120C940B0400
:100120000C94CC030C94EF030C94D4030C94F903BB
:100130000C9408050C94C6030C949A120C94960F18
:100140000C94F3030C94D8030C943A0A0C94DB033C
:100150000C94A0120C9457030C947D050C94BF12C0
:100160000C9401040C9470050C9464070C94FD032A
:100170000C9496090C94B0020C9473050C94E10352
:100180000C946F050C94EB030C94D1120C94AA05FB
:100190000C94D20200002100240027002A002D0028
:1001A0003000330001010000040107010A010000D2
:1001B0002200250028002B002E003100340002010F
:1001C0000000050108010B010000200023002600AB
:1001D00029002C002F00320000010000030106015D
:1001E00009010505050507050808080802020202BD
:1001F0000A0A0808040404040101010101010101C3
:100200000303030303030303040707070C0C0C0C8D
:100210000C0C0C0C02020202060606060606060676
:100220000B0B0B0B0B0B0B0B010210202008081003
:100230002040102040800201020108040201010256
:10024000040810204080804020100804020180042F
:10025000020180402010080402010804020101028A
:100260000408102040800102040810204080000093
:100270000A0B02090C0D0E08070304010000000020
:10028000000000000000000000000000000000006E
:10029000000000000000000000001211100000002B
:1002A000000000000000000000000000000000004E
:1002B00000000000780C11241FBECFEFD1E2DEBF9A
:1002C000CDBF00E00CBF12E0A0E0B2E0E4EAFBE248
:1002D00000E00BBF02C007900D92A03AB107D9F71A
:1002E00025E0A0EAB2E001C01D92AD35B207E1F70A
:1002F00011E0CBE5D1E000E006C021970109802F95
:10030000FE010E94C315CA35D10780E00807A9F78E
:100310000E94790D0C94D0150C940000E091EE032E
:10032000F091EF03309719F089E294E019958091EC
:100330002A04823F09F4BAC090F5803C09F499C0C0
:10034000B8F4803909F44FC040F4E091F203F09121
:10035000F303803809F44BC00895803A09F484C04F
:10036000E091F803F091F903803B09F440C008954F
:10037000803E09F462C040F4E091FC03F091FD037B
:10038000803D09F47AC00895803F09F47DC0E09172
:100390000204F0910304813F09F49BC008958A3F51
:1003A000C1F1A8F4863F09F499C040F4E091060435
:1003B000F0910704833F09F48CC00895883F09F148
:1003C000E0910E04F0910F04893FF9F008958C3FFD
:1003D00051F120F18E3F61F1E0911604F091170484
:1003E0008F3F99F00895E091F403F091F503309771
:1003F00009F479C040912C0460912B048091290468
:100400001994E0910A04F0910B04309709F46BC041
:100410001994E0910C04F0910D04F7CFE0911004D1
:10042000F0911104F2CFE0911204F0911304EDCF9A
:10043000E0911404F0911504E8CFE091FE03F091EF
:10044000FF03309709F44FC060912C0420E8629FAD
:10045000B001112460787F7380912B048F77682B13
:100460007052809129041994E091F603F091F703FA
:10047000BECFE091FA03F091FB033097A1F16091B8
:100480002B04809129041994E0910004F091010457
:10049000309749F160912B0470912C0461387105FB
:1004A00010F060E870E08DE294E01994E0910404AB
:1004B000F09105043097B9F080912C0420E8829FD8
:1004C000C001112480789F7320912B042F77822BF9
:1004D0001994309741F080912B041994E09108040D
:1004E000F091090492CF0895AF92BF92CF92DF921C
:1004F000EF92FF920F931F93CF93DF936C017B01D9
:100500008B01040F151FEB015E01AE18BF08C01769
:10051000D10759F06991D601ED91FC910190F081DC
:10052000E02DC6011995892B79F7C501DF91CF918F
:100530001F910F91FF90EF90DF90CF90BF90AF9001
:100540000895FC01538D448D252F30E0842F90E0D9
:10055000821B930B541710F0CF96089501970895BE
:10056000FC01918D828D981761F0A28DAE0FBF2F87
:10057000B11D5D968C91928D9F5F9F73928F90E0DD
:1005800008958FEF9FEF0895FC01918D828D98174C
:1005900031F0828DE80FF11D858D90E008958FEF89
:1005A0009FEF0895FC01918D228D892F90E0805C52
:1005B0009F4F821B91098F73992708958EEB94E0CA
:1005C0000E94D20221E0892B09F420E0822F0895B5
:1005D000FC01A48DA80FB92FB11DA35ABF4F2C91B8
:1005E000848D90E001968F739927848FA689B789AF
:1005F0002C93A089B1898C91837080648C93938DA6
:10060000848D981306C00288F389E02D80818F7D48
:1006100080830895EF92FF920F931F93CF93DF9300
:10062000EC0181E0888F9B8D8C8D98131AC0E8892E
:10063000F989808185FF15C09FB7F894EE89FF89FD
:100640006083E889F98980818370806480839FBF9B
:1006500081E090E0DF91CF911F910F91FF90EF909B
:100660000895F62E0B8D10E00F5F1F4F0F731127AB
:10067000E02E8C8D8E110CC00FB607FCFACFE889E6
:10068000F989808185FFF5CFCE010E94E802F1CF84
:10069000EB8DEC0FFD2FF11DE35AFF4FF0829FB75A
:1006A000F8940B8FEA89FB8980818062CFCFCF934A
:1006B000DF93EC01888D8823B9F0AA89BB89E8898A
:1006C000F9898C9185FD03C0808186FD0DC00FB630
:1006D00007FCF7CF8C9185FFF2CF808185FFEDCFAE
:1006E000CE010E94E802E9CFDF91CF91089580E02A
:1006F00090E0892B29F00E94DE0281110E94000007
:1007000080E090E0892B49F080E090E0892B29F08F
:100710000E94000081110E94000080E090E0892B7F
:1007200049F080E090E0892B29F00E9400008111BF
:100730000E94000080E090E0892B49F080E090E08A
:10074000892B29F00E94000081110C94000008956B
:100750008150823108F05AC0E82FF0E08827EC542D
:10076000FC4F8F4F0C94C315D403D803C603CC039E
:10077000D0030604DB03E103E503EB03EF03F3031C
:10078000F903FD030604010407040B0480918000B3
:100790008F77809380000895809180008F7DF9CFBE
:1007A00080918000877FF5CF84B58F7784BD0895D1
:1007B00084B58F7DFBCF8091B0008F778093B000A0
:1007C00008958091B0008F7DF9CF809190008F7750
:1007D000809390000895809190008F7DF9CF809153
:1007E0009000877FF5CF8091A0008F778093A00045
:1007F00008958091A0008F7DF9CF8091A000877F20
:10080000F5CF809120018F7780932001089580910A
:1008100020018F7DF9CF80912001877FF5CFCF9385
:10082000DF93282F30E0F901E259FD4F8491F9015F
:10083000E85DFD4FD491F901EE51FE4FC491CC23F8
:10084000A1F081110E94A803EC2FF0E0EE0FFF1F32
:10085000E853FE4FA591B491EC91ED2381E090E037
:1008600009F480E0DF91CF91089580E090E0FACF25
:100870001F93CF93DF93282F30E0F901E259FD4F0A
:100880008491F901E85DFD4FD491F901EE51FE4FDD
:10089000C491CC23A9F0162F81110E94A803EC2F3C
:1008A000F0E0EE0FFF1FE255FE4FA591B4918FB718
:1008B000F894EC91111108C0D095DE23DC938FBF22
:1008C000DF91CF911F910895DE2BF8CFCF93DF9367
:1008D00090E0FC01E85DFD4F24918E519E4FFC019C
:1008E00084918823C9F090E0880F991FFC01EC5691
:1008F000FE4FA591B491FC01E255FE4FC591D491F4
:1009000061110DC09FB7F8948C91209582238C9330
:100910008881282328839FBFDF91CF91089562307B
:1009200051F49FB7F8943C91822F809583238C9348
:10093000E8812E2BEFCF8FB7F894EC912E2B2C93D0
:100940008FBFEACF3FB7F89480913A0390913B0371
:10095000A0913C03B0913D0326B5A89B05C02F3F55
:1009600019F00196A11DB11D3FBFBA2FA92F982FD5
:100970008827BC01CD01620F711D811D911D42E0D0
:10098000660F771F881F991F4A95D1F708958F9298
:100990009F92AF92BF92CF92DF92EF92FF920E940E
:1009A000A2044B015C0184E6C82ED12CE12CF12C71
:1009B0000E94A204681979098A099B09683E73405C
:1009C00081059105A8F321E0C21AD108E108F108D8
:1009D00088EE880E83E0981EA11CB11CC114D104BE
:1009E000E104F10429F7FF90EF90DF90CF90BF90E2
:1009F000AF909F908F9008952FB7F8946091360331
:100A00007091370380913803909139032FBF089577
:100A100008951F93CF93DF93C1E0C093A102882371
:100A200099F1D091B8001091BA008091BC008A7BF6
:100A30008093BC0060E084E10E94380460E085E1BE
:100A40000E94380410920B03C0930A031092E5022F
:100A500061E084E10E94380461E085E10E9438048D
:100A60008091B9008E7F8093B9008091B9008D7F0D
:100A70008093B90088E48093B80085E48093BC003B
:100A80001093BA00D093B800DF91CF911F910895D1
:100A90002091C202260F3327331F21323105ECF497
:100AA00020910B03FC0190E080E0243069F082E0AB
:100AB0000895A091C2022191AC014E555D4FA40F43
:100AC000B52FB11D2C930196861798F38091C20221
:100AD000680F6093C20280E0089581E00895089550
:100AE0008FEF9FEF08958FEF9FEF08958091A00201
:100AF00090E09195819591090895CF92DF92EF92C0
:100B0000FF920F931F93CF93DF937C01CB018A0158
:100B100020911103222389F0EB016B01C40ED51E35
:100B2000CC15DD0569F06991D701ED91FC9101903B
:100B3000F081E02DC7011995F3CF642F0E9448057D
:100B4000C801DF91CF911F910F91FF90EF90DF903F
:100B5000CF900895CF93DF931F92CDB7DEB769830F
:100B6000209111032223F9F020913403203258F010
:100B700021E030E0FC013383228390E080E00F909D
:100B8000DF91CF91089580911203E82FF0E0ED5EA0
:100B9000FC4F998190838F5F80931203809334037D
:100BA00081E090E0ECCF61E0CE0101960E94480523
:100BB000F7CFCF92DF92EF92FF920F931F93CF93D5
:100BC000DF93FC01C48121E020931103C093330320
:100BD00010921203109234038385682B81E593E011
:100BE0000E94AA05D0913403D13208F092C00E942D
:100BF000A2046B017C0180910B03811165C082E02E
:100C000080930B0381E080930A038FEF80930903A5
:100C100010920803D0930703A3E1B3E0E7EEF2E0FC
:100C200080E0D81385C01092E6028091E602CC0FD6
:100C3000C82BC093E6028091E502813009F07CC0A8
:100C40001092E5020E94A2046B017C018091E602F1
:100C50008093BB0080910D0390910E03A0910F0330
:100C6000B0911003892B8A2B8B2B99F00E94A20440
:100C700000910D0310910E0320910F03309110038A
:100C80006C197D098E099F09061717072807390770
:100C9000E0F18091BC0083FDD9CF85EC8093BC004E
:100CA0000E94A2046B017C0180910B03823009F445
:100CB00045C0809109038F3F61F180910903803223
:100CC00041F18091090325C080910D0390910E039D
:100CD000A0910F03B0911003892B8A2B8B2B09F461
:100CE0008ACF0E94A20400910D0310910E0320915F
:100CF0000F03309110036C197D098E099F090617A7
:100D000017072807390708F076CF80910C030E9457
:100D10000905109212031092340310921103DF910F
:100D2000CF911F910F91FF90EF90DF90CF9008959A
:100D30009D9191938F5F75CF85EEB0CF80910D031C
:100D400090910E03A0910F03B0911003892B8A2B71
:100D50008B2B09F4A9CF0E94A20400910D031091DE
:100D60000E0320910F03309110036C197D098E0939
:100D70009F09061717072807390708F095CFC5CF31
:100D800090E080E0089587FF0AC09CE0980F9230C1
:100D900030F08D3F21F0803F18F4807F089580E08F
:100DA0000895982F9F7E282F2F7C203839F0803E81
:100DB00029F081E0903C19F080E0089581E00895E9
:100DC000DC018D919C91DC01ED91FC910190F08111
:100DD000E02D19941F93CF93DF932150203118F504
:100DE00087FF21C0D42F162FC82F622F682B809128
:100DF0001804909119040E94E006612F6F7780918A
:100E00001804909119040E94E006CF7EC03C59F06E
:100E10006D2F6F778091180490911904DF91CF9115
:100E20001F910C94E006DF91CF911F910895242F1C
:100E3000462F682F80EB0C94EA06262F40E0682F9F
:100E400080EC0C94EA066D3F48F46A3F10F4683F6A
:100E500039F4FC01808191810C94E0066E3FC8F763
:100E60000895813E10F40C94EA06883F28F0682F1C
:100E700088E194E00C94230708950F931F93CF9378
:100E80000FE112E0C0E0F80181918F01909106021C
:100E90009C130CC061E00E943804C0930602CF5F2F
:100EA000C43089F7CF911F910F91089560E00E949F
:100EB0003804F5CFFC01908592FF04C0917081E069
:100EC0002289291380E00895862F642F0C946604EC
:100ED000FC0181890E940F0421E0892B09F420E0A4
:100EE000822F0895CF92DF92EF92FF920F931F937C
:100EF000CF93DF93EC0188858B7F8887CE010E949A
:100F00006807182F8885869581701817B9F00E9498
:100F1000FC046A837B838C839D83888592E0892788
:100F20008887888582FB882780F9DF91CF911F9180
:100F30000F91FF90EF90DF90CF9008950E94FC04F6
:100F4000CA80DB80EC80FD80AB01BC014C195D09DF
:100F50006E097F098E819F81B0E0A0E04817590794
:100F60006A077B07F0F2888581701817D1F20E941A
:100F7000FC046A837B838C839D83888591E0892729
:100F8000846088870E94FC0409851A852B853C852E
:100F9000601B710B820B930B6D877E878F87988BFD
:100FA0000E94FC0469877A878B879C87BACFCF938E
:100FB000DF93EC0118860E946807882319F0888562
:100FC000836088870E94FC046A837B838C839D8373
:100FD000DF91CF9108958F929F92AF92BF920F931E
:100FE0001F93CF93DF93CDB7DEB7A1970FB6F894D9
:100FF000DEBF0FBECDBF19A2423008F44AE08E0119
:101000000F5D1F4F842E912CB12CA12CA5019401B2
:101010000E94A115E62FB901CA01EA3044F5E05D4E
:10102000D801EE938D01232B242B252B79F790E00B
:1010300080E0109769F0FD0101900020E9F73197F9
:10104000AF014A1B5B0BBD0182EE93E00E9474026C
:10105000A1960FB6F894DEBF0FBECDBFDF91CF9142
:101060001F910F91BF90AF909F908F900895E95C72
:10107000D7CFFC0101900020E9F73197AF01481B61
:10108000590BBC0182EE93E00C9474020F931F93F2
:10109000CF938C01C62F64600E94D9056C2F6B7FA3
:1010A000C8010E94D90583EC90E00197F1F7CF9138
:1010B0001F910F910895FF920F931F93CF93DF938A
:1010C0008C01D62FC42F862F807FF82EF42A6F2D07
:1010D000C8010E94D9056F2DC8010E94460880E111
:1010E000D89FB0011124C62B6C2FC8010E94D905CE
:1010F0006C2FC801DF91CF911F910F91FF900C943D
:101100004608CF93DF9300D000D01F921F92CDB737
:10111000DEB798E0E7E0F2E0DE01119601900D9273
:101120009A95E1F79091EA03961708F46FEF262F4E
:1011300030E0220F331F41E050E04C0F5D1F240FC1
:10114000351FF9016081680F606840E082EE93E02E
:1011500028960FB6F894DEBF0FBECDBFDF91CF91BA
:101160000C945B0840E061E082EE93E00E945B0833
:101170008BE39FE10197F1F7089541E00E945B083E
:1011800081E090E00895CF92DF92EF92FF928091FC
:101190004A03811196C00E94B20860E081E00E947B
:1011A00081088BE592E00E943908C0904403D090FA
:1011B00045032AE0C216D10420F461E084E00E94D5
:1011C0008108C6010A978A35910520F461E083E021
:1011D0000E948108C601845691098438934020F406
:1011E00061E082E00E9481080D2C000CEE08FF08EF
:1011F0004AE0C701B601F7FE0EC041E06DE282EEA3
:1012000093E00E945B0866277727CB016C197D0964
:101210008E099F094AE00E94EB0760E089E00E9486
:10122000810880E692E00E94390861E08BE00E942C
:10123000810880910602803821F487E692E00E94BE
:10124000390880910602811104C089E692E00E946B
:10125000390880910602813021F48BE692E00E94E9
:10126000390880910602823021F48DE692E00E94D6
:10127000390880910602833021F48FE692E00E94C3
:10128000390860E086E00E94810881E792E00E94D0
:10129000390861E086E00E94810881E792E00E94BF
:1012A000390860E087E00E94810881E792E00E94AF
:1012B000390861E087E00E94810881E792E00E949E
:1012C000390880914A03813091F40E94B20860E0AD
:1012D00083E00E94810883E792E00E94390861E080
:1012E00080E00E9481088EE792E00E943908809198
:1012F0004A038230B1F40E94B20860E083E00E94A9
:10130000810883E792E00E94390861E080E00E9452
:1013100081088FE892E0FF90EF90DF90CF900C94DF
:101320003908FF90EF90DF90CF900895BF92CF9251
:10133000DF92EF92FF920F931F93CF93DF93D62FFD
:10134000C42F80914A03813031F58FE0E82E82E08E
:10135000F82E10E000E0BB24B394F70181917F01E7
:101360008D1314C0CF3709F054C0C801865B9C4F61
:101370006C01FC018181813049F461E0F801E45E97
:10138000FD4F81810E943804F60111820F5F1F4FCB
:101390000630110511F7EFE0F2E081E090E021E086
:1013A00031913D1307C0CF3709F047C0DC01A15090
:1013B000BE4F1C9201968730910591F780914A03A8
:1013C0009FEF980F923008F03FC08D2F8F7DB9F4BA
:1013D000509144034091450390E080E02C2F30E091
:1013E0002817390711F4522F432F0196843691059F
:1013F000B9F75093440340934503DD2349F1DF914E
:10140000CF911F910F91FF90EF90DF90CF90BF9001
:101410000895C111BBCFC801865B9C4F6C01FC01D4
:1014200081818111B3CF60E0F801E45EFD4F8181DD
:101430000E943804F601B182A9CFC111BBCFDC01F3
:10144000A150BE4F2C93B6CF8111D7CFD032A9F681
:10145000D0E0D0934503C09344030E943D07DF9141
:10146000CF911F910F91FF90EF90DF90CF90BF90A1
:101470000C94C308CF93DF93C62F80914A03811148
:1014800009C0D4E0C09306020E943D070E94C30831
:10149000D150C1F780914A038150823078F4809115
:1014A0000602CC2321F0C13029F481E001C080E0A4
:1014B000C82F02C0C23029F4C0930602DF91CF9139
:1014C0000895C330A9F7F8CF0E94CB1585ED80931E
:1014D000BC0080910D0390910E03A0910F03B09179
:1014E00010030796A11DB11D23E0B695A79597950A
:1014F00087952A95D1F72091BC0024FD03C0109256
:101500000B03089540910D0350910E0360910F035A
:1015100070911003452B462B472B69F30097A105CB
:10152000B10541F025E32A95F1F700000197A109E3
:10153000B109E1CF80910C030C9409051F920F9221
:101540000FB60F9211240BB60F922F933F934F9328
:101550005F936F937F938F939F93AF93BF93EF931B
:10156000FF938EEB94E00E94E802FF91EF91BF9110
:10157000AF919F918F917F916F915F914F913F912B
:101580002F910F900BBE0F900FBE0F901F901895CC
:101590001F920F920FB60F9211240BB60F922F933A
:1015A0008F939F93EF93FF93E091CE04F091CF043C
:1015B0008081E091D404F091D50482FD1DC090811A
:1015C0008091D7048F5F8F732091D804821741F0E8
:1015D000E091D704F0E0E254FB4F958F8093D7045D
:1015E000FF91EF919F918F912F910F900BBE0F90D4
:1015F0000FBE0F901F9018958081F2CF1F920F920F
:101600000FB60F9211242F933F938F939F93AF9315
:10161000BF938091360390913703A0913803B09126
:1016200039033091350323E0230F2D3758F5019608
:10163000A11DB11D2093350380933603909337038A
:10164000A0933803B093390380913A0390913B0300
:10165000A0913C03B0913D030196A11DB11D809363
:101660003A0390933B03A0933C03B0933D03BF9197
:10167000AF919F918F913F912F910F900FBE0F903F
:101680001F90189526E8230F0296A11DB11DD2CFF9
:101690001F920F920FB60F9211240BB60F922F9339
:1016A0003F934F935F936F937F938F939F93AF93EA
:1016B000BF93EF93FF938091B900887F803609F440
:1016C0004DC008F040C0883209F4A7C028F5803129
:1016D00009F49BC0C8F4882309F4F7C0883009F4E2
:1016E00094C0FF91EF91BF91AF919F918F917F91A6
:1016F0006F915F914F913F912F910F900BBE0F9083
:101700000FBE0F901F901895883109F486C0803263
:1017100041F78093090314C0803409F49BC040F45E
:101720008033B9F38833E9F68093090385ECAEC0C2
:10173000803509F483C0883509F494C0883489F66B
:101740000E94660ACECF883909F48AC038F58837F6
:1017500029F050F4883611F0803719F683E0809331
:101760000B031092E40255C0883809F479C080391F
:1017700019F0803809F0B5CF8091E402803208F08A
:101780006FC0E091E40281E08E0F8093E4028091CB
:10179000BB00F0E0EC53FD4F80833BC0803B39F051
:1017A000D0F4803A09F477C0883A09F09ACF84E0FF
:1017B00080930B031092C3021092C202F0E0E0E0AB
:1017C00019958091C20281110FC081E08093C202FD
:1017D0001092A20209C0803C09F4A8CF883C09F409
:1017E000A5CF883B09F07DCFE091C30281E08E0F49
:1017F0008093C302F0E0EE55FD4F80818093BB00E3
:101800009091C3028091C20229C08091E602809328
:10181000BB0085EC8093BC0064CF9091080380915D
:101820000703981758F5E091080381E08E0F809325
:101830000803F0E0E951FD4F8081E9CFE091080312
:1018400081E08E0F809308038091BB00F0E0E951A6
:10185000FD4F808390910803809107039817C8F289
:1018600085E8D8CFE091080381E08E0F80930803CC
:101870008091BB00F0E0E951FD4F808380910A0325
:1018800081115ECF81E08093E50284EA8093BC0001
:1018900010920B0326CF85EC8093BC0010920B03B3
:1018A0008091E402803230F4E091E402F0E0EC5305
:1018B000FD4F10826091E40270E084EC92E0F0E071
:1018C000E0E019951092E4020CCF1092090338CF92
:1018D000FC0112821382148215828AE090E09783C1
:1018E000868310868BE492E091838083118A089529
:1018F0000F931F93CF93EEEBF4E01382128248EE26
:1019000053E060E070E0448355836683778387E229
:1019100092E09183808385EC90E09587848784ECC6
:1019200090E09787868780EC90E0918B808B81ECAC
:1019300090E0938B828B82EC90E0958B848B86EC8D
:1019400090E0978B868B118E128E138E148EA1E5EC
:10195000B3E013961C921E92129714964D935D93CA
:101960006D937C93179789E392E08D939C93F0930A
:101970005C05E0935B05EEEEF3E0118210821382CA
:10198000128215821482178216821186108613869F
:1019900012861586148617861686118A108A138A6F
:1019A000128A158A148A178A168A118E108E138E3F
:1019B000128E158E148E178E168E11A210A213A2DF
:1019C00012A215A214A217A216A211A610A68BE5A8
:1019D00095E093A782A714A615A616A613AA12AA85
:1019E00015AA14AA8FEF9FEF97AB86AB91AF80AF8C
:1019F00083E08093280413AE14AE15AE16AE109299
:101A0000AD04EDE2F4E080E8DF011D928A95E9F78C
:101A10001092B0041092B1041092B2041092B30468
:101A20001092B4041092B5041092B6041092B70448
:101A30001092B8041092B9041092BA041092BB0428
:101A40001092BC041092BD04E2EEF3E01382128205
:101A500083E592E09183808387E2848380E18187BC
:101A600082E0828713868FEC93E00E94680CEFEC93
:101A7000F3E00BE412E011830083C1E0C28B8CEB36
:101A800093E00E94680CECEBF3E011830083C28BBF
:101A900089EA93E00E94680CE9EAF3E0118300838D
:101AA000C28B86E993E00E94680CE6E9F3E01183BB
:101AB0000083C28B83E893E00E94680CE3E8F3E0C4
:101AC00011830083C28B80E793E00E94680CE0E7FB
:101AD000F3E011830083C28B8DE593E00E94680CD4
:101AE000EDE5F3E011830083C28BCF911F910F913D
:101AF0000895789484B5826084BD84B5816084BD86
:101B000085B5826085BD85B5816085BD80916E009B
:101B1000816080936E0010928100809181008260CC
:101B20008093810080918100816080938100809109
:101B300080008160809380008091B10084608093F8
:101B4000B1008091B00081608093B00080919100DD
:101B500082608093910080919100816080939100D8
:101B6000809190008160809390008091A1008260BC
:101B70008093A1008091A10081608093A100809159
:101B8000A00081608093A0008091210182608093F9
:101B900021018091210181608093210180912001A8
:101BA00081608093200180917A00846080937A0024
:101BB00080917A00826080937A0080917A008160BF
:101BC00080937A0080917A00806880937A001092E6
:101BD000C100E0911804F09119040190F081E02D0A
:101BE000A089B189D2E0DC93A485B5851C92A68535
:101BF000B7858FE38C93108EA489B589C6E0CC930A
:101C0000A289B3898C9180618C93A289B3898C91CC
:101C100088608C93A289B3898C9180688C930288A8
:101C2000F389E02D80818F7D808310921A041092B9
:101C30001C0410921B041092230410922204109290
:101C40002104109220048FEF9FEF9093250480933E
:101C5000240490932704809326040E94FC0460933C
:101C6000B0047093B1048093B2049093B3041092C3
:101C7000AD0410922A041092290410922B041092A1
:101C80002C041092AF041092AE048091280481704D
:101C90008260816080932804E091CE04F091CF04AB
:101CA000D083E091CA04F091CB041082E091CC047F
:101CB000F091CD0480E180831092D604E091D204AB
:101CC000F091D304C083E091D004F091D1048081DD
:101CD00080618083E091D004F091D104808188609C
:101CE0008083E091D004F091D1048081806880836A
:101CF000E091D004F091D10480818F7D808386E9CA
:101D000099E09093F9038093F8038AE39AE0909323
:101D1000FB038093FA03CCE1D2E003E212E061E03E
:101D200089910E9466040C171D07C9F7C5E1D2E02E
:101D30000CE112E062E089910E9466040C171D0715
:101D4000C9F782E08093E0038FEC93E00E94D7070D
:101D5000C9E1D0E0D093D603C093D5031092E1033C
:101D600083E08093CD038CEB93E00E94D707D09360
:101D7000C303C093C20384E08093BA0389EA93E06B
:101D80000E94D707D093B003C093AF031092BB0358
:101D900085E08093A70386E993E00E94D707D0935C
:101DA0009D03C0939C031092A80386E08093940344
:101DB00083E893E00E94D707D0938A03C0938903F6
:101DC0001092950387E08093810380E793E00E945F
:101DD000D707D0937703C09376031092820388E0ED
:101DE00080936E038DE593E00E94D707D093640340
:101DF000C093630310926F0341E060E080E00E94B3
:101E0000170761E080E00E941D0760E8462E512C14
:101E1000C1E072E0672E712CEE24E394F12CF3E61E
:101E2000AF2EB12CA6E02A2EA2E03A2ED0901A04B2
:101E300020E12D1508F47AC0E0911804F0911904FE
:101E400080819181DC01ED91FC910084F185E02D90
:101E50001995892B09F46AC08091BD048E7F809307
:101E6000BD04E0911804F091190480819181DC0196
:101E7000ED91FC910284F385E02D1995182F8D3F8B
:101E800009F454C08091220490912304009709F032
:101E900066C210931D0400911B04802F0E94C3068C
:101EA0000E94D106882351F017FD08C000931D043D
:101EB00010931E04F0922304E092220410911D045A
:101EC000812F0E94C306813F09F416C208F0ADC1FC
:101ED000803B39F068F4803921F0803A11F0803885
:101EE00079F4E3E0F0E0F0932104E093200408C2E9
:101EF000803D09F401C208F089C1803C09F4FCC1AD
:101F00008091BD0481608093BD04E091F003F09165
:101F1000F103309709F019951092230410922204CE
:101F2000109221041092200410921B048FEC93E075
:101F30000E9472078FEC93E00E945A078823A1F059
:101F400080914A038F5F833008F05EC380934A0319
:101F500080914A0381115BC360E089E00E943804EC
:101F60000E94C3080E943D078CEB93E00E94720719
:101F70008091C4038570853031F510914A038091BA
:101F8000C9039091CA03A091CB03B091CC0360E048
:101F9000853F9140A105B10508F4C2C38AE00E94C3
:101FA00038041F5F133008F076C310934A03809102
:101FB0004A03811173C360E089E00E9438040E94E3
:101FC000C3080E943D0789EA93E00E9472071091BE
:101FD0004A03111119C489EA93E00E945A07882321
:101FE000A1F08091440390914503019684369105B8
:101FF0000CF005C4909345038093440320E820939C
:1020000006020E94C3080E943D078091B1038170BF
:102010009091BB0361E0981360E08BE00E9438046C
:1020200086E993E00E94720710914A03111145C49A
:1020300086E993E00E945A07882389F010920602ED
:1020400041E06091440380E00E94170761E08091C5
:1020500006020E941D070E94C3080E943D0783E8F4
:1020600093E00E94720710914A03111177C483E82C
:1020700093E00E945A07882389F0C093060241E04A
:102080006091440380E00E94170761E0809106029E
:102090000E941D070E94C3080E943D0780E793E04D
:1020A0000E94720710914A031111A9C480E793E0BE
:1020B0000E945A07882391F082E08093060241E053
:1020C0006091440380E00E94170761E0809106025E
:1020D0000E941D070E94C3080E943D078DE593E002
:1020E0000E94720710914A031111DAC48DE593E042
:1020F0000E945A07882391F033E03093060241E0B2
:102100006091440380E00E94170761E0809106021D
:102110000E941D070E94C3080E943D07809106028D
:10212000803809F045C00E94FC04009146031091DC
:1021300047032091480330914903601B710B820BC8
:10214000930B643F71408105910590F18CE00E94F2
:102150000F0461E0892B09F060E08CE00E943804F4
:102160008DE00E940F0461E0892B09F060E08DE0B2
:102170000E94380486E30E940F0461E0892B09F075
:1021800060E086E30E94380487E30E940F0461E068
:10219000892B09F060E087E30E9438040E94FC0468
:1021A00060934603709347038093480390934903D9
:1021B00080914A03823039F50E94FC040091460365
:1021C000109147032091480330914903601B710B24
:1021D000820B930B6A3F710581059105A0F089E0A0
:1021E0000E940F0461E0892B09F060E089E00E9401
:1021F00038040E94FC046093460370934703809365
:102200004803909349030E94770310CE803E09F45F
:1022100068CE803F09F074CE509221044092200491
:1022200010921B0480932D046BC0873FA9F308F024
:102230005CC0833F09F460C008F453CE863F09F0C8
:102240005FCE80932A041092290410922B041092DE
:102250002C04C093AD041092230410922204109217
:1022600021041092200480912A04803939F480914D
:102270002C04811103C0A0E8A0932A0480912A04B1
:102280008058813630F480912904D81611F0D1108D
:1022900002C00E948E0180912804382F317080FF87
:1022A00045CE982F9E7F09F441CE90912A0420E8D4
:1022B000290F213608F022C120912904D21619F0E5
:1022C00031E0D11030E08695823009F410C18330BE
:1022D00009F411C1813009F029CE40912C0460919C
:1022E0002B04892F0E94310721CE8D3F08F4A9CFFE
:1022F0008E3F08F0A6CF04CE709221046092200495
:102300002091220430912304409120045091210413
:102310004150510924173507D8F080932A041F70C3
:102320001F5F1093290480911E0480932B04109248
:102330002C04F092AF04E092AE04109223041092A9
:1023400022041092210410922004C093AD048BCF7C
:102350002F5F3F4F3093230420932204E7CD17FFD4
:102360000CC01D3F08F047C0183F08F047C0103FA1
:1023700009F451C0173F09F44EC020911D04FC011F
:10238000E251FC4F203F19F0273F09F06DC017AF15
:1023900000912004109121049801215031098217E5
:1023A000930708F49EC090901D04E0EF9E1619F06C
:1023B000F7EF9F125BC01091AC0420EF2093AC04A8
:1023C00020932A0430E830932B0410922C041092AE
:1023D00029045092AF044092AE04C093AD040E9411
:1023E0008E0187EF80932D0410932E0470922304A6
:1023F000609222049BCD1E3F08F4BFCF10932A04A5
:1024000010922B0410922C0410922904F092AF0425
:10241000E092AE049ACF20912D04203F19F0273F7F
:1024200009F06ECD9C012F5F3F4F82519C4FDC0124
:10243000DF961C93B0EFB0932A0420932B043093C3
:102440002C04109229043093AF042093AE04C0935F
:10245000AD041092230410922204109221041092D1
:10246000200410921B04FFCE17A792CF892D0E9443
:10247000C306D82F80932A040E94D106882339F1FD
:10248000892D8F708F5F8093290480911E04809323
:102490002B0480911F040330110509F080E0809324
:1024A0002C04109223041092220410922104109202
:1024B0002004C093AD04D03B39F060F4D03921F052
:1024C000D03A11F0D03869F690921B04CCCE10921D
:1024D0002904DBCFD03DC1F3D03EB1F3D03C09F6A7
:1024E000F3CF019690932304809322041FCD3323CE
:1024F00009F41CCDF2CE311119CDEFCEE0E1E90F98
:10250000E03108F013CDF0E08827E657FD4E8F4FFD
:102510000C94C315A012F012D112BF12960F960F91
:102520009A12960F9A12960F9A129A129A12960F60
:102530009A129A12692F88E194E00E942307F6CC40
:10254000C0902B04D0902C04B1E8CB16D10418F025
:1025500050E8C52ED12C0EEE13E0C8018E5E9340DC
:102560008C159D0508F0E2CCF80167AD8091180448
:10257000909119040E94E0060F5F1F4FEECF10915B
:102580002B0463EF80911804909119040E94E006D7
:10259000612F6F7780911804909119040E94E006D2
:1025A000C5CC00912C04F0E80F9F8001112480918C
:1025B0002B04082B62EF80911804909119040E945B
:1025C000E006602F6F7780911804909119040E94A3
:1025D000E006000F012F001F110B1195602FD9CFBE
:1025E00060912B0420E1629FB0011124607710916B
:1025F0002C041F70162B61EF809118049091190420
:102600000E94E006612FC6CF10924A03A1CC813010
:10261000E1F561E089E00E9438040E94C30820E0EF
:10262000C22E22E0D22E3DE1832E32E0932E0AE428
:1026300013E0D6019D916D01F40181914F0191113B
:102640001EC061E00E943804D80111961C920F5FF1
:102650001F4FF6E0CF16F2E0DF0659F760E080E0AA
:102660000E94380460E080E00E94380460E080E06E
:102670000E94380460E080E00E94380475CC60E07D
:102680000E943804F801C183E2CF823009F06CCC9B
:102690000E94C30869CC10924A0389CC8130D1F5DD
:1026A00061E089E00E9438040E94C30880E0C82EDF
:1026B00082E0D82E9DE1892E92E0992E0AE413E063
:1026C000D6019D916D01F40181914F0191111CC0C2
:1026D00061E00E943804D80111961C920F5F1F4FD1
:1026E0002C143D0469F760E080E00E94380460E04B
:1026F00080E00E94380460E080E00E94380460E0DE
:1027000080E00E9438045FCC60E00E943804F80149
:10271000C183E4CF823009F056CC0E94C30853CC69
:102720008AE00E943804111120C0809144039091E6
:102730004503019797FD14C090934503809344038C
:10274000F0E8F09306020E94C3080E943D0761E092
:102750008AE00E9438040E94C70460E08AE0D1CF7A
:10276000B0924503A0924403EBCF113069F58091FC
:102770004B038130D9F441E06FE783E30E941707F0
:1027800061E08AE00E94380410924B0380914C0370
:10279000811119CC41E060E084E30E94170760E0FA
:1027A0008BE00E943804C0934C030DCC8111EECF16
:1027B00041E060E083E30E94170760E08AE00E9446
:1027C000380410934B03E2CF123009F0FCCB809118
:1027D0003E0390913F03019797FD0CC090933F03F8
:1027E00080933E030E94C30862E080913E030E94F2
:1027F0001D07ADCFB0923F03A0923E03F3CF1092DE
:10280000450310924403FACB1130A1F589EA93E015
:102810000E945A07882309F403CC80914C0381302D
:10282000D9F441E06FE784E30E94170761E08BE091
:102830000E94380410924C0380914B038111F0CB1D
:1028400041E060E083E30E94170760E08AE00E94B5
:102850003804C0934B03E4CB8111EECF41E060E03C
:1028600084E30E94170760E08BE00E943804109315
:102870004C03E2CF123009F0D3CB89EA93E00E94F7
:102880005A07882309F4C1CB80913E0390913F03FE
:1028900001968436910564F490933F0380933E0340
:1028A0000E94C30862E080913E030E941D07ADCBE9
:1028B00010923F0310923E03F3CF113029F586E9C1
:1028C00093E00E945A07882309F4C9CB80914D03F5
:1028D000813061F441E06FE785E30E94170761E012
:1028E0008CE00E94380410924D03B9CB8111B7CB14
:1028F00041E060E085E30E94170760E08CE00E9401
:10290000380410934D03ABCB123009F0A8CB86E905
:1029100093E00E945A07882359F080914003813048
:1029200099F442E06FE785E30E9417071092400395
:1029300080919E0381709091A80361E0981360E0FC
:102940008CE00E9438048BCB8111F2CF42E060E032
:1029500085E30E941707C0934003EACF113029F5A1
:1029600083E893E00E945A07882309F497CB80916B
:102970004E03813061F441E06FE786E30E94170760
:1029800061E08DE00E94380410924E0387CB8111E4
:1029900085CB41E060E086E30E94170760E08DE0B0
:1029A0000E94380410934E0379CB123009F076CB95
:1029B00083E893E00E945A07882359F080914103ED
:1029C000813099F442E06FE786E30E941707109286
:1029D000410380918B0381709091950361E098137E
:1029E00060E08DE00E94380459CB8111F2CF42E0C3
:1029F00060E086E30E941707C0934103EACF1130DD
:102A000029F580E793E00E945A07882309F466CBF2
:102A100080914F03813061F441E06FE787E30E94CA
:102A2000170761E086E30E94380410924F0356CBEB
:102A3000811154CB41E060E087E30E94170760E01A
:102A400086E30E94380410934F0348CB123009F0FC
:102A500045CB80E793E00E945A07882359F0809184
:102A60004203813099F442E06FE787E30E94170741
:102A7000109242038091780381709091820361E00B
:102A8000981360E086E30E94380428CB8111F2CFCE
:102A900042E060E087E30E941707C0934203EACF59
:102AA000113029F58DE593E00E945A07882309F437
:102AB00035CB80915003813061F441E06FE788E3CA
:102AC0000E94170761E087E30E94380410925003C8
:102AD00025CB811123CB41E060E088E30E941707FA
:102AE00060E087E30E9438041093500317CB123044
:102AF00009F014CB8DE593E00E945A07882359F022
:102B000080914303813099F442E06FE788E30E94AB
:102B100017071092430380916503817090916F03B2
:102B200061E0981360E087E30E943804F7CA8111DE
:102B3000F2CF42E060E088E30E941707C0934303AE
:102B4000EACFA1E21A2EAA1BBB1BFD010DC0AA1FD2
:102B5000BB1FEE1FFF1FA217B307E407F50720F006
:102B6000A21BB30BE40BF50B661F771F881F991F81
:102B70001A9469F760957095809590959B01AC01CA
:102B8000BD01CF010895EE0FFF1F881F8BBF079077
:102B9000F691E02D199481E090E0F8940C94D01512
:042BA000F894FFCFD7
:102BA40001010101010180000040001400540033C0
:102BB400343536373802030405060708090A0B0CB6
:102BC4000D3637000000000A037402A1025703D235
:102BD40002B002C40200000000AA057D05C0066F11
:102BE400057605730570050000000068076407009A
:102BF400000000BD087402C006080542414E4B00A7
:102C0400505245534554003F0041004200430044A4
:102C1400007C004D49444920504544414C004D4FEF
:102C240044453A20494E444956494455414C004D87
:102C34004F44453A204C4F4F502D2D4452554D0092
:00000001FF
