:1000000024C1000053C1000051C100004FC10000D5
:100010004DC100004BC1000049C1000047C10000B4
:1000200045C1000043C1000041C100003FC10000C4
:100030003DC100003BC1000039C1000037C10000D4
:1000400035C1000033C1000031C100002FC10000E4
:100050002DC100002BC1000029C1000075C50000A2
:1000600025C1000005C30000DAC200001FC1000066
:100070001DC100001BC1000019C1000017C1000014
:1000800015C1000013C1000011C100000FC1000024
:100090000DC100000BC1000009C1000007C1000034
:1000A00005C1000003C1000001C10000FFC0000045
:1000B000FDC00000FBC00000F9C00000F7C0000058
:1000C000F5C00000F3C00000F1C00000EFC0000068
:1000D000EDC00000EBC00000E9C00000E7C0000078
:1000E000E5C00000ED113A121A120F12DA0CDA0C08
:1000F000E711DA0CE711DA0CE711E711E711DA0C76
:10010000E711E711A902AC029B029F02A502E302DC
:10011000B002B402BA02BE02C202C802CC02D002CD
:10012000E302D602DA02DE020000210024002700EA
:100130002A002D00300033000101000004010701F6
:100140000A0100002200250028002B002E003100AB
:10015000340002010000050108010B01000020002D
:100160002300260029002C002F003200000100008F
:10017000030106010901050505050705080808082A
:10018000020202020A0A080804040404010101012F
:10019000010101010303030303030303040707072A
:1001A0000C0C0C0C0C0C0C0C0202020206060606CF
:1001B000060606060B0B0B0B0B0B0B0B010210209C
:1001C000200808102040102040800201020108048D
:1001D0000201010204081020408080402010080421
:1001E000020180040201804020100804020108047A
:1001F00002010102040810204080010204081020BE
:10020000408000000A0B02090C0D0E0807030401D0
:1002100000000000000000000000000000000000DE
:1002200000000000000000000000000000001211AB
:1002300010000000000000000000000000000000AE
:100240000000000000000000721211241FBECFEF5A
:10025000D1E2DEBFCDBF00E00CBF12E0A0E0B2E013
:10026000E2E3F7E200E00BBF02C007900D92A03975
:10027000B107D9F724E0A0E9B2E001C01D92A2388D
:10028000B207E1F711E0C5E2D1E000E006C0219736
:100290000109802FFE010E948B13C432D10780E038
:1002A0000807A9F70E94C4090C949713A9CECF920E
:1002B000DF92EF92FF920F931F93CF93DF936C0126
:1002C0007A018B01C0E0D0E0CE15DF0581F0D801C6
:1002D0006D918D01D601ED91FC910190F081E02DA1
:1002E000C6011995892B11F02196EECF7E01C70129
:1002F000DF91CF911F910F91FF90EF90DF90CF9002
:100300000895FC01538D448D252F30E0842F90E01B
:10031000821B930B541710F0CF9608950197089500
:10032000FC01918D828D981761F0828DDF01A80FFD
:10033000B11D5D968C91928D9F5F9F73928F90E01F
:1003400008958FEF9FEF0895FC01918D828D98178E
:1003500031F0828DE80FF11D858D90E008958FEFCB
:100360009FEF0895FC01918D228D892F90E0805C94
:100370009F4F821B91098F739927089583EE93E015
:10038000F1DF21E0892B09F420E0822F0895FC01A0
:10039000848DDF01A80FB11DA35ABF4F2C91848D0E
:1003A00090E001968F739927848FA689B7892C9343
:1003B000A089B1898C91837080648C93938D848D96
:1003C000981306C00288F389E02D80818F7D808399
:1003D0000895EF92FF920F931F93CF93DF93EC0159
:1003E00081E0888F9B8D8C8D981305C0E889F989F1
:1003F000808185FD25C0F62E0B8D10E00F5F1F4F0D
:100400000F731127E02E8C8DE8120BC00FB607FC7E
:10041000FACFE889F989808185FFF5CFCE01B7DF72
:10042000F2CF8B8DFE01E80FF11DE35AFF4FF082F2
:100430009FB7F8940B8FEA89FB89808180620AC09C
:100440009FB7F894EE89FF896083E889F9898081F4
:100450008370806480839FBF81E090E0DF91CF91C3
:100460001F910F91FF90EF900895CF93DF93EC01D0
:10047000888D8823C1F0EA89FB89808185FD05C0CC
:10048000A889B9898C9186FD0EC00FB607FCF5CFFF
:10049000808185FFF2CFA889B9898C9185FFEDCF46
:1004A000CE0175DFE8CFDF91CF91089580E090E035
:1004B000892B19F063DF811125C080E090E0892B42
:1004C00041F080E090E0892B21F00E940000811132
:1004D0001CC080E090E0892B41F080E090E0892B07
:1004E00021F00E940000811113C080E090E0892B70
:1004F000A1F080E090E0892B81F00E940000811142
:100500000AC008950E940000D8CF0E940000E1CFE9
:100510000E940000EACF0C940000089590E0FC01D6
:100520003197E231F10508F04EC08827EE57FF4FB2
:100530008F4F0C948B13809180008F7703C0809134
:1005400080008F7D80938000089580918000877F58
:10055000F9CF84B58F7702C084B58F7D84BD0895AF
:100560008091B0008F7703C08091B0008F7D809321
:10057000B0000895809190008F7707C0809190001F
:100580008F7D03C080919000877F809390000895B5
:100590008091A0008F7707C08091A0008F7D03C05D
:1005A0008091A000877F8093A00008958091200112
:1005B0008F7707C0809120018F7D03C0809120013B
:1005C000877F8093200108953FB7F8948091AF0210
:1005D0009091B002A091B102B091B20226B5A89B51
:1005E00005C02F3F19F00196A11DB11D3FBFBA2FC5
:1005F000A92F982F8827820F911DA11DB11DBC0125
:10060000CD0142E0660F771F881F991F4A95D1F7E9
:100610000895089580E090E008950E9493131F923A
:100620000F920FB60F9211240BB60F922F933F9398
:100630004F935F936F937F938F939F93AF93BF93EA
:10064000EF93FF9383EE93E0A2DEFF91EF91BF91D2
:10065000AF919F918F917F916F915F914F913F915A
:100660002F910F900BBE0F900FBE0F901F901895FB
:100670001F920F920FB60F9211240BB60F922F9369
:100680008F939F93EF93FF93E091F303F091F40323
:100690008081E091F903F091FA0382FD12C090810C
:1006A0008091FC038F5F8F732091FD03821751F0BF
:1006B000E091FC03F0E0ED51FC4F958F8093FC033B
:1006C00001C08081FF91EF919F918F912F910F90A9
:1006D0000BBE0F900FBE0F901F901895CF93DF9316
:1006E000282F30E0F901EE5FFD4F8491F901E454C9
:1006F000FE4FD491F901EA58FE4FC491CC2389F002
:1007000081110CDFEC2FF0E0EE0FFF1FE45AFE4FDB
:10071000A591B491EC91ED2381E090E021F480E08B
:1007200002C080E090E0DF91CF9108951F93CF93B6
:10073000DF93282F30E0F901EE5FFD4F8491F9013E
:10074000E454FE4FD491F901EA58FE4FC491CC23F2
:10075000B9F0162F8111E2DEEC2FF0E0EE0FFF1F53
:10076000EE5BFE4FA591B4919FB7F894111104C0B0
:100770008C91D095D82302C0EC91DE2BDC939FBFE7
:10078000DF91CF911F910895CF93DF93EC0160E04B
:100790008E81CCDF61E08E81C9DF60E08E81C6DFB3
:1007A0008BE891E00197F1F7DF91CF910895CF9217
:1007B000DF92EF92FF920F931F93CF93C62F8091FA
:1007C000920290919302019739F080919202909158
:1007D0009302892B11F13FC08CE1E82E82E0F82EC4
:1007E00000E010E0C62ED12CC016D10649F461E01D
:1007F000F70186819BDFD0920D02C0920C0204C0EB
:1008000060E0F701868192DF0F5F1F4FF2E0EF0E8D
:10081000F11C0430110541F7D8CF80910C02909162
:100820000D026C2F70E06115710511F480E090E00D
:100830006130710511F481E090E06230710511F4CE
:1008400082E090E06330710511F483E090E09093D2
:100850000D0280930C02CF911F910F91FF90EF90AA
:10086000DF90CF9008958F929F92AF92BF92CF92D8
:10087000DF92EF92FF920F931F93CF93DF93D62FC8
:10088000C42F8091920290919302C62ED12C892B75
:1008900049F0A2E3B2E0E0E0F2E08CE092E021E097
:1008A00030E044C082E3A82E82E0B82E9CE1E92E1D
:1008B00092E0F92E02E912E088248394912CF5014C
:1008C000819191915F01C816D906E9F4CF3769F497
:1008D000F801828193810197B1F461E0F70182818F
:1008E00025DFF801138212820EC0C1110CC0F8017D
:1008F00082819381892B39F460E0F701828116DFD0
:10090000F80193828282F2E0EF0EF11C0E5F1F4F1E
:1009100088E2E81682E0F80691F6BBCFCF3761F4A3
:100920001182108232968E179F0759F04D915D917A
:10093000C416D506B9F7F2CFC111F4CF31832083A5
:10094000F1CF40919202509193024115510521F44B
:10095000D03209F065C002C0D1115EC08091900212
:10096000909191022C2F30E02115310511F480E097
:1009700090E02130310511F481E090E02230310522
:1009800011F482E090E02330310511F483E090E02F
:1009900090939102809390024130510519F0DD232C
:1009A00019F045C0D032D9F7C11105C061E088E324
:1009B000BDDE60E006C0C13059F461E088E3B6DE18
:1009C00061E089E3B3DE60E08AE3B0DE60E016C098
:1009D000C23041F461E088E3A9DE61E089E3A6DE8C
:1009E00061E0F2CFC33019F561E088E39FDE61E09A
:1009F00089E39CDE61E08AE399DE61E08BE3DF91CD
:100A0000CF911F910F91FF90EF90DF90CF90BF900B
:100A1000AF909F908F908ACE4130510541F404C031
:100A2000DD2309F49BCF03C0D03209F4BDCFDF91A1
:100A3000CF911F910F91FF90EF90DF90CF90BF90DB
:100A4000AF909F908F900895CF93DF9390E0FC013B
:100A5000E454FE4F2491FC01EA58FE4F8491882310
:100A600061F190E0880F991FFC01E85DFE4FC59190
:100A7000D491FC01EE5BFE4FA591B491611109C0C8
:100A80009FB7F8948881209582238883EC912E2348
:100A90000BC0623061F49FB7F8948881322F309593
:100AA00083238883EC912E2B2C939FBF06C08FB796
:100AB000F894E8812E2B28838FBFDF91CF91089582
:100AC0008F929F92AF92BF92CF92DF92EF92FF925E
:100AD0006B017C0179DD4B015C01C114D104E1049F
:100AE000F104E9F071DDDC01CB0188199909AA094B
:100AF000BB09883E9340A105B10578F321E0C21AF5
:100B0000D108E108F10888EE880E83E0981EA11C48
:100B1000B11CC114D104E104F10421F7DECFFF9030
:100B2000EF90DF90CF90BF90AF909F908F900895FF
:100B30002FB7F8946091AB027091AC028091AD0236
:100B40009091AE022FBF08951F920F920FB60F9291
:100B500011242F933F938F939F93AF93BF938091D3
:100B6000AB029091AC02A091AD02B091AE02309177
:100B7000AA0223E0230F2D3720F40196A11DB11DF9
:100B800005C026E8230F0296A11DB11D2093AA02DD
:100B90008093AB029093AC02A093AD02B093AE02EF
:100BA0008091AF029091B002A091B102B091B202D7
:100BB0000196A11DB11D8093AF029093B002A09346
:100BC000B102B093B202BF91AF919F918F913F91CB
:100BD0002F910F900FBE0F901F901895CF92DF921C
:100BE000EF92FF920F931F93CF93DF936C017C01E1
:100BF00087E0E80EF11CC0E0D0E0062F10E0B8015D
:100C00000C2E02C0759567950A94E2F76170F701A2
:100C100081917F018BDD2196C430D10581F7C6011A
:100C2000DF91CF911F910F91FF90EF90DF90CF90C8
:100C3000ABCDCF92DF92EF92FF920F931F93CF93A2
:100C4000DF93EC01F62E642F8C8170DD8D818F3F58
:100C500011F060E06BDD8F850F2D10E084FF23C065
:100C60006E0187E0C80ED11CE12CF12CB8010E2CCE
:100C700002C0759567950A94E2F76170F60181915B
:100C80006F0154DDFFEFEF1AFF0A88E0E816F10468
:100C900069F7CE01DF91CF911F910F91FF90EF90F7
:100CA000DF90CF9071CDB80184E0759567958A95F6
:100CB000E1F7CE0193DF6F2DCE01DF91CF911F9130
:100CC0000F91FF90EF90DF90CF9088CF41E0B1DFA0
:100CD00081E090E00895FC018085882319F081E08F
:100CE0009681911180E008951F93CF93DF93EC01DB
:100CF0008F81F4DC182F8E811817B9F019DF288145
:100D00003981AB01BC01421B530B610971098A8116
:100D10009B81A0E0B0E0481759076A077B0728F0DD
:100D200007DF798368831E8319C08C819D81892B9D
:100D3000E1F0FEDE28813981AB01BC01421B530B7F
:100D4000610971098C819D81A0E0B0E048175907C5
:100D50006A077B0750F0ECDE798368831D821C8272
:100D600081E0888781E090E003C0188680E090E011
:100D7000DF91CF911F91089587FF0AC09CE0980FE3
:100D8000923030F08D3F21F0803F18F4807F08953D
:100D900080E00895982F8F7C803849F0903D39F09D
:100DA00081E0903E31F0903C21F080E0089581E0B8
:100DB00008950895DC018D919C91DC01ED91FC91E9
:100DC0000190F081E02D19946D3F28F46A3F28F4DA
:100DD000683F39F402C06E3F20F0FC0180819181B0
:100DE000E9CF08958F929F92AF92BF92CF92DF92F8
:100DF000EF92FF92CF93DF93CDB7DEB7A1970FB6F7
:100E0000F894DEBF0FBECDBFDCD060E081E0C8D07B
:100E100088E792E0C4D061E083E0C2D0C090900245
:100E2000D09091020D2C000CEE08FF08F7FE25C0B3
:100E300041E06DE28BEF92E0FCDE22273327A9012F
:100E40002C193D094E095F0919A2CE0181967C013A
:100E50009AE0892E912CA12CB12CCA01B901A501CF
:100E600094010E946913605DF70162937F0121156F
:100E700031054105510589F71AC0A701960119A24C
:100E8000CE0181967C018AE0882E912CA12CB12C78
:100E9000CA01B901A50194010E946913605DF701BF
:100EA00062937F01211531054105510589F7C7017D
:100EB00065D060E089E074D08DE792E070D061E0A9
:100EC0008BE06ED080910C0290910D0280389105DC
:100ED00019F484E892E063D080910C0290910D02A5
:100EE000892B19F486E892E05AD080910C029091F7
:100EF0000D02019719F488E892E051D080910C021C
:100F000090910D02029719F48AE892E048D08091FE
:100F10000C0290910D02039719F48CE892E03FD0F7
:100F200060E086E03DD08EE892E039D061E086E076
:100F300037D08EE892E033D060E087E031D08EE8A1
:100F400092E02DD061E087E02BD08EE892E027D0B0
:100F5000A1960FB6F894DEBF0FBECDBFDF91CF9143
:100F6000FF90EF90DF90CF90BF90AF909F908F90C9
:100F7000089540E0682F8BEF92E05BCE009761F020
:100F8000FC0101900020E9F73197AF01481B590B94
:100F9000BC018BEF92E08BC980E090E00895EECF2A
:100FA000643008F063E090910E03691710F06FEF62
:100FB000690FE62FF0E0E550FD4F9489890F8068B6
:100FC000D8CF81E0D6DF8BE39FE10197F1F7089559
:100FD000CF93DF93823028F090910A03986090932A
:100FE0000A0380930E0310920F0380E48093100392
:100FF00080E18093110380E58093120361E080918A
:10100000FF0222DD809100038F3F11F061E01CDDC3
:1010100061E08091010318DDCBEFD2E09E012B5FF0
:10102000324080910A0384FD03C084E090E002C056
:1010300088E090E021962817390724F461E08E813A
:1010400003DDECCF8BE39DE00197F1F760E0809149
:10105000FF026CDB60E08091010368DB809100039C
:101060008F3F11F060E062DB80910A0384FD1CC0B9
:1010700063E08BEF92E0B2DDCBE4D6E4CE010197E2
:10108000F1F763E08BEF92E0A9DD2197F1F763E0E0
:101090008BEF92E0A3DD83E592E00197F1F762E048
:1010A0008BEF92E09BDD12C0806263DF8BE496E4FD
:1010B0000197F1F780910A0380625BDF83E592E09C
:1010C0000197F1F780910A03806253DF80910A0350
:1010D00080624FDF84E080930B038CE04ADF71DF96
:1010E00082E080930C0386E0DF91CF9142CF1F9383
:1010F000CF93DF93813E20F52150203150F587FFBB
:1011000028C0D42F162FC82F622F682B80913D0343
:1011100090913E034FDE612F6F7780913D03909158
:101120003E0348DE8C2F8F7E803C99F06D2F6F77C9
:1011300080913D0390913E03DF91CF911F913ACE74
:10114000883F38F0682F8DE393E0DF91CF911F91B6
:101150003BCEDF91CF911F9108950F931F93CF93B3
:10116000DF93082F162FC3E1D3E060EB8AA59BA580
:1011700021DE602F6F778AA59BA51CDE612F6F771C
:101180008AA59BA5DF91CF911F910F9113CE0F934D
:101190001F93CF93C82F03E113E060ECF80182A501
:1011A00093A508DE6C2F6F77F80182A593A5CF91E8
:1011B0001F910F91FFCDE0911303F091140330972D
:1011C00019F08EE493E0199580914F03823F09F462
:1011D000B3C000F5803C09F48CC068F48039C1F1DB
:1011E00018F4803881F10895803A09F46FC0803B8B
:1011F00009F451C00895803E09F452C020F4803DA6
:1012000009F472C00895803F09F47FC0813F09F45A
:101210008EC008958A3F31F168F4863F09F4A7C073
:1012200020F4833F09F49AC00895883FB1F0893FC4
:10123000F1F008958C3F29F1F8F08E3F39F18F3F9E
:1012400009F49AC00895E0911703F091180342C081
:10125000E0911903F0911A033DC0E0912F03F09142
:1012600030038EC0E0913103F091320389C0E091E8
:101270003303F091340384C0E0913503F0913603D9
:101280007FC0E0913703F09138037AC0E0913903D1
:10129000F0913A0375C0E0911D03F0911E031AC04E
:1012A000E0912303F0912403309709F46CC060911E
:1012B00051036F7720E8629FB001112480915003A1
:1012C0008F77682B705280914E031994E0911B0325
:1012D000F0911C03309709F456C04091510360917E
:1012E000500380914E031994E0912103F091220361
:1012F00004C0E0911F03F0912003309709F443C02C
:101300006091500380914E031994E0912503F09170
:1013100026033097C1F160915003709151036138F9
:10132000710510F060E870E082E593E01994E091B7
:101330002703F091280316C0E0912903F0912A03B6
:10134000309709F1809151038F7720E8829FC00187
:101350001124209150032F77822B1994E0912B03B5
:10136000F0912C03309779F0809150031994E0911B
:101370002D03F0912E0304C0E0913B03F0913C0358
:10138000309709F019940895789484B5826084BDEB
:1013900084B5816084BD85B5826085BD85B5816079
:1013A00085BD80916E00816080936E0010928100F7
:1013B00080918100826080938100809181008160B2
:1013C0008093810080918000816080938000809173
:1013D000B10084608093B1008091B00081608093FF
:1013E000B000809191008260809391008091910083
:1013F0008160809391008091900081608093900043
:101400008091A10082608093A1008091A100816001
:101410008093A1008091A00081608093A0008091C2
:10142000210182608093210180912101816080935C
:1014300021018091200181608093200180917A00B8
:10144000846080937A0080917A00826080937A0031
:1014500080917A00816080937A0080917A00806820
:1014600080937A001092C100E0913D03F0913E0319
:101470000190F081E02DA089B189D2E0DC93A485B0
:10148000B5851C92A685B7858FE38C93108EA489B1
:10149000B589C6E0CC93A289B3898C9180618C9385
:1014A000A289B3898C9188608C93A289B3898C912D
:1014B00080688C930288F389E02D80818F7D808302
:1014C00010923F0310924103109240031092480380
:1014D0001092470310924603109245038FEF9FEF3F
:1014E00090934A038093490390934C0380934B035A
:1014F0001FDB6093D5037093D6038093D70390933B
:10150000D8031092D20310924F0310924E03109200
:101510005003109251031092D4031092D303809180
:101520004D0381708260816080934D03E091F303ED
:10153000F091F403D083E091EF03F091F003108277
:10154000E091F103F091F20380E180831092FB03BC
:10155000E091F703F091F803C083E091F503F09177
:10156000F603808180618083E091F503F091F603BA
:10157000808188608083E091F503F091F60380819B
:1015800080688083E091F503F091F60380818F7D80
:10159000808383E394E090931E0380931D0387ED83
:1015A00093E09093200380931F03CEE0D2E00CE100
:1015B00012E08881229662E047DA0C171D07C9F70E
:1015C00002E312E0CCE1D2E08881229661E03CDACD
:1015D0000C171D07C9F782E0FBDC60E080E0E0DC6F
:1015E00064EF71E080E090E06BDA60E080E0B5DD10
:1015F00080E0CDDD00E810E05524539460EF462EE6
:1016000072E0672E712CC1E0D0E0E3E08E2E912CC9
:10161000F8E22F2EF2E03F2EC0903F0320E12C1580
:1016200008F4C8C1E0913D03F0913E0380819181AF
:10163000DC01ED91FC910084F185E02D1995892B59
:1016400009F4B8C18091E2038E7F8093E203E091B8
:101650003D03F0913E0380819181DC01ED91FC918D
:101660000284F385E02D1995F82EBDEF8B1709F450
:10167000A1C18091470390914803009709F063C08E
:10168000F0924203E09040038E2D76DB83DB8823CB
:1016900051F0F7FC08C0E0924203F0924303D0936C
:1016A0004803C0934703F09042038F2D65DB813FD1
:1016B000B9F1B0F4803BC9F140F48039B1F1803A1E
:1016C000A1F1803809F054C030C0803D49F118F4D0
:1016D000803C31F14DC0803E41F1803F59F148C01E
:1016E000873F41F130F4833FD9F0F8F0863F29F08D
:1016F0003FC08D3F10F08E3FD8F180934F03109282
:101700004E0310925003109251035092D203109244
:1017100048031092470310924603109245032DC1CF
:1017200070924603609245033AC0909246038092BD
:10173000450335C0109346030093450310924003C0
:10174000809352032CC0F7FE8FC0ECEFEF1508F426
:101750005BC0F8EFFF1608F05AC020EFF2124FC03E
:1017600020915203203F09F461C0273F09F45EC075
:101770008091E20381608093E203E0911503F09190
:101780001603309709F019951092480310924703F9
:101790001092460310924503109240030BC1209112
:1017A000470330914803409145035091460341500F
:1017B000510924173507E0F080934F038F2D8F7068
:1017C000FF24F394F80EF0924E038091430380932C
:1017D000500310925103D093D403C093D3031092BB
:1017E00048031092470310924603109245031BC012
:1017F0002F5F3F4F3093480320934703DBC037EF01
:10180000F31609F4ADCF30C04EEFF41668F1F09244
:101810004F03109250031092510310924E03D09335
:10182000D403C093D3035092D203A7C09C012F5F6F
:101830003F4FFC01ED5EFC4FF7AE40924F0320930B
:1018400050033093510310924E033093D4032093EE
:10185000D3035092D2031092480310924703109280
:1018600046031092450380C020914203FC01ED5EC7
:10187000FC4F203F11F0273F11F4F7AE01C0F7A64F
:10188000E0904503F09046039701215031098217FB
:10189000930708F46CC0B090420350EFB51619F0EE
:1018A00087EFB8121EC0F090D1034092D10340924E
:1018B0004F03A0E8A09350031092510310924E03DF
:1018C0001093D4030093D3035092D20374DCB7EF88
:1018D000B0935203F092530370924803609247030F
:1018E00069C08B2D49DAD82E80934F0353DA8823B1
:1018F00031F08B2D8F708F5F80934E0302C010925A
:101900004E038091430380935003E3E0EE16F1040D
:1019100019F48091440301C080E080935103109238
:1019200048031092470310924603109245035092C9
:10193000D203F0EBDF16A9F0FD1550F020E9D21626
:1019400081F030EAD31669F040E8D4120DC009C026
:1019500050EDD51631F080EED81619F0A0ECDA1261
:1019600003C0B092400309C01092400306C0019624
:1019700090934803809347031DC080914F038039A3
:1019800029F480915103882309F48FC580914F0376
:101990008058813608F08DC580914E03C81609F431
:1019A00088C5CC2009F485C580914D03382F31704E
:1019B00080FDD7C482E00E946E039093A3028093BF
:1019C000A2022091A0023091A1028217930709F48C
:1019D000C0C08130910509F0BCC0209192023091C5
:1019E00093022130310509F046C010929302109203
:1019F000920261E089E00E949603E3DA60E083E00E
:101A0000CFDA8CE592E0CBDA61E080E0C9DA87E6F4
:101A100092E0C5DA90E0C92E92E0D92E22E9E22EBA
:101A200022E0F22E3CE1A32E32E0B32ED6018D91BE
:101A30009D916D01892B59F461E0F50182810E942D
:101A40009603D70113961C921E9212970AC060E06B
:101A5000F50182810E949603D7011396DC93CE9301
:101A60001297B2E0AB0EB11CE2E0EE0EF11C2A14AC
:101A70003B04E1F66EC0232B09F06BC090939302F8
:101A80008093920260E089E00E949603ABD9A09017
:101A90000C02B0900D02F0E8AF16B10461F4809131
:101AA000900290919102009721F561E088E30E94F5
:101AB000960360E026C08CE1C82E82E0D82EE12C8F
:101AC000F12CAE14BF0429F461E0D60116968C9176
:101AD00003C060E0F60186810E949603FFEFEF1AD3
:101AE000FF0A22E0C20ED11C34E0E316F10449F7EC
:101AF000D6CF8130910551F461E088E30E949603CE
:101B000061E089E30E94960360E00CC08230910599
:101B100071F461E088E30E94960361E089E30E942A
:101B2000960361E08AE30E94960360E00FC003978A
:101B300081F461E088E30E94960361E089E30E94FA
:101B4000960361E08AE30E94960361E08BE30E94C2
:101B500096038091A2029091A3029093A102809398
:101B6000A0026AE070E080E090E00E946005809151
:101B7000920290919302892B09F03CC089EE92E089
:101B8000B3D889EE92E0A7D8882309F49CC080914D
:101B90009402909195028130910561F46FE783E39F
:101BA000DCDA61E08AE00E949603109295021092BE
:101BB00094020DC0892B59F460E083E3CEDA60E033
:101BC0008AE00E949603D0939502C093940280917C
:101BD000960290919702892B09F06EC060E084E331
:101BE000BCDA60E08BE00E949603D0939702C0932A
:101BF000960262C060E08AE00E94960382EF92E063
:101C000073D882EF92E067D8882309F498C0809156
:101C1000900290919102019797FD05C090939102D7
:101C20008093900204C09092910280929002DAD840
:101C300061E08AE00E949603809190029091910267
:101C4000009731F461E088E30E94960360E008C0E9
:101C50008130910551F461E088E30E94960361E0D0
:101C600089E30E94960360E00CC08230910571F414
:101C700061E088E30E94960361E089E30E94960395
:101C800061E08AE30E94960360E00FC00397A1F42D
:101C900061E088E30E94960361E089E30E94960375
:101CA00061E08AE30E94960361E08BE30E94960361
:101CB00010930D0200930C02809192029091930276
:101CC000892B09F03CC087ED92E00ED887ED92E0B9
:101CD00002D8882309F49EC08091960290919702C1
:101CE0008130910561F46FE784E337DA61E08BE0DE
:101CF0000E94960310929702109296020DC0892BB3
:101D000059F460E084E329DA60E08BE00E949603F6
:101D1000D0939702C093960280919402909195027D
:101D2000892B09F071C060E083E317DA60E08AE094
:101D30000E949603D0939502C093940265C060E020
:101D40008BE00E94960380EE92E00E94740680EE83
:101D500092E00E946B06882309F489C0809190026A
:101D6000909191020196843091052CF49093910208
:101D70008093900204C0109291021092900232D887
:101D800061E08BE00E949603809190029091910215
:101D9000009731F461E088E30E94960360E008C098
:101DA0008130910551F461E088E30E94960361E07F
:101DB00089E30E94960360E00CC08230910571F4C3
:101DC00061E088E30E94960361E089E30E94960344
:101DD00061E08AE30E94960360E00FC00397A1F4DC
:101DE00061E088E30E94960361E089E30E94960324
:101DF00061E08AE30E94960361E08BE30E94960310
:101E000010930D0200930C02809192029091930224
:101E1000892B69F58EEC92E00E9474068EEC92E0BC
:101E20000E946B06882309F48CC0809198029091DF
:101E300099028130910561F46FE785E38ED961E005
:101E40008CE00E949603109299021092980273C03F
:101E5000892B09F076C060E085E37FD960E08CE0F3
:101E60000E949603D0939902C093980264C08EECAE
:101E700092E00E9474068EEC92E00E946B0688232A
:101E800009F48CC010920D0210920C026091900225
:101E900080E063D980910C027AD90E94F20661E059
:101EA0008CE00E94960360E08DE00E94960360E063
:101EB00086E30E94960360E087E30E949603809188
:101EC000900290919102009731F461E088E30E94C2
:101ED000960360E008C08130910551F461E088E329
:101EE0000E94960361E089E30E94960360E00CC0C3
:101EF0008230910571F461E088E30E94960361E00D
:101F000089E30E94960361E08AE30E94960360E001
:101F10000FC0039781F461E088E30E94960361E0BB
:101F200089E30E94960361E08AE30E94960361E0E0
:101F30008BE30E9496038091920290919302892BE9
:101F400069F585EC92E00E94740685EC92E00E94AF
:101F50006B06882309F48CC080919A0290919B02B1
:101F60008130910561F46FE786E3F7D861E08DE099
:101F70000E94960310929B0210929A0273C0892BC2
:101F800009F076C060E086E3E8D860E08DE00E946A
:101F90009603D0939B02C0939A0264C085EC92E0B2
:101FA0000E94740685EC92E00E946B06882309F477
:101FB0008CC0D0930D02C0930C026091900280E01F
:101FC000CCD880910C02E3D80E94F20661E08DE04B
:101FD0000E94960360E08CE00E94960360E086E336
:101FE0000E94960360E087E30E949603809190022E
:101FF00090919102009731F461E088E30E9496038A
:1020000060E008C08130910551F461E088E30E94EE
:10201000960361E089E30E94960360E00CC0823081
:10202000910571F461E088E30E94960361E089E321
:102030000E94960361E08AE30E94960360E00FC06D
:10204000039781F461E088E30E94960361E089E3ED
:102050000E94960361E08AE30E94960361E08BE3AD
:102060000E9496038091920290919302892B69F5C8
:102070008CEB92E00E9474068CEB92E00E946B065F
:10208000882309F48CC080919C0290919D0281303C
:10209000910561F46FE787E360D861E086E30E9411
:1020A000960310929D0210929C0273C0892B09F036
:1020B00076C060E087E351D860E086E30E94960333
:1020C000D0939D02C0939C0264C08CEB92E00E946E
:1020D00074068CEB92E00E946B06882309F48EC094
:1020E00070920D0260920C026091900280E035D8EF
:1020F00080910C024CD80E94F20661E086E30E94B7
:10210000960360E08CE00E94960360E08DE00E9400
:10211000960360E087E30E9496038091900290917D
:102120009102009731F461E088E30E94960360E039
:1021300008C08130910551F461E088E30E94960364
:1021400061E089E30E94960360E00CC08230910553
:1021500071F461E088E30E94960361E089E30E94E4
:10216000960361E08AE30E94960360E00FC0039744
:1021700081F461E088E30E94960361E089E30E94B4
:10218000960361E08AE30E94960361E08BE30E947C
:1021900096038091920290919302892B79F583EBBB
:1021A00092E00E94740683EB92E00E946B06882303
:1021B00009F48AC080919E0290919F02813091051E
:1021C00069F46FE788E30E94AD0861E087E30E944D
:1021D000960310929F0210929E0276C0892B09F0FE
:1021E00073C060E088E30E94AD0860E087E30E946E
:1021F0009603D0939F02C0939E0266C083EB92E049
:102200000E94740683EB92E00E946B06882309F417
:102210005BC090920D0280920C026091900280E06F
:102220000E94AD0880910C020E94C7080E94F2062D
:1022300061E087E30E94960360E08CE00E949603D1
:1022400060E08DE00E94960360E086E30E949603C2
:102250008091900290919102009731F461E088E3BF
:102260000E94960360E008C08130910551F461E05E
:1022700088E30E94960361E089E30E94960360E090
:102280000CC08230910571F461E088E30E949603EE
:1022900061E089E30E94960361E08AE30E9496036D
:1022A00060E00FC0039781F461E088E30E94960329
:1022B00061E089E30E94960361E08AE30E9496034D
:1022C00061E08BE30E94960380910C0290910D02D5
:1022D0008038910509F042C00E949805C090A6027E
:1022E000D090A702E090A802F090A9029B01AC0157
:1022F0002C193D094E095F0969017A0134EFC316B3
:1023000031E0D306E104F10448F16093A602709332
:10231000A7028093A8029093A9028091A4029091B1
:10232000A502892B29F4D093A502C093A40204C06E
:102330001092A5021092A402F090A4026F2D8CE0DE
:102340000E9496036F2D8DE00E9496036F2D86E309
:102350000E9496036F2D87E30E9496030E94560207
:102360005BC9982F9E7F09F425CB90914F0320E8FD
:10237000290F2136F0F420914E03C21619F031E0F6
:10238000C11030E08695823031F0833041F08130E9
:1023900009F010CB06C0332309F40CCB02C0311175
:1023A00009CB4091510360915003892F0E94770817
:1023B00001CB492F50E0FA01E05FF109E031F1056E
:1023C00008F0F8CA8827EE58FF4F8F4FA4C1692F35
:1023D0008DE393E00E94E406EDCA53E1C52E53E07D
:1023E000D52E80915003909151038138910510F0C2
:1023F00080E890E0FC01ED5EFC4F7F01EC14FD04F1
:1024000009F4D8CAD601DF966C9180913D03909172
:102410003E030E94DA06BFEFCB1ADB0AEFCFF09043
:10242000500363EF80913D0390913E030E94DA06D2
:102430006F2D1EC0E0905103E0E8EE9E7001112464
:1024400080915003E82A62EF80913D0390913E0312
:102450000E94DA066E2D6F7780913D0390913E03C6
:102460000E94DA06B701660F672F661F770B71951A
:102470006F7714C0809150038770F0E18F9FC00187
:102480001124209151032F70F22EF82A61EF8091D0
:102490003D0390913E030E94DA066F2D80913D032B
:1024A00090913E030E94DA0685CA40E840934F03AC
:1024B0006DCA0E94DB0878CA1F93CF93DF93EC01AB
:1024C000162F3B832A831D821C820E9498057983E4
:1024D0006883812F0E946E038E831F83DF91CF91CB
:1024E0001F910895E3EEF3E01382128288EE93E0E9
:1024F000A0E0B0E084839583A683B78382E492E072
:102500009183808385EC90E09587848784EC90E0CC
:102510009787868780EC90E0918B808B81EC90E0B0
:10252000938B828B82EC90E0958B848B86EC90E091
:10253000978B868B118E128E138E148EF0938104DE
:10254000E0938004E3E1F3E01182108213821282AF
:1025500015821482178216821186108613861286BF
:102560001586148617861686118A108A138A128A8F
:10257000158A148A178A168A118E108E138E128E5F
:10258000158E148E178E168E11A210A213A212A2EF
:1025900015A214A217A216A211A610A680E894E014
:1025A00093A782A714A615A616A613AA12AA15AA5F
:1025B00014AA8FEF9FEF97AB86AB91AF80AF83E00C
:1025C00080934D0313AE14AE15AE16AE1092D20327
:1025D00080E8E2E5F3E0DF011D928A95E9F71092C9
:1025E000D5031092D6031092D7031092D8031092FD
:1025F000D9031092DA031092DB031092DC031092DD
:10260000DD031092DE031092DF031092E0031092BC
:10261000E1031092E203EBEFF2E01382128284E511
:1026200092E0918380838FE184838FEF858381E2C1
:10263000868383E2878385E2808787E2818789E2D8
:1026400082871386148615861686178681E00E9477
:10265000E80724E630E040E050E063E082EF92E0FB
:102660002BDF26E430E040E050E063E089EE92E0CA
:1026700023DF24E630E040E050E064E080EE92E0CA
:102680001BDF2CE830E040E050E064E087ED92E0B2
:1026900013DF2CE830E040E050E065E08EEC92E0A3
:1026A0000BDF26E430E040E050E066E085EC92E0AD
:1026B00003DF26E430E040E050E067E08CEB92E09E
:1026C000FBDE2CE830E040E050E068E083EB92E095
:1026D000F3CEA1E21A2EAA1BBB1BFD010DC0AA1F3F
:1026E000BB1FEE1FFF1FA217B307E407F50720F07B
:1026F000A21BB30BE40BF50B661F771F881F991FF6
:102700001A9469F760957095809590959B01AC013E
:10271000BD01CF010895EE0FFF1F881F8BBF0790EB
:10272000F691E02D199481E090E0F89400C0F894BF
:02273000FFCFD9
:10273200010001000100010001000100800002000F
:1027420003000400050006000700080009000A0053
:102752000B000C000D0036003700380039003A003B
:102762003B003300340035003600370038000000EB
:102772000000E901570181013502B2019001A40173
:1027820000000000660657010A0309034D49444947
:1027920020504544414C004D4F44453A20494E4457
:1027A2004956494455414C0042414E4B0050524516
:1027B200534554003F0041004200430044007C0066
:020000023000CC
:10E000000D9489F10D94B2F10D94B2F10D94B2F129
:10E010000D94B2F10D94B2F10D94B2F10D94B2F1F0
:10E020000D94B2F10D94B2F10D94B2F10D94B2F1E0
:10E030000D94B2F10D94B2F10D94B2F10D94B2F1D0
:10E040000D94B2F10D94B2F10D94B2F10D94B2F1C0
:10E050000D94B2F10D94B2F10D94B2F10D94B2F1B0
:10E060000D94B2F10D94B2F10D94B2F10D94B2F1A0
:10E070000D94B2F10D94B2F10D94B2F10D94B2F190
:10E080000D94B2F10D94B2F10D94B2F10D94B2F180
:10E090000D94B2F10D94B2F10D94B2F10D94B2F170
:10E0A0000D94B2F10D94B2F10D94B2F10D94B2F160
:10E0B0000D94B2F10D94B2F10D94B2F10D94B2F150
:10E0C0000D94B2F10D94B2F10D94B2F10D94B2F140
:10E0D0000D94B2F10D94B2F10D94B2F10D94B2F130
:10E0E0000D94B2F12A00593D506F727420626C6930
:10E0F0006E6B00563D73686F7720696E746572723F
:10E1000075707420566563746F727300523D447568
:10E110006D702052414D00513D51756974004C3D68
:10E120004C69737420492F4F20506F7274730048EC
:10E130003D48656C7000463D44756D7020464C410D
:10E14000534800453D44756D7020454550524F4D34
:10E1500000423D426C696E6B204C454400403D4599
:10E160004550524F4D2074657374003F3D435055E8
:10E1700020737461747300303D5A65726F2061645E
:10E18000647200504F5254004545206572722063FE
:10E190006E743D0052656164696E672045450057A5
:10E1A00072697474696E672045450020004D75736F
:10E1B000742062652061206C657474657200506F14
:10E1C0007274206E6F7420737570706F72746564F2
:10E1D000005768617420706F72743A006A6D702025
:10E1E00000726A6D702020006E6F20766563746F18
:10E1F00072005623202020414444522020206F707A
:10E2000020636F64652020202020696E737472750E
:10E210006374696F6E2061646472202020496E749B
:10E2200065727275707400352E342E3000322E30C7
:10E230002E30004A616E2032362032303231004CAE
:10E240006F636B20667573652020203D2000457844
:10E25000742066757365202020203D200048696782
:10E260006820667573652020203D20004C6F772064
:10E2700066757365202020203D20004350552049BD
:10E28000442020202020203D200047434320566585
:10E290007273696F6E203D2000415652204C6962B6
:10E2A00043205665723D20005F5F4156525F4152E8
:10E2B00043485F5F3D2000435055205479706520EE
:10E2C0002020203D2000436F6D70696C6564206FD5
:10E2D0006E203D20004875683F00426F6F746C6F80
:10E2E000616465723E0041726475696E6F20657885
:10E2F000706C6F7265722073746B353030563220DB
:10E300006279204D4C530041546D6567613235365A
:10E31000300011241FBECFEFD1E2DEBFCDBF01E040
:10E320000CBF12E0A0E0B2E0E4E2F7EF03E00BBFC5
:10E3300002C007900D92A430B107D9F722E0A4E003
:10E34000B2E001C01D92A231B207E1F70F94EFF2E3
:10E350000D9490FB01E20EBF0FEF0DBF11241FBE05
:10E360000D94EFF20D9400F08093C6008091C000F0
:10E3700086FFFCCF8091C00080648093C000089528
:10E3800020E030E02817390749F0EFECF7E031974B
:10E39000F1F700C000002F5F3F4FF4CF0895CF93F7
:10E3A000DF93EC01C60FD11DCE01A0E0B0E0ABBF02
:10E3B000FC018791882321F021960F94B4F1F4CFCA
:10E3C000DF91CF9108958DE00F94B4F18AE00D9420
:10E3D000B4F10F94CFF10D94E3F1CF93DF93EC01FF
:10E3E0008991882319F00F94B4F1FACFDF91CF917E
:10E3F0000895CF93C82F982F92959F7080E3890F2F
:10E400008A3310F087E3890F0F94B4F1CF7080E363
:10E410008C0F8A3310F087E38C0FCF910D94B4F1F9
:10E420000F931F93CF93DF93EC018B0185369105FA
:10E430001CF4633071054CF0CE0164E670E00F947B
:10E4400029FB80E3860F0F94B4F1CB30D1051CF487
:10E45000023011056CF0CE0164E670E00F9429FBE8
:10E460006AE070E00F9429FB80E3860F0F94B4F10B
:10E47000CE016AE070E00F9429FB805DDF91CF91BF
:10E480001F910F910D94B4F18091C00087FFFCCFD4
:10E490008091C6000895CF93C82F60E083E891EE85
:10E4A0000F94CFF18C2F0F94B4F1CF910D94E3F131
:10E4B0002F923F924F925F926F927F928F929F9294
:10E4C000AF92BF92CF92DF92EF92FF920F931F9382
:10E4D000CF93DF93CDB7DEB763970FB6F894DEBF67
:10E4E0000FBECDBF082F6A017B0180E1382E10E0FE
:10E4F0004E0181E1880E911C91E0C916D104E90614
:10E50000F10418F08E2D0F94F9F18D2D0F94F9F17F
:10E510008C2D0F94F9F180E20F94B4F18DE20F94F9
:10E52000B4F180E20F94B4F11982FE0131965F01DB
:10E53000260137012E2EBB8A013051F028F002301F
:10E5400059F4F201108108C06BBEF201179104C0AA
:10E55000C2010F947AFB182F812F0F94F9F180E2FA
:10E560000F94B4F180EE810F8F3518F4F50110830C
:10E5700003C08EE2F50180839FEF491A590A690AA8
:10E58000790AEFEFAE1ABE0AA814B904A9F6F0E1B1
:10E59000CF0ED11CE11CF11C198A822D9B890F948E
:10E5A000EDF10F94E3F13A943110A6CF63960FB6D4
:10E5B000F894DEBF0FBECDBFDF91CF911F910F91B9
:10E5C000FF90EF90DF90CF90BF90AF909F908F9093
:10E5D0007F906F905F904F903F902F900895CF93D2
:10E5E000DF93CDB7DEB7CF52D1400FB6F894DEBF80
:10E5F0000FBECDBF01E20EBF0FEF0DBF94B7F89471
:10E60000A89514BE8091600088618093600010928C
:10E610006000789493FF05C0E0910402F091050238
:10E620001995279A2F9A8091C00082608093C0002C
:10E6300080E18093C40088E18093C100000000E085
:10E6400010E0C12CD12C7601B7EC8B2EBBE19B2EB8
:10E65000A12CB12C8091C00087FD26C001151105A9
:10E6600019F525E02A95F1F700003FEFC31AD30A08
:10E67000E30AF30A91E080E041E2C4164EE4D406D6
:10E68000E104F10408F490E0092F182FC701B60146
:10E69000A50194010F943DFB672B682B692BD1F6E4
:10E6A00085B1805885B9D6CF0F5F1F4F0130110556
:10E6B00011F00D94FFFAC65DDE4F19821882CA521E
:10E6C000D140E12CF12C612CB12CCA5DDE4F1982B6
:10E6D0001882C652D140CE5DDE4F188219821A824E
:10E6E0001B82C252D140212C312C210120E030E08C
:10E6F00080E001301105C1F041E052E16AE770E0CD
:10E700009091C00097FD10C04150510961097109F5
:10E71000B9F76BBFFA01479156914F3F5F4F61F3D5
:10E72000EE27FF270994E8CF9091C600C65DDE4F23
:10E73000A881B981CA52D1401196C65DDE4FB98316
:10E74000A883CA52D140913209F0F7C41A9708F051
:10E7500052C5BFEFEB1AFB0AE3E0EE16F10409F035
:10E760004CC5A5E0EA2EF12C09E110E081E20F94FE
:10E77000B4F101501109D1F70F94E3F1F1E0EF1A70
:10E78000F10891F710920E0210920F0210921002EF
:10E790001092110210920A0210920B0210920C02B7
:10E7A00010920D02109206021092070210920802B7
:10E7B0001092090260E086EE92EE0F94E9F11FEFED
:10E7C000F9E07F2E60E08AED92EE0F94CFF10F9486
:10E7D00044F2082F803608F00F75003230F0802F99
:10E7E0000F94B4F180E20F94B4F1063409F4CFC170
:10E7F00008F097C0003409F408C108F08BC000335A
:10E8000009F4EDC00F3309F092C462E08BE691EE9B
:10E810000F94E9F160E086EE92EE0F94E9F160E08A
:10E8200086EC92EE0F94CFF160E083E392EE0F94CA
:10E83000E9F160E087EB92EE0F94CFF160E087E0C2
:10E8400093EE0F94E9F160E088EA92EE0F94CFF135
:10E8500086E30F94B4F10F94E3F160E08AE892EE5E
:10E860000F94CFF160E087E292EE0F94E9F160E05F
:10E8700089E992EE0F94CFF160E08DE292EE0F9471
:10E88000E9F160E08BE792EE0F94CFF18EE10F9407
:10E89000F9F188E90F94F9F181E00F94F9F10F94FF
:10E8A000E3F160E08CE692EE0F94CFF1E0E0F0E06F
:10E8B0007092570084910F94F9F10F94E3F160E0A6
:10E8C0008DE592EE0F94CFF1E3E0F0E07092570007
:10E8D00084910F94F9F10F94E3F160E08EE492EEED
:10E8E0000F94CFF1E2E0F0E07092570084910F9422
:10E8F000F9F10F94E3F160E08FE392EE0F94CFF122
:10E90000E1E0F0E07092570084910F94F9F10F94D8
:10E91000E3F158CF023409F4F6C0053409F40DC10F
:10E9200006C4013509F497C168F5083409F453C1E8
:10E930000C3409F0FCC362E08EE191EE0F94E9F132
:10E9400081E40F944BF282E40F944BF283E40F9432
:10E950004BF284E40F944BF285E40F944BF286E47F
:10E960000F944BF287E40F944BF288E40F944BF230
:10E970008AE40F944BF28BE40F944BF28CE40F94E7
:10E980004BF220CF063509F470C1093509F4D5C220
:10E99000023509F0CCC362E08CE091EE0F94E9F10E
:10E9A00040910E0250910F0260911002709111027D
:10E9B00082E00F9458F280910E0290910F02A09184
:10E9C0001002B09111029F5FAF4FBF4F80930E02B4
:10E9D00090930F02A0931002B0931102F3CE62E065
:10E9E00087E791EE0F94E9F110920A0210920B0260
:10E9F00010920C0210920D0210920E0210920F0251
:10EA0000109210021092110275C062E08DE591EE35
:10EA10000F94E9F160E08FE991EE0F94E9F10F9422
:10EA2000E3F1E12CF12CC7018A519D41A0E0B0E057
:10EA3000ABBFFC0107910A32B9F0E11422E0F20603
:10EA400099F0602FC7010F9482FB011106C060E0AE
:10EA50008BEA91EE0F94CFF103C0802F0F94B4F1A5
:10EA6000FFEFEF1AFF0ADFCF0F94E3F10F94E3F10A
:10EA700060E084E991EE0F94E9F10F94E3F1C12C89
:10EA8000D12CE12CF12CC7018A519D41A0E0B0E0CE
:10EA9000ABBFFC0107910A32D9F0E11452E0F50650
:10EAA000B9F0C7010F947AFBB82E811106C060E05F
:10EAB0008BEA91EE0F94CFF102C00F94B4F1B0162F
:10EAC00019F03FEFC31AD30A4FEFE41AF40ADBCF71
:10EAD0000F94E3F10F94E3F160E088E891EE0F9476
:10EAE000CFF161E070E0C6010F9410F20F94E3F1F2
:10EAF0000F94E3F11092060210920702109208029E
:10EB0000109209025FCE62E081E591EE0F94E9F187
:10EB1000279A2F9A8091C00087FD0CC02F9884E619
:10EB200090E00F94C0F12F9A84E690E00F94C0F12A
:10EB3000F1CF12B80F9444F245CE62E083E491EE37
:10EB40000F94E9F14091060250910702609108028A
:10EB50007091090281E00F9458F280910602909121
:10EB60000702A0910802B09109029F5FAF4FBF4F0B
:10EB70008093060290930702A0930802B0930902C3
:10EB800081159041A105B10508F41CCEB3CF62E018
:10EB900086E391EE0F94E9F140910A0250910B0245
:10EBA00060910C0270910D0280E00F9458F28091F8
:10EBB0000A0290910B02A0910C02B0910D029F5F8E
:10EBC000AF4FBF4F80930A0290930B02A0930C02A9
:10EBD000B0930D02F7CD62E08FE291EE0F94E9F170
:10EBE00060E087E791EE0F94E9F160E08BE691EE4B
:10EBF0000F94E9F160E08DE591EE0F94E9F160E0AA
:10EC000081E591EE0F94E9F160E083E491EE0F94D9
:10EC1000E9F160E086E391EE0F94E9F160E08FE2C4
:10EC200091EE0F94E9F160E08EE191EE0F94E9F13D
:10EC300060E087E191EE0F94E9F160E08CE091EE05
:10EC40000F94E9F160E083EF90EE0F94E9F160E05A
:10EC500086EE90EE6FC262E087E191EE0F94E9F1EB
:10EC6000E12CF12C77247394DBC262E083EF90EE09
:10EC70000F94E9F160E087E093EE0F94E9F160E032
:10EC800082EF91EE0F94E9F1C85DDE4F1982188290
:10EC9000C852D140C25EDE4F188219821A821B828E
:10ECA000CE51D140C25EDE4F88819981AA81BB815D
:10ECB000CE51D140B695A79597958795C45DDE4F07
:10ECC00088839983AA83BB83CC52D140C85DDE4F31
:10ECD000A881B981C852D1401196C85DDE4FB98371
:10ECE000A883C852D14062E070E0CD010F9410F2C9
:10ECF00080E20F94B4F18DE20F94B4F180E20F94AE
:10ED0000B4F180E00F94F9F1C45DDE4F8881CC52FC
:10ED1000D1400F94F9F180E20F94B4F18DE30F9498
:10ED2000B4F180E20F94B4F1C25EDE4F28813981E4
:10ED30004A815B81CE51D1404BBFF901F790DA0196
:10ED4000C9010196A11DB11DABBFFC01E790DA011D
:10ED5000C9010296A11DB11DABBFFC01D790DA011C
:10ED6000C9010396A11DB11DABBFFC0107912C5F2A
:10ED70003F4F4F4F5F4FC25EDE4F288339834A8338
:10ED80005B83CE51D1408E2C912CA12CB12CBA2C6E
:10ED9000A92C982C88248F0C911CA11CB11C8E2DA1
:10EDA0000F94F9F180E20F94B4F18F2D0F94F9F1E3
:10EDB00080E20F94B4F1802F0F94F9F180E20F9468
:10EDC000B4F18D2D0F94F9F180E20F94B4F13FEF7F
:10EDD00083169306A104B10431F460E088EE91EE4D
:10EDE0000F94CFF19EC0D501C4018827907CAA273B
:10EDF000BB278115904CA105B10549F5750164014A
:10EE00005FE3D522EE24FF24C45DDE4F8880998025
:10EE1000AA80BB80CC52D1408C0C9D1CAE1CBF1C68
:10EE2000880C991CAA1CBB1C60E081EE91EE0F942B
:10EE3000CFF18D2D0F94F9F18C2D0F94F9F180E223
:10EE40000F94B4F18EE30F94B4F180E062C06EE0F1
:10EE50008622E89490F8AA24BB247CE0871674E903
:10EE60009706A104B10409F05CC04F2D417050E039
:10EE700060E070E0DA0199278827402F50E060E0D9
:10EE800070E0762F652F542F44274D0D511D611DC5
:10EE9000711D480F591F6A1F7B1F8F2D807F90E0C7
:10EEA000A0E0B0E031E1880F991FAA1FBB1F3A957F
:10EEB000D1F7840F951FA61FB71F2E2D2170C22ECC
:10EEC000D12CE12CF12C45E1CC0CDD1CEE1CFF1CFF
:10EED0004A95D1F7C80ED91EEA1EFB1E46015701FE
:10EEE000880C991CAA1CBB1C60E08CED91EE0F9461
:10EEF000CFF18E2D0F94F9F18D2D0F94F9F18C2D0A
:10EF00000F94F9F180E20F94B4F18EE30F94B4F111
:10EF10008A2D0F94F9F1892D0F94F9F1882D0F9412
:10EF2000F9F10F94E3F1C85DDE4F88819981C852F1
:10EF3000D140C99709F0B6CE45CC62E086EE90EE9E
:10EF40000F94E9F160E081ED91EE0F94CFF10F9411
:10EF500044F2082F0F75802F0F94B4F10F94E3F152
:10EF60008FEB800F8A3108F0DEC0063409F471C0DF
:10EF700098F4033409F441C038F4013419F102342F
:10EF800009F0CDC014B92BC0043409F445C00534D0
:10EF900009F0C5C01DB94FC00A3409F489C048F44E
:10EFA000073409F465C0083409F0B9C010930101B1
:10EFB0006EC00B3409F48FC00C3409F0B0C010934C
:10EFC0000A019CC011B98091C00087FDB2CD82B109
:10EFD000809582B988EC90E00F94C0F1F4CF8091D5
:10EFE000C00087FD08C085B1809585B988EC90E0A8
:10EFF0000F94C0F1F4CF15B89DCD17B98091C00022
:10F0000087FD08C088B1809588B988EC90E00F949E
:10F01000C0F1F4CF18B88ECD1AB98091C00087FD29
:10F0200008C08BB180958BB988EC90E00F94C0F14B
:10F03000F4CF1BB87FCD8091C00087FD08C08EB192
:10F0400080958EB988EC90E00F94C0F1F4CF1EB893
:10F0500071CD10BB8091C00087FD08C081B3809541
:10F0600081BB88EC90E00F94C0F1F4CF11BA62CD6F
:10F0700013BB8091C00087FD08C084B3809584BB1A
:10F0800088EC90E00F94C0F1F4CF14BA53CD809186
:10F09000C00087FD0AC08091020180958093020123
:10F0A00088EC90E00F94C0F1F2CF1092020142CDB3
:10F0B000109304018091C00087FD0AC08091050172
:10F0C00080958093050188EC90E00F94C0F1F2CF19
:10F0D000109205012FCD109307018091C00087FD8C
:10F0E0000AC08091080180958093080188EC90E027
:10F0F0000F94C0F1F2CF109208011CCD8091C00096
:10F1000087FD0AC080910B01809580930B0188ECEC
:10F1100090E00F94C0F1F2CF10920B010BCD60E0A4
:10F120008EEB91EE07C060E08DEA91EE03C060E0E7
:10F1300085ED92EE0F94E9F145CB833029F120F46F
:10F14000813099F050F017C0853089F118F1863080
:10F1500009F060C0E12CF12C5AC0E12CF12C9B315C
:10F1600009F461C200E010E0C4CAE12CF12CB92618
:10F17000692E82E0F7CFE12CF12C292F30E0322FDD
:10F180002227B92683E0EECFE12CF12C292BB926DA
:10F1900084E0E8CF9E3009F04AC2B926E12CF12C78
:10F1A000CA5DDE4F19821882C652D14022C0E12CBE
:10F1B000F12CCA5DDE4F48815981C652D1404F5F64
:10F1C0005F4FE1E0F0E0EC0FFD1FCA5DDE4FA8816C
:10F1D000B981C652D140EA0FFB1F9083B92642176E
:10F1E000530709F427C2CA5DDE4F59834883C652CC
:10F1F000D14085E0B7CFE12CF12C833039F208F40F
:10F2000021C28530B1F208F422C2863029F49B1164
:10F210001EC205C0E12CF12C873009F0A3CF712C60
:10F220002981233109F4D8C060F5263009F4C6C01D
:10F23000F8F4223009F4CEC0233009F464C0213040
:10F2400009F0A8C11A8288E08B8381E48C8386E56B
:10F250008D8382E58E8389E48F8383E5888780E5CB
:10F2600089878FE58A8782E38B870BE010E096C160
:10F27000213109F455C008F094C0203109F4AAC026
:10F2800089C1283109F466C048F4253109F4A4C0C5
:10F2900008F430C1263109F42DC17CC12A3109F4AA
:10F2A0004DC008F46DC02B3109F43DC02D3109F07B
:10F2B00071C19D81903339F48F818823B1F0813001
:10F2C000B1F488E917C0892F807599F0903521F441
:10F2D00089E0E0E0F0E005C0983559F489E0E3E02A
:10F2E000F0E080935700849105C08EE103C081E077
:10F2F00001C080E01A821B829C831D828E831F8244
:10F3000007E010E04BC1EA81E059E33028F4F0E077
:10F31000E050FE4F808101C080E01A828B833EC0A6
:10F320007724739457C08D81882321F0813021F494
:10F3300088E924C08EE122C081E020C01A82E1E089
:10F34000F0E089E08093570084918B831C8204E075
:10F3500010E024C18B81803559F48C81883021F4F0
:10F36000E2E0F0E089E007C089E0E0E0F0E003C01F
:10F3700089E0E3E0F0E08093570084911A82E5CFC2
:10F380008D81836C99E0E1E0F0E0082E90935700C6
:10F39000E89507B600FCFDCF1A821B8203E010E05F
:10F3A000FDC080EC8A8302E010E0CE5DDE4F188263
:10F3B00019821A821B82C252D140F0C06A817B81BD
:10F3C0008C819D810F945FFB1B012C01220C331C4F
:10F3D000441C551C1A82E0C0CA80DB80DC24CD248A
:10F3E000DC24233109F05DC0CE5DDE4F28813981F8
:10F3F0004A815B81C252D140211560EC360763E03F
:10F4000046075105E8F483E0F90140935B008093DF
:10F410005700E89507B600FCFDCFCE5DDE4F888132
:10F420009981AA81BB81C252D1409F5FAF4FBF4F2C
:10F43000CE5DDE4F88839983AA83BB83C252D140BD
:10F440008B85DE0111969201810141E01B965C9152
:10F450001B9790E0952B0C01F80120935B004093E3
:10F460005700E89511240E5F1F4F2F4F3F4F92E03A
:10F47000C91AD1081296C114D10421F01A968C91A0
:10F480001A97E4CFA5E0F10140925B00A0935700EA
:10F49000E89507B600FCFDCF81E180935700E89521
:10F4A00025C0D201C101B695A795979587955C01B6
:10F4B0004E01BBE08B0E911C00E010E00C151D0509
:10F4C00059F0F40161914F01C8018A0D9B1D0F9401
:10F4D00082FB0F5F1F4FF2CF20E030E0000F111FC3
:10F4E000221F331F020D131D241D351D1A82180102
:10F4F000290152C08A819B819827892798278C01EE
:10F500000D5F1F4F1A822431C1F4DE0111964BBEEC
:10F51000F1012791369112962C931297FD013496A2
:10F5200013963C93139722E0220E311C411C511C70
:10F5300002971296009759F72BC0FE0131969F0152
:10F54000280F391FB201A10141BD852E962EA72E8D
:10F55000BB2482BC4F5F5F4F6F4F7F4FF89AA0B5BF
:10F56000A2833196E217F30779F7AC0141505109B4
:10F5700060E070E04F5F5F4F6F4F7F4F240E351E8E
:10F58000461E571EE3E0F0E0EC0FFD1FE80FF91FE9
:10F59000108204C080EC8A8302E010E08BE10F94BB
:10F5A000B4F1862D0F94B4F1812F0F94B4F1802F14
:10F5B0000F94B4F185E1B62CB826B0268EE00F94F6
:10F5C000B4F1B126AE014F5F5F4F6A01040F151F02
:10F5D000C016D10641F0D601AD906D018A2D0F9471
:10F5E000B4F1BA24F5CF8B2D0F94B4F1639485B1A7
:10F5F000805885B900E010E0772009F477C8279893
:10F600002F9884E690E00F94C0F100008091C00034
:10F610008D7F8093C00081E180935700E895EE27AD
:10F62000FF270994FFCF8BE1B82E81E09BCDE12C21
:10F63000F12C0DC0CA5DDE4F39832883C652D140FC
:10F6400086E090CD813009F492CD08F096CD80E02F
:10F6500089CD97FB072E16F4009407D077FD09D0CB
:10F660000F9466FB07FC05D03EF4909581959F4F63
:10F670000895709561957F4F0895A1E21A2EAA1BF7
:10F68000BB1BFD010DC0AA1FBB1FEE1FFF1FA21752
:10F69000B307E407F50720F0A21BB30BE40BF50B4F
:10F6A000661F771F881F991F1A9469F760957095D8
:10F6B000809590959B01AC01BD01CF01089569270C
:10F6C000962769277827872778270895AA1BBB1BC9
:10F6D00051E107C0AA1FBB1FA617B70710F0A61B52
:10F6E000B70B881F991F5A95A9F780959095BC0173
:10F6F000CD010895F999FECF92BD81BDF89A992761
:10F7000080B50895262FF999FECF1FBA92BD81BD0D
:10F7100020BD0FB6F894FA9AF99A0FBE0196089593
:04F72000F894FFCF8B
:04F724000F020A00C6
:040000033000E000E9
:00000001FF
