:100000000C9449160C947A160C947A160C947A1661
:100010000C947A160C947A160C947A160C947A1620
:100020000C947A160C947A160C947A160C947A1610
:100030000C947A160C947A160C947A160C947A1600
:100040000C947A160C947A160C947A160C947A16F0
:100050000C947A160C947A160C947A160C948528C3
:100060000C947A160C944F280C9425280C947A162C
:100070000C947A160C947A160C947A160C947A16C0
:100080000C947A160C947A160C947A160C947A16B0
:100090000C947A160C947A160C947A160C94CF2839
:1000A0000C947A160C947A160C947A160C947A1690
:1000B0000C947A160C947A160C947A160C947A1680
:1000C0000C947A160C947A160C947A160C947A1670
:1000D0000C947A160C947A160C947A160C947A1660
:1000E0000C947A160C94D3180C94371D0C94B931D7
:1000F0000C9475240C9487190C94ED230C947D19A1
:100100000C94A5210C94F1230C94A3200C946F194A
:100110000C94CD210C9486160C9440180C94FF2955
:100120000C945F2E0C9457190C941D180C94883164
:100130000C9474240C94E0260C9454190C944219D9
:100140000C949A310C947C160C94E9160C94831937
:100150000C944C190C9461190C9486180C942C185E
:100160000C9484270C9450190C946B190C94A11DB9
:100170000C9448190C9463310C9475190C94C11C9F
:100180000C945D190C942B1D0C944E180C9467194B
:100190000C943A200C9482190C94F0170C94791951
:1001A0000C945A1B0C9469315F0205040506010585
:1001B000061F3400F527F728F60762107C18072081
:1001C0000D9F5EFE0FFFFFFFFFFFFF07211E9F5EDB
:1001D000FE0FB5C18936D99EAE69B2E9FFB7C787B0
:1001E0006F977CF02D970FFF390022319F5EFE0F35
:1001F000D4382312432231241243223124124322C1
:100200003124124322312412432231241243223159
:100210002412433EFCFFFFFF3F040023679F5EFE66
:100220000FB7C619729C21C719911812892191180C
:10023000128921911812C721719CB11E58E5815570
:100240001E58E501C588219118128921711C12C719
:1002500019729C21C71991181289219118551E589D
:10026000E501651E20729C21C719729C118921919C
:1002700018128921911812C719729C21C7191FFEE3
:10028000B70024659F5EFE0FB9C1671A51071F08AA
:10029000EE01B2CA18E328424621AA9061C4226541
:1002A0004C52C62C64CC42062D635023463561D88F
:1002B00074135677D54587387310234729729812DF
:1002C0008729711C12C721299C614A0A67189286E6
:1002D00019A5A0520629E98C21CE7A80B407426480
:1002E00078F0D9873F0700256D9F5EFE0FCF14463B
:1002F000105205A544D03A0495410E41A4508914EA
:100300002A91420851A41042142964104606198506
:10031000AD415C1A041E42E42864134D36D16413C7
:100320004D36D1A49048087A64A84606636410420A
:100330001619A4144506312411420C4984104310A7
:1003400029C410340C752842D040EC90A40E61E60C
:10035000C37F060026649F5EFE0F6F99AB28932E25
:1003600016625E31E595431E41E411445E39E49521
:100370004320310596422421841251A8B2C89E8B95
:10038000ACA24594135421C588440C65AA420C4183
:100390006510535211C49045023964A543D8418574
:1003A0009554964945A1549042871851D02305B5DC
:1003B000425642E2C37F040027139F5EFE0FDED841
:1003C00045D7FF7DF8FFFFFF7F0C0028379F5EFEBB
:1003D0000F6EE843977CAE95EB74C945135D34D13D
:1003E00095269BE89A269B6E175D6D6A175D36D938
:1003F00045975D74D99536BAEC6A1B6D69D2C5070D
:10040000060029339F5EFE0F4CF083137DF2D1F678
:1004100074D945975D74D945974D76D165D37FBA28
:10042000D244579AE8A2892EB9E8926BD8BA079BB2
:100430005CB6F8E0022A419F5EFE0FFFB5A28B2654
:100440009BE2430A345048C40C43CE21839893C4A2
:1004500010283D609AA328977C2E09A412412821D8
:100460006492422231E511545A49A411459C60021C
:10047000860FFFFF2C002B1D9F5EFE0FFF35B2E99C
:100480005F7C209D07D279209D0752249BFEFBF0C4
:10049000FFCF012C1E9F5EFE0FFFFFFFFF6B6397D8
:1004A0007CF0958D2E9BDA63933D6DA209171F4852
:1004B000002D199F5EFE0FFFFF571E30EA01A31E9D
:1004C00030EA01F3E1FFFFFF0A002E149F5EFE0FEA
:1004D000FFFFFFFF63251F7CCBE5C3FF1C002F3D03
:1004E0009F5EFE0FD9C1892E9AE8A2C9269A6CA2F6
:1004F000C9269A6CA28B26BA68A28B269B68B28901
:10050000269BE8A2892E9AE8A2C9269A6CA2C9263F
:10051000BA68A28B26BA70F1E1DF05306A9F5EFEF1
:100520000F8F99AB28930E9A529C39A59544585930
:100530001423AAACA2CA3289AC93881A81A092482B
:1005400028A72022CA29688C720822A31CAA9043DB
:100550000C758819872AE490530641E414415039F8
:100560002590544E092415841449679164565165A9
:10057000155516614415565071C5146886816EAEC6
:100580008A3EFCC700311B9F5EFE0FE74836F8D855
:1005900044D73C81CC51C8A6FFFFFFEFC3FF1A0030
:1005A00032319F5EFE0FC78E5DF2BD074433E6AC6D
:1005B000A20A1BAC30C1CAA6A7AB5C74C9F57F9A6E
:1005C000E8A229FDC0490F9CF4C0490F9C0FFF23EE
:1005D0000033399F5EFE0F6F1DCBE27B0F08578EF5
:1005E0007142195D369DAE72C1662E9AACAA2B9FE0
:1005F0005D6DB28B2E9BD2351658616355C8B043E2
:10060000507B403C37D587FF180034479F5EFE0F74
:100610002789AEB2C1D7457704628720950852C7B3
:100620002074103209217314224921911812C72114
:10063000901CF208226F24E248228D28D2C622ECB8
:1006400081741E48E781741E48966CFAF7E17F09B1
:1006500000353F9F5EFE0FCF3C40D803843D40D81D
:100660000384914D3F5DC8980F3E20DC03A39D722B
:10067000584966915576D1D5A64F17165A51A311F0
:10068000555651261586C8690F08D8A8FAF0DF021A
:1006900036559F5EFE0FEF19BBA6830F04670C71E2
:1006A00025095774D144174D36D11531900CE58882
:1006B000608D04C79031EB20A38CAA185185954416
:1006C0005A49A495441C49A591541A51841545587A
:1006D0005165114654612595564E716718F822AB45
:1006E000E9C37F0A0037399F5EFE0F571E30EA01CB
:1006F000A31E30EA81B2892E9AE8A2892E9A6CA2B2
:100700008B26BAD244174D36D145135D69A22B4DC5
:1007100074D164135D34D944579A7CF89F04385BD4
:100720009F5EFE0F8F1DBBA683EF15635A4985950B
:1007300054185984914518598491455849859544D0
:100740005C39E59552E01165AE8AEC926518584C1B
:100750007105954654598491455849A591441C49C1
:10076000C491541A49A591545851D532C8B0438EFA
:100770007B204037D587FF160039569F5EFE0F8FCE
:100780001DBB668BEF19535C4185154518594515FE
:1007900046546144914614692511471271249546C7
:1007A00052694411565451661574962989B9401AF4
:1007B00013E4A541222945174D36A58B26BAB8B0BA
:1007C000881BC834438E7B20C046D587FF18003A6B
:1007D0001C9F5EFE0FFF7F6DEC920FBE72D9E3C3CC
:1007E000FFDB251F7CCBE5C37F0E003B249F5EFE15
:1007F0000FFFFFDAD8251F7CE5B2C787FFB74B3E56
:10080000F8A6CBA6F6D8648F4D34D9830B09003CEB
:10081000289F5EFE0FBF1DF8D0259B8B2AFEEC851E
:100820008B36F9E82BA37CF4C9281F7D32968D2ED8
:100830007CF8F0E1FF1B003D239F5EFE0FFFBFF140
:10084000403A0FA4F3403A0FA40F7FE781741E488B
:10085000E781741E481FFEFF1F013E289F5EFE0FAA
:10086000BF11FCE0451F8C32FEF2D147976CF0B10E
:100870009745F6B2C85E1655744D267BF0F0E1FF41
:10088000DB003F349F5EFE0FAD63597CEF01D1CC9E
:1008900031CBA4B2AA355861C1914DA74B36B9CA24
:1008A000061B5C72D125175D34D9741FDE2EF9E06A
:1008B0005B2E1FFE6B00406B9F5EFE0FAF9DCAE478
:1008C0007B0F885690598411451C41E41144E04047
:1008D000231233D632233533CE2BC41843CA300506
:1008E00091320C49A48C521229A31045CA28449174
:1008F000320A51A48C425229A31454CA30A59C42F6
:10090000CA03C20CB30231E324410C41A6114E3696
:10091000E184176D9668A894F780784FAE0FFF2199
:1009200000415D9F5EFE0FB9E083177CE24457DA19
:10093000E08347207704624920760C52C7209490C8
:100940004147217314228921711C12C7219020F282
:1009500046226F24E21E18ED81D11E18EC81B208E8
:10096000238BB0928823893892882B874072082481
:1009700087C052882485C842C8241FFE27004267CA
:100980009F5EFE0F371E08EF01C21E28EB01A3C8B1
:100990003A89B492882B88B882C823883C82882BF5
:1009A00088B882482B893093883AEA81B21E18EDC4
:1009B00001C21E288B2CA3482B89B882C82388BC6F
:1009C00072C82B874072082487BC72C82B87BC7200
:1009D000882B8834830833E901A31E28EB01C21E4B
:1009E000081FFEC700433E9F5EFE0FCF9DCAE47303
:1009F0000F0C768E594555ACA0E2CA294FA0A28BA8
:100A0000269BE89A269B6E175DDB64175D76D165A1
:100A100097369459459954D829C63D10A09BEAC3EE
:100A20007F090044659F5EFE0F475C7C20BC074643
:100A30007B8030A2CC22CB28C28A22AD24E248227D
:100A4000AE20E20A228F20F20822AF1CF2CA21AFA8
:100A50001CF2CA21901C02C921901C02C921AF1CA2
:100A6000F2CA21AF1CF208228F20E20A22AE20D265
:100A70004A22AD24C28A22AB2C92CE7A80B007469D
:100A80007B203CF7E17F0D0045309F5EFE0F471E47
:100A900040E801841E40E80184C8A6FFED07CA7A39
:100AA000A0AC07CA7AA02CB2E9FFF603083D80D0BB
:100AB00003083D803EFC8F0046279F5EFE0F571EB9
:100AC00030EA01A31E30EA01A3C8A6FFF603A33D46
:100AD00030DA03A33D301AD9F4FFEFC3FF2C0047EF
:100AE0004F9F5EFE0FCF9DDAE2730F0C768E594555
:100AF00099545841C58D449E4845934DE94A934DBC
:100B0000B794214B99A294294A99028929901C02F1
:100B1000C9298F9CF208228FA0E2482A8D24C3881D
:100B200032AAAC53107B60B827D787FF1000486704
:100B30009F5EFE0F478A23883C82C823883C82C878
:100B400023883C82C823883C82C823883C82C823EF
:100B5000883C82C823883C82C823E801841E40E880
:100B600001841E40883C82C823883C82C823883C7C
:100B700082C823883C82C823883C82C823883C8260
:100B8000C823883C82C823883C82C823883C82C80A
:100B9000231FFE470049259F5EFE0F671E18ED814B
:100BA000D11E18ED8131C9A6FFFFFFA30F10F6007B
:100BB000610F10F600F9F0BF03004A289F5EFE0F98
:100BC0006F3D20DC03C23D20DC03A2924DFFFFFFFE
:100BD0005E50C509451E39C59D61E08BACA60FFF6F
:100BE00039004B659F5EFE0F378A2B87B882482BF2
:100BF00089B0A208238BACB2882A8CA4D2082A8E92
:100C00009CF288299094120929929022C9289388ED
:100C1000424930944D368D28B290120B299198029A
:100C2000C9298F1CE3082A8EA4D248328CA8C2C8D6
:100C30002A8BB0A2082B8AB492882B883873C82BD1
:100C400087C0F2E17F03004C1C9F5EFE0F478A269F
:100C50009BFEFFFF7FFB81931E38E981931E381FA7
:100C6000FE57004D7E9F5EFE0F374824864462CAC1
:100C70002BA6BC624C33C63463CE3AE6AC6350421A
:100C800006A5118821811C128821819C218821823E
:100C90001422882182943188218366C820631062DF
:100CA0000821811062082161146248398518528C2C
:100CB000A14C31B4430C39E310438E40C490480C2E
:100CC00089C490480C89C490480C89C490480C8908
:100CD000C490480C89C490480C89C490483EFC6F6D
:100CE000004E799F5EFE0F378A2BA738824C23C8AF
:100CF00034820E23E83082D022082D8248208A20B8
:100D00001288228808920822A2206A10448D720854
:100D100022841C8208298620528821889452082225
:100D2000861482C8218420720821881A04518320E5
:100D300092882088242208228A0482884A882C8467
:100D4000C84288B083083B883483483388B8828897
:100D50002B883C82C8231FFE57004F5D9F5EFE0F0D
:100D60008F1DBBA4830F04678C61269555A5C24ACD
:100D700022AE9CE2CA21901C02C921B094024B29E8
:100D8000B014124B2192142249219214224921922B
:100D9000941249299194024B29B018028B21909CFE
:100DA000F20822AEA0D2482AACA88A15649A21E79C
:100DB000BDD868FAF0DF0250429F5EFE0F471E0862
:100DC000EF01C21E28EB01A3083389B492882B8857
:100DD000B882C823883C82C823883C82C82388B84C
:100DE00082882B88B492C83AE901A31E28EB81D1EE
:100DF0001E249BFE7F1FFE770151699F5EFE0FC779
:100E00008E5DD2C1078233C63093CAAA52612511C2
:100E1000574E71E510480E81E410584A81A51458C8
:100E20000A89A510490A91A410490A91A410494AB7
:100E300089A414584A81A514580C81C510484E79CC
:100E4000E41457506905155654511632EC14E31E3C
:100E500008D049668D269BECA2CB66935575D18749
:100E60000A0052679F5EFE0F471E08EF01C21E2850
:100E7000EB01A3083389B492882B88B882C82388F1
:100E80003C82C823883C82C82388B882882B88B4D7
:100E900092C832EA01A31E28EB81D11E088F20F2EE
:100EA000082A8E24E2482A8D28D2882A8C2CC2C88F
:100EB0002A8B30B2082B8AB492482B89B882882BAF
:100EC00088BC72C82B1FFE370053439F5EFE0FAFD6
:100ED0009DCAE4730F8C56905965514DACE2C22205
:100EE0009BECA2CB2EDAD227A7ABE184513EDAE805
:100EF000B28B2E9BD225055890782591569051465D
:100F0000A182D603A43D10E4FAF09F02541B9F5E19
:100F1000FE0F271E58E581551E58E58105C9A6FF1D
:100F2000FFFFBF0FFF730055649F5EFE0F6F944776
:100F30000E81E410480E81E410480E81E410480E42
:100F400081E410480E81E410480E81E410480E81BF
:100F5000E410480E81E410480E81E410480E81E44C
:100F600010480E81E410480E81E410480E81E41010
:100F7000484E71E514574E7124155692511632ECB5
:100F800090E31E08D04DF5E1BF050056569F5EFE6A
:100F90000F278A24A444624824A64072C823883CB0
:100FA000828A238934A24823AA30B2284616614592
:100FB000914612712411571079E410480E81C590A2
:100FC00048CC90A410590899840C4A06A145904A2F
:100FD000C4B024109BEEC1572EBADA834F1FFEE730
:100FE00000578F9F5EFE0F27461D84D041081D8449
:100FF00024810821492042089ACC40E40C430E3950
:10100000C39043CE30C494330C31A610438C29E4F2
:101010000C63CA40848C30CA40848C40C840848CA5
:1010200040C840840C31C840648C41C640648C4147
:10103000C450638C41C450248C32C450248C42C2AE
:1010400050248C42C250248C42C250E78C209839E4
:10105000869963983986955458498595541A49C498
:101060008D35DC58C38D359C60C389263EFCEF006E
:10107000585B9F5EFE0F37CA238838924A23AA2CFA
:10108000C2882AAC24E2082AAE1C028929B01422A4
:101090000929B20C428928B40462D33DF8E4A24B7A
:1010A0003EF8DC64532DA15032C82CA34852482C82
:1010B000A5BC72C823A8B4920A23AAAC4A9146528E
:1010C000690591474E79E5C3FF060059419F5EFED1
:1010D0000F270A2CA540728A2BA738920A2BA93019
:1010E000B2CA22AB28D24A22AD20F2CA21AF1812CE
:1010F0004B21B19022CB209488424B209604621160
:101100003ED8E8A2C9A6FFEFC3FF1C005A419F5E6C
:10111000FE0F471E40E801841E40E801A4295D340B
:10112000D125174D74D144975C34D125175D72D108
:1011300044975C74C9952EB968A24B2EBAE4921FED
:1011400048E781741E48E781F4E17F04005B239F38
:101150005E7EF480700F08F780700F084736FDFF41
:10116000FFFFBFFD80700F08F780700F880F9F0191
:101170005C3B9F5EFE0F9DC0C72E9BECB2C92E9BB1
:10118000ECB2C92E9BE264935D36D965935D36D986
:1011900065539C6CB2CB26BB6CB2CB26BB6C8A93DE
:1011A0004D38D964974DF6F8F067005D229F5EFEDA
:1011B000F280700F08F780700F884DFFFFFFFF9FD0
:1011C0007B40B807847B40B807C4872F015E309FFF
:1011D0005EFE0FF7041F9CE8920F3E9704624920C1
:1011E000950C3209219314128921911CF208226F67
:1011F00028D288222FB0F0E1FFFFFF97005F199FF0
:101200005EFE0FFFFFFFFFFF8D07567960950756C3
:1012100079607DF8040060259F5EFE0F97820F5E67
:1012200074D1071F9CECA28B36BA68A3CB26BB6C8B
:101230008A4F5DF8F0E1FFFF7F0E0061469F5EFE82
:101240000FFF9F5AD2BD07463BC538B14A0B8DEC04
:10125000A2CBA626730F08F600590F14751449A5E2
:1012600091441C41A515445C41C415549841659DA9
:1012700054504A872CF504596D10A60AF9F0BF02A4
:101280000062529F5EFE0F91A2C9A6FF23C991B1D1
:101290001A116E91400852071965A5C24A2AADA0DD
:1012A000D20A22AE20F208228F20F208228F20F2EA
:1012B00008228F20F208228FA0D20A2A8DA4C24AC7
:1012C00032ABA4838C4AE42C121C1B83B551D28709
:1012D000FF140063369F5EFE0FFF1F5BF2BD0744E5
:1012E0003BE52C934C2A8C28E2842A2E2CA22B4DF1
:1012F000366D175DEDA2CB2EDA30C14C2AEC94D3BB
:101300001E10EFC9F5E17F080064539F5EFE0FB326
:1013100045934DFFBD344863823017C83A24298372
:101320008E2ACAA4C24A22AD24E2082A8EA0E2086C
:10133000228F20F208228F20F2082A8EA0E2082AAB
:101340008E24D24A2AACA4C28A2ACA42671D42020B
:10135000612E90C6047988940FFF110065419F5E4D
:10136000FE0FFF9F52B4C107823BE4B482CC2AAA8D
:10137000622511471271041547D003083D80D00340
:10138000083D8010D964175D36D945975D98604651
:1013900011868A690F08E8A6FAF03F0500662A9FC1
:1013A0005EFE0FE2A94CBEF78068E69456D26865EF
:1013B0008946367DF501C21E20EC01C21E20926CCA
:1013C000FAFF7F1FFE1701675C9F5EFE0FFF4FA1B4
:1013D000621413273D70D0196915441C518495453A
:1013E000565914238B30B2CA228CA8C20A2ACE14B2
:1013F000F35E6C72CD3108259A6CB28B7E60B807B3
:10140000887B602C225E22CD1CF2CA2190181289A2
:1014100029AF98E2CA39CBA0078E7AA0B4078254CC
:101420001F5A0068539F5EFE0F4AD164D3FF15E434
:1014300008518D88C64828E32C12C631EAA4A28C34
:10144000AA18518511551851A411451A51A41145D6
:101450001A51A411451A51A411451A51A411451A43
:1014600051A411451A51A411451A51A411451A51FC
:10147000A4910FFF2B0069219F5EFE0F1AD126DB7E
:1014800034F9F0A37B9BFEFF471F10EE01E11E1015
:10149000EE01F1E17F08006A259F5EFE0F24D12650
:1014A000DB34F9F08B7E9BFEFFFF74E584224FA4B2
:1014B000E28A29EF81009D5CF67C00016B509F5E03
:1014C000FE0F48D145934DFF6B25115614596511F8
:1014D000551849A511541C39E51153202126926154
:1014E000241185927066934D1E51A2210596621EAD
:1014F00039C611641A49A5115518516691651461D0
:1015000026915612710511673EFC6F006C1C9F5EA0
:10151000FE0F0A9BBC4DFFFFFF7FF381B21E28EB3D
:1015200081B21E281FFE67006D709F5EFE0FFF6F69
:1015300090618841449C810E092928734409431411
:1015400063C821A594624A654AA90C31A590434C11
:1015500029E410530A39C494420E31A590434C2912
:10156000E410530A39C494420E31A590434C29E447
:1015700010530A39C494420E31A590434C29E4100B
:10158000530A39C494420E31A590434C29E41053B8
:101590000A39C4940FFF27006E519F5EFE0FFFAF04
:1015A00090821C21AA11D11809659C45C238469D1C
:1015B0005494511523AA30A20A238A34A248238ABC
:1015C00034A248238A34A248238A34A248238A3486
:1015D000A248238A34A248238A34A248238A34A208
:1015E00048238A34F2E1FF0A006F499F5EFE0FFF35
:1015F000DF52B3C507823304B192CAAA14690595B4
:101600005610790491574C79C510580C89C49048EC
:101610000C89C494574C79C594570E790495565249
:10162000612595559641A51D72DC030136AA3EFC45
:101630004F0170539F5EFE0FFF8F90821C198C111B
:10164000E11609A41C7592B54A2AADA0D20A2A8EC9
:1016500020F2CA21AF1CF2CA21901C02C921901CA1
:1016600002C921AF9CE2CA298EA0D20A2AAD20B3BA
:101670004A3AC9241208418A84B7C8608C90E4C8E9
:10168000A67F1FBA0071539F5EFE0FFF4F254218C1
:101690001B643941D421259064104A451D5498415A
:1016A000C415445C39C595535C39E495435E39E40F
:1016B00095435E39C595535C39C515445C41A51504
:1016C000549849459D641052879440961384B141C3
:1016D0005C2264D37F1F220072289F5EFE0FFFCF23
:1016E00090A218216C11F11409871445024962A1D6
:1016F00015D6C1269B5C74A5C9A6FFEFC3FF550094
:10170000733A9F5EFE0FFFDF52D3C107443B04B123
:1017100092CA2A8B6A82155D76D108ABBBECBA0AF5
:10172000A36C76D14505489470259156525945A130
:1017300082D603C43DB93EFC4F01742B9F5EFE0F61
:10174000BF4634D9F4D107087B80B007087B80C836
:10175000A22B4D36FD6F175D69734434A3C4171B6C
:10176000451FFE430075519F5EFE0FFF3F421C491F
:10177000C491441C49C491441C49C491441C49C4AB
:1017800091441C49C491441C49C491441C49C491CE
:10179000441C49C491441C49A49554584985955406
:1017A0009651251D650E5A6794405813A4AD411CEF
:1017B0002AE4C37F050076469F5EFE0FFFDF287098
:1017C0009CF208228FA0E248226E28D2882A8C2C14
:1017D0008A15451A51C391445C41E4914360312418
:1017E0001233242944163228198416412A09C49236
:1017F000402CC2071B5D69F2E17F0E0077749F5E8B
:10180000FE0FFF9F209310320921682042089A0A98
:10181000419319A79C61C629671862CA1986185393
:101820008821E514724619619481461961948108F2
:10183000198190810811639081C898C848638C41D0
:101840000449638C41C450448832C450248C42C241
:1018500050248C42C258238833C258238833826074
:10186000E618668E61259546526924950FFF330070
:1018700078469F5EFE0FFF1F218E28C2C82AAAB09D
:1018800092882388BC620A2C854842C82CA2D012B8
:101890008845F860A34B3E17DD548928B30C320904
:1018A000299198F2CA29ADA0D2882AAB4AA59144C1
:1018B0005CF9F03F020079539F5EFE0FFFDF28AF17
:1018C0001CF2082A8E24E2482A8CA8C2C8228CACBA
:1018D000A248238AB4928823883C82C82B8644621B
:1018E000482C854842C82484CC32462582D41288AC
:1018F00025615C0C9B6C34D994269BE81203225220
:1019000014139B64545DF301057A2E9F5EFE0FFF56
:101910001F79C0A8078C7AC0A8074CAED344975C47
:10192000D344975CD344975CCB0FA4F3403A0FA405
:10193000F340FAF03F02007B2E9F5EFE0F07135D1F
:1019400093C9164DAE74D164D33F5D34D1A5267BC7
:10195000F0C149174E76D9F4BF5D74B58B36D9C93D
:1019600036595506007C129F5EFE0F35B2E9FFFF27
:10197000FFFFFFF72107007D2A9F5EFE0F57925D54
:10198000B4C9B62B5D36FDB7CBA638E1085F17D9D1
:10199000928B26BA68B2E97FBAC226BAD8249B0ACB
:1019A000027E239F5EFE0FFF4F8D8C56502A0DC482
:1019B0000E398518524C31ED10B4545009970FFF71
:1019C000FFFF1F0200000004FFFF00005F00030391
:1019D00004040304050C0BFFFE08FE08FE01760359
:1019E00045048B200500CC09210882C4894B8C005A
:1019F0002208336D8B884A0023128744BC4830127A
:101A0000324582919029128CC4002410A53CAB5819
:101A1000252209314524915A080025198AC41D91AF
:101A20004C228949122529224944128C48622149B5
:101A30002C2601261188C42CA92428894A233291F6
:101A4000126522012706316D8A01280CA4B4BA5010
:101A50004822D2260B06290CA4B48A604C498B2854
:101A60000D002A0B555CAB949449A610002B0A5527
:101A70004CAB60A8140C012C0842B4098A04002D58
:101A800006135C8A012E0622C409022F0C84C4BAF4
:101A9000A45828168AC500300B85449B89842F9250
:101AA0000900310984451BC9482F04320D85449B28
:101AB0008984221389628701330E85449B8984229D
:101AC000125228920900340C8544AB95882432BA0E
:101AD0008906350C85448B8324C842914C00360D11
:101AE00085449B89844691B0482600370B84448BFB
:101AF000432C140B6901380E85449B898422994834
:101B000058241300390D85449B89844542A34826F7
:101B1000003A0752C40912013B0872B40912450287
:101B20003C0856CC4B91B2023D0735548B6A013EBE
:101B30000956CC0BB19222003F0D85449B899A48EF
:101B40001407C944004014A93CBDA14C148D84283D
:101B5000FA49228A43E420120041108943CC3860BC
:101B60003C0D0943B253503222421087440C938AF1
:101B7000485252114944870800430E8744AC491A21
:101B800071AA1809862800441288C40C9B2C24933F
:101B9000C82432894C228B9800450F86C40B8B28B1
:101BA0002209912421514474461086C40B8B2822AB
:101BB0008A48422449484602470F8744AC491A7173
:101BC0002AAA4962A24900481189440D0A45269271
:101BD000894E32914C249330490984C40A8A482F93
:101BE000044A0C86C42B9A5045979068044B11897F
:101BF000C40C925A4C1494448B22990A69004C0BE1
:101C000086C40B9A50A788E8004D198B440E1A65BC
:101C1000368A4822A28824228A4822A29052486505
:101C200022214E1488C40CD944161A8528A10829EB
:101C3000348A496611004F0D8744AC598A8C9B2425
:101C4000161B01500F87440C938A48229294A44299
:101C50001A005114983CAC612C2493C824320945D5
:101C6000241152A21200520D88C40C9B48A7584D53
:101C7000A48532530C86C49B255AB1469A4C005415
:101C80000C86C48B8B9690501B0500551388C40C92
:101C9000CA44169285642159481692C548005612C6
:101CA00088C40CCA441692C5244149501215CB0071
:101CB00057198B440E8A64221285944292882424F8
:101CC00089486293A14C281301581188C40CCA4456
:101CD000169A04C7C3C828269910591088C40CCA7C
:101CE000441693042551B12A09005A0A86C48B9BD5
:101CF0006CB44D765B08A3348A8A7E195C0C84C46C
:101D00008A5830168C0563015D08A3348A897E29C0
:101D10005E0B6554AB606C144993055F0616340B7B
:101D200003600723740A9100610854C48A9984628D
:101D3000620D86C40BA116C984449A4C00630B55EE
:101D4000449B8968268A4C00640B86C4BBA1CA895F
:101D500065A200650955449B89E42024660D85C46D
:101D6000AA89242222C9942800670C8634CBD04843
:101D7000A26966BB00680B86C40BA116C984C42483
:101D8000690A84C41A9174A485006A0AA3B41AB5B6
:101D9000892E14006B0C86440BA116098924511955
:101DA0006C0884C48A91BE106D0E5AC40D8948B265
:101DB0004212914424056E0A56C40B896442621291
:101DC0006F0A56C41B8A88494201700D76B40B898C
:101DD0006442225D843300710F77B49B8A4822925B
:101DE000484612A99000720954C40AC949090073EF
:101DF0000854C49A12A902740973449A88A4A224AC
:101E0000750956C40B11978902760C56C48B894A02
:101E10004812138A00770F59448D892E2189242670
:101E2000114A4400780B56C48B894A4C16511979D3
:101E30000E76B48B894A4812138A6642007A095595
:101E4000440B8B48C9007B0BA4B42A89484526D291
:101E5000267C0781468B43007D0CA4B40A99484D2B
:101E600022D222027E0826DC9B8964020000000444
:101E7000FFFF000000002100240027002A002D00A1
:101E80003000330001010000040107010A010000D5
:101E90002200250028002B002E0031003400020112
:101EA0000000050108010B010000200023002600AE
:101EB00029002C002F003200000100000301060160
:101EC00009010505050507050808080802020202C0
:101ED0000A0A0808040404040101010101010101C6
:101EE0000303030303030303040707070C0C0C0C91
:101EF0000C0C0C0C0202020206060606060606067A
:101F00000B0B0B0B0B0B0B0B010210202008081006
:101F10002040102040800201020108040201010259
:101F20000408102040808040201008040201800432
:101F3000020180402010080402010804020101028D
:101F40000408102040800102040810204080000096
:101F50000A0B02090C0D0E08070304010000000023
:101F60000000000000000000000000000000000071
:101F7000000000000000000000001211100000002E
:101F80000000000000000000000000000000000051
:101F9000000000006000040404050405050C1600A0
:101FA000FC0EFC10FE024E047F068B200500107212
:101FB0002109E21872785088002209665473104291
:101FC0004F042315AA907291488890074524122245
:101FD000E441118984080124242AD1711228CC0CEF
:101FE0008A11228A0821226884A843A7440C12423D
:101FF0004448091123D01813280800251FEA10723D
:1020000041B144081111454A082173E80C111145EA
:102010004A082122840C09414200261CEA10722938
:1020200074648C103143848C31458C94112268483F
:102030000C2192848800270662587360280F26D5E9
:10204000711233643682E447732400290F26D57158
:10205000103447F23743662308002A13AA907212FD
:102060002848881026868C309148A020002B0EAA84
:1020700050721228A3078504CA08002C1095947189
:10208000114282C8182123A60903002D0626D47206
:10209000602E0A4436F210814204002F1C4B91F14D
:1020A0009450A4409102450A142950A4409102453D
:1020B0000A142950A44800301AEA10723183625081
:1020C000A942668E8C2031E48CA1528546A0310253
:1020D00000310DEA10721228AA42F9A30705321145
:1020E000EA1072318362503181E286CD670F0A3384
:1020F00017EA1072318362503181E244112B38901B
:1021000058A111688C00341AEA107213378C54A14C
:1021100011628608192344909007C5040A336400AD
:102120003514EA1072787050209284032524566882
:10213000041A23003615EA10723173649C40242976
:102140004415A359A111688C00370FEA107278501A
:102150005076C36627508E00381AEA1072318362B7
:102160005031622204893183625031628546A03148
:1021700002003915EA107231836250319A9512913A
:1021800004A1B821678C003A0DA436F2108142A850
:10219000081422003B14F5947111428288682124AE
:1021A000888C1132629A30003C0DE8147213356845
:1021B0005E0D9B67023D0B6A907278501ED48302BD
:1021C0003E0DE8147210365F0D9A57C2003F14EAB4
:1021D0001072318362503181E286CD4E3C6881823B
:1021E000004018EA10723183625031324790082162
:1021F0002284081A12020726414118EA1072124777
:102200008C94104142C40812224884B007C9682641
:10221000004215EA10724092425431AA44204921EA
:10222000AA18552C90004312EA1072318362503183
:1022300082F259A111688C00440FEA107240924258
:102240005431FA2B1648004510EA10727870508607
:1022500048900894E18302460FEA10727870508625
:102260004890089487004714EA1072318362503115
:102270008212594659A111688C00480DEA1072105B
:1022800046CF1E24A36702490DEA1072785048A079
:10229000FCA307054A0FEA1072941F12A3ACD008E2
:1022A0003446004B1FEA107210556884982142C6CC
:1022B0008818548A58291183848C113344D00851CA
:1022C000C5044C0BEA10721028FFC307054D16EA2F
:1022D00010721056E8C88310940821228488106276
:1022E000F44C004E15EA10721056CAD019124388E9
:1022F0008C2073C854313A134F11EA107231836243
:102300005031FA59A111688C005011EA10724092B4
:10231000425431AA582011280F0151140AD17131A9
:1023200083625031FA89901226D01C1C2800521367
:10233000EA10724092425431AA44204921AA189DC1
:10234000095316EA1072318362503182030F1D1C4B
:1023500048ACD008344600540CEA1072785048A0BB
:10236000FC8F00550EEA10721046FF59A111688CBF
:10237000005618EA10721046CF44081222488C10FA
:102380004142441123275010005716EA107210469C
:102390009F08212284881012241E0439544C0058AE
:1023A00018EA1072104659A11143C6982246CACCA9
:1023B0009011838A5126005912EA107210466785DF
:1023C000460C19638A9C4039025A0FEA1072785001
:1023D00050DCB0F99DC007055B0A24D9715022FF7B
:1023E0004F105C1C4B9371102954A4509142450A24
:1023F000152954A4509142450A152954A4005D0A98
:1024000024D5714022FF4F145E116A10731247CA1F
:10241000CC90118346040B01005F082C90717890DA
:10242000006009449473103289006112AA1072414D
:10243000C18A1855858E9430218488006211EA1073
:102440007210284324294415A32B1648006310AAB0
:102450001072318362503182120E4C82006410EA95
:102460001072941314AC88D1AC94882408650FAA18
:10247000107231836250B107090726416610E814D3
:10248000722253649420238684C98F006714EA90D3
:102490007141C18A18CD4A89488250DC9033460088
:1024A000680FEA107210284324294415A3CF046949
:1024B0000DE6147211249C0821F984016A0E2691FC
:1024C00071929C0821F9372888006B1AEA10721063
:1024D000284723C40C113246C4204367860C1134AC
:1024E000425431016C0BE61472204248FE13066D13
:1024F0001AAA1072409242888822428808212284B7
:102500008810224288082122016E11AA10721042FE
:1025100044848922874A11A333016F11AA107231B2
:10252000836250319A151A81C608007011EA9071C1
:102530004092425431BA628144A00C017110EA9079
:102540007141C18A18CD4A894882500E7211AA1071
:102550007210424484892287CA09944300730FAAE7
:10256000107241B150E4A193025720017410E81495
:1025700072112623238684C9D9B042047510AA108B
:10258000721046AF0A1D2961420811017616AA1081
:10259000721046990841420489113246882862E443
:1025A0000401771CAA107210228488102242880825
:1025B000212284881022428848814688100078159C
:1025C000AA1072105668C49031A68891323364C440
:1025D000A062027912EA907110469F95129104A1AF
:1025E000B821678C007A0CAA107278506C3E7B5030
:1025F000007B146695711233648C20793364CCA00F
:1026000041F2D144027C0822D971F8C0007D1466E1
:1026100095711034917C34CD903182E4CD9031822B
:10262000007E0E4AD0721124A20891128284007F8B
:102630000500107200000004FFFF00005F000303AC
:102640000404030505100FFEFD0BFD0BFE01C20483
:102650006706362005008C142109B28514074ACC80
:1026600000220843BD15112D012316A7847891601F
:102670002418099922C148C81409468291180024D7
:1026800017D77C78C18A24328A5062C4222D42092D
:102690004D2292620C00251FBC845DC2A084284A92
:1026A0001445A292505814138724C190281812C5BB
:1026B0006292605004261BBC847D7480482C128B6F
:1026C000E2903984340A8D42329A70442B9544004A
:1026D000270641BD1304280DD47475A19028A4B712
:1026E000982C18290ED47415C1982C26D229244A66
:1026F000032A0B55B4562929934C21002B0B778CB8
:1027000078E1B45B380D002C085275141609002DC1
:1027100007249C1587002E06328514062F0DB484DD
:1027200075996249B1A4580C00300DB784583389AB
:102730001ABF49D446003109B58558129AFE443271
:102740000DB7843824514DAAA8DBE1103310B784AB
:102750003824514D2A9491A534D284043411B7847D
:1027600098C2B5882C220A894292A354483511B7E1
:1027700084389652386524994A69A40909003610AC
:10278000B7845824118D2A59A9B195242400370FF4
:10279000B784180FC1484C2A942A4AD5003811B77B
:1027A0008438A4118D6689912236A611050039104E
:1027B000B7845814518DADB222A5914424003A0734
:1027C00072851426033B09927514268B04003C0A7B
:1027D000778CD8C1D1F272003D08379C1877C001C0
:1027E0003E0A778C18E14D8B61003F0EB68437149A
:1027F000114928538C033501401DBD849ED6E14804
:1028000036922849482A1491882292689928498644
:102810007248EC20024117BA849B72881C10114741
:10282000C4A1684C1813DAA2A2A864464215B98460
:102830001A3725994826523B0925428950223B8C5C
:10284000004317BA847B95C850229E03E610394492
:102850000E9183C491A1AC044419BB841C87A07061
:10286000241589256289582296882552917072888C
:10287000014517B9841A078950228D885244C1A294
:1028800028284A91468407024617B9841A078950B6
:10289000228D885244C1A228280ACA01622A004710
:1028A00019BB847C95D050248EC8011139480E1272
:1028B0009E4552D16C488A004818BB841C348A5407
:1028C0002415494552D1412415494552915442237A
:1028D0004909B485171491FE424A0EB7847944A978
:1028E0005E44129124B4064B18BB841C24923028F9
:1028F0008B8AC29238A02C998A86B29970422A4C4F
:1029000017B9841A6439400E9003E40039400E90E0
:1029100046A411E181004D24BD841E54CA74341DA7
:102920004564115144161145641151481212852411
:102930002151481212C5544622024E1CBB841CD39E
:10294000C934440C4566A1902C1413A54D42415244
:102950007414968C23004F18BB847CC5D9482A91E7
:1029600003E8003A800EA0032452D16C580350179C
:10297000B9841A87906C22940825B2894D0E900371
:10298000E400311500511FEB6C7CC5D9482A910336
:10299000E8003A800EA0CC2422896844AC8344E14C
:1029A000491C30015217BB841C87A06C2694096512
:1029B0008A5699502654134A6A13005312B9845AFE
:1029C00094C84C228D482364E7319152025417BABF
:1029D000841B879268A62D2887C82172881C2287AD
:1029E000C80134005518BB841CC48938240E89439F
:1029F000E29038240E8943E298305A035619BA847B
:102A00001BB48934248DC982B2A02C2A094BC292EE
:102A100038400E11025724BD841E14CA44260BC927
:102A20006421992C26894882928824288948829298
:102A300088242A13CBC4321900581BBB841C25CA16
:102A400050268C8AE200491C300744E480903428E8
:102A5000134E48055919BA841BB48934260BCAA2EF
:102A600092B0240E9043E41039440EA0015A0FB8DE
:102A7000841987E19036D53A230E0F035B09D4748D
:102A80001526FD27025C0FB68417D170341C0D4744
:102A9000C3D170005D09D4741524FD27035E0F7740
:102AA000A478E1E830129388621199005F061774E8
:102AB0001707600834C516326100610E78845934F6
:102AC0009158569149442B036218B9841A73801C9B
:102AD0002007C80192D94851229408253251840414
:102AE000630E77845824118D2A8C8844140064174F
:102AF000B984BA73801C2007C82622D14428114A01
:102B00008422D16C32650F78845934914478A803BB
:102B100064A20A00660DB6845623896E25A16E2430
:102B2000006710B76CB8928A8C26A9844D57A1A46F
:102B3000026817B9841A73801C2007C80192D9480B
:102B40004D2413C944320903690AA4843522E94893
:102B50002F046A0DD56A75EA8099BE512413006B63
:102B600011B88419639D2622151951221349460371
:102B70006C09B4841523FD0B016D127E841F93D163
:102B80006C3452539229C994642A1C6E1079841AA9
:102B900093D9484D2413C9443209036F0E788459E0
:102BA000349144C82811C948007014A96C1A93D9EB
:102BB0004851229408252395991C20A6027116A934
:102BC0006C5994906822940825429168369103E4E8
:102BD000003101720B7784179315558D3400730AF9
:102BE0007684373722DB0500740FA68456D1A0AC5B
:102BF00024D41411852600751179841AA3914C24CC
:102C000013C9443291683619761078831794892C49
:102C1000248B498292A8580677187D831C14CA44D5
:102C2000260BC9643149441294442451995826030F
:102C3000780F788419A389484695D26292D1007999
:102C400014A86B1794892C248B498292A8581C9441
:102C500004A7007A0876841737BD1D7B0DD57476DE
:102C6000A298B6D4A04C312A7C07B1871807027D00
:102C70000FD57416D2A04C311A8B690BC9007E098E
:102C800027A43813CA040000000004FFFF0000005E
:102C9000FF2911241FBECFEFD1E2DEBFCDBF00E080
:102CA0000CBF13E0A0E0B2E0ECE4F9E600E00BBFFB
:102CB00002C007900D92AC31B107D9F72AE0ACE120
:102CC000B3E001C01D92A534B207E1F716E1C9E4F3
:102CD000D6E100E006C021970109802FFE010E9485
:102CE0009034C834D10780E00807A9F70E94D42B9C
:102CF0000C94A4340C940000662329F06A3019F077
:102D0000862F90E008958FEF9FEF0895CF92DF9286
:102D1000EF92FF920F931F93CF93DF93EC01842FD9
:102D20008770E1E0F0E0082E01C0EE0F0A94EAF7A8
:102D30003E2F7E0199E7E90EF11CD7019C9110E02E
:102D4000923018F41E2F913029F150E0487FE8AD01
:102D5000F9ADC880D980D60150969C91949F6001AE
:102D6000959FD00C11246C0D7D2D711DDF01A60FD8
:102D7000B71F011115C08C91812B83278D93215092
:102D8000D1F7DF91CF911F910F91FF90EF90DF90DE
:102D9000CF90089530E0D9CF110F330F222389F35C
:102DA0009C91912B93279C938F5F87702150811169
:102DB000F3CF9CADA90FB11DF7019081923028F49B
:102DC000913009F031E011E0E9CF31E0E7CF80E068
:102DD000089580E00895CF93DF93C3E5D8E08FAFE7
:102DE000EAADFBAD0190F081E02D87E598E0199503
:102DF000EAADFBAD0280F381E02D87E598E0DF913D
:102E0000CF911994E091D608F091D708309719F036
:102E100081E199E0199580911209823F09F4BAC0C5
:102E200090F5803C09F499C0B8F4803909F44FC09A
:102E300040F4E091DA08F091DB08803809F44BC0E7
:102E40000895803A09F484C0E091E008F091E10827
:102E5000803B09F440C00895803E09F462C040F40C
:102E6000E091E408F091E508803D09F47AC0089506
:102E7000803F09F47DC0E091EA08F091EB08813FC2
:102E800009F49BC008958A3FC1F1A8F4863F09F474
:102E900099C040F4E091EE08F091EF08833F09F407
:102EA0008CC00895883F09F1E091F608F091F70889
:102EB000893FF9F008958C3F51F120F18E3F61F187
:102EC000E091FE08F091FF088F3F99F00895E0919E
:102ED000DC08F091DD08309709F479C040911409BD
:102EE00060911309809111091994E091F208F09111
:102EF000F308309709F46BC01994E091F408F0914D
:102F0000F508F7CFE091F808F091F908F2CFE091D9
:102F1000FA08F091FB08EDCFE091FC08F091FD0874
:102F2000E8CFE091E608F091E708309709F44FC048
:102F30006091140920E8629FB001112460787F73CA
:102F4000809113098F77682B705280911109199421
:102F5000E091DE08F091DF08BECFE091E208F09149
:102F6000E3083097A1F16091130980911109199438
:102F7000E091E808F091E908309749F16091130970
:102F8000709114096138710510F060E870E085E116
:102F900099E01994E091EC08F091ED083097B9F0C0
:102FA0008091140920E8829FC001112480789F73CA
:102FB000209113092F77822B1994309741F080913B
:102FC00013091994E091F008F091F10892CF089557
:102FD0009B01DC011896ED91FC9141E067E11994A9
:102FE000AF92BF92CF92DF92EF92FF920F931F9317
:102FF000CF93DF936C017B018B01040F151FEB0155
:103000005E01AE18BF08C017D10759F06991D6010B
:10301000ED91FC910190F081E02DC6011995892B6D
:1030200079F7C501DF91CF911F910F91FF90EF903C
:10303000DF90CF90BF90AF900895FC01538D448DE9
:10304000252F30E0842F90E0821B930B541710F053
:10305000CF96089501970895FC01918D828D981760
:1030600061F0A28DAE0FBF2FB11D5D968C91928D38
:103070009F5F9F73928F90E008958FEF9FEF089569
:10308000FC01918D828D981731F0828DE80FF11D32
:10309000858D90E008958FEF9FEF0895FC01918D4D
:1030A000228D892F90E0805C9F4F821B91098F7346
:1030B0009927089586EA99E00E944E1821E0892B0D
:1030C00009F420E0822F0895FC01A48DA80FB92FE8
:1030D000B11DA35ABF4F2C91848D90E001968F7340
:1030E0009927848FA689B7892C93A089B1898C915F
:1030F000837080648C93938D848D981306C00288AE
:10310000F389E02D80818F7D80830895EF92FF9277
:103110000F931F93CF93DF93EC0181E0888F9B8DFA
:103120008C8D98131AC0E889F989808185FF15C0B4
:103130009FB7F894EE89FF896083E889F9898081D7
:103140008370806480839FBF81E090E0DF91CF91A6
:103150001F910F91FF90EF900895F62E0B8D10E0C8
:103160000F5F1F4F0F731127E02E8C8D8E110CC037
:103170000FB607FCFACFE889F989808185FFF5CF82
:10318000CE010E946418F1CFEB8DEC0FFD2FF11DE5
:10319000E35AFF4FF0829FB7F8940B8FEA89FB89BF
:1031A00080818062CFCFCF93DF93EC01888D88231D
:1031B000B9F0AA89BB89E889F9898C9185FD03C09A
:1031C000808186FD0DC00FB607FCF7CF8C9185FF7F
:1031D000F2CF808185FFEDCFCE010E946418E9CF48
:1031E000DF91CF91089580E090E0892B29F00E9433
:1031F0005A1881110E94000080E090E0892B49F06C
:1032000080E090E0892B29F00E94000081110E944B
:10321000000080E090E0892B49F080E090E0892B6D
:1032200029F00E94000081110E94000080E090E0DF
:10323000892B49F080E090E0892B29F00E94000062
:1032400081110C94000008958150823108F05AC019
:10325000E82FF0E08827E05DF64E8F4F0C94903415
:1032600050195419421948194C19821957195D19E6
:10327000611967196B196F197519791982197D19F7
:1032800083198719809180008F778093800008953B
:10329000809180008F7DF9CF80918000877FF5CF6E
:1032A00084B58F7784BD089584B58F7DFBCF8091E1
:1032B000B0008F778093B00008958091B0008F7D2B
:1032C000F9CF809190008F7780939000089580913E
:1032D00090008F7DF9CF80919000877FF5CF80910E
:1032E000A0008F778093A00008958091A0008F7D2B
:1032F000F9CF8091A000877FF5CF809120018F7753
:10330000809320010895809120018F7DF9CF8091D5
:103310002001877FF5CFCF93DF93282F30E0F9018D
:10332000E25BF04E8491F901E85FF04ED491F9012F
:10333000EE53F14EC491CC23A1F081110E942419C7
:10334000EC2FF0E0EE0FFF1FE855F14EA591B49180
:10335000EC91ED2381E090E009F480E0DF91CF91E2
:10336000089580E090E0FACF1F93CF93DF93282F4A
:1033700030E0F901E25BF04E8491F901E85FF04E34
:10338000D491F901EE53F14EC491CC23A9F0162F3C
:1033900081110E942419EC2FF0E0EE0FFF1FE2577D
:1033A000F14EA591B4918FB7F894EC91111108C02A
:1033B000D095DE23DC938FBFDF91CF911F910895CD
:1033C000DE2BF8CFCF93DF9390E0FC01E85FF04E67
:1033D00024918E53914EFC0184918823C9F090E092
:1033E000880F991FFC01EC58F14EA591B491FC0196
:1033F000E257F14EC591D49161110DC09FB7F89479
:103400008C91209582238C938881282328839FBFC9
:10341000DF91CF910895623051F49FB7F8943C91B9
:10342000822F809583238C93E8812E2BEFCF8FB74B
:10343000F894EC912E2B2C938FBFEACF3FB7F894E2
:103440008091B7039091B803A091B903B091BA03EA
:1034500026B5A89B05C02F3F19F00196A11DB11DEF
:103460003FBFBA2FA92F982F8827BC01CD01620F2B
:10347000711D811D911D42E0660F771F881F991FE6
:103480004A95D1F708958F929F92AF92BF92CF92B3
:10349000DF92EF92FF926B017C010E941E1A4B019A
:1034A0005C01C114D104E104F104B9F00E941E1AB8
:1034B000681979098A099B09683E7340810591055D
:1034C00080F321E0C21AD108E108F10888EE880EE5
:1034D00083E0981EA11CB11CE4CFFF90EF90DF9019
:1034E000CF90BF90AF909F908F9008952FB7F89492
:1034F0006091B3037091B4038091B5039091B603CA
:103500002FBF089520916803260F3327331F2132E0
:103510003105ECF420918C03FC0190E080E0243034
:1035200069F082E00895A09168032191AC01485BA5
:103530005C4FA40FB52FB11D2C930196861798F3FD
:1035400080916803680F6093680380E0089581E0CC
:10355000089508958FEF9FEF08958FEF9FEF0895DF
:103560008091410390E09195819591090895CF93C1
:10357000DF93CB01EA01642F0E94821ACE01DF9112
:10358000CF910895CF93DF931F92CDB7DEB76983B4
:1035900061E0CE0101960E94821A81E090E00F90D6
:1035A000DF91CF910895DC011A96ED91FC9130E006
:1035B00020E01994DC011496ED91FC9130E020E0BC
:1035C00040E060E11994DC011696ED91FC9130E049
:1035D00020E040E069E11994DC011696ED91FC9140
:1035E00030E020E040E068E119949A01DC01169691
:1035F000ED91FC91462F67E11994EF92FF920F93A2
:103600001F93CF93DF931F92CDB7DEB77C018B0161
:10361000D8016C91673129F150F46531A0F40F9015
:10362000DF91CF911F910F91FF90EF9008956A3134
:1036300018F16E3FA1F7F8014181498369E2C701A2
:103640000E94D31A0BC0F80141814983D701169615
:10365000ED91FC9130E020E0C70119950E5F1F4FFE
:10366000D7CFF80181818983AE014F5F5F4F61E061
:10367000C7010E94F51AF2CF0F5F1F4FD7011696B0
:10368000ED91FC9130E020E040E0C7011995C0CFFA
:10369000462FDC011696ED91FC9130E020E066E1CA
:1036A0001994462FDC011696ED91FC9130E020E054
:1036B00065E11994EF92FF920F931F93CF93DF93DD
:1036C000EC01042F79016D3009F446C050F46B30E1
:1036D000C9F1693009F49FC06A3009F465C080E01F
:1036E00046C06E3009F452C06F3099F70E94EC1A50
:1036F000F7011381110F110F110F6C89160F60E480
:10370000CE010E94511B612F62956F706061CE01E6
:103710000E94511B612F6F70CE010E94481BF70160
:103720006481606BCE010E94481BF701408151818A
:103730006281660F660F660FCE010E94F51A015076
:10374000A1F72EC060E272E0442311F06BE172E059
:10375000CE010E94FD1A0AC0411110C064E172E05E
:103760000E94FD1AE881F98182898C8B81E0DF91CA
:10377000CF911F910F91FF90EF9008956DE072E04F
:103780000E94FD1AE881F9818389EFCF0E94EC1A2B
:1037900061E8CE010E94511B602FCE010E94481BA0
:1037A000CE010E94E31AE2CFEA85FB8530E020E0FB
:1037B00040E068E2CE011995EE81FF8130E020E023
:1037C00040E064E1CE01199541E06BE4CE010E9436
:1037D000D31AE881F981448169E2CE010E94D31AAB
:1037E00040E06BE4CE010E94D31AE881F981448164
:1037F00069E2CE010E94D31A41E06BE4CE010E943F
:10380000D31AE881F981458169E2CE010E94D31A79
:1038100065E272E09DCF8AE592E0998388831C8AF5
:10382000A5CF41E06DE40C94D31ADC01ED91FC913D
:1038300045856DE20C94D31ACF93DF93EC0141E000
:103840006CE40E94D31ACE01DF91CF910C94151C29
:10385000CF93DF93EC01662379F00E94111CCE0117
:103860000E94151CCE010E941C1C40E06CE4CE019D
:10387000DF91CF910C94D31A40E06DE40E94D31AEB
:10388000EECF1F93CF93DF93EC01162F60780E9449
:10389000281C612F6074CE010E94281C612F607269
:1038A000CE010E94281C612F6071CE010E94281C4D
:1038B000612F6870CE010E94281C612F6470CE01B8
:1038C0000E94281C612F6270CE010E94281C612F6B
:1038D0006170CE010E94281CCE010E94111CCE01F5
:1038E0000E94151CCE010E941C1CCE010E94111CBE
:1038F000CE010E94151C40E06CE4CE01DF91CF9117
:103900001F910C94D31ADC011896ED91FC9130E0D4
:1039100020E040E069E11994DC011896ED91FC91FA
:1039200030E020E040E068E11994CF93DF931F92EC
:10393000CDB7DEB76983BE016F5F7F4F0E94E81786
:103940000F90DF91CF910895EF92FF921F93CF9345
:10395000DF93EC01162F7A010E948C1C60E4CE01EB
:103960000E94951CE885F9859701412F67E1CE01FA
:103970001995CE01DF91CF911F91FF90EF900C949C
:10398000831CEF92FF921F93CF93DF93EC01142FD0
:103990007901663181F138F4643109F44BC0653145
:1039A00079F080E022C06831C9F150F16931C9F77E
:1039B00080914003882391F1CE010E94831C2EC088
:1039C00080914003882319F0CE010E94831CCE0110
:1039D0000E948C1C60E0CE010E94951C612FCE01DC
:1039E0000E94951C81E080934003DF91CF911F914D
:1039F000FF90EF900895642F0E94951C81E0F5CF11
:103A000080914003882319F0CE010E94831CA701F6
:103A1000193138F4612FCE010E94A41C109240038A
:103A2000EDCF68E1CE010E94A41C185188E1E80E98
:103A3000F11CEDCF8E898F3F11F488E78E8BE885DE
:103A4000F9859701412F64E1CE01DF91CF911F915C
:103A5000FF90EF9019940F93DC01DE963C91DE9776
:103A6000431BD496ED91FC9119950F910895CF9336
:103A7000DF93FC01A081B18182AD982F990F990F3E
:103A8000990F95AF50969C915097903208F09FE116
:103A9000990F990F990F94AF23AD922F990F990F0A
:103AA000990F96AF51963C915197682F620F7727E7
:103AB000771F3617170614F4832F821B97AFEF0179
:103AC000C05CDF4F880F880F880F890F888321968D
:103AD00080EF888354968D919C915597813F9105F5
:103AE00008F48883EE5BFF4F56968C918083DF91BC
:103AF000CF9108950F93FC01EB5BFF4F308131961E
:103B00005081451730F4301738F0041728F080E062
:103B100013C03017D0F3FBCFFC01ED5BFF4F3081BA
:103B20008C5B9F4FFC018081681740F481E0321765
:103B300018F081E0261758F70F9108953217C8F34F
:103B4000E6CF2F923F924F925F926F927F928F9229
:103B50009F92AF92BF92CF92DF92EF92FF920F931C
:103B60001F93CF93DF93EC014C0183E4880E911CEB
:103B7000F4011082329720805E01F4E4AF0EB11C94
:103B8000F50120823FAC6E01F5E4CF0ED11CF601A9
:103B90003082359740807E01F6E4EF0EF11CF7018C
:103BA00040823496108132976080319670803297CF
:103BB0005080012F262D472D652DCE010E947A1DA4
:103BC000CD58DF4F811114C01882DF91CF911F9122
:103BD0000F91FF90EF90DF90CF90BF90AF909F90AC
:103BE0008F907F906F905F904F903F902F900895AF
:103BF00081E08883552011F0F4015082621410F4A2
:103C0000F5016082371410F4F60170821415E8F69D
:103C1000F7011083DACF0F93DC01802FFD01ED58FF
:103C2000FF4F90819923E9F12223D9F1223020F02E
:103C3000023079F56F5F621B082F0170FD0180FD76
:103C400032C0EB5BFF4F8081481758F1319680817D
:103C5000481738F53297908131978081260F2617C3
:103C6000F0F46917D8F42FEF290F8217D0F46817F2
:103C700008F4682F291708F4922F961BD696ED9119
:103C8000FC91D7970480F581E02D292FCD0119955E
:103C900008C0033089F64F5F421BCECF682F6917EB
:103CA00020F30F910895ED5BFF4F80816817C8F3F3
:103CB000319680816817A8F732969081319780817C
:103CC000240F241778F4491760F42FEF290F821777
:103CD00040F7481708F4482F291708F4922F941B2F
:103CE000CDCF482F4917E8F6F2CF213039F020F038
:103CF000223031F0840F0895860F0895841B0895B3
:103D0000861B0895213039F020F0223031F0861BD7
:103D10000895840F0895860F0895841B08955F9277
:103D20006F927F928F929F92AF92BF92CF92DF92CB
:103D3000EF92FF920F931F93CF93DF935C01162FA7
:103D4000642EEC01C15BDF4FDC80ED804C0189E724
:103D5000880E911CFE80FD18C12EF11608F4CF2CA0
:103D60005B800C85202F4E2D6D2D8A810E94751E43
:103D7000782E202F4E2D6D2D852D0E94821E482FCE
:103D8000662071F08A85F40180832C2D672DC50192
:103D90000E940B1E1F1548F01F19E394D12CDACF97
:103DA00089858111F7CF8B85EECF1D0D1C83ED82A8
:103DB000DF91CF911F910F91FF90EF90DF90CF9007
:103DC000BF90AF909F908F907F906F905F9008957D
:103DD000DC0118964C911897ED91FC911197249164
:103DE00030E0042E02C0359527950A94E2F7842F1F
:103DF000860F883068F031961196FC93EE93E4912B
:103E000098E0941B01C0EE0F9A95EAF72E2B88508C
:103E100018968C938FEF9FEF01C0880F6A95EAF791
:103E2000809582230895FC01E60FF11D849190E0B6
:103E3000982F88273196E4918E0F911D0895CF9386
:103E4000DF932091A2083091A3082817390709F4BD
:103E500090C0EC019093A3088093A208FC01849188
:103E60008093B3083196E491E093B408FE01329652
:103E7000E491E093B508FE013396E491E093B6082F
:103E8000FE013496E491E093B708FE013596E49183
:103E9000E093B808FE013696E491E093B908FE017C
:103EA0003796E491E093BA08FE013896E491E093E6
:103EB000BB08FE013996E491E093BC08FE013A96F6
:103EC000E491E093BD08FE013B96E491E093BE08C7
:103ED000FE013C96E491E093BF08FE013D96E4911B
:103EE000E093C008FE013E96E491E093C108FE0114
:103EF0003F96E491E093C208FE017096E491E0934E
:103F0000C30861E1CE010E94131F9093C5088093FE
:103F1000C40863E1CE010E94131F9093C7088093E9
:103F2000C60865E1CE010E94131F9093C9088093D3
:103F3000C8088091A2089091A308892BD1F08091A4
:103F4000C0088093CC084091C1084093CD0890915F
:103F5000CB08992371F0913079F49091C2088917B8
:103F600014F49093CC088091C308841714F48093C0
:103F7000CD08DF91CF9108953091BD082091BF0801
:103F8000082E000C990B622F022E000C770B630F8A
:103F9000711D37FD7A95861797071CF4320F309301
:103FA000CC08241734F72093CD08E3CFAF92BF920B
:103FB000CF92DF92EF92FF920F931F93CF93DF93F5
:103FC00000D01F921F92CDB7DEB78C01DC01DA96CC
:103FD000AC90DA97DB96EC90DB97ED91FC91B18891
:103FE000FE2CD12CC12CD801ED91FC911197808928
:103FF000D8962D913C911C82FD828B83B8E08B9FDB
:10400000C00111248C9DA0018D9D500D9C9D500DD3
:104010001124240F351F3A832983D8011496ED917A
:10402000FC919E012F5F3F4F41E06FE0C801199561
:10403000F3948F2D8E198A1528F4BFEFCB1ADB0A63
:10404000FB1488F20F900F900F900F900F90DF915C
:10405000CF911F910F91FF90EF90DF90CF90BF9085
:10406000AF90089587E598E00E94D61F87E598E015
:104070000C94DA1AEF92FF921F93CF93DF93EC0127
:10408000142F7901683151F130F46431D1F0673186
:10409000A9F080E006C0693109F443C06032C9F775
:1040A00081E0DF91CF911F91FF90EF900895F7018C
:1040B00061917F01CE010E94411C11501111F7CF77
:1040C000EFCF41E06CE40E94D31A41E06DE4CE01F1
:1040D0000E94D31ACE010E94151CE2CF8F8988233B
:1040E00049F0CE010E94111CCE010E94151CCE0188
:1040F0000E941C1CCE010E94111C40E06DE4CE0108
:104100000E94D31ACE010E94151C40E06CE4CE013F
:104110000E94D31A81E08F8B6E89CE010E94411CD0
:10412000BFCF40E06DE40E94D31ACE010E94151C5F
:10413000CE010E941C1CCE010E94111CCE010E94C7
:10414000151C1F8AADCF0F931F93CF93DF938C0164
:10415000C62F642FCC32E8F4CA3208F041C0C8320E
:1041600071F1C93209F442C080E0C034D0F1CF739C
:10417000F801EC0FF11D868D8F3F91F1C031E0F019
:104180000E948B1921E0892B09F420E0F801218F8E
:1041900027C0CD3289F140F384EB8C0F823020F7B9
:1041A000CF73C00FD12FD11D8E8D411133C061E06F
:1041B0000E94E21960E08E8D0E94B41911C0025E67
:1041C0001F4FD0E0F80181918F018F3F31F061E006
:1041D000D03108F062E00E94E219DF5FD63191F73A
:1041E00081E0DF91CF911F910F91089570E090E0F1
:1041F00080E00E94431AF4CF85E090E0433010F055
:1042000082E090E0880F991F880F991F059701970A
:10421000F1F7E6CF62E00E94E219E2CF87FF0AC021
:104220009CE0980F923030F08D3F21F0803F18F4E1
:10423000807F089580E00895982F9F7E282F2F7CFF
:10424000203839F0803E29F081E0903C19F080E080
:10425000089581E00895DC018D919C91DC01ED9140
:10426000FC910190F081E02D19941F93CF93DF937F
:104270002150203118F587FF21C0D42F162FC82FC9
:10428000622F682B80910009909101090E942B21D7
:10429000612F6F7780910009909101090E942B2175
:1042A000CF7EC03C59F06D2F6F77809100099091BF
:1042B0000109DF91CF911F910C942B21DF91CF91B8
:1042C0001F910895242F462F682F80EB0C943521E1
:1042D000262F40E0682F80EC0C9435216D3F48F488
:1042E0006A3F10F4683F39F4FC01808191810C949D
:1042F0002B216E3FC8F70895813E10F40C943521B0
:10430000883F28F0682F80E099E00C946E21089592
:104310000F931F93CF930CE712E0C0E0F801819157
:104320008F01909106029C130CC061E00E94B419A9
:10433000C0930602CF5FC43089F7CF911F910F91D0
:10434000089560E00E94B419F5CFCF92DF92EF920A
:10435000FF920F931F93CF93DF936C01EB017B01CF
:10436000E40EF51E10E000E0CE15DF0561F0699166
:10437000D601ED91FC910190F081E02DC6011995D7
:10438000080F191FF1CFC801DF91CF911F910F9135
:10439000FF90EF90DF90CF9008952F923F924F9231
:1043A0005F926F927F928F929F92AF92BF92CF92C5
:1043B000DF92EF92FF920F931F93CF93DF9300D082
:1043C00000D0CDB7DEB77C016C0124E0C20ED11C59
:1043D000FC01E158FF4F0190F081E02DC6011995D5
:1043E0008C018E3F9F4F08F05BC0370182E8680E5A
:1043F000711CF301F081FB83470121E8820E911CBF
:10440000F401F081FD839701215A3F4F3A832983BC
:10441000F9018081813009F46AC008F45CC08230FF
:1044200009F471C0833009F47AC0F701EB5AFF4FE9
:104430002D81208331963B81308337978081918114
:1044400047969C838B830F3F110511F008F015C12F
:10445000B4960136110530F40134110558F0F70116
:10446000EF58FF4F808191812B813C81280F391FAC
:104470003C832B838B819C810196FC01249121112B
:104480005AC0412CE981FA818081813009F492C1BE
:1044900008F48BC1823009F48FC1833009F491C1D3
:1044A00081E090E026960FB6F894DEBF0FBECDBF38
:1044B000DF91CF911F910F91FF90EF90DF90CF9000
:1044C000BF90AF909F908F907F906F905F904F9034
:1044D0003F902F900895F701EF5AFF4F0190F08120
:1044E000E02DC6011995FB81F80FFB839ECFF701E4
:1044F000EF5AFF4F0190F081E02DC60119952D81F3
:10450000281B2D8392CFF701EF5AFF4F0190F081C6
:10451000E02DC60119953B81381B3B8386CFF701FF
:10452000EF5AFF4F0190F081E02DC60119959D8152
:10453000980F9D837ACFEB81FC812491201711067F
:1045400009F094C0CF010296009709F49ACFF701C1
:10455000ED5AFF4FFE83ED83918380831086719621
:1045600060818D819E810E94E81EED81FE8186839F
:10457000F701EB59FF4F60818D819E810E94E81EFB
:10458000582EED81FE818783970123583F4F3C834E
:104590002B83F9019081ED81FE81928781E0911159
:1045A00080E0ED81FE818387F701EA59FF4FB080FB
:1045B0006B2D8D819E810E94E81E382EF701E959EE
:1045C000FF4F2080622D8D819E810E94E81E182F52
:1045D000F701E859FF4F0081602F8D819E810E9475
:1045E000E81E015021E030E0A90101C0440F0A9506
:1045F000EAF7482E441AED81FE81068110160CF070
:1046000041CFBA94C90101C0880FBA94EAF7381AA9
:10461000B484150D2A9401C0220F2A94EAF7A22E21
:10462000A11A2B2D4A2D632D82810E94751E182FF1
:10463000ED81FE8182832B2D4A2D632D83810E9483
:10464000821EED81FE818383F1E0BF1609F493C0E1
:10465000BF1608F450C022E0B21609F492C033E04D
:10466000B31609F499C0082F212F49C0FC01849189
:104670002B813C81280F311DFBCEF701EB58FF4FFA
:1046800080819181EB81FC81E80FF91FFC83EB8332
:104690005F0160E0C5010E94131F2B813C81280F40
:1046A000391F3C832B8362E0C5010E94131F34E055
:1046B000A30EB11C8017910760F3EB81FC818491FC
:1046C00090E0982F88273196E4918E2B009709F47B
:1046D000D8CE0817190721F48B819C81039634CF1B
:1046E000EB81FC813296E4912B813C812E0F311DB0
:1046F0003C832B83E2CF202F210F082F050D482F5D
:10470000612FC6010E947A1D882309F4BBCEED817A
:10471000FE81148215825701F2E6AF0EB11C23E62A
:10472000E20EF11CF50160818D819E810E94E81EE0
:10473000082FF70160818D819E810E94E81E182F4D
:1047400040E0602FC6010E948F1E41E0612FC6012C
:104750000E948F1E61E08D819E810E94E81E811162
:10476000EFCFED81FE8185818515E4F28285EB81B5
:10477000FC81808387CEB51821E0210F080F1B0D27
:10478000BECF91E0392F301B21E0210F951901E0B8
:10479000080F890F130FB3CF212F250D982F901BD2
:1047A00001E0080F81E0890FAACFF4018081480E53
:1047B000408276CEF301FACFF401808184198083A0
:1047C0006FCEF301FACFFC01908592FF04C0917087
:1047D00081E02289291380E00895862F642F0C94AC
:1047E000E219FC0181890E948B1921E0892B09F4CF
:1047F00020E0822F0895CF92DF92EF92FF920F93E5
:104800001F93CF93DF93EC0188858B7F8887CE0140
:104810000E94F123182F8885869581701817B9F0AA
:104820000E94761A6A837B838C839D83888592E0BD
:1048300089278887888582FB882780F9DF91CF9137
:104840001F910F91FF90EF90DF90CF9008950E94FD
:10485000761ACA80DB80EC80FD80AB01BC014C196C
:104860005D096E097F098E819F81B0E0A0E0481745
:1048700059076A077B07F0F2888581701817D1F213
:104880000E94761A6A837B838C839D83888591E05E
:104890008927846088870E94761A09851A852B8566
:1048A0003C85601B710B820B930B6D877E878F8716
:1048B000988B0E94761A69877A878B879C87BACFF4
:1048C000CF93DF93EC0118860E94F123882319F01F
:1048D0008885836088870E94761A6A837B838C83AD
:1048E0009D83DF91CF910895089590E080E0089531
:1048F000FC01A081B18150962C9182AD38E0839F5C
:10490000C0011124289FA001299F500D112470E09F
:1049100060E080AD91AD0C949D348F929F92AF92E8
:10492000BF920F931F93CF93DF93CDB7DEB7A197BD
:104930000FB6F894DEBF0FBECDBF19A2423008F407
:104940004AE08E010F5D1F4F842E912CB12CA12CBB
:10495000A50194010E946E34E62FB901CA01EA3024
:1049600044F5E05DD801EE938D01232B242B252BFC
:1049700079F790E080E0109769F0FD010190002048
:10498000E9F73197AF014A1B5B0BBD0183E598E066
:104990000E94A521A1960FB6F894DEBF0FBECDBF31
:1049A000DF91CF911F910F91BF90AF909F908F900B
:1049B0000895E95CD7CFFC0101900020E9F7319719
:1049C000AF01481B590BBC0183E598E00C94A5216D
:1049D000CF92DF92EF92FF92CF93DF936C01990F0A
:1049E000EE08FF08F7FE19C06DE283E598E00E942B
:1049F000CD21EC0166277727CB016C197D098E0943
:104A00009F094AE00E948D248C0F9D1FDF91CF915A
:104A1000FF90EF90DF90CF9008954AE0C701B60174
:104A2000DF91CF91FF90EF90DF90CF900C948D2489
:104A30008091C703811184C087E598E00E947824A3
:104A40008CEC99E10E941F1F8AE08093D4088FE0CC
:104A50008093D5088CEA92E00E94DB240E943220E9
:104A600088EA91E00E941F1F8091C1039091C203C8
:104A70008A30910530F429E12093D4082AE3209369
:104A8000D5089C012A5031092A35310530F42AE035
:104A90002093D4082AE32093D5089C012456310999
:104AA0002438334028F41092D4082AE32093D50800
:104AB0000E94E8240E9432208CEC99E10E941F1F82
:104AC00080E58093D4088FE08093D50889EB92E04D
:104AD0000E94DB240E94322088EA91E00E941F1F7E
:104AE0008AE58093D4088AE38093D50880910602F2
:104AF000803821F482EC92E00E94DB24809106024F
:104B0000811104C084EC92E00E94DB2480910602B3
:104B1000813021F486EC92E00E94DB248091060231
:104B2000823021F488EC92E00E94DB24809106021E
:104B3000833021F48AE193E00E94DB240E9432203A
:104B40008091C703813021F587E598E00E947824A1
:104B50008CE396E20E941F1F86E18093D40884E1D3
:104B60008093D5088AEC92E00E94DB240E943220D8
:104B700084E99FE10E941F1F85E08093D40882E3AF
:104B80008093D50887ED92E00E94DB240E943220BA
:104B90008091C703823009F012C187E598E00E9436
:104BA00078248CEC99E10E941F1F8AE08093D4083E
:104BB0008FE08093D50882EE92E00E94DB240E9471
:104BC000322088EA91E00E941F1F8EE18093D40872
:104BD0008AE38093D5088091BB039091BC038A300F
:104BE000910510F40E94E8248091BB039091BC03CE
:104BF0000A978A30910510F40E94E8248091BB0343
:104C00009091BC0344978A30910510F40E94E824E7
:104C10008091BB039091BC034E978A30910510F4AC
:104C20000E94E8248091BB039091BC0388978A304E
:104C3000910510F40E94E8248091BB039091BC037D
:104C4000C2978A30910510F40E94E8248091BB033A
:104C50009091BC03CC978A30910510F40E94E8240F
:104C60008091BB039091BC03865491098A309105D1
:104C700010F40E94E8248091BB039091BC038055FE
:104C800091098A30910510F40E94E8248091BB03B9
:104C90009091BC038A5591098A30910510F40E94C5
:104CA000E8240E9432208CEC99E10E941F1F80E5CD
:104CB0008093D4088FE08093D5088FEE92E00E9415
:104CC000DB240E94322088EA91E00E941F1F8AE5BF
:104CD0008093D4088AE38093D5088091BB03909198
:104CE000BC030A9720F484EC92E00E94DB248091BC
:104CF000BB039091BC030A970A9720F486EC92E0DC
:104D00000E94DB248091BB039091BC0344970A97D7
:104D100020F488EC92E00E94DB248091BB03909108
:104D2000BC034E970A9720F48AE193E00E94DB24AB
:104D30008091BB039091BC0388970A9720F488EF79
:104D400092E00E94DB248091BB039091BC03C29748
:104D50000A9720F48AEF92E00E94DB248091BB0343
:104D60009091BC03CC970A9720F48CEF92E00E94BC
:104D7000DB248091BB039091BC03865491090A9770
:104D800020F48EEF92E00E94DB248091BB0390918F
:104D9000BC03805591090A9720F480E093E00E94BB
:104DA000DB248091BB039091BC038A5591090A973B
:104DB00020F482E093E00E94DB240C9432200895DA
:104DC000BF92CF92DF92EF92FF920F931F93CF93F8
:104DD000DF93D62FC42F8091C703813031F587E050
:104DE000E82E82E0F82E10E000E0BB24B394F70137
:104DF00081917F018D1314C0CF3709F054C0C801D1
:104E000089539C4F6C01FC018181813049F461E040
:104E1000F801E758FD4F81810E94B419F601118213
:104E20000F5F1F4F0630110511F7E7E0F2E081E058
:104E300090E021E031913D1307C0CF3709F047C022
:104E4000DC01A150BE4F1C9201968730910591F76D
:104E50008091C7039FEF980F923008F03FC08D2FCD
:104E60008F7DB9F45091C1034091C20390E080E07E
:104E70002C2F30E02817390711F4522F432F0196B9
:104E800084369105B9F75093C1034093C203DD23E3
:104E900049F1DF91CF911F910F91FF90EF90DF903B
:104EA000CF90BF900895C111BBCFC80189539C4FCB
:104EB0006C01FC0181818111B3CF60E0F801E758FA
:104EC000FD4F81810E94B419F601B182A9CFC111B1
:104ED000BBCFDC01A150BE4F2C93B6CF8111D7CFF1
:104EE000D032A9F6D0E0D093C203C093C1030E9490
:104EF0008821DF91CF911F910F91FF90EF90DF906C
:104F0000CF90BF900C941825CF93DF93C62F80913C
:104F1000C703811109C0D4E0C09306020E94882112
:104F20000E941825D150C1F78091C703815082306B
:104F300078F480910602CC2321F0C13029F481E07D
:104F400001C080E0C82F02C0C23029F4C09306021D
:104F5000DF91CF910895C330A9F7F8CF0E9498341C
:104F60001F93CF93DF9385ED8093BC008091440322
:104F700090914503A0914603B09147030796A11D68
:104F8000B11D23E0B695A795979587952A95D1F7FA
:104F90002091BC0024FD03C010928C0352C04091AC
:104FA0004403509145036091460370914703452B9C
:104FB000462B472B69F30097A105B10541F025E386
:104FC0002A95F1F700000197A109B109E1CF80917D
:104FD0004303C1E0C0934203882399F1D091B80004
:104FE0001091BA008091BC008A7B8093BC0060E085
:104FF00084E10E94B41960E085E10E94B419109226
:105000008C03C0938E0310928D0361E084E10E94B3
:10501000B41961E085E10E94B4198091B9008E7FD6
:105020008093B9008091B9008D7F8093B90088E4A6
:105030008093B80085E48093BC001093BA00D093AD
:10504000B800DF91CF911F9108951F920F920FB674
:105050000F9211240BB60F922F933F934F935F93B0
:105060006F937F938F939F93AF93BF93EF93FF9330
:1050700086EA99E00E946418FF91EF91BF91AF9189
:105080009F918F917F916F915F914F913F912F9160
:105090000F900BBE0F900FBE0F901F9018951F9290
:1050A0000F920FB60F9211240BB60F922F938F937E
:1050B0009F93EF93FF93E091B609F091B709808138
:1050C000E091BC09F091BD0982FD1DC090818091E5
:1050D000BF098F5F8F732091C009821741F0E09163
:1050E000BF09F0E0EA55F64F958F8093BF09FF9115
:1050F000EF919F918F912F910F900BBE0F900FBE4C
:105100000F901F9018958081F2CF1F920F920FB6CB
:105110000F9211242F933F938F939F93AF93BF933D
:105120008091B3039091B403A091B503B091B603FD
:105130003091B20323E0230F2D3758F50196A11DBE
:10514000B11D2093B2038093B3039093B403A09353
:10515000B503B093B6038091B7039091B803A091C3
:10516000B903B091BA030196A11DB11D8093B70395
:105170009093B803A093B903B093BA03BF91AF91D2
:105180009F918F913F912F910F900FBE0F901F9085
:10519000189526E8230F0296A11DB11DD2CF1F92AC
:1051A0000F920FB60F9211240BB60F922F933F93CD
:1051B0004F935F936F937F938F939F93AF93BF931F
:1051C000EF93FF938091B900887F803609F44DC03A
:1051D00008F040C0883209F4A7C028F5803109F4EE
:1051E0009BC0C8F4882309F4F7C0883009F494C040
:1051F000FF91EF91BF91AF919F918F917F916F91AF
:105200005F914F913F912F910F900BBE0F900FBE6A
:105210000F901F901895883109F486C0803241F7AD
:1052200080938B0314C0803409F49BC040F4803316
:10523000B9F38833E9F680938B0385ECAEC08035F3
:1052400009F483C0883509F494C0883489F60E9433
:10525000B027CECF883909F48AC038F5883729F0CD
:1052600050F4883611F0803719F683E080938C0370
:1052700010928A0355C0883809F479C0803919F032
:10528000803809F0B5CF80918A03803208F06FC072
:10529000E0918A0381E08E0F80938A038091BB00A6
:1052A000F0E0E659FC4F80833BC0803B39F0D0F4FE
:1052B000803A09F477C0883A09F09ACF84E0809365
:1052C0008C031092690310926803F0E0E0E01995F6
:1052D0008091680381110FC081E080936803109270
:1052E000480309C0803C09F4A8CF883C09F4A5CF45
:1052F000883B09F07DCFE091690381E08E0F8093B8
:105300006903F0E0E85BFC4F80818093BB009091E3
:1053100069038091680329C08091B1038093BB0029
:1053200085EC8093BC0064CF9091B0038091AF0373
:10533000981758F5E091B00381E08E0F8093B00389
:10534000F0E0E157FC4F8081E9CFE091B00381E0CC
:105350008E0F8093B0038091BB00F0E0E157FC4FCB
:1053600080839091B0038091AF039817C8F285E8CD
:10537000D8CFE091B00381E08E0F8093B00380918D
:10538000BB00F0E0E157FC4F808380918E038111D8
:105390005ECF81E080938D0384EA8093BC001092FD
:1053A0008C0326CF85EC8093BC0010928C038091F7
:1053B0008A03803230F4E0918A03F0E0E659FC4F32
:1053C000108260918A0370E08AE693E0F0E0E0E00A
:1053D000199510928A030CCF10928B0338CFFC01E1
:1053E00012821382148215828AE090E0978386836A
:1053F000108686E992E091838083118A08950F9345
:105400001F93CF931092A9091092A80988EE93E0F8
:10541000A0E0B0E08093AA099093AB09A093AC09F7
:10542000B093AD0984E892E09093A7098093A60910
:1054300085EC90E09093B3098093B20984EC90E0FE
:105440009093B5098093B40980EC90E09093B709EC
:105450008093B60981EC90E09093B9098093B809E4
:1054600082EC90E09093BB098093BA0986EC90E0BF
:105470009093BD098093BC091092BF091092C00996
:105480001092C1091092C20986EA99E09093440AE9
:105490008093430A1092D7081092D6081092D90828
:1054A0001092D8081092DB081092DA081092DD08EA
:1054B0001092DC081092DF081092DE081092E108CA
:1054C0001092E0081092E3081092E2081092E508AA
:1054D0001092E4081092E7081092E6081092E9088A
:1054E0001092E8081092EB081092EA081092ED086A
:1054F0001092EC081092EF081092EE081092F1084A
:105500001092F0081092F3081092F2081092F50829
:105510001092F4081092F7081092F6081092F90809
:105520001092F8081092FB081092FA081092FD08E9
:105530001092FC081092FF081092FE0883E49AE093
:1055400090930109809300091092020910920309B7
:1055500010920409109209091092080910920B097F
:1055600010920A098FEF9FEF90930D0980930C0919
:1055700090930F0980930E0983E080931009109295
:105580001109109212091092130910921409109225
:105590009509E5E1F9E080E8DF011D928A95E9F7D8
:1055A000109298091092990910929A0910929B09E9
:1055B00010929C0910929D0910929E0910929F09C9
:1055C0001092A0091092A1091092A2091092A309A9
:1055D0001092A4091092A50910925608109255082D
:1055E0008CE796E19093D3088093D2081092D40868
:1055F0001092D50810926F088EE992E090935408AB
:1056000080935308109258081092570810926C0813
:105610001092630810926408109265081092660850
:105620008FEF80936D0880937108E5E7F8E08BE8D1
:1056300098E01FEF11938E179F07E1F78AE59BE132
:1056400090935C0880935B0881EC9CE190935E08EA
:1056500080935D088AE390E29093600880935F08EE
:1056600083EA90E2909362088093610830E020E042
:1056700040E069E087E598E00E945A1B1092A30879
:105680001092A20886E896E190938C0880938B088C
:105690008EEC93E09093900880938F0888E080933D
:1056A0009108109292081092AF081092CF08C1E0B2
:1056B000C093D008C093D10886EA92E090938E08F8
:1056C00080938D0887E598E00E94371D10929E0810
:1056D0001092A00810939F081093A108E0918D08E4
:1056E000F0918E080280F381E02D87E598E019950E
:1056F00089EE96E19093A5088093A4081092B208D1
:1057000085E18093810884E180938208109380086A
:1057100080E498E00E94EF2906E912E01093410826
:1057200000934008C09352088DE298E00E94EF2950
:1057300010932E0800932D08C0933F088AE198E04B
:105740000E94EF2910931B0800931A08C0932C089D
:1057500087E098E00E94EF2910930808009307085B
:10576000C093190884EF97E00E94EF291093F50782
:105770000093F407C093060881EE97E00E94EF299A
:105780001093E2070093E107C093F3078EEC97E0D4
:105790000E94EF291093CF070093CE07C093E00734
:1057A000CF911F910F910895789484B5826084BD44
:1057B00084B5816084BD85B5826085BD85B5816015
:1057C00085BD80916E00816080936E001092810093
:1057D000809181008260809381008091810081604E
:1057E000809381008091800081608093800080910F
:1057F000B10084608093B1008091B000816080939B
:10580000B00080919100826080939100809191001E
:1058100081608093910080919000816080939000DE
:105820008091A10082608093A1008091A10081609D
:105830008093A1008091A00081608093A00080915E
:1058400021018260809321018091210181608093F8
:1058500021018091200181608093200180917A0054
:10586000846080937A0080917A00826080937A00CD
:1058700080917A00816080937A0080917A008068BC
:1058800080937A001092C100E0910009F091010923
:105890000190F081E02DA089B189D2E0DC93A4854C
:1058A000B5851C92A685B7858FE38C93108EA4894D
:1058B000B589C6E0CC93A289B3898C9180618C9321
:1058C000A289B3898C9188608C93A289B3898C91C9
:1058D00080688C930288F389E02D80818F7D80839E
:1058E00010920209109204091092030910920B09F8
:1058F00010920A0910920909109208098FEF9FEF80
:1059000090930D0980930C0990930F0980930E09D1
:105910000E94761A609398097093990980939A0966
:1059200090939B09109295091092120910921109F7
:105930001092130910921409109297091092960967
:105940008091100981708260816080931009E091DC
:10595000B609F091B709D083E091B209F091B3098B
:105960001082E091B409F091B50980E18083109232
:10597000BE09E091BA09F091BB09C083E091B80972
:10598000F091B909808180618083E091B809F0913C
:10599000B909808188608083E091B809F091B909E4
:1059A000808180688083E091B809F091B909808195
:1059B0008F7D808380EE96E29093E1088093E008EB
:1059C00084E897E29093E3088093E208C9E7D2E085
:1059D00000E812E061E089910E94E2190C171D07AE
:1059E000C9F7C2E7D2E062E089910E94E21922E0A1
:1059F000C937D207C1F782E08093510880E498E06C
:105A00000E946024C9E1D0E0D0934708C0934608C3
:105A10001092520883E080933E088DE298E00E9445
:105A20006024D0933408C093330884E080932B081B
:105A30008AE198E00E946024D0932108C093200856
:105A400010922C0885E08093180887E098E00E9467
:105A50006024D0930E08C0930D081092190886E0B8
:105A60008093050884EF97E00E946024D093FB07A1
:105A7000C093FA071092060887E08093F20781EE40
:105A800097E00E946024D093E807C093E707109244
:105A9000F30788E08093DF078EEC97E00E94602494
:105AA000D093D507C093D4071092E007E0915B082C
:105AB000F0915C0830E020E040E06AE087E598E0A3
:105AC00019958091D108882321F087E598E00E94FC
:105AD000782480E00E94EB1687E598E00E94D61FAC
