:100000000C9472000C949A000C949A000C949A0030
:100010000C949A000C949A000C949A000C949A00F8
:100020000C949A000C949A000C949A000C949A00E8
:100030000C949A000C949A000C949A000C949A00D8
:100040000C949F040C949A000C9422020C94FC01D2
:100050000C949A000C949A000C949A000C949A00B8
:100060000C949A000C949A002C11791159114E118C
:10007000FB0BFB0B2611FB0B2611FB0B261126118C
:100080002611FB0B2611261100000000240027007A
:100090002A0000000000250028002B0000000000BE
:1000A00023002600290004040404040404040202BA
:1000B00002020202030303030303010204081020E7
:1000C00040800102040810200102040810200000F2
:1000D0000008000201000003040700000000000007
:1000E0000000B11111241FBECFEFD8E0DEBFCDBF9D
:1000F00011E0A0E0B1E0EEEBF5E202C005900D9258
:10010000A039B107D9F723E0A0E9B1E001C01D9201
:10011000A238B207E1F710E0C2E7D0E004C02197AF
:10012000FE010E94D212C137D107C9F70E9404090B
:100130000C94DD120C940000CF92DF92EF92FF92AC
:100140000F931F93CF93DF936C017A018B01C0E073
:10015000D0E0CE15DF0581F0D8016D918D01D6017B
:10016000ED91FC910190F081E02DC6010995892B5C
:1001700011F02196EECF7E01C701DF91CF911F9143
:100180000F91FF90EF90DF90CF900895FC01538D79
:10019000448D252F30E0842F90E0821B930B541761
:1001A00010F0CF96089501970895FC01918D828DEE
:1001B000981761F0828DDF01A80FB11D5D968C91BB
:1001C000928D9F5F9F73928F90E008958FEF9FEFC6
:1001D0000895FC01918D828D981731F0828DE80F82
:1001E000F11D858D90E008958FEF9FEF0895FC013C
:1001F000918D228D892F90E0805C9F4F821B910909
:100200008F739927089583EE92E00E94F70021E012
:10021000892B09F420E0822F0895FC01848DDF01F1
:10022000A80FB11DA35ABF4F2C91848D90E0019669
:100230008F739927848FA689B7892C93A089B18958
:100240008C91837080648C93938D848D981306C0F9
:100250000288F389E02D80818F7D80830895EF925D
:10026000FF920F931F93CF93DF93EC0181E0888F70
:100270009B8D8C8D981305C0E889F989808185FD57
:1002800026C0F62E0B8D10E00F5F1F4F0F73112746
:10029000E02E8C8DE8120CC00FB607FCFACFE8896F
:1002A000F989808185FFF5CFCE010E940D01F1CF44
:1002B0008B8DFE01E80FF11DE35AFF4FF0829FB7CF
:1002C000F8940B8FEA89FB89808180620AC09FB70E
:1002D000F894EE89FF896083E889F98980818370C9
:1002E000806480839FBF81E090E0DF91CF911F9178
:1002F0000F91FF90EF900895CF93DF93EC01888DDD
:100300008823C9F0EA89FB89808185FD05C0A88919
:10031000B9898C9186FD0FC00FB607FCF5CF80819F
:1003200085FFF2CFA889B9898C9185FFEDCFCE01E9
:100330000E940D01E7CFDF91CF91089580E090E01A
:10034000892B29F00E94030181110C94000008956B
:10035000833081F028F4813099F08230A1F0089543
:100360008730A9F08830B9F08430D1F480918000D2
:100370008F7D03C0809180008F77809380000895E7
:1003800084B58F7702C084B58F7D84BD0895809138
:10039000B0008F7703C08091B0008F7D8093B00054
:1003A00008953FB7F8948091AF019091B001A0916A
:1003B000B101B091B20126B5A89B05C02F3F19F03D
:1003C0000196A11DB11D3FBFBA2FA92F982F8827D5
:1003D000820F911DA11DB11DBC01CD0142E0660F30
:1003E000771F881F991F4A95D1F70895089580E0D7
:1003F00090E008950E94D8121F920F920FB60F92AC
:1004000011242F933F934F935F936F937F938F9319
:100410009F93AF93BF93EF93FF9383EE92E00E947D
:100420000D01FF91EF91BF91AF919F918F917F91BE
:100430006F915F914F913F912F910F900FBE0F9051
:100440001F9018951F920F920FB60F9211242F93A1
:100450008F939F93EF93FF93E091F302F091F40257
:100460008081E091F902F091FA0282FD12C0908140
:100470008091FC028F5F8F732091FD02821751F0F3
:10048000E091FC02F0E0ED51FD4F958F8093FC026E
:1004900001C08081FF91EF919F918F912F910F90DB
:1004A0000FBE0F901F901895CF93DF93282F30E049
:1004B000F901E253FF4F8491F901E654FF4FD491C3
:1004C000F901EA55FF4FC491CC2391F081110E94AC
:1004D000A801EC2FF0E0EE0FFF1FE456FF4FA591AF
:1004E000B491EC91ED2381E090E021F480E002C032
:1004F00080E090E0DF91CF9108951F93CF93DF9339
:10050000282F30E0F901E253FF4F8491F901E654BE
:10051000FF4FD491F901EA55FF4FC491CC23C1F0AC
:10052000162F81110E94A801EC2FF0E0EE0FFF1FA3
:10053000EE56FF4FA591B4919FB7F894111104C0E6
:100540008C91D095D82302C0EC91DE2BDC939FBF19
:10055000DF91CF911F910895CF93DF93EC0160E07D
:100560008E810E947D0261E08E810E947D0260E0AA
:100570008E810E947D028BE891E00197F1F7DF9177
:10058000CF910895CF92DF92EF92FF920F931F9336
:10059000CF93C62F8091920190919301019739F0EA
:1005A0008091920190919301892B21F141C08CE1BE
:1005B000E82E81E0F82E00E010E0C62ED12CC01607
:1005C000D10651F461E0F70186810E947D02D0924C
:1005D0000D01C0920C0105C060E0F70186810E9408
:1005E0007D020F5F1F4FF2E0EF0EF11C043011058A
:1005F00031F7D6CF80910C0190910D016C2F70E0F6
:100600006115710511F480E090E06130710511F41D
:1006100081E090E06230710511F482E090E0633097
:10062000710511F483E090E090930D0180930C012B
:10063000CF911F910F91FF90EF90DF90CF90089591
:100640008F929F92AF92BF92CF92DF92EF92FF92E2
:100650000F931F93CF93DF93D62FC42F80919201D6
:1006600090919301C62ED12C892B49F0A2E3B1E0E1
:10067000E0E0F1E08CE091E021E030E046C082E390
:10068000A82E81E0B82E9CE1E92E91E0F92E02E936
:1006900011E088248394912CF501819191915F015F
:1006A000C816D906F9F4CF3771F4F8018281938125
:1006B0000197C1F461E0F70182810E947D02F80197
:1006C000138212820FC0C1110DC0F8018281938183
:1006D000892B41F460E0F70182810E947D02F801DC
:1006E00093828282F2E0EF0EF11C0E5F1F4F88E2D0
:1006F000E81681E0F80681F6B9CFCF3761F41182B0
:10070000108232968E179F0759F04D915D91C41655
:10071000D506B9F7F2CFC111F4CF31832083F1CFE1
:1007200040919201509193014115510521F4D0322D
:1007300009F06FC002C0D11168C080919001909102
:1007400091012C2F30E02115310511F480E090E06B
:100750002130310511F481E090E02230310511F4AF
:1007600082E090E02330310511F483E090E0909333
:100770009101809390014130510519F0DD2319F06A
:100780004FC0D032D9F7C11106C061E080E10E94AC
:100790007D0260E007C0C13071F461E080E10E9439
:1007A0007D0261E081E10E947D0260E082E10E94C1
:1007B0007D0260E01BC0C23051F461E080E10E9424
:1007C0007D0261E081E10E947D0261E0EFCFC330F4
:1007D00039F561E080E10E947D0261E081E10E94E3
:1007E0007D0261E082E10E947D0261E083E1DF91B0
:1007F000CF911F910F91FF90EF90DF90CF90BF901E
:10080000AF909F908F900C947D024130510541F440
:1008100004C0DD2309F491CF03C0D03209F4B3CF73
:10082000DF91CF911F910F91FF90EF90DF90CF90CC
:10083000BF90AF909F908F900895CF93DF9390E0FB
:10084000FC01E654FF4F2491FC01EA55FF4F8491CF
:10085000882361F190E0880F991FFC01E857FF4F52
:10086000C591D491FC01EE56FF4FA591B491611151
:1008700009C09FB7F8948881209582238883EC91E2
:100880002E230BC0623061F49FB7F8948881322F19
:10089000309583238883EC912E2B2C939FBF06C029
:1008A0008FB7F894E8812E2B28838FBFDF91CF91EB
:1008B00008958F929F92AF92BF92CF92DF92EF9264
:1008C000FF926B017C010E94D1014B015C01C114BC
:1008D000D104E104F104F1F00E94D101DC01CB016B
:1008E00088199909AA09BB09883E9340A105B10559
:1008F00070F321E0C21AD108E108F10888EE880EF1
:1009000083E0981EA11CB11CC114D104E104F104C0
:1009100019F7DDCFFF90EF90DF90CF90BF90AF90B1
:100920009F908F9008952FB7F8946091AB017091CC
:10093000AC018091AD019091AE012FBF08951F923F
:100940000F920FB60F9211242F933F938F939F9383
:10095000AF93BF938091AB019091AC01A091AD0199
:10096000B091AE013091AA0123E0230F2D3720F47E
:100970000196A11DB11D05C026E8230F0296A11DF9
:10098000B11D2093AA018093AB019093AC01A09379
:10099000AD01B093AE018091AF019091B001A091F3
:1009A000B101B091B2010196A11DB11D8093AF01BB
:1009B0009093B001A093B101B093B201BF91AF91F8
:1009C0009F918F913F912F910F900FBE0F901F908D
:1009D0001895CF92DF92EF92FF920F931F93CF93D0
:1009E000DF936C017C0187E0E80EF11CC0E0D0E0F1
:1009F000062F10E0B8010C2E02C0759567950A9479
:100A0000E2F76170F70181917F010E947D022196DA
:100A1000C430D10579F7C601DF91CF911F910F91B5
:100A2000FF90EF90DF90CF900C94AC02CF92DF92CA
:100A3000EF92FF920F931F93CF93DF93EC01F62E6B
:100A4000642F8C810E947D028D818F3F19F060E0C0
:100A50000E947D028F850F2D10E084FF25C06E015E
:100A600087E0C80ED11CE12CF12CB8010E2C02C07D
:100A7000759567950A94E2F76170F60181916F01AF
:100A80000E947D02FFEFEF1AFF0A88E0E816F104EA
:100A900061F7CE01DF91CF911F910F91FF90EF9001
:100AA000DF90CF900C94AC02B80184E07595679507
:100AB0008A95E1F7CE010E94E9046F2DCE01DF9106
:100AC000CF911F910F91FF90EF90DF90CF900C94FA
:100AD000E90441E00E94160581E090E00895FC01E0
:100AE0008085882319F081E09681911180E0089536
:100AF0001F93CF93DF93EC018F810E945402182F34
:100B00008E811817C9F00E94930428813981AB01A6
:100B1000BC01421B530B610971098A819B81A0E0D2
:100B2000B0E0481759076A077B0730F00E9493042A
:100B3000798368831E831BC08C819D81892BF1F092
:100B40000E94930428813981AB01BC01421B530BE5
:100B5000610971098C819D81A0E0B0E048175907B7
:100B60006A077B0758F00E949304798368831D828B
:100B70001C8281E0888781E090E003C0188680E0D5
:100B800090E0DF91CF911F91089587FF0AC09CE00C
:100B9000980F923030F08D3F21F0803F18F4807F25
:100BA000089580E00895982F8F7C803849F0903D1B
:100BB00039F081E0903E31F0903C21F080E00895E2
:100BC00081E008950895DC018D919C91DC01ED9107
:100BD000FC910190F081E02D09946D3F28F46A3F6B
:100BE00028F4683F41F402C06E3F28F0FC01808188
:100BF00091810C94E30508958F929F92AF92BF92DA
:100C0000CF92DF92EF92FF92CF93DF93CDB7DEB713
:100C1000A1970FB6F894DEBF0FBECDBF0E940507A7
:100C200060E081E00E94F30688E791E00E94F1060F
:100C300061E083E00E94F306C0909001D0909101A2
:100C40000D2C000CEE08FF08F7FE26C041E06DE217
:100C50008BEF91E00E94160522273327A9012C195A
:100C60003D094E095F0919A2CE0181967C019AE0E7
:100C7000892E912CA12CB12CCA01B901A501940196
:100C80000E94B012605DF70162937F01211531056A
:100C90004105510589F71AC0A701960119A2CE0195
:100CA00081967C018AE0882E912CA12CB12CCA015E
:100CB000B901A50194010E94B012605DF701629331
:100CC0007F01211531054105510589F7C7010E94B2
:100CD000DF0660E089E00E94F3068DE791E00E9464
:100CE000F10661E08BE00E94F30680910C01909187
:100CF0000D018038910521F484E891E00E94F1060D
:100D000080910C0190910D01892B21F486E891E0EE
:100D10000E94F10680910C0190910D01019721F440
:100D200088E891E00E94F10680910C0190910D01FC
:100D3000029721F48AE891E00E94F10680910C016B
:100D400090910D01039721F48CE891E00E94F10647
:100D500060E086E00E94F3068EE891E00E94F106D2
:100D600061E086E00E94F3068EE891E00E94F106C1
:100D700060E087E00E94F3068EE891E00E94F106B1
:100D800061E087E00E94F3068EE891E00E94F106A0
:100D9000A1960FB6F894DEBF0FBECDBFDF91CF9105
:100DA000FF90EF90DF90CF90BF90AF909F908F908B
:100DB000089540E0682F8BEF91E00C9416050097A2
:100DC00069F0FC0101900020E9F73197AF01481B61
:100DD000590BBC018BEF91E00C949C0080E090E0FB
:100DE00008950C94DF06643008F063E090910E02E1
:100DF000691710F06FEF690FE62FF0E0E550FE4F36
:100E00009489890F80680C94D90681E00E94D906E4
:100E10008BE39FE10197F1F70895CF93DF93823041
:100E200028F090910A02986090930A0280930E0233
:100E300010920F0280E48093100280E180931102EF
:100E400080E58093120261E08091FF010E941D0401
:100E5000809100028F3F19F061E00E941D0461E063
:100E6000809101020E941D04CBEFD1E09E012B5F17
:100E7000314080910A0284FD03C084E090E002C00A
:100E800088E090E02196281739072CF461E08E81E4
:100E90000E941D04EBCF8BE39DE00197F1F760E02A
:100EA0008091FF010E947D0260E0809101020E941A
:100EB0007D02809100028F3F19F060E00E947D0268
:100EC00080910A0284FD20C063E08BEF91E00E94D4
:100ED000E904CBE4D6E4CE010197F1F763E08BEFB0
:100EE00091E00E94E9042197F1F763E08BEF91E034
:100EF0000E94E90483E592E00197F1F762E08BEF4D
:100F000091E00E94E90415C080620E94D9068BE43A
:100F100096E40197F1F780910A0280620E94D90657
:100F200083E592E00197F1F780910A0280620E94C6
:100F3000D90680910A0280620E94D90684E08093DB
:100F40000B028CE00E94D9060E94050782E0809384
:100F50000C0286E0DF91CF910C94D9061F93CF93BA
:100F6000DF93813E38F52150203170F587FF2CC08A
:100F7000D42F162FC82F622F682B80913D0290919D
:100F80003E020E94E305612F6F7780913D029091B0
:100F90003E020E94E3058C2F8F7E803CA9F06D2FCE
:100FA0006F7780913D0290913E02DF91CF911F912A
:100FB0000C94E305883F40F0682F8DE392E0DF91C9
:100FC000CF911F910C94ED05DF91CF911F91089562
:100FD0000F931F93CF93DF93082F162FC3E1D2E017
:100FE00060EB8AA59BA50E94E305602F6F778AA519
:100FF0009BA50E94E305612F6F778AA59BA5DF91D2
:10100000CF911F910F910C94E3050F931F93CF93F2
:10101000C82F03E112E060ECF80182A593A50E94BD
:10102000E3056C2F6F77F80182A593A5CF911F91EF
:101030000F910C94E305E0911302F09114023097A4
:1010400019F08EE492E0099580914F02823F09F4F5
:10105000B3C000F5803C09F48CC068F48039C1F15C
:1010600018F4803881F10895803A09F46FC0803B0C
:1010700009F451C00895803E09F452C020F4803D27
:1010800009F472C00895803F09F47FC0813F09F4DC
:101090008EC008958A3F31F168F4863F09F4A7C0F5
:1010A00020F4833F09F49AC00895883FB1F0893F46
:1010B000F1F008958C3F29F1F8F08E3F39F18F3F20
:1010C00009F49AC00895E0911702F091180242C005
:1010D000E0911902F0911A023DC0E0912F02F091C7
:1010E00030028EC0E0913102F091320289C0E0916D
:1010F0003302F091340284C0E0913502F09136025F
:101100007FC0E0913702F09138027AC0E091390255
:10111000F0913A0275C0E0911D02F0911E021AC0D2
:10112000E0912302F0912402309709F46CC06091A1
:1011300051026F7720E8629FB00111248091500224
:101140008F77682B705280914E020994E0911B02B8
:10115000F0911C02309709F456C040915102609101
:10116000500280914E020994E0912102F0912202F6
:1011700004C0E0911F02F0912002309709F443C0AF
:101180006091500280914E020994E0912502F09105
:1011900026023097C1F1609150027091510261387E
:1011A000710510F060E870E082E592E00994E0914A
:1011B0002702F091280216C0E0912902F0912A023C
:1011C000309709F1809151028F7720E8829FC0010A
:1011D0001124209150022F77822B0994E0912B0249
:1011E000F0912C02309779F0809150020994E091AF
:1011F0002D02F0912E0204C0E0913B02F0913C02DE
:10120000309709F009940895789484B5826084BD7C
:1012100084B5816084BD85B5826085BD85B58160FA
:1012200085BD80916E00816080936E001092810078
:101230008091810082608093810080918100816033
:1012400080938100809180008160809380008091F4
:10125000B10084608093B1008091B0008160809380
:10126000B00080917A00846080937A0080917A0047
:10127000826080937A0080917A00816080937A0006
:1012800080917A00806880937A001092C100E0918A
:101290003D02F0913E020190F081E02DA089B189DC
:1012A000D2E0DC93A485B5851C92A685B7858FE333
:1012B0008C93108EA489B589C6E0CC93A289B3899A
:1012C0008C9180618C93A289B3898C9188608C9376
:1012D000A289B3898C9180688C930288F389E02D70
:1012E00080818F7D808310923F0210924102109284
:1012F0004002109248021092470210924602109249
:1013000045028FEF9FEF90934A028093490290939A
:101310004C0280934B020E9493046093D502709319
:10132000D6028093D7029093D8021092D2021092E4
:101330004F0210924E0210925002109251021092DF
:10134000D4021092D30280914D028170826081603C
:1013500080934D02E091F302F091F402D083E0918A
:10136000EF02F091F0021082E091F102F091F202AE
:1013700080E180831092FB02E091F702F091F80285
:10138000C083E091F502F091F60280818061808354
:10139000E091F502F091F602808188608083E0910F
:1013A000F502F091F602808180688083E091F50279
:1013B000F091F60280818F7D808380E293E09093AC
:1013C0001E0280931D0282EC92E090932002809393
:1013D0001F02CEE0D1E00CE111E08881229662E0AC
:1013E0000E941D040C171D07C1F702E311E0CCE1B8
:1013F000D1E08881229661E00E941D040C171D0730
:10140000C1F782E00E940D0760E080E00E94F306D1
:1014100064EF71E080E090E00E94590460E080E0B9
:101420000E94E80780E00E94050800E810E05524CB
:10143000539460EF462E72E0672E712CC1E0D0E02D
:10144000E3E08E2E912CF8E22F2EF1E03F2EC0909B
:101450003F0220E12C1508F4CEC1E0913D02F0914D
:101460003E0280819181DC01ED91FC910084F18547
:10147000E02D0995892B09F4BEC18091E2028E7F8F
:101480008093E202E0913D02F0913E0280819181E1
:10149000DC01ED91FC910284F385E02D0995F82E95
:1014A000BDEF8B1709F4A7C18091470290914802C4
:1014B000009709F066C0F0924202E09040028E2D43
:1014C0000E94C5050E94D305882351F0F7FC08C08F
:1014D000E0924202F0924302D0934802C093470246
:1014E000F09042028F2D0E94C505813FB9F1B0F402
:1014F000803BC9F140F48039B1F1803AA1F18038E4
:1015000009F054C030C0803D49F118F4803C31F1FD
:101510004DC0803E41F1803F59F148C0873F41F1C5
:1015200030F4833FD9F0F8F0863F29F03FC08D3F7B
:1015300010F08E3FD8F180934F0210924E0210921D
:101540005002109251025092D20210924802109210
:101550004702109246021092450230C17092460234
:10156000609245023AC0909246028092450235C090
:10157000109346020093450210924002809352025B
:101580002CC0F7FE8FC0ECEFEF1508F45BC0F8EF4E
:10159000FF1608F05AC020EFF2124FC020915202FD
:1015A000203F09F461C0273F09F45EC08091E20248
:1015B00081608093E202E0911502F091160230976B
:1015C00009F00995109248021092470210924602C3
:1015D00010924502109240020EC1209147023091B4
:1015E000480240914502509146024150510924174A
:1015F0003507E0F080934F028F2D8F70FF24F39416
:10160000F80EF0924E0280914302809350021092A5
:101610005102D093D402C093D30210924802109288
:10162000470210924602109245021BC02F5F3F4FA7
:101630003093480220934702DEC037EFF31609F4D7
:10164000ADCF30C04EEFF41668F1F0924F02109219
:1016500050021092510210924E02D093D402C093C5
:10166000D3025092D202AAC09C012F5F3F4FFC01CF
:10167000ED5EFD4FF7AE40924F0220935002309343
:10168000510210924E023093D4022093D302509212
:10169000D202109248021092470210924602109213
:1016A000450283C020914202FC01ED5EFD4F203FC8
:1016B00011F0273F11F4F7AE01C0F7A6E090450204
:1016C000F09046029701215031098217930708F4E0
:1016D0006FC0B090420250EFB51619F087EFB81204
:1016E0001FC0F090D1024092D10240924F02A0E878
:1016F000A09350021092510210924E021093D40205
:101700000093D3025092D2020E941B08B7EFB0930D
:101710005202F092530270924802609247026BC0EC
:101720008B2D0E94C505D82E80934F020E94D305B1
:10173000882331F08B2D8F708F5F80934E0202C013
:1017400010924E028091430280935002E3E0EE1625
:10175000F10419F48091440201C080E080935102A9
:1017600010924802109247021092460210924502CF
:101770005092D202F0EBDF16A9F0FD1550F020E9EF
:10178000D21681F030EAD31669F040E8D4120DC0C9
:1017900009C050EDD51631F080EED81619F0A0EC46
:1017A000DA1203C0B092400209C01092400206C093
:1017B000019690934802809347021DC080914F028A
:1017C000803929F480915102882309F4ADC58091B4
:1017D0004F028058813608F0ABC580914E02C81682
:1017E00009F4A6C5CC2009F4A3C590914D02392F68
:1017F000317090FDF7C482E00E9454029093A301DF
:101800008093A2012091A0013091A101821793073A
:1018100009F4C6C08130910509F0C2C0209192013F
:10182000309193012130310509F04BC010929301A2
:101830001092920161E089E00E947D020E940507FA
:1018400060E083E00E94F3068CE591E00E94F106DF
:1018500061E080E00E94F30687E691E00E94F106D5
:1018600090E0C92E91E0D92E22E9E22E21E0F22E5D
:101870003CE1A32E31E0B32ED6018D919D916D01F7
:10188000892B59F461E0F50182810E947D02D70124
:1018900013961C921E9212970AC060E0F501828195
:1018A0000E947D02D7011396DC93CE931297B2E08B
:1018B000AB0EB11CE2E0EE0EF11C2A143B04E1F683
:1018C0006FC0232B09F06CC0909393018093920119
:1018D00060E089E00E947D020E94FC05A0900C015E
:1018E000B0900D01F0E8AF16B10461F48091900161
:1018F00090919101009721F561E080E10E947D02C5
:1019000060E026C08CE1C82E81E0D82EE12CF12CBD
:10191000AE14BF0429F461E0D60116968C9103C081
:1019200060E0F60186810E947D02FFEFEF1AFF0A58
:1019300022E0C20ED11C34E0E316F10449F7D6CF01
:101940008130910551F461E080E10E947D0261E007
:1019500081E10E947D0260E00CC08230910571F44B
:1019600061E080E10E947D0261E081E10E947D02F0
:1019700061E082E10E947D0260E00FC0039781F484
:1019800061E080E10E947D0261E081E10E947D02D0
:1019900061E082E10E947D0261E083E10E947D02BC
:1019A0008091A2019091A3019093A1018093A00145
:1019B0006AE070E080E090E00E945904809192011A
:1019C00090919301892B09F041C089EE91E00E942A
:1019D000780589EE91E00E946F05882309F4A2C082
:1019E00080919401909195018130910569F46FE7A0
:1019F00083E30E94E80761E08AE00E947D02109282
:101A00009501109294010EC0892B61F460E083E38C
:101A10000E94E80760E08AE00E947D02D093950171
:101A2000C09394018091960190919701892B09F0C0
:101A300072C060E084E30E94E80760E08BE00E94EF
:101A40007D02D0939701C093960165C060E08AE063
:101A50000E947D0282EF91E00E94780582EF91E082
:101A60000E946F05882309F49EC080919001909197
:101A70009101019797FD05C090939101809390018A
:101A800004C090929101809290010E94FC0561E057
:101A90008AE00E947D0280919001909191010097CF
:101AA00031F461E080E10E947D0260E008C0813095
:101AB000910551F461E080E10E947D0261E081E1E5
:101AC0000E947D0260E00CC08230910571F461E0FB
:101AD00080E10E947D0261E081E10E947D0261E07F
:101AE00082E10E947D0260E00FC00397A1F461E0F3
:101AF00080E10E947D0261E081E10E947D0261E05F
:101B000082E10E947D0261E083E10E947D021093E8
:101B10000D0100930C018091920190919301892B0A
:101B200009F041C087ED91E00E94780587ED91E0D2
:101B30000E946F05882309F4A2C0809196019091BC
:101B400097018130910569F46FE784E30E94E8070B
:101B500061E08BE00E947D02109297011092960145
:101B60000EC0892B61F460E084E30E94E80760E026
:101B70008BE00E947D02D0939701C09396018091E3
:101B8000940190919501892B09F073C060E083E383
:101B90000E94E80760E08AE00E947D02D0939501F0
:101BA000C093940166C060E08BE00E947D0280EEED
:101BB00091E00E94780580EE91E00E946F058823F5
:101BC00009F48CC08091900190919101019684302C
:101BD00091052CF4909391018093900104C0109290
:101BE0009101109290010E94FC0561E08BE00E943F
:101BF0007D028091900190919101009731F461E014
:101C000080E10E947D0260E008C08130910551F4BE
:101C100061E080E10E947D0261E081E10E947D023D
:101C200060E00CC08230910571F461E080E10E94B7
:101C30007D0261E081E10E947D0261E082E10E941B
:101C40007D0260E00FC00397A1F461E080E10E9493
:101C50007D0261E081E10E947D0261E082E10E94FB
:101C60007D0261E083E10E947D0210930D010093EB
:101C70000C018091920190919301892B79F58EEC62
:101C800091E00E9478058EEC91E00E946F05882318
:101C900009F490C08091980190919901813091054B
:101CA00069F46FE785E30E94E80761E08CE00E9439
:101CB0007D02109299011092980176C0892B09F04B
:101CC00079C060E085E30E94E80760E08CE00E9454
:101CD0007D02D0939901C093980166C08EEC91E08B
:101CE0000E9478058EEC91E00E946F05882309F42C
:101CF00090C010920D0110920C016091900180E053
:101D00000E94E80780910C010E9405080E94FC05D2
:101D100061E08CE00E947D0260E08DE00E947D0227
:101D200060E08EE00E947D0260E08FE00E947D0214
:101D30008091900190919101009731F461E080E1F0
:101D40000E947D0260E008C08130910551F461E09D
:101D500080E10E947D0261E081E10E947D0260E0FD
:101D60000CC08230910571F461E080E10E947D0237
:101D700061E081E10E947D0261E082E10E947D02DA
:101D800060E00FC0039781F461E080E10E947D0272
:101D900061E081E10E947D0261E082E10E947D02BA
:101DA00061E083E10E947D02809192019091930114
:101DB000892B79F585EC91E00E94780585EC91E01E
:101DC0000E946F05882309F490C080919A01909138
:101DD0009B018130910569F46FE786E30E94E80773
:101DE00061E08DE00E947D0210929B0110929A01A9
:101DF00076C0892B09F079C060E086E30E94E8078D
:101E000060E08DE00E947D02D0939B01C0939A0117
:101E100066C085EC91E00E94780585EC91E00E9417
:101E20006F05882309F490C0D0930D01C0930C0175
:101E30006091900180E00E94E80780910C010E946F
:101E400005080E94FC0561E08DE00E947D0260E0D3
:101E50008CE00E947D0260E08EE00E947D0260E0E6
:101E60008FE00E947D0280919001909191010097F6
:101E700031F461E080E10E947D0260E008C08130C1
:101E8000910551F461E080E10E947D0261E081E111
:101E90000E947D0260E00CC08230910571F461E027
:101EA00080E10E947D0261E081E10E947D0261E0AB
:101EB00082E10E947D0260E00FC0039781F461E03F
:101EC00080E10E947D0261E081E10E947D0261E08B
:101ED00082E10E947D0261E083E10E947D028091A7
:101EE000920190919301892B79F58CEB91E00E94FE
:101EF00078058CEB91E00E946F05882309F490C06F
:101F000080919C0190919D018130910569F46FE76A
:101F100087E30E94E80761E08EE00E947D02109254
:101F20009D0110929C0176C0892B09F079C060E078
:101F300087E30E94E80760E08EE00E947D02D09374
:101F40009D01C0939C0166C08CEB91E00E947805D6
:101F50008CEB91E00E946F05882309F490C0709289
:101F60000D0160920C016091900180E00E94E807F1
:101F700080910C010E9405080E94FC0561E08EE042
:101F80000E947D0260E08CE00E947D0260E08DE0B6
:101F90000E947D0260E08FE00E947D0280919001AE
:101FA00090919101009731F461E080E10E947D02FF
:101FB00060E008C08130910551F461E080E10E9449
:101FC0007D0261E081E10E947D0260E00CC0823010
:101FD000910571F461E080E10E947D0261E081E1A0
:101FE0000E947D0261E082E10E947D0260E00FC0FC
:101FF000039781F461E080E10E947D0261E081E16C
:102000000E947D0261E082E10E947D0261E083E145
:102010000E947D028091920190919301892B79F524
:1020200083EB91E00E94780583EB91E00E946F05BD
:10203000882309F48AC080919E0190919F0181308C
:10204000910569F46FE788E30E94E80761E08FE09B
:102050000E947D0210929F0110929E0176C0892BF2
:1020600009F073C060E088E30E94E80760E08FE059
:102070000E947D02D0939F01C0939E0166C083EBB6
:1020800091E00E94780583EB91E00E946F05882320
:1020900009F45BC090920D0180920C016091900157
:1020A00080E00E94E80780910C010E9405080E94D0
:1020B000FC0561E08FE00E947D0260E08CE00E9400
:1020C0007D0260E08DE00E947D0260E08EE00E9473
:1020D0007D028091900190919101009731F461E02F
:1020E00080E10E947D0260E008C08130910551F4DA
:1020F00061E080E10E947D0261E081E10E947D0259
:1021000060E00CC08230910571F461E080E10E94D2
:102110007D0261E081E10E947D0261E082E10E9436
:102120007D0260E00FC0039781F461E080E10E94CE
:102130007D0261E081E10E947D0261E082E10E9416
:102140007D0261E083E10E947D0280910C0190910B
:102150000D018038910509F042C00E949304C0909F
:10216000A601D090A701E090A801F090A9019B01E1
:10217000AC012C193D094E095F0969017A0134EF60
:10218000C31631E0D306E104F10448F16093A601DF
:102190007093A7018093A8019093A9018091A40155
:1021A0009091A501892B29F4D093A501C093A40196
:1021B00004C01092A5011092A401F090A4016F2D0B
:1021C0008CE00E947D026F2D8DE00E947D026F2DBC
:1021D0008EE00E947D026F2D8FE00E947D020E94A2
:1021E0009E0135C9892F8E7F09F405CB80914F025E
:1021F00020E8280F2136E8F420914E02C21619F08B
:1022000031E0C11030E09695923031F0933041F0DA
:10221000913009F0F0CA06C0332309F4ECCA02C0B9
:102220003111E9CA40915102609150020E94AE07FB
:10223000E2CA482F50E0FA01E05FF109E031F10510
:1022400008F0D9CAEC5CFF4F0C94D212682F8DE3D2
:1022500092E00E94ED05CFCA53E1C52E52E0D52E83
:1022600080915002909151028138910510F080E8E0
:1022700090E0FC01ED5EFD4F7F01EC14FD0409F4DC
:10228000BACAD601DF966C9180913D0290913E02D0
:102290000E94E305BFEFCB1ADB0AEFCFF0905002AC
:1022A00063EF80913D0290913E020E94E3056F2D05
:1022B0001EC0E0905102E0E8EE9E70011124809172
:1022C0005002E82A62EF80913D0290913E020E9406
:1022D000E3056E2D6F7780913D0290913E020E9442
:1022E000E305B701660F672F661F770B71956F7750
:1022F00014C0809150028770F0E18F9FC0011124BB
:10230000209151022F70F22EF82A61EF80913D0248
:1023100090913E020E94E3056F2D80913D029091C5
:102320003E020E94E30567CA40E840934F024FCA4D
:102330000E941B085ACA1F93CF93DF93EC01162FFC
:102340003B832A831D821C820E94930479836883C5
:10235000812F0E9454028E831F83DF91CF911F91A2
:102360000895E3EEF2E01382128288EE93E0A0E09B
:10237000B0E084839583A683B78382E491E0918360
:10238000808385EC90E09587848784EC90E0978744
:10239000868780EC90E0918B808B81EC90E0938B32
:1023A000828B82EC90E0958B848B86EC90E0978B0F
:1023B000868B118E128E138E148EF0938103E09310
:1023C0008003E3E1F2E0118210821382128215820F
:1023D000148217821682118610861386128615863D
:1023E000148617861686118A108A138A128A158A0D
:1023F000148A178A168A118E108E138E128E158EDD
:10240000148E178E168E11A210A213A212A215A25C
:1024100014A217A216A211A610A680E893E093A713
:1024200082A714A615A616A613AA12AA15AA14AA5C
:102430008FEF9FEF97AB86AB91AF80AF83E0809338
:102440004D0213AE14AE15AE16AE1092D20280E855
:10245000E2E5F2E0DF011D928A95E9F71092D502DC
:102460001092D6021092D7021092D8021092D9027E
:102470001092DA021092DB021092DC021092DD025E
:102480001092DE021092DF021092E0021092E1023E
:102490001092E202EBEFF1E01382128284E591E008
:1024A000918380838FE184838FEF858381E28683AC
:1024B00083E2878385E2808787E2818789E282875A
:1024C0001386148615861686178681E00E940D07EE
:1024D00024E630E040E050E063E082EF91E00E94CB
:1024E0009B1126E430E040E050E063E089EE91E0AB
:1024F0000E949B1124E630E040E050E064E080EE72
:1025000091E00E949B112CE830E040E050E064E054
:1025100087ED91E00E949B112CE830E040E050E014
:1025200065E08EEC91E00E949B1126E430E040E0F3
:1025300050E066E085EC91E00E949B1126E430E0DB
:1025400040E050E067E08CEB91E00E949B112CE8AA
:1025500030E040E050E068E083EB91E00C949B11A8
:10256000A1E21A2EAA1BBB1BFD010DC0AA1FBB1F97
:10257000EE1FFF1FA217B307E407F50720F0A21B09
:10258000B30BE40BF50B661F771F881F991F1A9476
:1025900069F760957095809590959B01AC01BD01A0
:1025A000CF010895EE0FFF1F0590F491E02D0994DF
:0E25B00081E090E0F8940C94DD12F894FFCFD7
:1025BE000100010001000100010001008000020085
:1025CE0003000400050006000700080009000A00C9
:1025DE000B000C000D000E000F0010001100120079
:1025EE001300330034003500360037003800000089
:1025FE0000002F019C00C6007C01F700D500E90009
:10260E000000000069059C00F701F6014D494449A0
:10261E0020504544414C004D4F44453A20494E44CC
:10262E004956494455414C0042414E4B005052458B
:10263E00534554003F0041004200430044007C00DB
:00000001FF
