:100000000C9472000C949A000C949A000C949A0030
:100010000C949A000C949A000C949A000C949A00F8
:100020000C949A000C949A000C949A000C949A00E8
:100030000C949A000C949A000C949A000C949A00D8
:100040000C94AD040C949A000C9422020C94FC01C4
:100050000C949A000C949A000C949A000C949A00B8
:100060000C949A000C949A00B5110212E211D71167
:10007000AA0CAA0CAF11AA0CAF11AA0CAF11AF11A8
:10008000AF11AA0CAF11AF1100000000240027002F
:100090002A0000000000250028002B0000000000BE
:1000A00023002600290004040404040404040202BA
:1000B00002020202030303030303010204081020E7
:1000C00040800102040810200102040810200000F2
:1000D0000008000201000003040700000000000007
:1000E0000000361211241FBECFEFD8E0DEBFCDBF17
:1000F00011E0A0E0B1E0E8E7F6E202C005900D9261
:10010000A839B107D9F723E0A8E9B1E001C01D92F1
:10011000AA3DB207E1F710E0C2E7D0E004C02197A2
:10012000FE010E942F13C137D107C9F70E944B0966
:100130000C943A130C940000CF92DF92EF92FF924E
:100140000F931F93CF93DF936C017A018B01C0E073
:10015000D0E0CE15DF0581F0D8016D918D01D6017B
:10016000ED91FC910190F081E02DC6010995892B5C
:1001700011F02196EECF7E01C701DF91CF911F9143
:100180000F91FF90EF90DF90CF900895FC01538D79
:10019000448D252F30E0842F90E0821B930B541761
:1001A00010F0CF96089501970895FC01918D828DEE
:1001B000981761F0828DDF01A80FB11D5D968C91BB
:1001C000928D9F5F9F73928F90E008958FEF9FEFC6
:1001D0000895FC01918D828D981731F0828DE80F82
:1001E000F11D858D90E008958FEF9FEF0895FC013C
:1001F000918D228D892F90E0805C9F4F821B910909
:100200008F73992708958BE393E00E94F70021E014
:10021000892B09F420E0822F0895FC01848DDF01F1
:10022000A80FB11DA35ABF4F2C91848D90E0019669
:100230008F739927848FA689B7892C93A089B18958
:100240008C91837080648C93938D848D981306C0F9
:100250000288F389E02D80818F7D80830895EF925D
:10026000FF920F931F93CF93DF93EC0181E0888F70
:100270009B8D8C8D981305C0E889F989808185FD57
:1002800026C0F62E0B8D10E00F5F1F4F0F73112746
:10029000E02E8C8DE8120CC00FB607FCFACFE8896F
:1002A000F989808185FFF5CFCE010E940D01F1CF44
:1002B0008B8DFE01E80FF11DE35AFF4FF0829FB7CF
:1002C000F8940B8FEA89FB89808180620AC09FB70E
:1002D000F894EE89FF896083E889F98980818370C9
:1002E000806480839FBF81E090E0DF91CF911F9178
:1002F0000F91FF90EF900895CF93DF93EC01888DDD
:100300008823C9F0EA89FB89808185FD05C0A88919
:10031000B9898C9186FD0FC00FB607FCF5CF80819F
:1003200085FFF2CFA889B9898C9185FFEDCFCE01E9
:100330000E940D01E7CFDF91CF91089580E090E01A
:10034000892B29F00E94030181110C94000008956B
:10035000833081F028F4813099F08230A1F0089543
:100360008730A9F08830B9F08430D1F480918000D2
:100370008F7D03C0809180008F77809380000895E7
:1003800084B58F7702C084B58F7D84BD0895809138
:10039000B0008F7703C08091B0008F7D8093B00054
:1003A00008953FB7F8948091B7019091B801A0915A
:1003B000B901B091BA0126B5A89B05C02F3F19F02D
:1003C0000196A11DB11D3FBFBA2FA92F982F8827D5
:1003D000820F911DA11DB11DBC01CD0142E0660F30
:1003E000771F881F991F4A95D1F70895089580E0D7
:1003F00090E008950E9435131F920F920FB60F924E
:1004000011242F933F934F935F936F937F938F9319
:100410009F93AF93BF93EF93FF938BE393E00E947F
:100420000D01FF91EF91BF91AF919F918F917F91BE
:100430006F915F914F913F912F910F900FBE0F9051
:100440001F9018951F920F920FB60F9211242F93A1
:100450008F939F93EF93FF93E0914B03F0914C03A5
:100460008081E0915103F091520382FD12C090818E
:10047000809154038F5F8F7320915503821751F041
:10048000E0915403F0E0E55CFC4F958F80935403BA
:1004900001C08081FF91EF919F918F912F910F90DB
:1004A0000FBE0F901F901895CF93DF93282F30E049
:1004B000F901E253FF4F8491F901E654FF4FD491C3
:1004C000F901EA55FF4FC491CC2391F081110E94AC
:1004D000A801EC2FF0E0EE0FFF1FE456FF4FA591AF
:1004E000B491EC91ED2381E090E021F480E002C032
:1004F00080E090E0DF91CF910895FC0181890E9416
:10050000540221E0892B09F420E0822F08951F93E3
:10051000CF93DF93282F30E0F901E253FF4F84910E
:10052000F901E654FF4FD491F901EA55FF4FC49108
:10053000CC23C1F0162F81110E94A801EC2FF0E00E
:10054000EE0FFF1FEE56FF4FA591B4919FB7F894A1
:10055000111104C08C91D095D82302C0EC91DE2BF0
:10056000DC939FBFDF91CF911F910895CF93DF93CD
:10057000EC0160E08E810E94870261E08E810E9422
:10058000870260E08E810E9487028BE891E00197EC
:10059000F1F7DF91CF910895CF92DF92EF92FF9222
:1005A0000F931F93CF93C62F80919A0190919B0137
:1005B000019739F080919A0190919B01892B21F14B
:1005C00041C08CE1E82E81E0F82E00E010E0C62E5C
:1005D000D12CC016D10651F461E0F70186810E944A
:1005E0008702D0920D01C0920C0105C060E0F701B6
:1005F00086810E9487020F5F1F4FF2E0EF0EF11C11
:100600000430110531F7D6CF80910C0190910D0186
:100610006C2F70E06115710511F480E090E061309D
:10062000710511F481E090E06230710511F482E00F
:1006300090E06330710511F483E090E090930D0138
:1006400080930C01CF911F910F91FF90EF90DF905D
:10065000CF9008958F929F92AF92BF92CF92DF92E8
:10066000EF92FF920F931F93CF93DF93D62FC42F58
:1006700080919A0190919B01C62ED12C892B49F033
:10068000A2E3B1E0E0E0F1E08CE091E021E030E0D5
:1006900046C082E3A82E81E0B82E9CE1E92E91E0CD
:1006A000F92E0AE911E088248394912CF5018191B7
:1006B00091915F01C816D906F9F4CF3771F4F801AA
:1006C000828193810197C1F461E0F70182810E94E8
:1006D0008702F801138212820FC0C1110DC0F80108
:1006E00082819381892B41F460E0F70182810E942D
:1006F0008702F80193828282F2E0EF0EF11C0E5F16
:100700001F4F88E2E81681E0F80681F6B9CFCF37AF
:1007100061F41182108232968E179F0759F04D9125
:100720005D91C416D506B9F7F2CFC111F4CF31836C
:100730002083F1CF40919A0150919B0141155105C1
:1007400021F4D03209F06FC002C0D11168C080918D
:100750009801909199012C2F30E02115310511F469
:1007600080E090E02130310511F481E090E022300A
:10077000310511F482E090E02330310511F483E07B
:1007800090E090939901809398014130510519F0C0
:10079000DD2319F04FC0D032D9F7C11106C061E096
:1007A00080E10E94870260E007C0C13071F461E01F
:1007B00080E10E94870261E081E10E94870260E09F
:1007C00082E10E94870260E01BC0C23051F461E008
:1007D00080E10E94870261E081E10E94870261E07E
:1007E000EFCFC33039F561E080E10E94870261E01C
:1007F00081E10E94870261E082E10E94870261E05C
:1008000083E1DF91CF911F910F91FF90EF90DF90E7
:10081000CF90BF90AF909F908F900C948702413003
:10082000510541F404C0DD2309F491CF03C0D03257
:1008300009F4B3CFDF91CF911F910F91FF90EF900B
:10084000DF90CF90BF90AF909F908F900895CF93FF
:10085000DF9390E0FC01E654FF4F2491FC01EA5540
:10086000FF4F8491882361F190E0880F991FFC016C
:10087000E857FF4FC591D491FC01EE56FF4FA5916B
:10088000B491611109C09FB7F894888120958223A3
:100890008883EC912E230BC0623061F49FB7F894EB
:1008A0008881322F309583238883EC912E2B2C93D3
:1008B0009FBF06C08FB7F894E8812E2B28838FBF87
:1008C000DF91CF910895862F642F0C9427048F9287
:1008D0009F92AF92BF92CF92DF92EF92FF926B0105
:1008E0007C010E94D1014B015C01C114D104E104DF
:1008F000F104F1F00E94D101DC01CB0188199909C2
:10090000AA09BB09883E9340A105B10570F321E017
:10091000C21AD108E108F10888EE880E83E0981E1B
:10092000A11CB11CC114D104E104F10419F7DDCFFD
:10093000FF90EF90DF90CF90BF90AF909F908F90FF
:1009400008952FB7F8946091B3017091B40180912C
:10095000B5019091B6012FBF08951F920F920FB667
:100960000F9211242F933F938F939F93AF93BF9335
:100970008091B3019091B401A091B501B091B601FD
:100980003091B20123E0230F2D3720F40196A11DF1
:10099000B11D05C026E8230F0296A11DB11D2093AD
:1009A000B2018093B3019093B401A093B501B093C9
:1009B000B6018091B7019091B801A091B901B091B1
:1009C000BA010196A11DB11D8093B7019093B801A2
:1009D000A093B901B093BA01BF91AF919F918F914C
:1009E0003F912F910F900FBE0F901F901895CF92AF
:1009F000DF92EF92FF920F931F93CF93DF936C01DF
:100A00007C0187E0E80EF11CC0E0D0E0062F10E08A
:100A1000B8010C2E02C0759567950A94E2F76170D3
:100A2000F70181917F010E9487022196C430D10590
:100A300079F7C601DF91CF911F910F91FF90EF9051
:100A4000DF90CF900C94B602CF92DF92EF92FF929C
:100A50000F931F93CF93DF93EC01F62E642F8C81BD
:100A60000E9487028D818F3F19F060E00E9487020B
:100A70008F850F2D10E084FF25C06E0187E0C80E22
:100A8000D11CE12CF12CB8010E2C02C07595679594
:100A90000A94E2F76170F60181916F010E9487026A
:100AA000FFEFEF1AFF0A88E0E816F10461F7CE01C4
:100AB000DF91CF911F910F91FF90EF90DF90CF903A
:100AC0000C94B602B80184E0759567958A95E1F7B4
:100AD000CE010E94F7046F2DCE01DF91CF911F91BF
:100AE0000F91FF90EF90DF90CF900C94F70441E0CE
:100AF0000E94240581E090E0089587FF0AC09CE0F1
:100B0000980F923030F08D3F21F0803F18F4807FB5
:100B1000089580E00895982F8F7C803849F0903DAB
:100B200039F081E0903E31F0903C21F080E0089572
:100B300081E008950895DC018D919C91DC01ED9197
:100B4000FC910190F081E02D09946D3F28F46A3FFB
:100B500028F4683F41F402C06E3F28F0FC01808118
:100B600091810C949B0508958F929F92AF92BF92B2
:100B7000CF92DF92EF92FF92CF93DF93CDB7DEB7A4
:100B8000A1970FB6F894DEBF0FBECDBF0E94C70677
:100B900060E081E00E94B50680E891E00E94B30623
:100BA00061E083E00E94B506C0909801D090990161
:100BB0000D2C000CEE08FF08F7FE26C041E06DE2A8
:100BC00083E592E00E94240522273327A9012C19EE
:100BD0003D094E095F0919A2CE0181967C019AE078
:100BE000892E912CA12CB12CCA01B901A501940127
:100BF0000E940D13605DF70162937F01211531059D
:100C00004105510589F71AC0A701960119A2CE0125
:100C100081967C018AE0882E912CA12CB12CCA01EE
:100C2000B901A50194010E940D13605DF701629363
:100C30007F01211531054105510589F7C7010E9442
:100C4000A10660E089E00E94B50685E891E00E9477
:100C5000B30661E08BE00E94B50680910C01909193
:100C60000D018038910521F48CE891E00E94B306D3
:100C700080910C0190910D01892B21F48EE891E077
:100C80000E94B30680910C0190910D01019721F40F
:100C900080E991E00E94B30680910C0190910D01D2
:100CA000029721F482E991E00E94B30680910C0141
:100CB00090910D01039721F484E991E00E94B3061D
:100CC00060E086E00E94B50686E991E00E94B306E6
:100CD00061E086E00E94B50686E991E00E94B306D5
:100CE00060E087E00E94B50686E991E00E94B306C5
:100CF00061E087E00E94B50686E991E00E94B306B4
:100D0000A1960FB6F894DEBF0FBECDBFDF91CF9195
:100D1000FF90EF90DF90CF90BF90AF909F908F901B
:100D2000089540E0682F83E592E00C942405FC01CF
:100D3000908592FF04C0917081E02289291380E0A0
:100D40000895009769F0FC0101900020E9F73197C0
:100D5000AF01481B590BBC0183E592E00C949C0049
:100D600080E090E008950C94A106643008F063E000
:100D700090916602691710F06FEF690FE62FF0E0AF
:100D8000ED5AFD4F9489890F80680C94910681E09B
:100D90000E9491068BE39FE10197F1F70895CF92AE
:100DA000DF92EF92FF920F931F93CF93DF93EC01AB
:100DB00088858B7F8887CE010E947D02182F8885C9
:100DC00086958170181759F00E94A1046A837B836D
:100DD0008C839D83988582E0892788873AC00E940A
:100DE000A104CA80DB80EC80FD80AB01BC014C1902
:100DF0005D096E097F098E819F81A0E0B0E04817F0
:100E000059076A077B0728F188858170181709F14F
:100E10000E94A1046A837B838C839D83988581E0F3
:100E20008927846088870E94A10409851A852B85FB
:100E30003C85DC01CB01801B910BA20BB30B8D8792
:100E40009E87AF87B88B0E94A10469877A878B87BA
:100E50009C87888582FB882780F9DF91CF911F913D
:100E60000F91FF90EF90DF90CF900895FC01808567
:100E700080FD04C082FB882780F9089580E00895F2
:100E8000CF93DF93823028F0909162029860909324
:100E90006202809366021092670280E48093680287
:100EA00080E18093690280E580936A0261E080912D
:100EB00057020E942704809158028F3F19F061E089
:100EC0000E94270461E0809159020E942704C3E533
:100ED000D2E09E01235532408091620284FD03C01E
:100EE00084E090E002C088E090E02196281739075E
:100EF0002CF461E08E810E942704EBCF8BE39DE010
:100F00000197F1F760E0809157020E94870260E04C
:100F1000809159020E948702809158028F3F19F0F8
:100F200060E00E9487028091620284FD20C063E03D
:100F300083E592E00E94F704CBE4D6E4CE0101976A
:100F4000F1F763E083E592E00E94F7042197F1F75F
:100F500063E083E592E00E94F70483E592E0019765
:100F6000F1F762E083E592E00E94F70415C0806229
:100F70000E9491068BE496E40197F1F7809162025A
:100F800080620E94910683E592E00197F1F78091DB
:100F9000620280620E9491068091620280620E94D9
:100FA000910684E0809363028CE00E9491060E9487
:100FB000C70682E08093640286E0DF91CF910C94B3
:100FC00091061F93CF93DF93813E38F52150203156
:100FD00070F587FF2CC0D42F162FC82F622F682BD7
:100FE00080919502909196020E949B05612F6F77E8
:100FF00080919502909196020E949B058C2F8F7E86
:10100000803CA9F06D2F6F778091950290919602A8
:10101000DF91CF911F910C949B05883F40F0682F82
:1010200085E992E0DF91CF911F910C94A505DF91A6
:10103000CF911F9108950F931F93CF93DF93082FA4
:10104000162FCBE6D2E060EB8AA59BA50E949B05FC
:10105000602F6F778AA59BA50E949B05612F6F77F4
:101060008AA59BA5DF91CF911F910F910C949B05B1
:101070000F931F93CF93C82F0BE612E060ECF8019B
:1010800082A593A50E949B056C2F6F77F80182A51E
:1010900093A5CF911F910F910C949B05CF93DF9354
:1010A000EC0118860E947D02882319F088858360F0
:1010B00088870E94A1046A837B838C839D83DF9150
:1010C000CF910895E0916B02F0916C02309719F086
:1010D00086EA92E009958091A702823F09F4B3C0A5
:1010E00000F5803C09F48CC068F48039C1F118F433
:1010F000803881F10895803A09F46FC0803B09F48B
:1011000051C00895803E09F452C020F4803D09F496
:1011100072C00895803F09F47FC0813F09F48EC0FA
:1011200008958A3F31F168F4863F09F4A7C020F49E
:10113000833F09F49AC00895883FB1F0893FF1F0E8
:1011400008958C3F29F1F8F08E3F39F18F3F09F473
:101150009AC00895E0916F02F091700242C0E09150
:101160007102F09172023DC0E0918702F091880215
:101170008EC0E0918902F0918A0289C0E0918B02D1
:10118000F0918C0284C0E0918D02F0918E027FC0BC
:10119000E0918F02F09190027AC0E0919102F0917B
:1011A000920275C0E0917502F09176021AC0E0914A
:1011B0007B02F0917C02309709F46CC06091A90227
:1011C0006F7720E8629FB00111248091A8028F7789
:1011D000682B70528091A6020994E0917302F091FD
:1011E0007402309709F456C04091A9026091A80298
:1011F0008091A6020994E0917902F0917A0204C0EC
:10120000E0917702F0917802309709F443C0609141
:10121000A8028091A6020994E0917D02F0917E02DD
:101220003097C1F16091A8027091A90261387105EF
:1012300010F060E870E08AEA92E00994E0917F02A1
:10124000F091800216C0E0918102F0918202309705
:1012500009F18091A9028F7720E8829FC0011124B3
:101260002091A8022F77822B0994E0918302F091BC
:101270008402309779F08091A8020994E091850268
:10128000F091860204C0E0919302F09194023097AD
:1012900009F009940895789484B5826084BD84B57A
:1012A000816084BD85B5826085BD85B5816085BD61
:1012B00080916E00816080936E0010928100809119
:1012C00081008260809381008091810081608093A1
:1012D0008100809180008160809380008091B100C6
:1012E00084608093B1008091B00081608093B000F1
:1012F00080917A00846080937A0080917A00826085
:1013000080937A0080917A00816080937A00809146
:101310007A00806880937A001092C100E091950273
:10132000F09196020190F081E02DA089B189D2E080
:10133000DC93A485B5851C92A685B7858FE38C9335
:10134000108EA489B589C6E0CC93A289B3898C910B
:1013500080618C93A289B3898C9188608C93A289D7
:10136000B3898C9180688C930288F389E02D808109
:101370008F7D8083109297021092990210929802AA
:101380001092A00210929F0210929E0210929D0253
:101390008FEF9FEF9093A2028093A1029093A402FB
:1013A0008093A3020E94A10460932D0370932E03E7
:1013B00080932F039093300310922A031092A70278
:1013C0001092A6021092A8021092A90210922C0369
:1013D00010922B038091A5028170826081608093BE
:1013E000A502E0914B03F0914C03D083E0914703B9
:1013F000F09148031082E0914903F0914A0380E1A3
:10140000808310925303E0914F03F0915003C08307
:10141000E0914D03F0914E03808180618083E091E3
:101420004D03F0914E03808188608083E0914D03ED
:10143000F0914E03808180688083E0914D03F091AC
:101440004E0380818F7D80838AE293E090937602C1
:10145000809375028CEC92E09093780280937702EF
:10146000CEE0D1E00CE111E08881229662E00E949A
:1014700027040C171D07C1F702E311E0CCE1D1E00E
:101480008881229661E00E9427040C171D07C1F78E
:10149000C3E0C093510280E492E00E944E08C093E2
:1014A0003E028DE292E00E944E08C4E0C0932B02FF
:1014B0008AE192E00E944E08C093180287E092E011
:1014C0000E944E0885E08093050284EF91E00E941F
:1014D0004E0886E08093F20181EE91E00E944E0872
:1014E00087E08093DF018EEC91E00E944E0888E057
:1014F0008093CC018BEB91E00E944E0886E490E053
:101500009093470280934602909334028093330273
:10151000909321028093200290930E0280930D02FB
:101520009093FB018093FA019093E8018093E70187
:101530009093D5018093D4019093C2018093C1010F
:101540001092520210923F0210922C021092190235
:10155000109206021092F3011092E0011092CD0158
:1015600082E00E94400760E080E00E94B50664EFE0
:1015700071E080E090E00E94670460E080E00E94FB
:101580001B0880E00E94380800E810E055245394BE
:1015900060EF462E72E0672E712CC1E0D0E0E3E0F0
:1015A0008E2E912CF8E22F2EF1E03F2EC090970264
:1015B00020E12C1508F4CEC1E0919502F09196023D
:1015C00080819181DC01ED91FC910084F185E02D19
:1015D0000995892B09F4BEC180913A038E7F8093CF
:1015E0003A03E0919502F091960280819181DC01AD
:1015F000ED91FC910284F385E02D0995F82EBDEF65
:101600008B1709F4A7C180919F029091A0020097C7
:1016100009F066C0F0929A02E09098028E2D0E9426
:101620007D050E948B05882351F0F7FC08C0E092ED
:101630009A02F0929B02D093A002C0939F02F09076
:101640009A028F2D0E947D05813FB9F1B0F4803B55
:10165000C9F140F48039B1F1803AA1F1803809F044
:1016600054C030C0803D49F118F4803C31F14DC088
:10167000803E41F1803F59F148C0873F41F130F44D
:10168000833FD9F0F8F0863F29F03FC08D3F10F03E
:101690008E3FD8F18093A7021092A6021092A80262
:1016A0001092A90250922A031092A00210929F0257
:1016B00010929E0210929D0230C170929E02609222
:1016C0009D023AC090929E0280929D0235C0109376
:1016D0009E0200939D02109298028093AA022CC051
:1016E000F7FE8FC0ECEFEF1508F45BC0F8EFFF16C4
:1016F00008F05AC020EFF2124FC02091AA02203FFA
:1017000009F461C0273F09F45EC080913A0381600B
:1017100080933A03E0916D02F0916E02309709F0E8
:1017200009951092A00210929F0210929E021092B0
:101730009D02109298020EC120919F023091A0024A
:1017400040919D0250919E02415051092417350746
:10175000E0F08093A7028F2D8F70FF24F394F80E92
:10176000F092A60280919B028093A8021092A90297
:10177000D0932C03C0932B031092A00210929F02CF
:1017800010929E0210929D021BC02F5F3F4F30931C
:10179000A00220939F02DEC037EFF31609F4ADCF0D
:1017A00030C04EEFF41668F1F092A7021092A80232
:1017B0001092A9021092A602D0932C03C0932B037F
:1017C00050922A03AAC09C012F5F3F4FFC01E559AC
:1017D000FD4FF7AE4092A7022093A8023093A902D2
:1017E0001092A60230932C0320932B0350922A03CD
:1017F0001092A00210929F0210929E0210929D02DF
:1018000083C020919A02FC01E559FD4F203F11F061
:10181000273F11F4F7AE01C0F7A6E0909D02F090CB
:101820009E029701215031098217930708F46FC077
:10183000B0909A0250EFB51619F087EFB8121FC09A
:10184000F0902903409229034092A702A0E8A093B8
:10185000A8021092A9021092A60210932C030093E2
:101860002B0350922A030E946208B7EFB093AA029A
:10187000F092AB027092A00260929F026BC08B2D1F
:101880000E947D05D82E8093A7020E948B05882395
:1018900031F08B2D8F708F5F8093A60202C0109263
:1018A000A60280919B028093A802E3E0EE16F10469
:1018B00019F480919C0201C080E08093A9021092EB
:1018C000A00210929F0210929E0210929D025092CE
:1018D0002A03F0EBDF16A9F0FD1550F020E9D2162F
:1018E00081F030EAD31669F040E8D4120DC009C087
:1018F00050EDD51631F080EED81619F0A0ECDA12C2
:1019000003C0B092980209C01092980206C00196D6
:101910009093A00280939F021DC08091A7028039FE
:1019200029F48091A902882309F487C58091A70230
:101930008058813608F085C58091A602C81609F442
:1019400080C5CC2009F47DC59091A502392F317056
:1019500090FDD1C482E00E9454029093AB01809329
:10196000AA012091A8013091A9018217930709F4D7
:10197000C6C08130910509F0C2C020919A01309112
:101980009B012130310509F04BC010929B01109250
:101990009A0161E089E00E9487020E94C70660E028
:1019A00083E00E94B50684E691E00E94B30661E000
:1019B00080E00E94B5068FE691E00E94B30690E0B9
:1019C000C92E91E0D92E2AE9E22E21E0F22E3CE147
:1019D000A32E31E0B32ED6018D919D916D01892BFF
:1019E00059F461E0F50182810E948702D7011396C4
:1019F0001C921E9212970AC060E0F50182810E943B
:101A00008702D7011396DC93CE931297B2E0AB0E08
:101A1000B11CE2E0EE0EF11C2A143B04E1F66FC0AB
:101A2000232B09F06CC090939B0180939A0160E096
:101A300089E00E9487020E94B405A0900C01B0903A
:101A40000D01F0E8AF16B10461F480919801909116
:101A50009901009721F561E080E10E94870260E032
:101A600026C08CE1C82E81E0D82EE12CF12CEA149E
:101A7000FB0429F461E0D60116968C9103C060E066
:101A8000F60186810E948702FFEFEF1AFF0A22E02B
:101A9000C20ED11C34E0E316F10449F7D6CF8130F1
:101AA000910551F461E080E10E94870261E081E1EB
:101AB0000E94870260E00CC08230910571F461E001
:101AC00080E10E94870261E081E10E94870261E07B
:101AD00082E10E94870260E00FC0039781F461E019
:101AE00080E10E94870261E081E10E94870261E05B
:101AF00082E10E94870261E083E10E948702809177
:101B0000AA019091AB019093A9018093A8016AE08A
:101B100070E080E090E00E94670480919A019091CB
:101B20009B01892B79F580E492E00E94CF0680E446
:101B300092E00E949706882309F48FC080919C014F
:101B400090919D018130910569F46FE783E30E94D4
:101B50001B0861E08AE00E94870210929D011092AA
:101B60009C0175C0892B09F078C060E083E30E9476
:101B70001B0860E08AE00E948702D0939D01C09319
:101B80009C0165C060E08AE00E9487028DE292E0DD
:101B90000E94CF068DE292E00E949706882309F406
:101BA0008BC08091980190919901019797FD05C094
:101BB000909399018093980104C09092990180922A
:101BC00098010E94B40561E08AE00E94870280913A
:101BD000980190919901009731F461E080E10E94B1
:101BE000870260E008C08130910551F461E080E136
:101BF0000E94870261E081E10E94870260E00CC0E0
:101C00008230910571F461E080E10E94870261E019
:101C100081E10E94870261E082E10E94870260E028
:101C20000FC00397A1F461E080E10E94870261E0A8
:101C300081E10E94870261E082E10E94870261E007
:101C400083E10E94870210930D0100930C018091A3
:101C50009A0190919B01892B79F58AE192E00E948B
:101C6000CF068AE192E00E943607882309F490C0EB
:101C700080919E0190919F018130910569F46FE7F9
:101C800084E30E941B0861E08BE00E9487021092AF
:101C90009F0110929E0176C0892B09F079C060E007
:101CA00084E30E941B0860E08BE00E948702D093CF
:101CB0009F01C0939E0166C060E08BE00E94870296
:101CC00087E092E00E94CF0687E092E00E9436070C
:101CD000882309F48CC08091980190919901019614
:101CE000843091052CF4909399018093980104C05D
:101CF00010929901109298010E94B40561E08BE066
:101D00000E9487028091980190919901009731F487
:101D100061E080E10E94870260E008C081309105A7
:101D200051F461E080E10E94870261E081E10E945C
:101D3000870260E00CC08230910571F461E080E1BF
:101D40000E94870261E081E10E94870261E082E1F6
:101D50000E94870260E00FC00397A1F461E080E178
:101D60000E94870261E081E10E94870261E082E1D6
:101D70000E94870261E083E10E94870210930D01B7
:101D800000930C0180919A0190919B01892B79F528
:101D900084EF91E00E94CF0684EF91E00E94360725
:101DA000882309F490C08091A0019091A101813015
:101DB000910569F46FE785E30E941B0861E08CE000
:101DC0000E9487021092A1011092A00176C0892B77
:101DD00009F079C060E085E30E941B0860E08CE0B8
:101DE0000E948702D093A101C093A00166C084EF36
:101DF00091E00E94CF0684EF91E00E94360788238D
:101E000009F490C010920D0110920C01609198019C
:101E100080E00E941B0880910C010E9438080E94FB
:101E2000B40561E08CE00E94870260E08DE00E94D2
:101E3000870260E08EE00E94870260E08FE00E94EF
:101E400087028091980190919901009731F461E0A7
:101E500080E10E94870260E008C08130910551F462
:101E600061E080E10E94870261E081E10E948702D7
:101E700060E00CC08230910571F461E080E10E9465
:101E8000870261E081E10E94870261E082E10E94B5
:101E9000870260E00FC0039781F461E080E10E9457
:101EA000870261E081E10E94870261E082E10E9495
:101EB000870261E083E10E94870280919A019091FC
:101EC0009B01892B79F581EE91E00E94CF0681EE8E
:101ED00091E00E943607882309F490C08091A20106
:101EE0009091A3018130910569F46FE786E30E9428
:101EF0001B0861E08DE00E9487021092A3011092FE
:101F0000A20176C0892B09F079C060E086E30E94C7
:101F10001B0860E08DE00E948702D093A301C0936C
:101F2000A20166C081EE91E00E94CF0681EE91E0B1
:101F30000E943607882309F490C0D0930D01C09306
:101F40000C016091980180E00E941B0880910C01B7
:101F50000E9438080E94B40561E08DE00E9487026B
:101F600060E08CE00E94870260E08EE00E948702C1
:101F700060E08FE00E948702809198019091990122
:101F8000009731F461E080E10E94870260E008C0C0
:101F90008130910551F461E080E10E94870261E0A7
:101FA00081E10E94870260E00CC08230910571F4EB
:101FB00061E080E10E94870261E081E10E94870286
:101FC00061E082E10E94870260E00FC0039781F424
:101FD00061E080E10E94870261E081E10E94870266
:101FE00061E082E10E94870261E083E10E94870252
:101FF00080919A0190919B01892B79F58EEC91E06B
:102000000E94CF068EEC91E00E943607882309F4E7
:1020100090C08091A4019091A5018130910569F44F
:102020006FE787E30E941B0861E08EE00E94870251
:102030001092A5011092A40176C0892B09F079C0F5
:1020400060E087E30E941B0860E08EE00E94870248
:10205000D093A501C093A40166C08EEC91E00E94CC
:10206000CF068EEC91E00E943607882309F490C0D9
:1020700070920D0160920C016091980180E00E94C5
:102080001B0880910C010E9438080E94B40561E091
:102090008EE00E94870260E08CE00E94870260E090
:1020A0008DE00E94870260E08FE00E9487028091AD
:1020B000980190919901009731F461E080E10E94CC
:1020C000870260E008C08130910551F461E080E151
:1020D0000E94870261E081E10E94870260E00CC0FB
:1020E0008230910571F461E080E10E94870261E035
:1020F00081E10E94870261E082E10E94870260E044
:102100000FC0039781F461E080E10E94870261E0E3
:1021100081E10E94870261E082E10E94870261E022
:1021200083E10E94870280919A0190919B01892B03
:1021300079F58BEB91E00E94CF068BEB91E00E944A
:102140003607882309F48AC08091A6019091A701DF
:102150008130910569F46FE788E30E941B0861E014
:102160008FE00E9487021092A7011092A60176C00C
:10217000892B09F073C060E088E30E941B0860E0CF
:102180008FE00E948702D093A701C093A60166C08A
:102190008BEB91E00E94CF068BEB91E00E9436071B
:1021A000882309F45BC090920D0180920C0160912C
:1021B000980180E00E941B0880910C010E94380861
:1021C0000E94B40561E08FE00E94870260E08CE02D
:1021D0000E94870260E08DE00E94870260E08EE04E
:1021E0000E9487028091980190919901009731F4A3
:1021F00061E080E10E94870260E008C081309105C3
:1022000051F461E080E10E94870261E081E10E9477
:10221000870260E00CC08230910571F461E080E1DA
:102220000E94870261E081E10E94870261E082E111
:102230000E94870260E00FC0039781F461E080E1B3
:102240000E94870261E081E10E94870261E082E1F1
:102250000E94870261E083E10E94870280910C0165
:1022600090910D018038910509F042C00E94A104AF
:10227000C090AE01D090AF01E090B001F090B101FC
:102280009B01AC012C193D094E095F0969017A01D6
:1022900034EFC31631E0D306E104F10448F1609352
:1022A000AE017093AF018093B0019093B101809122
:1022B000AC019091AD01892B29F4D093AD01C0936D
:1022C000AC0104C01092AD011092AC01F090AC01D1
:1022D0006F2D8CE00E9487026F2D8DE00E94870297
:1022E0006F2D8EE00E9487026F2D8FE00E94870283
:1022F0000E949E015BC9892F8E7F09F42BCB8091B0
:10230000A70220E8280F2136E8F42091A602C21681
:1023100019F031E0C11030E09695923031F09330F1
:1023200041F0913009F016CB06C0332309F412CBEB
:1023300002C031110FCB4091A9026091A8020E9406
:10234000E10708CB482F50E0FA01E05FF109E031E6
:10235000F10508F0FFCAEC5CFF4F0C942F13682FB7
:1023600085E992E00E94A505F5CA5BE6C52E52E01C
:10237000D52E8091A8029091A9028138910510F084
:1023800080E890E0FC01E559FD4F7F01EC14FD046D
:1023900009F4E0CAD601DF966C9180919502909184
:1023A00096020E949B05BFEFCB1ADB0AEFCFF0909D
:1023B000A80263EF80919502909196020E949B057E
:1023C0006F2D1EC0E090A902E0E8EE9E700111247E
:1023D0008091A802E82A62EF80919502909196027E
:1023E0000E949B056E2D6F778091950290919602C9
:1023F0000E949B05B701660F672F661F770B7195CB
:102400006F7714C08091A8028770F0E18F9FC001A0
:1024100011242091A9022F70F22EF82A61EF8091E9
:102420009502909196020E949B056F2D80919502D6
:10243000909196020E949B058DCA40E84093A702A6
:1024400075CA0E94620880CAFC011282138214823B
:1024500015828AE090E0978386831086118A82E451
:1024600091E09183808381E0828B0895EBE3F3E038
:102470001382128288EE93E0A0E0B0E0848395831B
:10248000A683B7838AE491E09183808385EC90E012
:102490009587848784EC90E09787868780EC90E02E
:1024A000918B808B81EC90E0938B828B82EC90E01F
:1024B000958B848B86EC90E0978B868B118E128E99
:1024C000138E148EF093D903E093D803EBE6F2E079
:1024D0001182108213821282158214821782168250
:1024E0001186108613861286158614861786168620
:1024F000118A108A138A128A158A148A178A168AF0
:10250000118E108E138E128E158E148E178E168EBF
:1025100011A210A213A212A215A214A217A216A20F
:1025200011A610A688ED93E093A782A714A615A67E
:1025300016A613AA12AA15AA14AA8FEF9FEF97AB9B
:1025400086AB91AF80AF83E08093A50213AE14AE4B
:1025500015AE16AE10922A0380E8EAEAF2E0DF0137
:102560001D928A95E9F710922D0310922E03109276
:102570002F03109230031092310310923203109205
:1025800033031092340310923503109236031092E5
:102590003703109238031092390310923A03E3E59F
:1025A000F2E0138212828CE591E0918380838FE1C7
:1025B00084838FEF858381E2868383E2878385E24C
:1025C000808787E2818789E2828713861486158651
:1025D0001686178681E00E94400780E492E00E9400
:1025E00024128DE292E00E9424128AE192E00E947D
:1025F000241287E092E00E94241284EF91E00E946E
:10260000241281EE91E00E9424128EEC91E00E944F
:1026100024128BEB91E00C942412A1E21A2EAA1B37
:10262000BB1BFD010DC0AA1FBB1FEE1FFF1FA21782
:10263000B307E407F50720F0A21BB30BE40BF50B7F
:10264000661F771F881F991F1A9469F76095709508
:10265000809590959B01AC01BD01CF010895EE0FCF
:10266000FF1F0590F491E02D099481E090E0F8942B
:082670000C943A13F894FFCF1B
:1026780001000100010001000100010080000200CA
:1026880003000400050006000700080009000A000E
:102698000B000C000D000E000F00100011001200BE
:1026A80013003300340035003600370038000000CE
:1026B80000007D026304000000002F019C00C6009A
:1026C8007C01F700D500E9000000000077059C00B8
:1026D800F701F6014D49444920504544414C004D0D
:1026E8004F44453A20494E444956494455414C00C7
:1026F80042414E4B00505245534554003F00410063
:082708004200430044007C0084
:00000001FF
