:100000000C9462000C948A000C948A000C948A0070
:100010000C948A000C948A000C948A000C948A0038
:100020000C948A000C948A000C948A000C948A0028
:100030000C948A000C948A000C948A000C948A0018
:100040000C94ED090C948A000C94BB090C9495094E
:100050000C948A000C948A000C948A000C948A00F8
:100060000C948A000C948A000000000024002700F1
:100070002A0000000000250028002B0000000000DE
:1000800023002600290004040404040404040202DA
:100090000202020203030303030301020408102007
:1000A0004080010204081020010204081020000012
:1000B0000008000201000003040700000000000027
:1000C0000000470A11241FBECFEFD8E0DEBFCDBF2E
:1000D00011E0A0E0B1E0E2E7F4E202C005900D9289
:1000E000AC35B107D9F723E0ACE5B1E001C01D9212
:1000F000AC36B207E1F710E0C2E6D0E004C02197C9
:10010000FE010E942C12C136D107C9F70E94290BAB
:100110000C9437120C940000E091FD01F091FE0167
:10012000309719F088E392E0099580913902823F77
:1001300009F4BAC090F5803C09F499C0B8F480394C
:1001400009F44FC040F4E0910102F09102028038BE
:1001500009F44BC00895803A09F484C0E091070285
:10016000F0910802803B09F440C00895803E09F4F4
:1001700062C040F4E0910B02F0910C02803D09F462
:100180007AC00895803F09F47DC0E0911102F0919A
:100190001202813F09F49BC008958A3FC1F1A8F47F
:1001A000863F09F499C040F4E0911502F0911602DF
:1001B000833F09F48CC00895883F09F1E0911D0246
:1001C000F0911E02893FF9F008958C3F51F120F122
:1001D0008E3F61F1E0912502F09126028F3F99F068
:1001E0000895E0910302F0910402309709F479C078
:1001F00040913B0260913A02809138020994E0916B
:100200001902F0911A02309709F46BC00994E09139
:100210001B02F0911C02F7CFE0911F02F091200227
:10022000F2CFE0912102F0912202EDCFE091230282
:10023000F0912402E8CFE0910D02F0910E02309788
:1002400009F44FC060913B0220E8629FB001112485
:1002500060787F7380913A028F77682B705280911B
:1002600038020994E0910502F0910602BECFE091B8
:100270000902F0910A023097A1F160913A0280914F
:1002800038020994E0910F02F0911002309749F181
:1002900060913A0270913B026138710510F060E89C
:1002A00070E08CE392E00994E0911302F091140263
:1002B0003097B9F080913B0220E8829FC001112461
:1002C00080789F7320913A022F77822B0994309780
:1002D00041F080913A020994E0911702F0911802DE
:1002E00092CF0895AF92BF92CF92DF92EF92FF929A
:1002F0000F931F93CF93DF936C017B018B01040F4E
:10030000151FEB015E01AE18BF08C017D10759F0E9
:100310006991D601ED91FC910190F081E02DC6012B
:100320000995892B79F7C501DF91CF911F910F9125
:10033000FF90EF90DF90CF90BF90AF900895FC01B9
:10034000538D448D252F30E0842F90E0821B930B3A
:10035000541710F0CF96089501970895FC01918DE0
:10036000828D981761F0A28DAE0FBF2FB11D5D96E3
:100370008C91928D9F5F9F73928F90E008958FEF85
:100380009FEF0895FC01918D828D981731F0828D39
:10039000E80FF11D858D90E008958FEF9FEF089590
:1003A000FC01918D228D892F90E0805C9F4F821BF4
:1003B00091098F73992708958DEC92E00E94D001E6
:1003C00021E0892B09F420E0822F089580E090E05D
:1003D000892B29F00E94DC0181110C940000089502
:1003E000FC01A48DA80FB92FB11DA35ABF4F2C91AA
:1003F000848D90E001968F739927848FA689B789A1
:100400002C93A089B1898C91837080648C93938D97
:10041000848D981306C00288F389E02D80818F7D3A
:1004200080830895EF92FF920F931F93CF93DF93F2
:10043000EC0181E0888F9B8D8C8D98131AC0E88920
:10044000F989808185FF15C09FB7F894EE89FF89EF
:100450006083E889F98980818370806480839FBF8D
:1004600081E090E0DF91CF911F910F91FF90EF908D
:100470000895F62E0B8D10E00F5F1F4F0F7311279D
:10048000E02E8C8D8E110CC00FB607FCFACFE889D8
:10049000F989808185FFF5CFCE010E94F001F1CF6F
:1004A000EB8DEC0FFD2FF11DE35AFF4FF0829FB74C
:1004B000F8940B8FEA89FB8980818062CFCFCF933C
:1004C000DF93EC01888D8823B9F0AA89BB89E8897C
:1004D000F9898C9185FD03C0808186FD0DC00FB622
:1004E00007FCF7CF8C9185FFF2CF808185FFEDCFA0
:1004F000CE010E94F001E9CFDF91CF9108958330C2
:1005000081F028F4813099F08230A9F00895873085
:10051000A9F08830C9F08430B1F4809180008F7DDB
:1005200003C0809180008F7780938000089584B508
:100530008F7784BD089584B58F7DFBCF8091B00007
:100540008F778093B00008958091B0008F7DF9CFB0
:10055000CF93DF93282F30E0F901E255FF4F8491CC
:10056000F901E656FF4FD491F901EA57FF4FC491C4
:10057000CC23A1F081110E947F02EC2FF0E0EE0F5E
:10058000FF1FE458FF4FA591B491EC91ED2381E05A
:1005900090E009F480E0DF91CF91089580E090E051
:1005A000FACF1F93CF93DF93282F30E0F901E25564
:1005B000FF4F8491F901E656FF4FD491F901EA57B4
:1005C000FF4FC491CC23A9F0162F81110E947F0206
:1005D000EC2FF0E0EE0FFF1FEE58FF4FA591B49106
:1005E0008FB7F894EC91111108C0D095DE23DC93FD
:1005F0008FBFDF91CF911F910895DE2BF8CFCF935E
:10060000DF9390E0FC01E656FF4F24918A579F4FFD
:10061000FC0184918823C9F090E0880F991FFC01A8
:10062000E859FF4FA591B491FC01EE58FF4FC591D9
:10063000D49161110DC09FB7F8948C9120958223BD
:100640008C938881282328839FBFDF91CF910895C1
:10065000623051F49FB7F8943C91822F80958323A8
:100660008C93E8812E2BEFCF8FB7F894EC912E2B43
:100670002C938FBFEACF3FB7F8948091610190919E
:100680006201A0916301B091640126B5A89B05C0E9
:100690002F3F19F00196A11DB11D3FBFBA2FA92F01
:1006A000982F8827BC01CD01620F711D811D911DFE
:1006B00042E0660F771F881F991F4A95D1F708956A
:1006C0008F929F92AF92BF92CF92DF92EF92FF9262
:1006D0004B015C010E943B036B017C010E943B03C8
:1006E0006C197D098E099F09683E7340810591054B
:1006F000A8F321E0821A9108A108B10888EEC80E7B
:1007000083E0D81EE11CF11C81149104A104B10402
:1007100029F7FF90EF90DF90CF90BF90AF909F9020
:100720008F9008952FB7F89460915D0170915E01EC
:1007300080915F01909160012FBF089587FF0AC0EB
:100740009CE0980F923030F08D3F21F0803F18F4FC
:10075000807F089580E00895982F9F7E282F2F7C1A
:10076000203839F0803E29F081E0903C19F080E09B
:10077000089581E00895DC018D919C91DC01ED915B
:10078000FC910190F081E02D09941F93CF93DF93AA
:100790002150203118F587FF21C0D42F162FC82FE4
:1007A000622F682B80912702909128020E94BB0340
:1007B000612F6F7780912702909128020E94BB03DE
:1007C000CF7EC03C59F06D2F6F77809127029091BA
:1007D0002802DF91CF911F910C94BB03DF91CF9141
:1007E0001F910895242F462F682F80EB0C94C5038A
:1007F000262F40E0682F80EC0C94C5036D3F48F431
:100800006A3F10F4683F39F4FC01808191810C94B7
:10081000BB036E3FC8F70895813E10F40C94C503E6
:10082000883F28F0682F87E292E00C94FE03089539
:10083000CF93DF93C8E3D1E060E089910E94D102B9
:1008400081E0CF33D807C1F7DF91CF9108950F939F
:100850001F93CF930BE311E0C0E0F80181918F016A
:1008600090912A019C130CC061E00E94D102C093B8
:100870002A01CF5FC43089F7CF911F910F9108955E
:1008800060E00E94D102F5CF0F931F93CF93909118
:100890007101933069F5C82F0E94920300916D0198
:1008A00010916E0120916F0130917001601B710BEE
:1008B000820B930B6A3F710581059105C8F0EC2FFF
:1008C000F0E0E85CFE4FC0818C2F0E94A80261E03E
:1008D000892B09F060E08C2F0E94D1020E949203C4
:1008E00060936D0170936E0180936F01909370011E
:1008F000CF911F910F9108950F931F9380917101D4
:100900008230D9F50E94920300916D0110916E0121
:1009100020916F0130917001AB01BC01401B510B64
:10092000620B730B80911E0190911F01092E000C28
:10093000AA0BBB0B481759076A077B07F0F089E041
:100940000E94A80261E0892B09F060E089E00E9422
:10095000D1028DE00E94A80261E0892B09F060E0DD
:100960008DE00E94D1020E94920360936D0170930A
:100970006E0180936F01909370011F910F91089504
:10098000862F642F0C94FF02FC0181890E94A8022B
:1009900021E0892B09F420E0822F0895CF92DF9285
:1009A000EF92FF920F931F93CF93DF93EC01888513
:1009B0008B7F8887CE010E94C404182F8885869576
:1009C00081701817B9F00E9492036A837B838C832D
:1009D0009D83888592E089278887888582FB882780
:1009E00080F9DF91CF911F910F91FF90EF90DF90F1
:1009F000CF9008950E949203CA80DB80EC80FD8036
:100A0000AB01BC014C195D096E097F098E819F8184
:100A1000B0E0A0E0481759076A077B07F0F2888525
:100A200081701817D1F20E9492036A837B838C83B2
:100A30009D83888591E08927846088870E9492033E
:100A400009851A852B853C85601B710B820B930BE6
:100A50006D877E878F87988B0E94920369877A873C
:100A60008B879C87BACFCF93DF93EC0118860E94C7
:100A7000C404882319F08885836088870E949203C4
:100A80006A837B838C839D83DF91CF9108950F933D
:100A90001F93CF93DF93EC018B0161E082E10E9411
:100AA000D102F801E25FFE4F008118E0602F617013
:100AB00080E10E94D102069561E081E10E94D102AD
:100AC00060E081E10E94D102115081F7CE5FDE4FDC
:100AD000D881C8E06D2F661F6627661F80E10E94DF
:100AE000D102DD0F61E081E10E94D10260E081E18D
:100AF0000E94D102C15071F760E082E1DF91CF9195
:100B00001F910F910C94D102CF93DF9380917101CB
:100B1000811185C08DEE8093020184E280930301F0
:100B20008EEC809304018EE68093050187E280932A
:100B300006018BE6809307018BEE809308018DE21E
:100B4000809309018FEE80930A018FE680930B0159
:100B5000C0916B01D0916C01CA30D10528F4BE015F
:100B600090E080E00E944705BE016A5071096A303A
:100B7000710520F481E090E00E944705BE016451B8
:100B800071096A30710520F482E090E00E94470507
:100B9000BE016E5171096A30710520F483E090E066
:100BA0000E944705BE01685271096A30710520F440
:100BB00084E090E00E944705BE01625371096A30EB
:100BC000710520F485E090E00E944705BE016C535A
:100BD00071096A30710520F486E090E00E944705B3
:100BE000BE01665471096A30710520F487E090E017
:100BF0000E944705BE01605571096A30710520F4F5
:100C000088E090E00E944705BE016A55710989E0BD
:100C100090E06A30710548F0DF91CF9108958130FE
:100C200041F46AE070E08AE090E0DF91CF910C94AB
:100C30004705823009F06CC08FEB809302018FEF83
:100C40008093030189ED809304018DEF809305016A
:100C50008BED809306018BE9809307018BEF8093E6
:100C6000080187EB8093090184E380930A0184E7FC
:100C700080930B01C0916501D09166016DCFC130A9
:100C8000D105A9F46BE070E082E090E00E94470596
:100C9000C530D105A9F46DE070E085E090E00E94D8
:100CA0004705CA30D105A9F46BE070E058C0C230E6
:100CB000D105B9F46DE070E083E090E00E94470553
:100CC000C630D105E9F46BE070E085E090E00E9469
:100CD00047052B9709F0A0CF6DE070E081E090E030
:100CE000A4CFC330D10559F56BE070E083E090E00C
:100CF0000E944705C830D10561F56BE070E005C082
:100D00006DE070E0C730D105A9F786E090E08DCFA7
:100D1000833009F081CFC0910001D09101016CE0D6
:100D200070E08BE090E0CC30D10539F0209709F0ED
:100D3000A6CF6DE070E082E090E00E944705C430ED
:100D4000D10509F0A5CF6DE070E084E090E00E944D
:100D500047056DE070E0C930D10509F0A2CF90E001
:100D600080E063CFAF92BF92DF92EF92FF920F933A
:100D70001F93CF93DF93D62FC42F809171018130C1
:100D800051F58BE2E82E81E0F82E01E010E0DD2441
:100D9000D394F70181917F018D1318C0CF3709F0EB
:100DA00048C0C8018F589E4F5C01FC018081813092
:100DB00069F461E0F801E85CFE4F80810E94D10295
:100DC000F5011082F801ED5DFE4F10820F5F1F4F9D
:100DD00007301105F1F620917101213009F448C066
:100DE000EBE2F1E081E090E031E041914D1306C08B
:100DF000CF37B9F5DC01AD5DBE4F1C92019687304F
:100E0000910599F7211134C0DF7D09F062C0D0E06F
:100E1000D0936C01C0936B010E942704DF91CF91A6
:100E20001F910F91FF90EF90DF90BF90AF900C94C7
:100E30008405C111CBCFC8018F589E4F5C01FC01C6
:100E400080818111C3CF60E0F801E85CFE4F8081B2
:100E50000E94D102F501D082F801ED5DFE4FD082F3
:100E6000B5CFC111CBCFDC01AD5DBE4F3C93C6CF3A
:100E70008D2F8F7DA9F460916B0130916C0190E012
:100E800080E04C2F50E04817590711F4642F352F9C
:100E9000019684369105B9F760936B0130936C012C
:100EA0002330B9F4DB37A9F4C11113C08CE090E012
:100EB00090930101809300010E948405C8E3D1E072
:100EC0000FE311E060E089910E94D1020C171D0729
:100ED000C9F7DF91CF911F910F91FF90EF90DF90B5
:100EE000BF90AF900895CF93DF93C62F809171018B
:100EF00081110CC0D4E0C0932A010E9427040E94F3
:100F00008405D150C1F7DF91CF91089580912A01D6
:100F1000662321F0613029F481E001C080E0C82F10
:100F200002C0623019F4C0932A01EDCF6330B9F7E3
:100F3000FACFDF92EF92FF920F931F93CF93DF933D
:100F400080917101811112C00E9418040E948405D1
:100F50000E94270441E060E086E7DF91CF911F9176
:100F60000F91FF90EF90DF900C94F2038130A9F580
:100F70000E9418040E94840561E089E00E94D10269
:100F800041E060E086E70E94F20304E211E089E3B9
:100F9000E82E81E0F82EC1E7D1E0DD24D394F801FA
:100FA00091918F01F70181917F01911111C061E051
:100FB0000E94D10219822196F1E00A321F0779F7C7
:100FC000DF91CF911F910F91FF90EF90DF900895E7
:100FD00060E00E94D102D982EECF823089F40E9473
:100FE00018040E9484058091200161E0882321F08B
:100FF000813009F0AFCF60E08CE00E94D102AACF2F
:101000008330F1F60E94180441E06FE786E70E9402
:10101000F2030E9484058FEA809302018FEE809391
:10102000030189EC809304018DEE809305018BEC24
:10103000809306018BE8809307018BEE8093080173
:1010400087EA80930901BCCFCF93C0917101C11190
:1010500013C083E080932A0141E060916B0180E03E
:101060000E94F20361E080912A010E94F8030E942D
:101070008405CF910C942704C13019F58091770134
:10108000813079F441E06FE788E30E94F20361E088
:101090008FE00E94D1021092770110922901CF9126
:1010A00008958111FCCF41E060E088E30E94F203E3
:1010B00060E08FE00E94D102C0937701C0932901C4
:1010C000EECFC23061F7809123018130B1F442E06C
:1010D0006FE788E30E94F20361E08FE00E94D10293
:1010E00064E670E080E090E00E94600360E08FE0E2
:1010F0000E94D10210922301D2CF8111D0CF42E0C1
:1011000060E088E30E94F20361E08FE00E94D10278
:1011100064E670E080E090E00E94600360E08FE0B1
:101120000E94D10281E080932301B9CFCF93C09177
:101130007101C11113C082E080932A0141E06091E6
:101140006B0180E00E94F20361E080912A010E941D
:10115000F8030E948405CF910C942704C13019F53F
:1011600080917601813079F441E06FE787E30E9456
:10117000F20361E08EE00E94D1021092760110929B
:101180002801CF9108958111FCCF41E060E087E311
:101190000E94F20360E08EE00E94D102C0937601CB
:1011A000C0932801EECFC23061F7809122018130D7
:1011B00061F442E06FE787E30E94F20361E08EE0B2
:1011C0000E94D10210922201DCCF8111DACF42E0DD
:1011D00060E087E30E94F20360E08EE00E94D102AB
:1011E00081E080932201CDCFFF920F931F93CF9385
:1011F000DF9380917101833009F071C0C42FF62E06
:10120000453108F072C081E00E9444048BEE8C0FDF
:10121000843108F06FC082E00E94440487ED8C0F97
:10122000853108F06CC083E00E94440482EC8C0F8E
:1012300061E0833008F060E089E00E94D1028FEB2A
:101240008C0F863108F060C084E00E94440489EA73
:101250008C0F843108F05DC085E00E944404CB56B9
:10126000C53108F05BC086E00E944404D0E0C0E0D5
:101270000F2D10E0FC1649F1CE010C960817190746
:1012800021F10C960817190701F10C960817190798
:10129000E1F00C9608171907C1F00C96081719070A
:1012A000A1F00C960817190781F00C96081719077A
:1012B00061F00C960817190741F00C9608171907EA
:1012C00021F00C960817190731F4D0930101C0934F
:1012D00000010E9484052196CC30D10559F6DF919A
:1012E000CF911F910F91FF90089560E08AE00E94D6
:1012F000D1028CCF60E08BE00E94D1028FCF60E002
:101300008CE00E94D10292CF60E08DE00E94D10279
:101310009ECF60E08EE00E94D102A1CF60E08FE01E
:101320000E94D102A3CF0E9432121F920F920FB6D9
:101330000F9211242F933F934F935F936F937F935B
:101340008F939F93AF93BF93EF93FF938DEC92E0B6
:101350000E94F001FF91EF91BF91AF919F918F910A
:101360007F916F915F914F913F912F910F900FBEA1
:101370000F901F9018951F920F920FB60F92112485
:101380002F938F939F93EF93FF93E091DD02F09162
:10139000DE028081E091E302F091E40282FD1BC055
:1013A00090818091E6028F5F8F732091E702821710
:1013B00041F0E091E602F0E0E353FD4F958F80931A
:1013C000E602FF91EF919F918F912F910F900FBEA9
:1013D0000F901F9018958081F4CF1F920F920FB637
:1013E0000F9211242F933F938F939F93AF93BF93AB
:1013F00080915D0190915E01A0915F01B0916001CB
:1014000030915C0123E0230F2D3758F50196A11D83
:10141000B11D20935C0180935D0190935E01A093C8
:101420005F01B09360018091610190916201A09190
:101430006301B09164010196A11DB11D809361010A
:1014400090936201A0936301B0936401BF91AF9147
:101450009F918F913F912F910F900FBE0F901F90F2
:10146000189526E8230F0296A11DB11DD2CFFC01CD
:1014700012821382148215828AE090E09783868319
:10148000108688E591E091838083118A08950F93F7
:101490001F93CF93EDECF2E01382128288EE93E07B
:1014A000A0E0B0E084839583A683B78386E491E0CF
:1014B0009183808385EC90E09587848784EC90E02D
:1014C0009787868780EC90E0918B808B81EC90E011
:1014D000938B828B82EC90E0958B848B86EC90E0F2
:1014E000978B868B118E128E138E148EF0936B0356
:1014F000E0936A03EDEFF1E0118210821382128211
:10150000158214821782168211861086138612861F
:101510001586148617861686118A108A138A128AEF
:10152000158A148A178A168A118E108E138E128EBF
:10153000158E148E178E168E11A210A213A212A24F
:1015400015A214A217A216A211A610A68AE693E06D
:1015500093A782A714A615A616A613AA12AA15AABF
:1015600014AA8FEF9FEF97AB86AB91AF80AF83E06C
:101570008093370213AE14AE15AE16AE1092BC02B5
:10158000ECE3F2E080E8DF011D928A95E9F7109222
:10159000BF021092C0021092C1021092C2021092B9
:1015A000C3021092C4021092C5021092C602109299
:1015B000C7021092C8021092C9021092CA02109279
:1015C000CB021092CC028AEE91E00E94370AEAEE3A
:1015D000F1E008E511E011830083C1E0C28B87EDE3
:1015E00091E00E94370AE7EDF1E011830083C28B9E
:1015F00084EC91E00E94370AE4ECF1E0118300836F
:10160000C28B81EB91E00E94370AE1EBF1E011839C
:101610000083C28B8EE991E00E94370AEEE9F1E087
:1016200011830083C28B8BE891E00E94370AEBE8BC
:10163000F1E011830083C28B88E791E00E94370AB2
:10164000E8E7F1E011830083C28BCF911F910F91E6
:101650000895789484B5826084BD84B5816084BD2A
:1016600085B5826085BD85B5816085BD80916E0040
:10167000816080936E001092810080918100826071
:1016800080938100809181008160809381008091AE
:1016900080008160809380008091B100846080939D
:1016A000B1008091B00081608093B00080917A0099
:1016B000846080937A0080917A00826080937A00BF
:1016C00080917A00816080937A0080917A008068AE
:1016D00080937A001092C100E0912702F0912802D5
:1016E0000190F081E02DA089B189D2E0DC93A4853E
:1016F000B5851C92A685B7858FE38C93108EA4893F
:10170000B589C6E0CC93A289B3898C9180618C9312
:10171000A289B3898C9188608C93A289B3898C91BA
:1017200080688C930288F389E02D80818F7D80838F
:101730001092290210922B0210922A021092320269
:10174000109231021092300210922F028FEF9FEF11
:101750009093340280933302909336028093350243
:101760000E9492036093BF027093C0028093C102F3
:101770009093C2021092BC02109239021092380269
:1017800010923A0210923B021092BE021092BD02D9
:101790008091370281708260816080933702E0918E
:1017A000DD02F091DE02D083E091D902F091DA02FD
:1017B0001082E091DB02F091DC0280E180831092E4
:1017C000E502E091E102F091E202C083E091DF02E4
:1017D000F091E002808180618083E091DF02F091EE
:1017E000E002808188608083E091DF02F091E00276
:1017F000808180688083E091DF02F091E002808147
:101800008F7D808382EB96E090930802809307029D
:1018100083E797E090930A028093090284EF98E0AF
:10182000909304028093030210923702C8E3D1E040
:1018300061E089910E94FF0221E0C234D207C1F722
:10184000C1E3D1E062E089910E94FF0231E0C83338
:10185000D307C1F782E08093890188E791E00E9475
:101860003305C9E1D0E0D0937F01C0937E0110928F
:101870008A0183E08093FB018AEE91E00E943305A8
:10188000D093F101C093F00184E08093E80187EDEB
:1018900091E00E943305D093DE01C093DD011092E8
:1018A000E90185E08093D50184EC91E00E94330545
:1018B000D093CB01C093CA011092D60186E08093E9
:1018C000C20181EB91E00E943305D093B801C0932F
:1018D000B7011092C30187E08093AF018EE991E0D8
:1018E0000E943305D093A501C093A4011092B001CA
:1018F00088E080939C018BE891E00E943305D093AF
:101900009201C093910110929D0170E060E090E01F
:1019100080E00E9447050E94270464EF71E080E0A8
:1019200090E00E94600341E060E080E00E94F203EA
:1019300061E080E00E94F80340E8C42ED12C52E020
:10194000A52EB12C01E010E063E6862E912C7724C1
:10195000739420E8622E30EF532EF090290280E13C
:101960008F1508F47AC0E0912702F0912802808157
:101970009181DC01ED91FC910084F185E02D0995C8
:10198000892B09F46AC08091CC028E7F8093CC02AF
:10199000E0912702F091280280819181DC01ED9194
:1019A000FC910284F385E02D0995C82F8D3F09F441
:1019B00054C08091310290913202009709F0D4C155
:1019C000C0932C02D0912A028D2F0E949E030E9468
:1019D000AC03882351F0C7FD08C0D0932C02C093FC
:1019E0002D021093320200933102C0912C028C2FF1
:1019F0000E949E03813F09F484C108F01DC1803B11
:101A000039F068F4803921F0803A11F0803879F4A7
:101A1000E3E0F0E0F0933002E0932F0276C1803DE6
:101A200009F46FC108F0F9C0803C09F46AC18091E3
:101A3000CC0281608093CC02E091FF01F091000222
:101A4000309709F0099510923202109231021092EB
:101A5000300210922F0210922A0288E791E00E9431
:101A6000CE048091800182FF0FC0817090918A0125
:101A700098130AC0809171018F5F843008F0C2C250
:101A8000809371010E9499078AEE91E00E94CE0432
:101A90008091F2018570853091F48091F7019091E9
:101AA000F801A091F901B091FA018D3B9240A10596
:101AB000B10508F4AAC2109271010E94990787ED3E
:101AC00091E00E94CE048091DF018570853091F411
:101AD0008091E4019091E501A091E601B091E701C8
:101AE0008D3B9240A105B10508F4F7C270927101D7
:101AF0000E94990784EC91E00E94CE048091CC0171
:101B00008570853099F48091D1019091D201A09196
:101B1000D301B091D4018D3B9240A105B10508F4E9
:101B200046C382E0809371010E94990781EB91E0A6
:101B30000E94CE048091B9018570853099F480911E
:101B4000BE019091BF01A091C001B091C1018D3B38
:101B50009240A105B10508F4D1C383E080937101DF
:101B60000E9499078EE991E00E94CE048091A6011F
:101B70008570853011F40E9496088BE891E00E94F0
:101B8000CE04809193018570853011F40E94240861
:101B900080917101811132C080912A01803871F5E4
:101BA0000E94920320916D0130916E0140916F016E
:101BB00050917001621B730B840B950B643F714055
:101BC00081059105D8F0CBE3D1E0F9908F2D0E94EB
:101BD000A80261E0892B09F060E08F2D0E94D102FC
:101BE00031E0CF33D30789F70E94920360936D01F0
:101BF00070936E0180936F01909370010E947C043A
:101C000080E090E0892B09F4A8CE0E94DC018823B3
:101C100009F49DCE0E9400009ACE803E09F4F8CED1
:101C2000803F09F004CFD0923002C0922F02109270
:101C30002A0280933C0269C0873FA9F308F05AC08A
:101C4000833F09F45EC008F4E3CE863F09F0EFCE8F
:101C5000809339021092380210923A0210923B029D
:101C60007092BC0210923202109231021092300235
:101C700010922F0280913902803931F480913B0219
:101C8000811102C0609239028091390280588136F8
:101C900030F480913802F81611F0F11002C00E9461
:101CA0008C0090913702392F317090FFD6CE892F5A
:101CB0008E7F09F4D2CE8091390220E8280F213698
:101CC00008F01FC120913802F21619F031E0F1102E
:101CD00030E09695923009F40DC1933009F40EC1AD
:101CE000913009F0BACE40913B0260913A020E94D5
:101CF0000C04B3CE8D3F08F4ABCF8E3F08F0A8CFD5
:101D000096CEB0923002A0922F02209131023091F3
:101D1000320240912F025091300241505109241754
:101D20003507D8F080933902CF70CF5FC093380267
:101D300080912D0280933A0210923B021093BE02D2
:101D40000093BD02109232021092310210923002C2
:101D500010922F027092BC028DCF2F5F3F4F3093B5
:101D600032022093310279CEC7FF0CC0CD3F08F07C
:101D700045C0C83F08F044C0C03F09F44EC0C73F4B
:101D800009F44BC020912C02FC01E350FE4F203F90
:101D900019F0273F09F069C0C7AF20902F0230909B
:101DA00030029101215031098217930708F49CC039
:101DB00040902C02B0EF4B1619F0E7EF4E1257C0CF
:101DC000C091BB025092BB025092390260923A021B
:101DD00010923B0210923802D092BE02C092BD0215
:101DE0007092BC020E948C00F7EFF0933C02C0930B
:101DF0003D02B0923202A09231022FCECE3F10F2BD
:101E0000C093390210923A0210923B0210923802AB
:101E10001093BE020093BD029DCF20913C02203F53
:101E200019F0273F09F003CE9C012F5F3F4F8350ED
:101E30009E4FDC01DF96CC935092390220933A02F8
:101E400030933B02109238023093BE022093BD02C1
:101E50007092BC0210923202109231021092300243
:101E600010922F0210922A0205CFC7A796CF842D79
:101E70000E949E03C82F809339020E94AC038823DE
:101E800041F1842D8F708F5F8093380280912D02F5
:101E900080933A0280912E0223E02216310409F049
:101EA00080E080933B021092320210923102109235
:101EB000300210922F027092BC02C03B39F060F4E5
:101EC000C03921F0C03A11F0C03861F640922A02C0
:101ED000D1CE10923802DACFC03DC1F3C03EB1F38B
:101EE000C03C09F0BFCFF2CF0196909332028093AD
:101EF0003102B3CD332309F4B0CDF5CE3111ADCDE0
:101F0000F2CEE0E1E80FE03108F0A7CDF0E0E557D0
:101F1000F04F0C942C12A10FEE0FD00FBE0F2D0D11
:101F20002D0D9B0F2D0D9B0F2D0D9B0F9B0F9B0FB1
:101F30002D0D9B0F9B0F682F87E292E00E94FE03FE
:101F40008CCDE0903A02F0903B0231E8E316F104C8
:101F500018F090E8E92EF12CCDEFD1E0CE018D5FA5
:101F600091408E159F0508F078CD6FAD80912702C6
:101F7000909128020E94BB032196F0CFC0913A02B3
:101F800063EF80912702909128020E94BB036C2F7F
:101F90006F7780912702909128020E94BB035DCD4C
:101FA000C0913B0280E8C89FE001112480913A0271
:101FB000C82B62EF80912702909128020E94BB03F8
:101FC0006C2F6F7780912702909128020E94BB03AB
:101FD000CC0FCD2FCC1FDD0BD195D9CF60913A021C
:101FE00090E1699FB00111246077C0913B02CF70EE
:101FF000C62B61EF80912702909128020E94BB03BB
:102000006C2FC7CF109271013DCDC0917101C111EC
:1020100025C080916B0190916C01019797FD19C0CB
:1020200090936C0180936B0160922A010E94840559
:102030000E94270461E08AE00E94D10264E670E019
:1020400080E090E00E94600360E08AE00E94D1029C
:1020500036CD90926C0180926B01E6CFC13011F5C4
:1020600080917201813071F441E06FE783E30E9457
:10207000F20361E08AE00E94D10210927201109294
:1020800024011DCD81111BCD41E060E083E30E945E
:10209000F20360E08AE00E94D102C0937201C09313
:1020A00024010DCDC23009F00ACD809165019091D7
:1020B0006601019797FD0CC09093660180936501BE
:1020C0000E94840562E0809165010E94F803B2CF0E
:1020D0009092660180926501F3CFC0917101C111A8
:1020E00026C080916B0190916C0101968436910518
:1020F000CCF490936C0180936B0160922A010E9452
:1021000084050E94270461E08BE00E94D10264E60E
:1021100070E080E090E00E94600360E08BE00E944D
:10212000D102E8CC10926C0110926B01E6CFC13065
:1021300011F580917301813071F441E06FE784E320
:102140000E94F20361E08BE00E94D10210927301C1
:1021500010922501CFCC8111CDCC41E060E084E329
:102160000E94F20360E08BE00E94D102C0937301F1
:10217000C0932501BFCCC23009F0BCCC8091650171
:102180009091660101968436910564F490936601FE
:10219000809365010E94840562E0809165010E9440
:1021A000F803B1CF1092660110926501F3CFC09190
:1021B0007101C11112C010922A0141E060916B01BE
:1021C00080E00E94F20361E080912A010E94F803FE
:1021D0000E9484050E942704A9CCC13011F580918A
:1021E0007401813071F441E06FE785E30E94F203EE
:1021F00061E08CE00E94D1021092740110922601DD
:1022000095CC811193CC41E060E085E30E94F2031C
:1022100060E08CE00E94D102C0937401C09326015B
:1022200085CCC230F1F480912001813061F442E02C
:102230006FE785E30E94F20361E08CE00E94D10227
:102240001092200173CC811171CC42E060E085E3F3
:102250000E94F20360E08CE00E94D10270922001A3
:1022600065CCC33009F062CC80911C01813011F53E
:1022700041E06FE787E70E94F2038FEB8093020152
:102280008FEF8093030189ED809304018DEF80939C
:1022900005018BED809306018BE9809307018BEF9D
:1022A0008093080182E180930D010E9484051092C1
:1022B0001C013CCC81113ACC41E060E087E70E94F0
:1022C000F2033FEA309302018FEE8093030189EC21
:1022D000809304018DEE809305018BEC80930601C1
:1022E0008BE8809307018BEE8093080182E0809356
:1022F0000D010E94840570921C0118CCC0917101DF
:10230000C11112C070922A0141E060916B0180E01E
:102310000E94F20361E080912A010E94F8030E946A
:1023200084050E9427041ECCC13011F580917501EF
:10233000813071F441E06FE786E30E94F20361E0CF
:102340008DE00E94D10210927501109227010ACCF3
:10235000811108CC41E060E086E30E94F20360E076
:102360008DE00E94D102C0937501C0932701FACB82
:10237000C23009F043C0809121018130B1F442E0C4
:102380006FE786E30E94F203109221010E949203FC
:102390000E949203609367017093680180936901C2
:1023A00090936A010E947C04DDCB8111DBCB42E07B
:1023B00060E086E30E94F203709221010E94920382
:1023C00020916701309168014091690150916A0143
:1023D000DC01CB01821B930BA40BB50BAC01BD013F
:1023E0004150510961097109473E5340610571052A
:1023F000C8F690931F0180931E01CACFC33009F025
:10240000B1CB80911D01813099F441E06FE788E7FD
:102410000E94F20388E080931B018DEE80931901E6
:1024200088E480931A010E94840510921D019ACBC2
:10243000811198CB41E060E088E70E94F20310929E
:102440001B0185EE8093190180E480931A010E949C
:10245000840570921D0186CBEE0FFF1F0590F4914D
:10246000E02D099481E090E0F8940C943712F894F0
:02247000FFCF9C
:102472000C00ED24CE6E276BEB2DEF6F0002B7241C
:102482007376E4D6D7B4F7F600E5400001015802AE
:1024920001010101010101010101803334353637A7
:1024A2003802030405060708090A0B0C0D0E0F106B
:1024B200111200000000120272019F015F02D0019E
:0C24C200AE01C20100000000C404C00410
:00000001FF
