:100000000C9462000C948A000C948A000C948A0070
:100010000C948A000C948A000C948A000C948A0038
:100020000C948A000C948A000C948A000C948A0028
:100030000C948A000C948A000C948A000C948A0018
:100040000C94E6060C948A000C94B4060C948E066C
:100050000C948A000C948A000C948A000C948A00F8
:100060000C948A000C948A000000000024002700F1
:100070002A0000000000250028002B0000000000DE
:1000800023002600290004040404040404040202DA
:100090000202020203030303030301020408102007
:1000A0004080010204081020010204081020000012
:1000B0000008000201000003040700000000000027
:1000C0000000400711241FBECFEFD8E0DEBFCDBF38
:1000D00011E0A0E0B1E0E6E8F0E202C005900D9288
:1000E000AE34B107D9F723E0AEE4B1E001C01D9210
:1000F000AE35B207E1F710E0C2E6D0E004C02197C8
:10010000FE010E943610C136D107C9F70E942208AD
:100110000C9441100C940000E091EF01F091F0017B
:10012000309719F08AE292E0099580912B02823F84
:1001300009F4BAC090F5803C09F499C0B8F480394C
:1001400009F44FC040F4E091F301F091F4018038DC
:1001500009F44BC00895803A09F484C0E091F90194
:10016000F091FA01803B09F440C00895803E09F403
:1001700062C040F4E091FD01F091FE01803D09F480
:100180007AC00895803F09F47DC0E0910302F091A8
:100190000402813F09F49BC008958A3FC1F1A8F48D
:1001A000863F09F499C040F4E0910702F0910802FB
:1001B000833F09F48CC00895883F09F1E0910F0254
:1001C000F0911002893FF9F008958C3F51F120F130
:1001D0008E3F61F1E0911702F09118028F3F99F084
:1001E0000895E091F501F091F601309709F479C096
:1001F00040912D0260912C0280912A020994E09195
:100200000B02F0910C02309709F46BC00994E09155
:100210000D02F0910E02F7CFE0911102F09112025F
:10022000F2CFE0911302F0911402EDCFE0911502AC
:10023000F0911602E8CFE091FF01F09100023097B3
:1002400009F44FC060912D0220E8629FB001112493
:1002500060787F7380912C028F77682B7052809129
:100260002A020994E091F701F091F801BECFE091E4
:10027000FB01F091FC013097A1F160912C0280917B
:100280002A020994E0910102F0910202309749F1AB
:1002900060912C0270912D026138710510F060E8B8
:1002A00070E08EE292E00994E0910502F09106027E
:1002B0003097B9F080912D0220E8829FC00111246F
:1002C00080789F7320912C022F77822B099430978E
:1002D00041F080912C020994E0910902F0910A0208
:1002E00092CF0895AF92BF92CF92DF92EF92FF929A
:1002F0000F931F93CF93DF936C017B018B01040F4E
:10030000151FEB015E01AE18BF08C017D10759F0E9
:100310006991D601ED91FC910190F081E02DC6012B
:100320000995892B79F7C501DF91CF911F910F9125
:10033000FF90EF90DF90CF90BF90AF900895FC01B9
:10034000538D448D252F30E0842F90E0821B930B3A
:10035000541710F0CF96089501970895FC01918DE0
:10036000828D981761F0A28DAE0FBF2FB11D5D96E3
:100370008C91928D9F5F9F73928F90E008958FEF85
:100380009FEF0895FC01918D828D981731F0828D39
:10039000E80FF11D858D90E008958FEF9FEF089590
:1003A000FC01918D228D892F90E0805C9F4F821BF4
:1003B00091098F73992708958FEB92E00E94D001E5
:1003C00021E0892B09F420E0822F089580E090E05D
:1003D000892B29F00E94DC0181110C940000089502
:1003E000FC01A48DA80FB92FB11DA35ABF4F2C91AA
:1003F000848D90E001968F739927848FA689B789A1
:100400002C93A089B1898C91837080648C93938D97
:10041000848D981306C00288F389E02D80818F7D3A
:1004200080830895EF92FF920F931F93CF93DF93F2
:10043000EC0181E0888F9B8D8C8D98131AC0E88920
:10044000F989808185FF15C09FB7F894EE89FF89EF
:100450006083E889F98980818370806480839FBF8D
:1004600081E090E0DF91CF911F910F91FF90EF908D
:100470000895F62E0B8D10E00F5F1F4F0F7311279D
:10048000E02E8C8D8E110CC00FB607FCFACFE889D8
:10049000F989808185FFF5CFCE010E94F001F1CF6F
:1004A000EB8DEC0FFD2FF11DE35AFF4FF0829FB74C
:1004B000F8940B8FEA89FB8980818062CFCFCF933C
:1004C000DF93EC01888D8823B9F0AA89BB89E8897C
:1004D000F9898C9185FD03C0808186FD0DC00FB622
:1004E00007FCF7CF8C9185FFF2CF808185FFEDCFA0
:1004F000CE010E94F001E9CFDF91CF9108958330C2
:1005000081F028F4813099F08230A9F00895873085
:10051000A9F08830C9F08430B1F4809180008F7DDB
:1005200003C0809180008F7780938000089584B508
:100530008F7784BD089584B58F7DFBCF8091B00007
:100540008F778093B00008958091B0008F7DF9CFB0
:10055000CF93DF93282F30E0F901E255FF4F8491CC
:10056000F901E656FF4FD491F901EA57FF4FC491C4
:10057000CC23A1F081110E947F02EC2FF0E0EE0F5E
:10058000FF1FE458FF4FA591B491EC91ED2381E05A
:1005900090E009F480E0DF91CF91089580E090E051
:1005A000FACF1F93CF93DF93282F30E0F901E25564
:1005B000FF4F8491F901E656FF4FD491F901EA57B4
:1005C000FF4FC491CC23A9F0162F81110E947F0206
:1005D000EC2FF0E0EE0FFF1FEE58FF4FA591B49106
:1005E0008FB7F894EC91111108C0D095DE23DC93FD
:1005F0008FBFDF91CF911F910895DE2BF8CFCF935E
:10060000DF9390E0FC01E656FF4F24918A579F4FFD
:10061000FC0184918823C9F090E0880F991FFC01A8
:10062000E859FF4FA591B491FC01EE58FF4FC591D9
:10063000D49161110DC09FB7F8948C9120958223BD
:100640008C938881282328839FBFDF91CF910895C1
:10065000623051F49FB7F8943C91822F80958323A8
:100660008C93E8812E2BEFCF8FB7F894EC912E2B43
:100670002C938FBFEACF3FB7F894809153019091AC
:100680005401A0915501B091560126B5A89B05C013
:100690002F3F19F00196A11DB11D3FBFBA2FA92F01
:1006A000982F8827BC01CD01620F711D811D911DFE
:1006B00042E0660F771F881F991F4A95D1F708956A
:1006C0008F929F92AF92BF92CF92DF92EF92FF9262
:1006D0004B015C010E943B036B017C010E943B03C8
:1006E0006C197D098E099F09683E7340810591054B
:1006F000A8F321E0821A9108A108B10888EEC80E7B
:1007000083E0D81EE11CF11C81149104A104B10402
:1007100029F7FF90EF90DF90CF90BF90AF909F9020
:100720008F9008952FB7F89460914F017091500108
:1007300080915101909152012FBF089587FF0AC007
:100740009CE0980F923030F08D3F21F0803F18F4FC
:10075000807F089580E00895982F9F7E282F2F7C1A
:10076000203839F0803E29F081E0903C19F080E09B
:10077000089581E00895DC018D919C91DC01ED915B
:10078000FC910190F081E02D09941F93CF93DF93AA
:100790002150203118F587FF21C0D42F162FC82FE4
:1007A000622F682B8091190290911A020E94BB035C
:1007B000612F6F778091190290911A020E94BB03FA
:1007C000CF7EC03C59F06D2F6F77809119029091C8
:1007D0001A02DF91CF911F910C94BB03DF91CF914F
:1007E0001F910895242F462F682F80EB0C94C5038A
:1007F000262F40E0682F80EC0C94C5036D3F48F431
:100800006A3F10F4683F39F4FC01808191810C94B7
:10081000BB036E3FC8F70895813E10F40C94C503E6
:10082000883F28F0682F89E192E00C94FE03089538
:100830000F931F93CF930DE211E0C0E0F801819177
:100840008F01909111019C130CC061E00E94D102B4
:10085000C0931101CF5FC43089F7CF911F910F91E1
:10086000089560E00E94D102F5CFFC01908592FFCF
:1008700004C0917081E02289291380E00895862FB9
:10088000642F0C94FF02FC0181890E94A80221E0E0
:10089000892B09F420E0822F0895CF92DF92EF9206
:1008A000FF920F931F93CF93DF93EC0188858B7F8B
:1008B0008887CE010E944304182F88858695817011
:1008C0001817B9F00E9492036A837B838C839D83FF
:1008D000888592E089278887888582FB882780F928
:1008E000DF91CF911F910F91FF90EF90DF90CF900C
:1008F00008950E949203CA80DB80EC80FD80AB01EA
:10090000BC014C195D096E097F098E819F81B0E0A1
:10091000A0E0481759076A077B07F0F288858170C5
:100920001817D1F20E9492036A837B838C839D8384
:10093000888591E08927846088870E9492030985D1
:100940001A852B853C85601B710B820B930B6D8781
:100950007E878F87988B0E94920369877A878B871F
:100960009C87BACFCF93DF93EC0118860E94430493
:10097000882319F08885836088870E9492036A83A0
:100980007B838C839D83DF91CF9108950F931F9379
:10099000CF93DF93EC018B0161E082E10E94D102F1
:1009A000F801EE5EFE4F008118E0602F617080E17B
:1009B0000E94D102069561E081E10E94D10260E0CF
:1009C00081E10E94D102115081F7C050DF4FD881E0
:1009D000C8E06D2F661F6627661F80E10E94D10266
:1009E000DD0F61E081E10E94D10260E081E10E94BF
:1009F000D102C15071F760E082E1DF91CF911F9188
:100A00000F910C94D102CF93DF93809163018111F8
:100A100083C08DEE8093000184E2809301018EEC0F
:100A2000809302018EE68093030187E280930401A4
:100A30008BE6809305018BEE809306018DE2809317
:100A400007018FEE809308018FE680930901C09122
:100A50005D01D0915E01CA30D10528F4BE0190E05D
:100A600080E00E94C604BE016A5071096A307105B7
:100A700020F481E090E00E94C604BE016451710937
:100A80006A30710520F482E090E00E94C604BE0145
:100A90006E5171096A30710520F483E090E00E9484
:100AA000C604BE01685271096A30710520F484E001
:100AB00090E00E94C604BE01625371096A3071055C
:100AC00020F485E090E00E94C604BE016C537109D9
:100AD0006A30710520F486E090E00E94C604BE01F1
:100AE000665471096A30710520F487E090E00E9435
:100AF000C604BE01605571096A30710520F488E0B2
:100B000090E00E94C604BE016A5571096A30710501
:100B100090F589E090E006C0813041F46AE070E031
:100B20008AE090E0DF91CF910C94C604823019F5F1
:100B30008FEB809300018FEF8093010189ED80930B
:100B400002018DEF809303018BED809304018BE90B
:100B5000809305018BEF8093060187EB809307015B
:100B600084E38093080184E780930901C0915701D1
:100B7000D091580170CFDF91CF910895BF92CF925D
:100B8000DF92EF92FF920F931F93CF93DF93D62FB5
:100B9000C42F80916301813031F58DE1E82E81E031
:100BA000F82E10E000E0BB24B394F70181917F019F
:100BB0008D1314C0CF3709F054C0C8018D599E4F12
:100BC0006C01FC018181813049F461E0F801E65D4E
:100BD000FE4F81810E94D102F60111820F5F1F4FEB
:100BE0000630110511F7EDE1F1E081E090E021E040
:100BF00031913D1307C0CF3709F047C0DC01A65F34
:100C0000BE4F1C9201968730910591F78091630148
:100C10009FEF980F923008F03FC08D2F8F7DB9F471
:100C200050915D0140915E0190E080E02C2F30E01A
:100C30002817390711F4522F432F01968436910556
:100C4000B9F750935D0140935E01DD2349F1DF91D7
:100C5000CF911F910F91FF90EF90DF90CF90BF90B9
:100C60000895C111BBCFC8018D599E4F6C01FC0185
:100C700081818111B3CF60E0F801E65DFE4F818193
:100C80000E94D102F601B182A9CFC111BBCFDC0114
:100C9000A65FBE4F2C93B6CF8111D7CFD032A9F625
:100CA000D0E0D0935E01C0935D010E941804DF91F3
:100CB000CF911F910F91FF90EF90DF90CF90BF9059
:100CC0000C9403051F93CF93DF93C62FD09163013C
:100CD000D11109C014E0C09311010E9418040E94B0
:100CE00003051150C1F7D150D23078F48091110131
:100CF000CC2321F0C13029F481E001C080E0C82F6D
:100D000002C0C23031F4C0931101DF91CF911F9125
:100D10000895C330A1F7F7CF0E943C101F920F92A5
:100D20000FB60F9211242F933F934F935F936F93BE
:100D30007F938F939F93AF93BF93EF93FF938FEB2B
:100D400092E00E94F001FF91EF91BF91AF919F91CE
:100D50008F917F916F915F914F913F912F910F9064
:100D60000FBE0F901F9018951F920F920FB60F9203
:100D700011242F938F939F93EF93FF93E091CF02D2
:100D8000F091D0028081E091D502F091D60282FDEF
:100D90001BC090818091D8028F5F8F732091D90200
:100DA000821741F0E091D802F0E0E154FD4F958FB9
:100DB0008093D802FF91EF919F918F912F910F9087
:100DC0000FBE0F901F9018958081F4CF1F920F9245
:100DD0000FB60F9211242F933F938F939F93AF934E
:100DE000BF9380914F0190915001A0915101B0911A
:100DF000520130914E0123E0230F2D3758F5019613
:100E0000A11DB11D20934E0180934F01909350017D
:100E1000A0935101B09352018091530190915401DC
:100E2000A0915501B09156010196A11DB11D80936D
:100E3000530190935401A0935501B0935601BF9173
:100E4000AF919F918F913F912F910F900FBE0F9077
:100E50001F90189526E8230F0296A11DB11DD2CF31
:100E6000FC0112821382148215828AE090E097833B
:100E7000868310868AE491E091838083118A0895A5
:100E80000F931F93CF93EFEBF2E01382128288EE61
:100E900093E0A0E0B0E084839583A683B78388E3E2
:100EA00091E09183808385EC90E09587848784EC42
:100EB00090E09787868780EC90E0918B808B81EC27
:100EC00090E0938B828B82EC90E0958B848B86EC08
:100ED00090E0978B868B118E128E138E148EF0936A
:100EE0005D03E0935C03EFEEF1E011821082138268
:100EF000128215821482178216821186108613863A
:100F000012861586148617861686118A108A138A09
:100F1000128A158A148A178A168A118E108E138ED9
:100F2000128E158E148E178E168E11A210A213A279
:100F300012A215A214A217A216A211A610A68CE541
:100F400093E093A782A714A615A616A613AA12AA21
:100F500015AA14AA8FEF9FEF97AB86AB91AF80AF26
:100F600083E08093290213AE14AE15AE16AE109234
:100F7000AE02EEE2F2E080E8DF011D928A95E9F729
:100F80001092B1021092B2021092B3021092B40207
:100F90001092B5021092B6021092B7021092B802E7
:100FA0001092B9021092BA021092BB021092BC02C7
:100FB0001092BD021092BE028CED91E00E943007AB
:100FC000ECEDF1E00AE411E011830083C1E0C28B93
:100FD00089EC91E00E943007E9ECF1E01183008395
:100FE000C28B86EB91E00E943007E6EBF1E01183C3
:100FF0000083C28B83EA91E00E943007E3EAF1E0CC
:1010000011830083C28B80E991E00E943007E0E900
:10101000F1E011830083C28B8DE791E00E943007DD
:10102000EDE7F1E011830083C28B8AE691E00E9434
:101030003007EAE6F1E011830083C28BCF911F9164
:101040000F910895789484B5826084BD84B58160E1
:1010500084BD85B5826085BD85B5816085BD809183
:101060006E00816080936E001092810080918100FB
:1010700082608093810080918100816080938100F3
:10108000809180008160809380008091B1008460B5
:101090008093B1008091B00081608093B000809116
:1010A0007A00846080937A0080917A0082608093D5
:1010B0007A0080917A00816080937A0080917A0032
:1010C000806880937A001092C100E0911902F0913B
:1010D0001A020190F081E02DA089B189D2E0DC9361
:1010E000A485B5851C92A685B7858FE38C93108E59
:1010F000A489B589C6E0CC93A289B3898C9180611B
:101100008C93A289B3898C9188608C93A289B389CE
:101110008C9180688C930288F389E02D80818F7D8B
:10112000808310921B0210921D0210921C021092DA
:1011300024021092230210922202109221028FEFB9
:101140009FEF90932602809325029093280280932C
:1011500027020E9492036093B1027093B2028093BF
:10116000B3029093B4021092AE0210922B0210922E
:101170002A0210922C0210922D021092B0021092AC
:10118000AF02809129028170826081608093290280
:10119000E091CF02F091D002D083E091CB02F091A8
:1011A000CC021082E091CD02F091CE0280E18083EA
:1011B0001092D702E091D302F091D402C083E09163
:1011C000D102F091D202808180618083E091D102CE
:1011D000F091D202808188608083E091D102F09109
:1011E000D202808180688083E091D102F091D202A6
:1011F00080818F7D80838EEB95E09093FA018093C0
:10120000F90182E696E09093FC018093FB01CAE22B
:10121000D1E004E311E061E089910E94FF020C1724
:101220001D07C9F7C3E2D1E00AE211E062E089914B
:101230000E94FF020C171D07C9F782E08093ED01A1
:101240008CED91E00E94B204C9E1D0E0D093E301BB
:10125000C093E2011092EE0183E08093DA0189EC01
:1012600091E00E94B204D093D001C093CF0184E0FA
:101270008093C70186EB91E00E94B204D093BD0138
:10128000C093BC011092C80185E08093B40183EA49
:1012900091E00E94B204D093AA01C093A9011092D8
:1012A000B50186E08093A10180E991E00E94B2043B
:1012B000D0939701C09396011092A20187E080938A
:1012C0008E018DE791E00E94B204D0938401C09317
:1012D000830110928F0188E080937B018AE691E080
:1012E0000E94B204D0937101C093700110927C01EE
:1012F00070E060E090E080E00E94C6040E94180464
:1013000064EF71E080E090E00E94600341E060E003
:1013100080E00E94F20361E080E00E94F803E0E8D0
:101320004E2E512CF2E06F2E712CEE24E394F12C12
:10133000B3E6AB2EB12CC1E060EF362E73E0272E62
:10134000D0901B0220E12D1508F47AC0E09119021B
:10135000F0911A0280819181DC01ED91FC91008471
:10136000F185E02D0995892B09F46AC08091BE02B0
:101370008E7F8093BE02E0911902F0911A02808163
:101380009181DC01ED91FC910284F385E02D0995BA
:10139000182F8D3F09F454C08091230290912402AC
:1013A000009709F06EC210931E0200911C02802F5C
:1013B0000E949E030E94AC03882351F017FD08C0D1
:1013C00000931E0210931F02F0922402E092230267
:1013D00010911E02812F0E949E03813F09F41EC2BC
:1013E00008F0B6C1803B39F068F4803921F0803ACA
:1013F00011F0803879F4E3E0F0E0F0932202E0931A
:10140000210210C2803D09F409C208F092C1803C5B
:1014100009F404C28091BE0281608093BE02E09113
:10142000F101F091F201309709F009951092240230
:1014300010922302109222021092210210921C029A
:101440008CED91E00E944D048CED91E00E943504FA
:101450008823A1F0809163018F5F833008F063C31C
:101460008093630180916301811160C360E089E032
:101470000E94D1020E9403050E94180489EC91E0A9
:101480000E944D048091D1018570853031F5109115
:1014900063018091D6019091D701A091D801B091BC
:1014A000D90160E0853F9140A105B10508F4C9C3A9
:1014B0008AE00E94D1021F5F133008F07BC31093B3
:1014C000630180916301811178C360E089E00E942B
:1014D000D1020E9403050E94180486EB91E00E944D
:1014E0004D0410916301111124C486EB91E00E9418
:1014F00035048823A1F080915D0190915E010196F1
:10150000843691050CF010C490935E0180935D01C8
:1015100080E8809311010E9403050E9418048091C5
:10152000BE0181709091C80161E0981360E08BE08A
:101530000E94D10283EA91E00E944D041091630160
:10154000111150C483EA91E00E943504882389F088
:101550001092110141E060915D0180E00E94F20370
:1015600061E0809111010E94F8030E9403050E942E
:10157000180480E991E00E944D041091630111115B
:1015800082C480E991E00E943504882389F0C093E9
:10159000110141E060915D0180E00E94F20361E091
:1015A000809111010E94F8030E9403050E94180413
:1015B0008DE791E00E944D04109163011111B4C4B4
:1015C0008DE791E00E943504882391F082E08093BA
:1015D000110141E060915D0180E00E94F20361E051
:1015E000809111010E94F8030E9403050E941804D3
:1015F0008AE691E00E944D04109163011111E5C447
:101600008AE691E00E943504882389F02092110136
:1016100041E060915D0180E00E94F20361E0809111
:1016200011010E94F8030E9403050E941804809192
:101630001101803809F045C00E94920300915F01BA
:10164000109160012091610130916201601B710B6A
:10165000820B930B643F71408105910590F18CE002
:101660000E94A80261E0892B09F060E08CE00E94F2
:10167000D1028DE00E94A80261E0892B09F060E0B0
:101680008DE00E94D1028EE00E94A80261E0892BC9
:1016900009F060E08EE00E94D1028FE00E94A80273
:1016A00061E0892B09F060E08FE00E94D1020E9486
:1016B000920360935F017093600180936101909346
:1016C000620180916301823039F50E94920300919A
:1016D0005F01109160012091610130916201601BF6
:1016E000710B820B930B6A3F710581059105A0F088
:1016F00089E00E94A80261E0892B09F060E089E09E
:101700000E94D1020E94920360935F017093600176
:101710008093610190936201E0E0F0E0EF2B09F427
:101720000FCE0E94DC01882309F405CE0E94000040
:1017300002CE803E09F45FCE803F09F06BCE50921E
:1017400022024092210210921C0280932E026AC053
:10175000873FA9F308F05BC0833F09F45FC008F43A
:101760004ACE863F09F056CE80932B0210922A0271
:1017700010922C0210922D02C093AE0210922402FD
:1017800010922302109222021092210280912B02C9
:10179000803939F480912D02811103C030E83093F3
:1017A0002B0280912B028058813630F480912A02DE
:1017B000D81611F0D11002C00E948C00909129021D
:1017C000392F317090FF3CCE892F8E7F09F438CEAF
:1017D00080912B0220E8280F213608F01FC12091AC
:1017E0002A02D21619F031E0D11030E096959230ED
:1017F00009F40DC1933009F40EC1913009F020CEE7
:1018000040912D0260912C020E940C0419CE8D3F54
:1018100008F4AACF8E3F08F0A7CFFCCD7092220229
:1018200060922102209123023091240240912102F2
:10183000509122024150510924173507D8F0809366
:101840002B021F701F5F10932A0280911F0280934A
:101850002C0210922D02F092B002E092AF02109290
:101860002402109223021092220210922102C093AD
:10187000AE028CCF2F5F3F4F309324022093230280
:10188000DFCD17FF0CC01D3F08F046C0183F08F021
:1018900046C0103F09F450C0173F09F44DC02091D5
:1018A0001E02FC01E151FE4F203F19F0273F09F0D5
:1018B0006BC017AF009121021091220298012150B4
:1018C00031098217930708F49CC090901E02B0EF74
:1018D0009B1619F0E7EF9E1259C01091AD0230929D
:1018E000AD0230922B02F0E8F0932C0210922D0200
:1018F00010922A025092B0024092AF02C093AE0200
:101900000E948C0027EF20932E0210932F027092DA
:1019100024026092230294CD1E3F08F4C0CF10939E
:101920002B0210922C0210922D0210922A02F09299
:10193000B002E092AF029BCF20912E02203F19F01F
:10194000273F09F067CD9C012F5F3F4F81519E4F8C
:10195000DC01DF961C9330922B0220932C023093F3
:101960002D0210922A023093B0022093AF02C0934E
:10197000AE021092240210922302109222021092C0
:10198000210210921C0202CF17A794CF892D0E942A
:101990009E03D82F80932B020E94AC03882339F139
:1019A000892D8F708F5F80932A0280911F02809310
:1019B0002C02809120020330110509F080E0809311
:1019C0002D021092240210922302109222021092F1
:1019D0002102C093AE02D03B39F060F4D03921F03F
:1019E000D03A11F0D03869F690921C02CFCE109206
:1019F0002A02DBCFD03DC1F3D03EB1F3D03C09F693
:101A0000F3CF0196909324028093230219CD3323C0
:101A100009F416CDF5CE311113CDF2CEE0E1E80F89
:101A2000E03108F00DCDF0E0E85EF24F0C94361096
:101A30002E0D7F0D600D4E0D200A200A280D200A64
:101A4000280D200A280D280D280D200A280D280D04
:101A5000682F89E192E00E94FE03F2CCC0902C0234
:101A6000D0902D0281E8C816D10418F050E8C52E98
:101A7000D12C0FEE11E0C8018F5E91408C159D05B1
:101A800008F0DECCD801DF966C918091190290911C
:101A90001A020E94BB030F5F1F4FEDCF10912C0263
:101AA00063EF8091190290911A020E94BB03612F8B
:101AB0006F778091190290911A020E94BB03C0CCEB
:101AC00000912D02B0E80B9F8001112480912C021F
:101AD000082B62EF8091190290911A020E94BB03B9
:101AE000602F6F778091190290911A020E94BB03B8
:101AF000000F012F001F110B1195602FD9CF60919E
:101B00002C02E0E16E9FB0011124607710912D024C
:101B10001F70162B61EF8091190290911A020E949A
:101B2000BB03612FC6CF109263019CCC8130E1F5DD
:101B300061E089E00E94D1020E9403052BE0C22EE1
:101B400021E0D22E3BE2832E31E0932E03E611E01A
:101B5000D6019D916D01F40181914F0191111EC03B
:101B600061E00E94D102D80111961C920F5F1F4FB5
:101B7000F1E1CF16F1E0DF0659F760E080E10E9465
:101B8000D10260E081E10E94D10260E082E10E9426
:101B9000D10260E080E00E94D10270CC60E00E943F
:101BA000D102F801C183E2CF823009F067CC0E94F4
:101BB000030564CC1092630184CC8130E1F561E0CF
:101BC00089E00E94D1020E9403058BE0C82E81E0CB
:101BD000D82E9BE2892E91E0992E03E611E0D601E2
:101BE0009D916D01F40181914F0191111EC061E041
:101BF0000E94D102D80111961C920F5F1F4F21E164
:101C000031E02C153D0559F760E080E10E94D102DA
:101C100060E081E10E94D10260E082E10E94D10295
:101C200060E080E00E94D10258CC60E00E94D102C6
:101C3000F801C183E2CF823009F04FCC0E94030546
:101C40004CCC8AE00E94D102111124C080915D0128
:101C500090915E01019797FD18C090935E0180936B
:101C60005D0130E8309311010E9403050E941804C1
:101C700061E08AE00E94D10264E670E080E090E0DA
:101C80000E94600360E08AE0CDCFB0925E01A09236
:101C90005D01E7CF113069F5809164018130D9F49D
:101CA00041E06FE783E30E94F20361E08AE00E9473
:101CB000D102109264018091650181110ECC41E046
:101CC00060E084E30E94F20360E08BE00E94D102B6
:101CD000C093650102CC8111EECF41E060E083E367
:101CE0000E94F20360E08AE00E94D1021093640136
:101CF000E2CF123009F0F1CB809157019091580159
:101D0000019797FD0CC090935801809357010E9452
:101D1000030562E0809157010E94F803A9CFB092B9
:101D20005801A0925701F3CF10925E0110925D010D
:101D3000EFCB1130A1F586EB91E00E9435048823AA
:101D400009F4F8CB809165018130D9F441E06FE767
:101D500084E30E94F20361E08BE00E94D1021092C2
:101D60006501809164018111E5CB41E060E083E38E
:101D70000E94F20360E08AE00E94D102C0936401F5
:101D8000D9CB8111EECF41E060E084E30E94F20301
:101D900060E08BE00E94D10210936501E2CF123027
:101DA00009F0C8CB86EB91E00E943504882309F442
:101DB000B6CB8091570190915801019684369105D8
:101DC00064F490935801809357010E94030562E0E8
:101DD000809157010E94F803A2CB109258011092F3
:101DE0005701F3CF113029F583EA91E00E943504C1
:101DF000882309F4BECB80916601813061F441E013
:101E00006FE785E30E94F20361E08CE00E94D1025B
:101E100010926601AECB8111ACCB41E060E085E36E
:101E20000E94F20360E08CE00E94D10210936601F0
:101E3000A0CB123009F09DCB83EA91E00E943504DB
:101E4000882359F080915901813099F442E06FE77D
:101E500085E30E94F203109259018091AB018170D9
:101E60009091B50161E0981360E08CE00E94D1028E
:101E700080CB8111F2CF42E060E085E30E94F20363
:101E8000C0935901EACF113029F580E991E00E9411
:101E90003504882309F48CCB80916701813061F48B
:101EA00041E06FE786E30E94F20361E08DE00E946B
:101EB000D102109267017CCB81117ACB41E060E0C6
:101EC00086E30E94F20360E08DE00E94D10210934D
:101ED00067016ECB123009F06BCB80E991E00E9474
:101EE0003504882359F080915A01813099F442E0F9
:101EF0006FE786E30E94F20310925A0180919801E5
:101F000081709091A20161E0981360E08DE00E94E1
:101F1000D1024ECB8111F2CF42E060E086E30E9415
:101F2000F203C0935A01EACF113029F58DE791E011
:101F30000E943504882309F45BCB809168018130CD
:101F400061F441E06FE787E30E94F20361E08EE015
:101F50000E94D102109268014BCB811149CB41E024
:101F600060E087E30E94F20360E08EE00E94D1020D
:101F7000109368013DCB123009F03ACB8DE791E028
:101F80000E943504882359F080915B01813099F4D7
:101F900042E06FE787E30E94F20310925B018091B9
:101FA0008501817090918F0161E0981360E08EE06F
:101FB0000E94D1021DCB8111F2CF42E060E087E3A5
:101FC0000E94F203C0935B01EACF113029F58AE643
:101FD00091E00E943504882309F429CB809169019E
:101FE000813061F441E06FE788E30E94F20361E031
:101FF0008FE00E94D1021092690119CB811117CB99
:1020000041E060E088E30E94F20360E08FE00E941C
:10201000D102109369010BCB123009F008CB8AE68C
:1020200091E00E943504882359F080915C01813051
:1020300099F442E06FE788E30E94F20310925C019A
:1020400080917201817090917C0161E0981360E051
:102050008FE00E94D102EBCA8111F2CF42E060E032
:1020600088E30E94F203C0935C01EACFEE0FFF1FEA
:102070000590F491E02D099481E090E0F8940C949F
:062080004110F894FFCFAF
:10208600ED24CE6E276BEB2DEF6F000101010101F0
:102096000180B7247376E4D6D7B4F7F60033343527
:1020A60036373802030405060708090A0B0C0D0E1D
:1020B6000F10111200000000120272019F015F0250
:0E20C600D001AE01C2010000000043043F043F
:00000001FF
