:020000040000FA
:100000000C9462000C948A000C948A000C948A0070
:100010000C948A000C948A000C948A000C948A0038
:100020000C948A000C948A000C948A000C948A0028
:100030000C948A000C948A000C948A000C948A0018
:100040000C9435060C948A000C9403060C94DD0580
:100050000C948A000C948A000C948A000C948A00F8
:100060000C948A000C948A000000000024002700F1
:100070002A0000000000250028002B0000000000DE
:1000800023002600290004040404040404040202DA
:100090000202020203030303030301020408102007
:1000A0004080010204081020010204081020000012
:1000B0000008000201000003040700000000000027
:1000C00000008F0611241FBECFEFD8E0DEBFCDBFEA
:1000D00011E0A0E0B1E0E0EDFEE102C005900D927C
:1000E000AA33B107D9F723E0AAE3B1E001C01D921A
:1000F000AA34B207E1F710E0C2E6D0E004C02197CD
:10010000FE010E945B0FC136D107C9F70E9471073B
:100110000C94660F0C940000E091DB01F091DC017F
:10012000309719F086E192E0099580911702823F9D
:1001300009F4BAC090F5803C09F499C0B8F480394C
:1001400009F44FC040F4E091DF01F091E001803804
:1001500009F44BC00895803A09F484C0E091E501A8
:10016000F091E601803B09F440C00895803E09F417
:1001700062C040F4E091E901F091EA01803D09F4A8
:100180007AC00895803F09F47DC0E091EF01F091BD
:10019000F001813F09F49BC008958A3FC1F1A8F4A2
:1001A000863F09F499C040F4E091F301F091F40125
:1001B000833F09F48CC00895883F09F1E091FB0169
:1001C000F091FC01893FF9F008958C3F51F120F145
:1001D0008E3F61F1E0910302F09104028F3F99F0AC
:1001E0000895E091E101F091E201309709F479C0BE
:1001F0004091190260911802809116020994E091D1
:10020000F701F091F801309709F46BC00994E0917F
:10021000F901F091FA01F7CFE091FD01F091FE01B3
:10022000F2CFE091FF01F0910002EDCFE0910102E9
:10023000F0910202E8CFE091EB01F091EC013097F0
:1002400009F44FC06091190220E8629FB0011124A7
:1002500060787F73809118028F77682B705280913D
:1002600016020994E091E301F091E401BECFE09120
:10027000E701F091E8013097A1F1609118028091B7
:1002800016020994E091ED01F091EE01309749F1E9
:1002900060911802709119026138710510F060E8E0
:1002A00070E08AE192E00994E091F101F091F201AD
:1002B0003097B9F08091190220E8829FC001112483
:1002C00080789F73209118022F77822B09943097A2
:1002D00041F0809118020994E091F501F091F60146
:1002E00092CF0895AF92BF92CF92DF92EF92FF929A
:1002F0000F931F93CF93DF936C017B018B01040F4E
:10030000151FEB015E01AE18BF08C017D10759F0E9
:100310006991D601ED91FC910190F081E02DC6012B
:100320000995892B79F7C501DF91CF911F910F9125
:10033000FF90EF90DF90CF90BF90AF900895FC01B9
:10034000538D448D252F30E0842F90E0821B930B3A
:10035000541710F0CF96089501970895FC01918DE0
:10036000828D981761F0A28DAE0FBF2FB11D5D96E3
:100370008C91928D9F5F9F73928F90E008958FEF85
:100380009FEF0895FC01918D828D981731F0828D39
:10039000E80FF11D858D90E008958FEF9FEF089590
:1003A000FC01918D228D892F90E0805C9F4F821BF4
:1003B00091098F73992708958BEA92E00E94D001EA
:1003C00021E0892B09F420E0822F089580E090E05D
:1003D000892B29F00E94DC0181110C940000089502
:1003E000FC01A48DA80FB92FB11DA35ABF4F2C91AA
:1003F000848D90E001968F739927848FA689B789A1
:100400002C93A089B1898C91837080648C93938D97
:10041000848D981306C00288F389E02D80818F7D3A
:1004200080830895EF92FF920F931F93CF93DF93F2
:10043000EC0181E0888F9B8D8C8D98131AC0E88920
:10044000F989808185FF15C09FB7F894EE89FF89EF
:100450006083E889F98980818370806480839FBF8D
:1004600081E090E0DF91CF911F910F91FF90EF908D
:100470000895F62E0B8D10E00F5F1F4F0F7311279D
:10048000E02E8C8D8E110CC00FB607FCFACFE889D8
:10049000F989808185FFF5CFCE010E94F001F1CF6F
:1004A000EB8DEC0FFD2FF11DE35AFF4FF0829FB74C
:1004B000F8940B8FEA89FB8980818062CFCFCF933C
:1004C000DF93EC01888D8823B9F0AA89BB89E8897C
:1004D000F9898C9185FD03C0808186FD0DC00FB622
:1004E00007FCF7CF8C9185FFF2CF808185FFEDCFA0
:1004F000CE010E94F001E9CFDF91CF9108958330C2
:1005000081F028F4813099F08230A9F00895873085
:10051000A9F08830C9F08430B1F4809180008F7DDB
:1005200003C0809180008F7780938000089584B508
:100530008F7784BD089584B58F7DFBCF8091B00007
:100540008F778093B00008958091B0008F7DF9CFB0
:10055000CF93DF93282F30E0F901E255FF4F8491CC
:10056000F901E656FF4FD491F901EA57FF4FC491C4
:10057000CC23A1F081110E947F02EC2FF0E0EE0F5E
:10058000FF1FE458FF4FA591B491EC91ED2381E05A
:1005900090E009F480E0DF91CF91089580E090E051
:1005A000FACF1F93CF93DF93282F30E0F901E25564
:1005B000FF4F8491F901E656FF4FD491F901EA57B4
:1005C000FF4FC491CC23A9F0162F81110E947F0206
:1005D000EC2FF0E0EE0FFF1FEE58FF4FA591B49106
:1005E0008FB7F894EC91111108C0D095DE23DC93FD
:1005F0008FBFDF91CF911F910895DE2BF8CFCF935E
:10060000DF9390E0FC01E656FF4F24918A579F4FFD
:10061000FC0184918823C9F090E0880F991FFC01A8
:10062000E859FF4FA591B491FC01EE58FF4FC591D9
:10063000D49161110DC09FB7F8948C9120958223BD
:100640008C938881282328839FBFDF91CF910895C1
:10065000623051F49FB7F8943C91822F80958323A8
:100660008C93E8812E2BEFCF8FB7F894EC912E2B43
:100670002C938FBFEACF3FB7F89480913F019091C0
:100680004001A0914101B091420126B5A89B05C04F
:100690002F3F19F00196A11DB11D3FBFBA2FA92F01
:1006A000982F8827BC01CD01620F711D811D911DFE
:1006B00042E0660F771F881F991F4A95D1F708956A
:1006C0008F929F92AF92BF92CF92DF92EF92FF9262
:1006D0004B015C010E943B036B017C010E943B03C8
:1006E0006C197D098E099F09683E7340810591054B
:1006F000A8F321E0821A9108A108B10888EEC80E7B
:1007000083E0D81EE11CF11C81149104A104B10402
:1007100029F7FF90EF90DF90CF90BF90AF909F9020
:100720008F9008952FB7F89460913B0170913C0130
:1007300080913D0190913E012FBF089587FF0AC02F
:100740009CE0980F923030F08D3F21F0803F18F4FC
:10075000807F089580E00895982F9F7E282F2F7C1A
:10076000203839F0803E29F081E0903C19F080E09B
:10077000089581E00895DC018D919C91DC01ED915B
:10078000FC910190F081E02D09941F93CF93DF93AA
:100790002150203118F587FF21C0D42F162FC82FE4
:1007A000622F682B80910502909106020E94BB0384
:1007B000612F6F7780910502909106020E94BB0322
:1007C000CF7EC03C59F06D2F6F77809105029091DC
:1007D0000602DF91CF911F910C94BB03DF91CF9163
:1007E0001F910895242F462F682F80EB0C94C5038A
:1007F000262F40E0682F80EC0C94C5036D3F48F431
:100800006A3F10F4683F39F4FC01808191810C94B7
:10081000BB036E3FC8F70895813E10F40C94C503E6
:10082000883F28F0682F85E092E00C94FE0308953D
:100830000F931F93CF938091490190914A010097A4
:1008400031F561E080E10E94D10260E081E10E9427
:10085000D10260E082E10E94D10260E083E10E9467
:10086000D10207E111E0C0E0F80181918F01909180
:1008700006019C1332C061E00E94D102C0930601C0
:10088000CF5FC43089F7CF911F910F9108958130C8
:10089000910531F461E080E10E94D10261E0D6CFA0
:1008A0008230910551F461E080E10E94D10261E063
:1008B00081E10E94D10261E0CDCF039791F661E022
:1008C00080E10E94D10261E081E10E94D10261E0F9
:1008D00082E10E94D10261E0C1CF60E00E94D102BA
:1008E000CFCFBF92CF92DF92EF92FF920F931F93E1
:1008F000CF93DF93D62FC42F80914F01813031F5F4
:1009000087E0E82E81E0F82E10E000E0BB24B394ED
:10091000F70181917F018D1314C0CF3709F05CC0BE
:10092000C801815B9E4F6C01FC018181813049F4DB
:1009300061E0F801EC5EFE4F81810E94D102F60178
:1009400011820F5F1F4F0630110511F7E7E0F1E04C
:1009500081E090E021E031913D1307C0CF3709F0ED
:100960004FC0DC01A150BF4F1C920196873091050A
:1009700091F780914F019FEF980F923008F047C098
:100980008D2F8F7DF9F43091490120914A018C2FF0
:1009900090E0009711F430E020E08130910511F4EF
:1009A00031E020E08230910511F432E020E0833024
:1009B000910511F0832F922F90934A018093490162
:1009C000DD2349F1DF91CF911F910F91FF90EF90BF
:1009D000DF90CF90BF900895C111B3CFC801815B64
:1009E0009E4F6C01FC0181818111ABCF60E0F80169
:1009F000EC5EFE4F81810E94D102F601B182A1CF4F
:100A0000C111B3CFDC01A150BF4F2C93AECF8111E8
:100A1000D7CFD032A9F6D0E0D0934A01C093490194
:100A2000DF91CF911F910F91FF90EF90DF90CF90CA
:100A3000BF900C941804CF93DF93C62FD0914F0131
:100A4000D11110C0609306010E941804C0930601E2
:100A50000E941804C09306010E941804C093060166
:100A60000E941804D150D23078F480910601CC2332
:100A700021F0C13029F481E001C080E0C82F02C01C
:100A8000C23029F4C0930601DF91CF910895C3309D
:100A9000A9F7F8CFFC01908592FF04C0917081E026
:100AA0002289291380E00895862F642F0C94FF0279
:100AB000FC0181890E94A80221E0892B09F420E031
:100AC000822F0895CF92DF92EF92FF920F931F93A0
:100AD000CF93DF93EC0188858B7F8887CE010E94BE
:100AE0005805182F8885869581701817B9F00E94CF
:100AF00092036A837B838C839D83888592E0892718
:100B00008887888582FB882780F9DF91CF911F91A4
:100B10000F91FF90EF90DF90CF9008950E94920385
:100B2000CA80DB80EC80FD80AB01BC014C195D0903
:100B30006E097F098E819F81B0E0A0E048175907B8
:100B40006A077B07F0F2888581701817D1F20E943E
:100B500092036A837B838C839D83888591E08927B8
:100B6000846088870E94920309851A852B853C85BD
:100B7000601B710B820B930B6D877E878F87988B21
:100B80000E94920369877A878B879C87BACFCF931D
:100B9000DF93EC0118860E945805882319F0888598
:100BA000836088870E9492036A837B838C839D8302
:100BB000DF91CF9108950E94610F1F920F920FB69F
:100BC0000F9211242F933F934F935F936F937F93D3
:100BD0008F939F93AF93BF93EF93FF938BEA92E032
:100BE0000E94F001FF91EF91BF91AF919F918F9182
:100BF0007F916F915F914F913F912F910F900FBE19
:100C00000F901F9018951F920F920FB60F921124FC
:100C10002F938F939F93EF93FF93E091BB02F091FB
:100C2000BC028081E091C102F091C20282FD1BC032
:100C300090818091C4028F5F8F732091C5028217CB
:100C400041F0E091C402F0E0E555FD4F958F8093AF
:100C5000C402FF91EF919F918F912F910F900FBE42
:100C60000F901F9018958081F4CF1F920F920FB6AE
:100C70000F9211242F933F938F939F93AF93BF9322
:100C800080913B0190913C01A0913D01B0913E01CA
:100C900030913A0123E0230F2D3758F50196A11D1D
:100CA000B11D20933A0180933B0190933C01A093A6
:100CB0003D01B0933E0180913F0190914001A09190
:100CC0004101B09142010196A11DB11D80933F01E8
:100CD00090934001A0934101B0934201BF91AF9125
:100CE0009F918F913F912F910F900FBE0F901F906A
:100CF000189526E8230F0296A11DB11DD2CFFC0145
:100D000012821382148215828AE090E09783868390
:100D1000108685E391E091838083118A08950F9373
:100D20001F93CF93EBEAF2E01382128288EE93E0F6
:100D3000A0E0B0E084839583A683B78383E291E04B
:100D40009183808385EC90E09587848784EC90E0A4
:100D50009787868780EC90E0918B808B81EC90E088
:100D6000938B828B82EC90E0958B848B86EC90E069
:100D7000978B868B118E128E138E148EF0934903EF
:100D8000E0934803EBEDF1E01182108213821282AE
:100D90001582148217821682118610861386128697
:100DA0001586148617861686118A108A138A128A67
:100DB000158A148A178A168A118E108E138E128E37
:100DC000158E148E178E168E11A210A213A212A2C7
:100DD00015A214A217A216A211A610A688E493E0E9
:100DE00093A782A714A615A616A613AA12AA15AA37
:100DF00014AA8FEF9FEF97AB86AB91AF80AF83E0E4
:100E00008093150213AE14AE15AE16AE10929A0270
:100E1000EAE1F2E080E8DF011D928A95E9F710929D
:100E20009D0210929E0210929F021092A0021092B8
:100E3000A1021092A2021092A3021092A402109298
:100E4000A5021092A6021092A7021092A802109278
:100E5000A9021092AA0288EC91E00E947F06E8ECB9
:100E6000F1E005E311E011830083C1E0C28B85EB63
:100E700091E00E947F06E5EBF1E011830083C28BD5
:100E800082EA91E00E947F06E2EAF1E011830083AA
:100E9000C28B8FE891E00E947F06EFE8F1E01183BA
:100EA0000083C28B8CE791E00E947F06ECE7F1E0C3
:100EB00011830083C28B89E691E00E947F06E9E6F8
:100EC000F1E011830083C28B86E591E00E947F06EA
:100ED000E6E5F1E011830083C28BCF911F910F9162
:100EE0000895789484B5826084BD84B5816084BDA2
:100EF00085B5826085BD85B5816085BD80916E00B8
:100F0000816080936E0010928100809181008260E8
:100F10008093810080918100816080938100809125
:100F200080008160809380008091B1008460809314
:100F3000B1008091B00081608093B00080917A0010
:100F4000846080937A0080917A00826080937A0036
:100F500080917A00816080937A0080917A00806825
:100F600080937A001092C100E0910502F091060290
:100F70000190F081E02DA089B189D2E0DC93A485B5
:100F8000B5851C92A685B7858FE38C93108EA489B6
:100F9000B589C6E0CC93A289B3898C9180618C938A
:100FA000A289B3898C9188608C93A289B3898C9132
:100FB00080688C930288F389E02D80818F7D808307
:100FC0001092070210920902109208021092100269
:100FD00010920F0210920E0210920D028FEF9FEFEF
:100FE0009093120280931102909314028093130243
:100FF0000E94920360939D0270939E0280939F02D1
:101000009093A00210929A02109217021092160268
:10101000109218021092190210929C0210929B02D8
:101020008091150281708260816080931502E09149
:10103000BB02F091BC02D083E091B702F091B802FC
:101040001082E091B902F091BA0280E1808310929F
:10105000C302E091BF02F091C002C083E091BD02E3
:10106000F091BE02808180618083E091BD02F091A9
:10107000BE02808188608083E091BD02F091BE0253
:10108000808180688083E091BD02F091BE02808102
:101090008F7D808381E794E09093E6018093E50162
:1010A0008BE195E09093E8018093E701C4E1D1E002
:1010B0000FE111E061E089910E94FF020C171D070A
:1010C000C9F7CDE0D1E004E111E062E089910E942E
:1010D000FF020C171D07C9F782E08093D90188EC45
:1010E00091E00E94C705C9E1D0E0D093CF01C09341
:1010F000CE011092DA0183E08093C60185EB91E086
:101100000E94C705D093BC01C093BB0184E08093CB
:10111000B30182EA91E00E94C705D093A901C09370
:10112000A8011092B40185E08093A0018FE891E0BE
:101130000E94C705D0939601C09395011092A1011A
:1011400086E080938D018CE791E00E94C705D093E3
:101150008301C093820110928E0187E080937A010F
:1011600089E691E00E94C705D0937001C0936F019A
:1011700010927B0188E08093670186E591E00E94F0
:10118000C705D0935D01C0935C01109268010E9475
:10119000180464EF71E080E090E00E94600341E099
:1011A00060E080E00E94F20361E080E00E94F803CA
:1011B000E0E84E2E512CF2E06F2E712CEE24E394D9
:1011C000F12CB3E0AB2EB12CC1E060EF362E73E012
:1011D000272ED090070220E12D1508F478C0E09169
:1011E0000502F091060280819181DC01ED91FC9174
:1011F0000084F185E02D0995892B09F468C0809160
:10120000AA028E7F8093AA02E0910502F091060265
:1012100080819181DC01ED91FC910284F385E02DC8
:101220000995182F8D3F09F452C080910F029091BB
:101230001002009709F05EC210930A0200910802A2
:10124000802F0E949E030E94AC03882351F017FD5B
:1012500008C000930A0210930B02F0921002E09271
:101260000F0210910A02812F0E949E03813F09F410
:101270000EC208F0A6C1803B39F058F4803921F045
:10128000803A11F0803869F4B0920E02A0920D02FB
:1012900002C2803D09F4FBC108F084C1803C09F41E
:1012A000F6C18091AA0281608093AA02E091DD01DB
:1012B000F091DE01309709F009951092100210921A
:1012C0000F0210920E0210920D021092080288EC8A
:1012D00091E00E94620588EC91E00E944A05882313
:1012E00091F080914F018F5F833008F053C380935A
:1012F0004F0180914F01811150C360E089E00E944D
:10130000D1020E94180485EB91E00E946205809151
:10131000BD018570853021F510914F018091C2018A
:101320009091C301A091C401B091C50160E0853FD7
:101330009140A105B10508F4ADC38AE00E94D10235
:101340001F5F133008F066C310934F0180914F0167
:10135000811163C360E089E00E94D1020E941804F9
:1013600082EA91E00E94620510914F01111108C4B8
:1013700082EA91E00E944A05882391F08091490118
:1013800090914A010196843091050CF0F4C390933A
:101390004A0180934901B0E8B09306010E94180405
:1013A0008091AA0181709091B40161E0981360E08E
:1013B0008BE00E94D1028FE891E00E9462051091BB
:1013C0004F01111134C48FE891E00E944A0588232F
:1013D00079F01092060141E06091490180E00E949D
:1013E000F20361E0809106010E94F8030E94180454
:1013F0008CE791E00E94620510914F01111168C4C1
:101400008CE791E00E944A05882379F0C093060199
:1014100041E06091490180E00E94F20361E0809127
:1014200006010E94F8030E94180489E691E00E94D8
:10143000620510914F0111119CC489E691E00E9450
:101440004A05882381F082E08093060141E06091A3
:10145000490180E00E94F20361E0809106010E9450
:10146000F8030E94180486E591E00E94620510913D
:101470004F011111CFC486E591E00E944A058823EF
:1014800079F02092060141E06091490180E00E94DC
:10149000F20361E0809106010E94F8030E941804A3
:1014A00080910601803809F045C00E9492030091A6
:1014B0004B0110914C0120914D0130914E01601B68
:1014C000710B820B930B643F71408105910590F184
:1014D0008CE00E94A80261E0892B09F060E08CE0BA
:1014E0000E94D1028DE00E94A80261E0892B09F0E0
:1014F00060E08DE00E94D1028EE00E94A80261E0CF
:10150000892B09F060E08EE00E94D1028FE00E94FA
:10151000A80261E0892B09F060E08FE00E94D1020F
:101520000E94920360934B0170934C0180934D0194
:1015300090934E0180914F01823039F50E949203C1
:1015400000914B0110914C0120914D0130914E01C1
:10155000601B710B820B930B6A3F7105810591052E
:10156000A0F089E00E94A80261E0892B09F060E008
:1015700089E00E94D1020E94920360934B01709314
:101580004C0180934D0190934E0180E090E0892BB7
:1015900009F41FCE0E94DC01882309F415CE0E94B5
:1015A000000012CE803E09F46FCE803F09F079CE64
:1015B00050920E0240920D021092080280931A027D
:1015C0006AC0873FA9F308F05BC0833F09F45FC09E
:1015D00008F45ACE863F09F064CE80931702109229
:1015E00016021092180210921902C0939A021092D9
:1015F000100210920F0210920E0210920D028091B2
:101600001702803939F480911902811103C0A0E8D2
:10161000A0931702809117028058813630F4809190
:101620001602D81611F0D11002C00E948C009091C1
:101630001502392F317090FF4ACE892F8E7F09F421
:1016400046CE8091170220E8280F213608F01EC1EF
:1016500020911602D21619F031E0D11030E09695A3
:10166000923009F40CC1933009F40DC1913009F0A6
:101670002ECE40911902609118020E940C0427CED0
:101680008D3F08F4AACF8E3F08F0A7CF0ACE709204
:101690000E0260920D0220910F02309110024091D3
:1016A0000D0250910E024150510924173507D8F010
:1016B000809317021F701F5F1093160280910B0218
:1016C0008093180210921902F0929C02E0929B0201
:1016D0001092100210920F0210920E0210920D0240
:1016E000C0939A028CCF2F5F3F4F3093100220930C
:1016F0000F02EDCD17FF0CC01D3F08F046C0183F8C
:1017000008F046C0103F09F450C0173F09F44DC01F
:1017100020910A02FC01E552FE4F203F19F0273FBD
:1017200009F06AC017AF00910D0210910E029801E6
:10173000215031098217930708F49BC090900A0248
:10174000F0EF9F1619F027EF921258C010919902EE
:10175000309299023092170280E88093180210921A
:1017600019021092160250929C0240929B02C09362
:101770009A020E948C0097EF90931A0210931B021A
:101780007092100260920F02A2CD1E3F08F4C0CFEB
:10179000109317021092180210921902109216025A
:1017A000F0929C02E0929B029BCF20911A02203F74
:1017B00019F0273F09F075CD9C012F5F3F4F8552EF
:1017C0009E4FFC0117AF30921702209318023093FE
:1017D00019021092160230939C0220939B02C09330
:1017E0009A021092100210920F0210920E021092A2
:1017F0000D021092080203CF17A795CF892D0E94E2
:101800009E03D82F809317020E94AC03882339F1DE
:10181000892D8F708F5F8093160280910B028093C9
:10182000180280910C020330110509F080E08093CA
:1018300019021092100210920F0210920E021092D2
:101840000D02C0939A02D03B39F060F4D03921F0F8
:10185000D03A11F0D03869F690920802D0CE1092AA
:101860001602DBCFD03DC1F3D03EB1F3D03C09F638
:10187000F3CF01969093100280930F0228CD33236B
:1018800009F425CDF6CE311122CDF3CEE0E1E80FFB
:10189000E03108F01CCDF0E0E05BF34F0C945B0FFF
:1018A000660CB60C970C850C67096709600C670914
:1018B000600C6709600C600C600C6709600C600CC0
:1018C000682F85E092E00E94FE0301CDC0901802CF
:1018D000D0901902B1E8CB16D10418F050E8C52E0B
:1018E000D12C0BED11E0C8018B5D91408C159D054D
:1018F00008F0EDCCF80167AD8091050290910602E9
:101900000E94BB030F5F1F4FEECF1091180263EFD1
:1019100080910502909106020E94BB03612F6F77B0
:1019200080910502909106020E94BB03D0CC0091E9
:101930001902F0E80F9F8001112480911802082BF2
:1019400062EF80910502909106020E94BB03602F16
:101950006F7780910502909106020E94BB03000FF1
:10196000012F001F110B1195602FD9CF6091180224
:1019700020E1629FB00111246077109119021F705D
:10198000162B61EF80910502909106020E94BB0325
:10199000612FC6CF10924F01ACCC813009F0B3CC8F
:1019A00061E089E00E94D10220E0C22E21E0D22E27
:1019B00035E1832E31E0932E0FE411E0D6019D91A5
:1019C0006D01F40181914F0191111EC061E00E94EF
:1019D000D102D80111961C920F5F1F4FF6E0CF166F
:1019E000F1E0DF0659F760E080E10E94D10260E09B
:1019F00081E10E94D10260E082E10E94D10260E0B8
:101A000083E10E94D1027FCC60E00E94D102F80104
:101A1000C183E2CF10924F0199CC813009F0A0CC64
:101A200061E089E00E94D10280E0C82E81E0D82EDA
:101A300095E1892E91E0992E0FE411E0D6019D9158
:101A40006D01F40181914F0191111EC061E00E946E
:101A5000D102D80111961C920F5F1F4F86E091E0D2
:101A60008C159D0559F760E080E10E94D10260E08D
:101A700081E10E94D10260E082E10E94D10260E037
:101A800083E10E94D1026CCC60E00E94D102F80197
:101A9000C183E2CF8AE00E94D102111122C080915D
:101AA000490190914A01019797FD16C090934A0110
:101AB0008093490190E8909306010E94180461E028
:101AC0008AE00E94D10264E670E080E090E00E942B
:101AD000600360E08AE0D5CFB0924A01A09249014C
:101AE000E9CF113069F5809150018130D9F441E09E
:101AF0006FE783E30E94F20361E08AE00E94D10273
:101B0000109250018091510181112ACC41E060E096
:101B100084E30E94F20360E08BE00E94D102C09354
:101B200051011ECC8111EECF41E060E083E30E94C1
:101B3000F20360E08AE00E94D10210935001E2CFEC
:101B4000123009F00DCC809143019091440101972E
:101B500097FD0AC0909344018093430162E0809115
:101B600043010E94F803ABCFA3E6B0E0B093440179
:101B7000A0934301F3CF10924A01109249010BCC7C
:101B80001130A1F582EA91E00E944A05882309F408
:101B900012CC809151018130D9F441E06FE784E3A8
:101BA0000E94F20361E08BE00E94D1021092510189
:101BB000809150018111FFCB41E060E083E30E94FE
:101BC000F20360E08AE00E94D102C0935001F3CB9F
:101BD0008111EECF41E060E084E30E94F20360E017
:101BE0008BE00E94D10210935101E2CF123009F034
:101BF000E2CB82EA91E00E944A05882309F4D0CB27
:101C0000809143019091440101968436910554F4EA
:101C1000909344018093430162E0809143010E94CC
:101C2000F803BECB1092440110924301F5CF11305E
:101C300029F58FE891E00E944A05882309F4D8CB62
:101C400080915201813061F441E06FE785E30E94A9
:101C5000F20361E08CE00E94D10210925201C8CBE5
:101C60008111C6CB41E060E085E30E94F20360E0B1
:101C70008CE00E94D10210935201BACB123009F0CD
:101C8000B7CB8FE891E00E944A05882359F08091F4
:101C90004501813099F442E06FE785E30E94F20349
:101CA000109245018091970181709091A10161E0AE
:101CB000981360E08CE00E94D1029ACB8111F2CFA0
:101CC00042E060E085E30E94F203C0934501EACF61
:101CD000113029F58CE791E00E944A05882309F428
:101CE000A4CB80915301813061F441E06FE786E33A
:101CF0000E94F20361E08DE00E94D1021092530134
:101D000094CB811192CB41E060E086E30E94F20324
:101D100060E08DE00E94D1021093530186CB123017
:101D200009F083CB8CE791E00E944A05882359F0A3
:101D300080914601813099F442E06FE786E30E948A
:101D4000F2031092460180918401817090918E017E
:101D500061E0981360E08DE00E94D10266CB8111B2
:101D6000F2CF42E060E086E30E94F203C0934601B6
:101D7000EACF113029F589E691E00E944A058823CF
:101D800009F471CB80915401813061F441E06FE737
:101D900087E30E94F20361E08EE00E94D10210927C
:101DA000540161CB81115FCB41E060E087E30E9489
:101DB000F20360E08EE00E94D1021093540153CBF5
:101DC000123009F050CB89E691E00E944A05882341
:101DD00059F080914701813099F442E06FE787E341
:101DE0000E94F203109247018091710181709091DD
:101DF0007B0161E0981360E08EE00E94D10233CB5A
:101E00008111F2CF42E060E087E30E94F203C093C9
:101E10004701EACF113029F586E591E00E944A0595
:101E2000882309F43DCB80915501813061F441E074
:101E30006FE788E30E94F20361E08FE00E94D10225
:101E4000109255012DCB81112BCB41E060E088E34E
:101E50000E94F20360E08FE00E94D10210935501CE
:101E60001FCB123009F01CCB86E591E00E944A0599
:101E7000882359F080914801813099F442E06FE75E
:101E800088E30E94F2031092480180915E01817004
:101E90009091680161E0981360E08FE00E94D102A8
:101EA000FFCA8111F2CF42E060E088E30E94F203B2
:101EB000C0934801EACFEE0FFF1F0590F491E02D8B
:101EC000099481E090E0F8940C94660FF894FFCFA9
:101ED0000101010101018033343536373802030432
:101EE00005060708090A0B0C0D0E0F10111213003E
:101EF000000000120272019F015F02D001AE01C218
:0A1F00000100000000580554050020
:107800000C94343C0C94513C0C94513C0C94513CE1
:107810000C94513C0C94513C0C94513C0C94513CB4
:107820000C94513C0C94513C0C94513C0C94513CA4
:107830000C94513C0C94513C0C94513C0C94513C94
:107840000C94513C0C94513C0C94513C0C94513C84
:107850000C94513C0C94513C0C94513C0C94513C74
:107860000C94513C0C94513C11241FBECFEFD8E036
:10787000DEBFCDBF11E0A0E0B1E0ECE9FFE702C060
:1078800005900D92A230B107D9F712E0A2E0B1E065
:1078900001C01D92AD30B107E1F70E942D3D0C945F
:1078A000CC3F0C94003C982F959595959595959582
:1078B000905D8F708A307CF0282F295A8091C0000B
:1078C00085FFFCCF9093C6008091C00085FFFCCF60
:1078D0002093C6000895282F205DF0CF982F809127
:1078E000C00085FFFCCF9093C6000895EF92FF92F1
:1078F0000F931F93EE24FF2487018091C00087FD22
:1079000017C00894E11CF11C011D111D81E4E8164B
:1079100082E4F8068FE0080780E0180770F3E09132
:107920000401F091050109958091C00087FFE9CF1E
:107930008091C6001F910F91FF90EF9008950E94D3
:10794000763C982F8091C00085FFFCCF9093C600B5
:1079500091362CF490330CF09053892F089597555D
:10796000892F08951F930E949F3C182F0E949F3CCF
:107970001295107F810F1F9108951F93182F882350
:1079800021F00E94763C1150E1F71F9108951F935A
:10799000182F0E94763C803249F0809103018F5F5E
:1079A000809303018530C1F01F9108958091C0003C
:1079B00085FFFCCF84E18093C6008091C00085FFE5
:1079C000FCCF1093C6008091C00085FFFCCF80E102
:1079D0008093C6001F910895E0910401F091050184
:1079E00009951F9108950E94763C803241F0809164
:1079F00003018F5F80930301853081F008958091AA
:107A0000C00085FFFCCF84E18093C6008091C00058
:107A100085FFFCCF80E18093C6000895E0910401CA
:107A2000F09105010995089540E951E08823A1F0FE
:107A30002D9A28EE33E0FA013197F1F721503040CA
:107A4000D1F72D9828EE33E0FA013197F1F7215064
:107A50003040D1F7815061F708953F924F925F9285
:107A60006F927F928F929F92AF92BF92CF92DF924E
:107A7000EF92FF920F931F93CF93DF93000080E16B
:107A80008093C4001092C50088E18093C10086E015
:107A90008093C2005098589A259A81E00E94143D24
:107AA00024E1F22E9EE1E92E85E9D82E0FE0C02ECA
:107AB00010E1B12EAA24A394B1E49B2EA6E58A2E50
:107AC000F2E57F2EE0E26E2E79E4572E63E5462E36
:107AD00050E5352E0E94763C8033B1F18133B9F107
:107AE000803409F46FC0813409F476C0823409F41B
:107AF00085C0853409F488C0803531F1823521F1A3
:107B0000813511F1853509F485C0863509F48DC0BC
:107B1000843609F496C0843709F403C1853709F423
:107B200072C1863709F466C0809103018F5F80932C
:107B30000301853079F6E0910401F0910501099582
:107B40000E94763C803351F60E94F33CC3CF0E94E2
:107B5000763C803249F78091C00085FFFCCFF092DF
:107B6000C6008091C00085FFFCCF9092C600809136
:107B7000C00085FFFCCF8092C6008091C00085FFC9
:107B8000FCCF7092C6008091C00085FFFCCF609250
:107B9000C6008091C00085FFFCCF5092C600809146
:107BA000C00085FFFCCF4092C6008091C00085FFD9
:107BB000FCCF3092C6008091C00085FFFCCFB09210
:107BC000C60088CF0E94763C863808F4BDCF0E945C
:107BD000763C0E94F33C7ECF0E94763C803809F4CC
:107BE0009CC0813809F40BC1823809F43CC1883942
:107BF00009F48FC080E00E94C73C6CCF84E10E94F2
:107C0000BD3C0E94F33C66CF85E00E94BD3C0E94D3
:107C1000F33C60CF0E94763C809306010E94763C44
:107C2000809307010E94F33C55CF0E94763C80333D
:107C300009F41DC183E00E94BD3C80E00E94C73C66
:107C400049CF0E94763C809309020E94763C809343
:107C5000080280910C028E7F80930C020E94763C79
:107C6000853409F415C18091080290910902892B8D
:107C700089F000E010E00E94763CF801E85FFE4FDA
:107C800080830F5F1F4F80910802909109020817AF
:107C9000190788F30E94763C803209F045CF809125
:107CA0000C0280FF01C16091060170910701660F0F
:107CB000771F7093070160930601A0910802B091AD
:107CC00009021097C9F0E8E0F1E09B01AD014E0F09
:107CD0005F1FF999FECF32BD21BD819180BDFA9A17
:107CE000F99A2F5F3F4FE417F50799F76A0F7B1F4B
:107CF00070930701609306018091C00085FFFCCF5F
:107D0000F092C6008091C00085FFFCCFB092C60003
:107D1000E1CE83E00E94C73CDDCE82E00E94C73CFA
:107D2000D9CE0E94763C809309020E94763C8093D3
:107D300008028091060190910701880F991F909386
:107D40000701809306010E94763C853409F4A6C0A1
:107D500080910C028E7F80930C020E94763C8032D0
:107D600009F0B8CE8091C00085FFFCCFF092C6002C
:107D7000609108027091090261157105B9F140E046
:107D800050E080910C02A82FA170B82FB27011C0E2
:107D9000BB2309F45CC0E0910601F0910701319624
:107DA000F0930701E09306014F5F5F4F46175707B7
:107DB000E8F4AA2369F3F999FECF209106013091E6
:107DC000070132BD21BDF89A90B58091C00085FFB2
:107DD000FCCF9093C6002F5F3F4F30930701209355
:107DE00006014F5F5F4F4617570718F38091C00099
:107DF00085FDE5CE8091C00085FFF8CFE0CE81E023
:107E00000E94C73C67CE0E94763C803209F08CCE3F
:107E10008091C00085FFFCCFF092C6008091C00029
:107E200085FFFCCFE092C6008091C00085FFFCCFAB
:107E3000D092C6008091C00085FFFCCFC092C600E2
:107E40008091C00085FFFCCFB092C60043CEE09188
:107E50000601F091070194918091C00085FFFCCF4D
:107E60009093C6009CCF80E10E94C73C33CE0E9415
:107E7000763C0E94763C182F0E94763C112309F430
:107E800083C0113009F484C08FE00E94C73C22CE29
:107E900080910C02816080930C02E5CE80910C02EF
:107EA000816080930C0259CF809107018823880F4D
:107EB000880B8A2180930B02809106019091070123
:107EC000880F991F90930701809306018091080203
:107ED00080FF09C080910802909109020196909359
:107EE000090280930802F894F999FECF1127E091D6
:107EF0000601F0910701C8E0D1E08091080290915D
:107F00000902103091F40091570001700130D9F34B
:107F100003E000935700E89500915700017001308D
:107F2000D9F301E100935700E89509901990009169
:107F3000570001700130D9F301E000935700E89534
:107F40001395103498F011270091570001700130FB
:107F5000D9F305E000935700E895009157000170B0
:107F60000130D9F301E100935700E895329602976A
:107F700009F0C7CF103011F00296E5CF112480919F
:107F8000C00085FFB9CEBCCE8EE10E94C73CA2CD19
:0E7F900085E90E94C73C9ECDF894FFCF80008B
:00000001FF
