:100000000C9462000C948A000C948A000C948A0070
:100010000C948A000C948A000C948A000C948A0038
:100020000C948A000C948A000C948A000C948A0028
:100030000C948A000C948A000C948A000C948A0018
:100040000C94C3080C948A000C9491080C946B08CF
:100050000C948A000C948A000C948A000C948A00F8
:100060000C948A000C948A000000000024002700F1
:100070002A0000000000250028002B0000000000DE
:1000800023002600290004040404040404040202DA
:100090000202020203030303030301020408102007
:1000A0004080010204081020010204081020000012
:1000B0000008000201000003040700000000000027
:1000C00000001D0911241FBECFEFD8E0DEBFCDBF59
:1000D00011E0A0E0B1E0E6E8F1E202C005900D9287
:1000E000A234B107D9F723E0A2E4B1E001C01D9228
:1000F000A235B207E1F710E0C2E6D0E004C02197D4
:10010000FE010E94B610C136D107C9F70E94FF094F
:100110000C94C1100C940000E091E301F091E40113
:10012000309719F08EE192E0099580911F02823F8D
:1001300009F4BAC090F5803C09F499C0B8F480394C
:1001400009F44FC040F4E091E701F091E8018038F4
:1001500009F44BC00895803A09F484C0E091ED01A0
:10016000F091EE01803B09F440C00895803E09F40F
:1001700062C040F4E091F101F091F201803D09F498
:100180007AC00895803F09F47DC0E091F701F091B5
:10019000F801813F09F49BC008958A3FC1F1A8F49A
:1001A000863F09F499C040F4E091FB01F091FC0115
:1001B000833F09F48CC00895883F09F1E091030260
:1001C000F0910402893FF9F008958C3F51F120F13C
:1001D0008E3F61F1E0910B02F0910C028F3F99F09C
:1001E0000895E091E901F091EA01309709F479C0AE
:1001F000409121026091200280911E020994E091B9
:10020000FF01F0910002309709F46BC00994E0916E
:100210000102F0910202F7CFE0910502F09106028F
:10022000F2CFE0910702F0910802EDCFE0910902D0
:10023000F0910A02E8CFE091F301F091F4013097D8
:1002400009F44FC06091210220E8629FB00111249F
:1002500060787F73809120028F77682B7052809135
:100260001E020994E091EB01F091EC01BECFE09108
:10027000EF01F091F0013097A1F16091200280919F
:100280001E020994E091F501F091F601309749F1D1
:1002900060912002709121026138710510F060E8D0
:1002A00070E082E292E00994E091F901F091FA01A4
:1002B0003097B9F08091210220E8829FC00111247B
:1002C00080789F73209120022F77822B099430979A
:1002D00041F0809120020994E091FD01F091FE012E
:1002E00092CF0895AF92BF92CF92DF92EF92FF929A
:1002F0000F931F93CF93DF936C017B018B01040F4E
:10030000151FEB015E01AE18BF08C017D10759F0E9
:100310006991D601ED91FC910190F081E02DC6012B
:100320000995892B79F7C501DF91CF911F910F9125
:10033000FF90EF90DF90CF90BF90AF900895FC01B9
:10034000538D448D252F30E0842F90E0821B930B3A
:10035000541710F0CF96089501970895FC01918DE0
:10036000828D981761F0A28DAE0FBF2FB11D5D96E3
:100370008C91928D9F5F9F73928F90E008958FEF85
:100380009FEF0895FC01918D828D981731F0828D39
:10039000E80FF11D858D90E008958FEF9FEF089590
:1003A000FC01918D228D892F90E0805C9F4F821BF4
:1003B00091098F739927089583EB92E00E94D001F1
:1003C00021E0892B09F420E0822F089580E090E05D
:1003D000892B29F00E94DC0181110C940000089502
:1003E000FC01A48DA80FB92FB11DA35ABF4F2C91AA
:1003F000848D90E001968F739927848FA689B789A1
:100400002C93A089B1898C91837080648C93938D97
:10041000848D981306C00288F389E02D80818F7D3A
:1004200080830895EF92FF920F931F93CF93DF93F2
:10043000EC0181E0888F9B8D8C8D98131AC0E88920
:10044000F989808185FF15C09FB7F894EE89FF89EF
:100450006083E889F98980818370806480839FBF8D
:1004600081E090E0DF91CF911F910F91FF90EF908D
:100470000895F62E0B8D10E00F5F1F4F0F7311279D
:10048000E02E8C8D8E110CC00FB607FCFACFE889D8
:10049000F989808185FFF5CFCE010E94F001F1CF6F
:1004A000EB8DEC0FFD2FF11DE35AFF4FF0829FB74C
:1004B000F8940B8FEA89FB8980818062CFCFCF933C
:1004C000DF93EC01888D8823B9F0AA89BB89E8897C
:1004D000F9898C9185FD03C0808186FD0DC00FB622
:1004E00007FCF7CF8C9185FFF2CF808185FFEDCFA0
:1004F000CE010E94F001E9CFDF91CF9108958330C2
:1005000081F028F4813099F08230A9F00895873085
:10051000A9F08830C9F08430B1F4809180008F7DDB
:1005200003C0809180008F7780938000089584B508
:100530008F7784BD089584B58F7DFBCF8091B00007
:100540008F778093B00008958091B0008F7DF9CFB0
:10055000CF93DF93282F30E0F901E255FF4F8491CC
:10056000F901E656FF4FD491F901EA57FF4FC491C4
:10057000CC23A1F081110E947F02EC2FF0E0EE0F5E
:10058000FF1FE458FF4FA591B491EC91ED2381E05A
:1005900090E009F480E0DF91CF91089580E090E051
:1005A000FACF1F93CF93DF93282F30E0F901E25564
:1005B000FF4F8491F901E656FF4FD491F901EA57B4
:1005C000FF4FC491CC23A9F0162F81110E947F0206
:1005D000EC2FF0E0EE0FFF1FEE58FF4FA591B49106
:1005E0008FB7F894EC91111108C0D095DE23DC93FD
:1005F0008FBFDF91CF911F910895DE2BF8CFCF935E
:10060000DF9390E0FC01E656FF4F24918A579F4FFD
:10061000FC0184918823C9F090E0880F991FFC01A8
:10062000E859FF4FA591B491FC01EE58FF4FC591D9
:10063000D49161110DC09FB7F8948C9120958223BD
:100640008C938881282328839FBFDF91CF910895C1
:10065000623051F49FB7F8943C91822F80958323A8
:100660008C93E8812E2BEFCF8FB7F894EC912E2B43
:100670002C938FBFEACF3FB7F894809147019091B8
:100680004801A0914901B0914A0126B5A89B05C037
:100690002F3F19F00196A11DB11D3FBFBA2FA92F01
:1006A000982F8827BC01CD01620F711D811D911DFE
:1006B00042E0660F771F881F991F4A95D1F708956A
:1006C0008F929F92AF92BF92CF92DF92EF92FF9262
:1006D0004B015C010E943B036B017C010E943B03C8
:1006E0006C197D098E099F09683E7340810591054B
:1006F000A8F321E0821A9108A108B10888EEC80E7B
:1007000083E0D81EE11CF11C81149104A104B10402
:1007100029F7FF90EF90DF90CF90BF90AF909F9020
:100720008F9008952FB7F894609143017091440120
:1007300080914501909146012FBF089587FF0AC01F
:100740009CE0980F923030F08D3F21F0803F18F4FC
:10075000807F089580E00895982F9F7E282F2F7C1A
:10076000203839F0803E29F081E0903C19F080E09B
:10077000089581E00895DC018D919C91DC01ED915B
:10078000FC910190F081E02D09941F93CF93DF93AA
:100790002150203118F587FF21C0D42F162FC82FE4
:1007A000622F682B80910D0290910E020E94BB0374
:1007B000612F6F7780910D0290910E020E94BB0312
:1007C000CF7EC03C59F06D2F6F7780910D029091D4
:1007D0000E02DF91CF911F910C94BB03DF91CF915B
:1007E0001F910895242F462F682F80EB0C94C5038A
:1007F000262F40E0682F80EC0C94C5036D3F48F431
:100800006A3F10F4683F39F4FC01808191810C94B7
:10081000BB036E3FC8F70895813E10F40C94C503E6
:10082000883F28F0682F8DE092E00C94FE03089535
:10083000CF93DF93CCE1D1E060E089910E94D102B7
:1008400081E0C332D807C1F7DF91CF9108950F93AC
:100850001F93CF930FE111E0C0E0F80181918F0168
:1008600090910E019C130CC061E00E94D102C093D4
:100870000E01CF5FC43089F7CF911F910F9108957A
:1008800060E00E94D102F5CF0F931F93CF93909118
:100890005701933069F5C82F0E94920300915301CC
:1008A000109154012091550130915601601B710B3C
:1008B000820B930B6A3F710581059105C8F0EC2FFF
:1008C000F0E0E45EFE4FC0818C2F0E94A80261E040
:1008D000892B09F060E08C2F0E94D1020E949203C4
:1008E0006093530170935401809355019093560186
:1008F000CF911F910F9108950F931F9380915701EE
:100900008230D9F50E949203009153011091540155
:100910002091550130915601AB01BC01401B510B98
:10092000620B730B8091020190910301092E000C60
:10093000AA0BBB0B481759076A077B07F0F089E041
:100940000E94A80261E0892B09F060E089E00E9422
:10095000D1028DE00E94A80261E0892B09F060E0DD
:100960008DE00E94D1020E94920360935301709324
:10097000540180935501909356011F910F91089552
:100980008091510190915201009781F461E080E1E2
:100990000E94D10260E081E10E94D10260E082E128
:1009A0000E94D10260E083E10C94D1028130910574
:1009B00031F461E080E10E94D10261E0ECCF82304D
:1009C000910551F461E080E10E94D10261E081E192
:1009D0000E94D10261E0E3CF039771F461E080E10E
:1009E0000E94D10261E081E10E94D10261E082E1D6
:1009F0000E94D10261E0D7CF0895AF92BF92DF92FB
:100A0000EF92FF920F931F93CF93DF93D62FC42FB4
:100A100080915701813051F58FE0E82E81E0F82E6A
:100A200001E010E0DD24D394F70181917F018D1363
:100A300018C0CF3709F048C0C801895A9E4F5C01E1
:100A4000FC018081813069F461E0F801E45EFE4FD1
:100A500080810E94D102F5011082F801E95FFE4F0A
:100A600010820F5F1F4F07301105F1F640915701BB
:100A7000413009F448C0EFE0F1E081E090E021E08E
:100A800031913D1306C0CF37B9F5DC01A95FBE4FE8
:100A90001C9201968730910599F7411134C0DF7D92
:100AA00009F064C0D0E0D0935201C09351010E947C
:100AB0002704DF91CF911F910F91FF90EF90DF906E
:100AC000BF90AF900C94C004C111CBCFC801895A1C
:100AD0009E4F5C01FC0180818111C3CF60E0F80171
:100AE000E45EFE4F80810E94D102F501D082F801C0
:100AF000E95FFE4FD082B5CFC111CBCFDC01A95F3A
:100B0000BE4F2C93C6CF8D2F8F7DE9F430915101CC
:100B1000209152018C2F90E0009711F430E020E0FA
:100B20008130910511F431E020E08230910511F41B
:100B300032E020E08330910511F0832F922F9093C3
:100B4000520180935101433089F4DB3779F4C111AC
:100B50000DC00E94C004CCE1D1E003E211E060E0EE
:100B600089910E94D1020C171D07C9F7DF91CF911F
:100B70001F910F91FF90EF90DF90BF90AF9008957D
:100B8000CF93DF93C62F8091570181110CC0D4E021
:100B9000C0930E010E9427040E94C004D150C1F7E7
:100BA000DF91CF91089580910E01662321F061308D
:100BB00029F481E001C080E0C82F02C0623019F43E
:100BC000C0930E01EDCF6330B9F7FACFDF92EF9209
:100BD000FF920F931F93CF93DF9380915701811161
:100BE00012C00E9418040E94C0040E94270441E021
:100BF00060E086E7DF91CF911F910F91FF90EF901A
:100C0000DF900C94F203813009F044C00E94180474
:100C10000E94C00461E089E00E94D10241E060E0EE
:100C200086E70E94F20308E011E08DE1E82E81E002
:100C3000F82EC7E5D1E0DD24D394F80191918F011E
:100C4000F70181917F01911120C061E00E94D102E2
:100C500019822196F1E00E301F0779F760E080E1FC
:100C60000E94D10260E081E10E94D10260E082E155
:100C70000E94D10260E083E1DF91CF911F910F913B
:100C8000FF90EF90DF900C94D10260E00E94D102BF
:100C9000D982DFCF823089F40E9418040E94C004F8
:100CA0008091040161E0882321F0813009F09FCF19
:100CB00060E08CE00E94D1029ACF833081F40E94E0
:100CC000180441E06FE786E70E94F203DF91CF91BD
:100CD0001F910F91FF90EF90DF900C94C004DF9173
:100CE000CF911F910F91FF90EF90DF900895CF93D8
:100CF000C0915701C11113C083E080930E0141E000
:100D00006091510180E00E94F20361E080910E0148
:100D10000E94F8030E94C004CF910C942704C130B4
:100D200019F580915D01813079F441E06FE788E346
:100D30000E94F20361E08FE00E94D10210925D01F7
:100D400010920D01CF9108958111FCCF41E060E038
:100D500088E30E94F20360E08FE00E94D102C0931A
:100D60005D01C0930D01EECFC23061F780910701A4
:100D70008130B1F442E06FE788E30E94F20361E062
:100D80008FE00E94D10264E670E080E090E00E9473
:100D9000600360E08FE00E94D10210920701D2CF81
:100DA0008111D0CF42E060E088E30E94F20361E06D
:100DB0008FE00E94D10264E670E080E090E00E9443
:100DC000600360E08FE00E94D10281E08093070120
:100DD000B9CFCF93C0915701C11113C082E0809366
:100DE0000E0141E06091510180E00E94F20361E058
:100DF00080910E010E94F8030E94C004CF910C94D0
:100E00002704C13019F580915C01813079F441E00B
:100E10006FE787E30E94F20361E08EE00E94D10257
:100E200010925C0110920C01CF9108958111FCCFBA
:100E300041E060E087E30E94F20360E08EE00E9400
:100E4000D102C0935C01C0930C01EECFC23061F7B8
:100E500080910601813061F442E06FE787E30E94F0
:100E6000F20361E08EE00E94D10210920601DCCF15
:100E70008111DACF42E060E087E30E94F20360E094
:100E80008EE00E94D10281E080930601CDCFFF92D7
:100E90000F931F93CF93DF9380915701833009F015
:100EA0006DC0C42FF62E453108F06EC081E00E945F
:100EB00044048BEE8C0F843108F06BC082E00E94FA
:100EC000440487ED8C0F853108F068C083E00E94F0
:100ED000440482EC8C0F61E0833008F060E089E02C
:100EE0000E94D1028FEB8C0F863108F05CC084E049
:100EF0000E94440489EA8C0F843108F059C085E0CF
:100F00000E944404CB56C53108F057C086E00E94C9
:100F10004404D0E0C0E00F2D10E0FC1649F1CE01F2
:100F20000C960817190721F10C960817190701F1FB
:100F30000C9608171907E1F00C9608171907C1F06D
:100F40000C9608171907A1F00C960817190781F0DD
:100F50000C960817190761F00C960817190741F04D
:100F60000C960817190721F00C960817190711F4A9
:100F70000E94C0042196CC30D10579F6DF91CF9143
:100F80001F910F91FF90089560E08AE00E94D102C6
:100F900090CF60E08BE00E94D10293CF60E08CE0C4
:100FA0000E94D10296CF60E08DE00E94D102A2CFD4
:100FB00060E08EE00E94D102A5CF60E08FE00E9449
:100FC000D102A7CF862F642F0C94FF02FC018189E8
:100FD0000E94A80221E0892B09F420E0822F0895C5
:100FE000CF92DF92EF92FF920F931F93CF93DF93F5
:100FF000EC0188858B7F8887CE010E94E607182F39
:101000008885869581701817B9F00E9492036A83CB
:101010007B838C839D83888592E089278887888558
:1010200082FB882780F9DF91CF911F910F91FF906C
:10103000EF90DF90CF9008950E949203CA80DB80EA
:10104000EC80FD80AB01BC014C195D096E097F0984
:101050008E819F81B0E0A0E0481759076A077B079F
:10106000F0F2888581701817D1F20E9492036A838A
:101070007B838C839D83888591E089278460888722
:101080000E94920309851A852B853C85601B710B94
:10109000820B930B6D877E878F87988B0E949203BC
:1010A00069877A878B879C87BACFCF93DF93EC01D0
:1010B00018860E94E607882319F088858360888750
:1010C0000E9492036A837B838C839D83DF91CF91FF
:1010D00008950E94BC101F920F920FB60F92112418
:1010E0002F933F934F935F936F937F938F939F9330
:1010F000AF93BF93EF93FF9383EB92E00E94F001D5
:10110000FF91EF91BF91AF919F918F917F916F91DF
:101110005F914F913F912F910F900FBE0F901F90B5
:1011200018951F920F920FB60F9211242F938F9341
:101130009F93EF93FF93E091C302F091C4028081EB
:10114000E091C902F091CA0282FD1BC0908180919A
:10115000CC028F5F8F732091CD02821741F0E09116
:10116000CC02F0E0ED54FD4F958F8093CC02FF91BF
:10117000EF919F918F912F910F900FBE0F901F9025
:1011800018958081F4CF1F920F920FB60F92112401
:101190002F933F938F939F93AF93BF93809143017E
:1011A00090914401A0914501B091460130914201D6
:1011B00023E0230F2D3758F50196A11DB11D209373
:1011C00042018093430190934401A0934501B09361
:1011D00046018091470190914801A0914901B09149
:1011E0004A010196A11DB11D8093470190934801CA
:1011F000A0934901B0934A01BF91AF919F918F9104
:101200003F912F910F900FBE0F901F90189526E8D9
:10121000230F0296A11DB11DD2CFFC0112821382B1
:10122000148215828AE090E09783868310868DE38E
:1012300091E091838083118A08950F931F93CF9338
:10124000E3EBF2E01382128288EE93E0A0E0B0E0DC
:1012500084839583A683B7838BE291E09183808317
:1012600085EC90E09587848784EC90E0978786876B
:1012700080EC90E0918B808B81EC90E0938B828B63
:1012800082EC90E0958B848B86EC90E0978B868B3C
:10129000118E128E138E148EF0935103E09350032F
:1012A000E3EEF1E011821082138212821582148221
:1012B000178216821186108613861286158614866A
:1012C00017861686118A108A138A128A158A148A3A
:1012D000178A168A118E108E138E128E158E148E0A
:1012E000178E168E11A210A213A212A215A214A27A
:1012F00017A216A211A610A680E593E093A782A7D5
:1013000014A615A616A613AA12AA15AA14AA8FEF38
:101310009FEF97AB86AB91AF80AF83E080931D02C8
:1013200013AE14AE15AE16AE1092A202E2E2F2E0D7
:1013300080E8DF011D928A95E9F71092A5021092CC
:10134000A6021092A7021092A8021092A90210926F
:10135000AA021092AB021092AC021092AD0210924F
:10136000AE021092AF021092B0021092B10210922F
:10137000B20280ED91E00E940D09E0EDF1E00DE395
:1013800011E011830083C1E0C28B8DEB91E00E94DC
:101390000D09EDEBF1E011830083C28B8AEA91E045
:1013A0000E940D09EAEAF1E011830083C28B87E90C
:1013B00091E00E940D09E7E9F1E011830083C28BFF
:1013C00084E891E00E940D09E4E8F1E011830083D4
:1013D000C28B81E791E00E940D09E1E7F1E0118302
:1013E0000083C28B8EE591E00E940D09EEE5F1E0ED
:1013F00011830083C28BCF911F910F910895789430
:1014000084B5826084BD84B5816084BD85B5826009
:1014100085BD85B5816085BD80916E0081608093BA
:101420006E00109281008091810082608093810023
:101430008091810081608093810080918000816033
:10144000809380008091B10084608093B10080918E
:10145000B00081608093B00080917A0084608093B6
:101460007A0080917A00826080937A0080917A007D
:10147000816080937A0080917A00806880937A00FE
:101480001092C100E0910D02F0910E020190F081E6
:10149000E02DA089B189D2E0DC93A485B5851C92AA
:1014A000A685B7858FE38C93108EA489B589C6E095
:1014B000CC93A289B3898C9180618C93A289B389E2
:1014C0008C9188608C93A289B3898C9180688C936D
:1014D0000288F389E02D80818F7D808310920F0236
:1014E000109211021092100210921802109217021C
:1014F00010921602109215028FEF9FEF90931A022E
:101500008093190290931C0280931B020E94920305
:101510006093A5027093A6028093A7029093A802FD
:101520001092A20210921F0210921E02109220022C
:10153000109221021092A4021092A30280911D0227
:1015400081708260816080931D02E091C302F091FE
:10155000C402D083E091BF02F091C0021082E091FA
:10156000C102F091C20280E180831092CB02E0912F
:10157000C702F091C802C083E091C502F091C60293
:10158000808180618083E091C502F091C6028081F4
:1015900088608083E091C502F091C60280818068F6
:1015A0008083E091C502F091C60280818F7D8083A7
:1015B0008DEF94E09093EE018093ED0180EC95E047
:1015C0009093F0018093EF0187E497E09093EA0114
:1015D0008093E90110921D02CCE1D1E061E0899194
:1015E0000E94FF0221E0C732D207C1F7C5E1D1E076
:1015F00062E089910E94FF0281E0CC31D807C1F7F7
:1016000082E080936F018EE591E00E945508C9E168
:10161000D0E0D0936501C09364011092700183E023
:101620008093E10180ED91E00E945508D093D701AD
:10163000C093D60184E08093CE018DEB91E00E94AF
:101640005508D093C401C093C3011092CF0185E027
:101650008093BB018AEA91E00E945508D093B101C2
:10166000C093B0011092BC0186E08093A80187E985
:1016700091E00E945508D0939E01C0939D01109265
:10168000A90187E08093950184E891E00E945508C4
:10169000D0938B01C0938A011092960188E08093C9
:1016A000820181E791E00E945508D0937801C093B0
:1016B0007701109283010E94270464EF71E080E0BB
:1016C00090E00E94600341E060E080E00E94F2034D
:1016D00061E080E00E94F80340E8C42ED12C52E083
:1016E000A52EB12C01E010E063E0862E912C77242A
:1016F000739420E8622E30EF532EF0900F0290E1A9
:101700009F1508F478C0E0910D02F0910E028081DF
:101710009181DC01ED91FC910084F185E02D09952A
:10172000892B09F468C08091B2028E7F8093B20247
:10173000E0910D02F0910E0280819181DC01ED912A
:10174000FC910284F385E02D0995C82F8D3F09F4A3
:1017500052C08091170290911802009709F0D2C1EF
:10176000C0931202D09110028D2F0E949E030E94FE
:10177000AC03882351F0C7FD08C0D0931202C09378
:1017800013021093180200931702C09112028C2FBB
:101790000E949E03813F09F482C108F01BC1803B77
:1017A00039F058F4803921F0803A11F0803869F42A
:1017B000909216028092150276C1803D09F46FC1A5
:1017C00008F0F9C0803C09F46AC18091B2028160DE
:1017D0008093B202E091E501F091E601309709F0C3
:1017E0000995109218021092170210921602109288
:1017F0001502109210028EE591E00E94F007809190
:10180000660182FF0FC081709091700198130AC029
:10181000809157018F5F843008F0C1C280935701D7
:101820000E94E60580ED91E00E94F0078091D801CA
:101830008570853091F48091DD019091DE01A09159
:10184000DF01B091E0018D3B9240A105B10508F4A4
:10185000A9C2109257010E94E6058DEB91E00E940B
:10186000F0078091C5018570853091F48091CA019F
:101870009091CB01A091CC01B091CD018D3B9240D4
:10188000A105B10508F4F4C2709257010E94E60563
:101890008AEA91E00E94F0078091B201857085305C
:1018A00099F48091B7019091B801A091B901B091DC
:1018B000BA018D3B9240A105B10508F443C382E013
:1018C000809357010E94E60587E991E00E94F007A6
:1018D00080919F018570853099F48091A401909149
:1018E000A501A091A601B091A7018D3B9240A10551
:1018F000B10508F49EC383E0809357010E94E6057A
:1019000084E891E00E94F00780918C018570853019
:1019100011F40E94E90681E791E00E94F0078091AE
:1019200079018570853011F40E9477068091570106
:10193000811132C080910E01803871F50E949203AE
:10194000209153013091540140915501509156011D
:10195000621B730B840B950B643F714081059105ED
:10196000D8F0CFE1D1E0F9908F2D0E94A80261E07C
:10197000892B09F060E08F2D0E94D10221E0C33253
:10198000D20789F70E949203609353017093540128
:1019900080935501909356010E947C0480E090E072
:1019A000892B09F4AACE0E94DC01882309F49FCE7A
:1019B0000E9400009CCE803E09F4FACE803F09F0E0
:1019C00004CFD0921602C09215021092100280939A
:1019D000220269C0873FA9F308F05AC0833F09F487
:1019E0005EC008F4E5CE863F09F0EFCE80931F027B
:1019F00010921E0210922002109221027092A202F6
:101A000010921802109217021092160210921502EC
:101A100080911F02803931F480912102811102C02E
:101A200060921F0280911F028058813630F48091AD
:101A30001E02F81611F0F11002C00E948C00909165
:101A40001D02392F317090FFD6CE892F8E7F09F479
:101A5000D2CE80911F0220E8280F213608F01EC147
:101A600020911E02F21619F031E0F11030E0969547
:101A7000923009F40CC1933009F40DC1913009F092
:101A8000BACE40912102609120020E940C04B3CE94
:101A90008D3F08F4ABCF8E3F08F0A8CF96CEB09222
:101AA0001602A0921502209117023091180240915F
:101AB0001502509116024150510924173507D8F0EC
:101AC00080931F02CF70CF5FC0931E0280911302DC
:101AD00080932002109221021093A4020093A3028B
:101AE000109218021092170210921602109215020C
:101AF0007092A2028DCF2F5F3F4F30931802209338
:101B0000170279CEC7FF0CC0CD3F08F045C0C83FD3
:101B100008F044C0C03F09F44EC0C73F09F44BC0B1
:101B200020911202FC01ED51FE4F203F19F0273F9A
:101B300009F068C0C7AF20901502309016029101DD
:101B4000215031098217930708F49BC0409012027C
:101B5000F0EF4F1619F027EF421256C0C091A102C4
:101B60005092A10250921F02609220021092210214
:101B700010921E02D092A402C092A3027092A202FE
:101B80000E948C0087EF80932202C0932302B092C0
:101B90001802A09217022FCECE3F10F2C0931F0260
:101BA000109220021092210210921E021093A402A1
:101BB0000093A3029DCF20912202203F19F0273FDE
:101BC00009F003CE9C012F5F3F4F8D519E4FFC01CA
:101BD000C7AF50921F02209320023093210210922F
:101BE0001E023093A4022093A3027092A2021092CC
:101BF00018021092170210921602109215021092FB
:101C0000100206CFC7A797CF842D0E949E03C82F2E
:101C100080931F020E94AC03882341F1842D8F70B2
:101C20008F5F80931E028091130280932002809127
:101C3000140293E02916310409F080E08093210218
:101C400010921802109217021092160210921502AA
:101C50007092A202C03B39F060F4C03921F0C03A62
:101C600011F0C03861F640921002D2CE10921E02DE
:101C7000DACFC03DC1F3C03EB1F3C03C09F0BFCFE5
:101C8000F2CF01969093180280931702B4CD3323BC
:101C900009F4B1CDF6CE3111AECDF3CEE0E1E80FCF
:101CA000E03108F0A8CDF0E0E85AF14F0C94B610FE
:101CB0006E0EBB0E9D0E8B0EFB0BFB0B680EFB0B13
:101CC000680EFB0B680E680E680EFB0B680E680E44
:101CD000682F8DE092E00E94FE038DCDE0902002FF
:101CE000F0902102A1E8EA16F10418F090E8E92E3C
:101CF000F12CC3EED1E0CE01835E91408E159F059D
:101D000008F079CD6FAD80910D0290910E020E9486
:101D1000BB032196F0CFC091200263EF80910D02AA
:101D200090910E020E94BB036C2F6F7780910D0281
:101D300090910E020E94BB035ECDC0912102B0E8DB
:101D4000CB9FE001112480912002C82B62EF80918B
:101D50000D0290910E020E94BB036C2F6F77809151
:101D60000D0290910E020E94BB03CC0FCD2FCC1F11
:101D7000DD0BD195D9CF60912002E0E16E9FB001DB
:101D800011246077C0912102CF70C62B61EF809142
:101D90000D0290910E020E94BB036C2FC7CF1092D0
:101DA00057013ECDC0915701C11125C0809151010D
:101DB00090915201019797FD19C090935201809321
:101DC000510160920E010E94C0040E94270461E04C
:101DD0008AE00E94D10264E670E080E090E00E9418
:101DE000600360E08AE00E94D10237CD90925201F8
:101DF00080925101E6CFC13011F5809158018130B8
:101E000071F441E06FE783E30E94F20361E08AE04E
:101E10000E94D10210925801109208011ECD81112A
:101E20001CCD41E060E083E30E94F20360E08AE0C1
:101E30000E94D102C0935801C09308010ECDC23058
:101E400009F00BCD80914B0190914C01019797FDCA
:101E50000CC090934C0180934B010E94C00462E03F
:101E600080914B010E94F803B2CF83E690E0F1CF5E
:101E7000C0915701C11126C080915101909152012A
:101E8000019684309105CCF49093520180935101D6
:101E900060920E010E94C0040E94270461E08BE062
:101EA0000E94D10264E670E080E090E00E9460034E
:101EB00060E08BE00E94D102EBCC109252011092B4
:101EC0005101E6CFC13011F580915901813071F493
:101ED00041E06FE784E30E94F20361E08BE00E943F
:101EE000D1021092590110920901D2CC8111D0CCAB
:101EF00041E060E084E30E94F20360E08BE00E9436
:101F0000D102C0935901C0930901C2CCC23009F07B
:101F1000BFCC80914B0190914C0101968436910584
:101F200064F490934C0180934B010E94C00462E0E2
:101F300080914B010E94F803B1CF10924C01109296
:101F40004B01F3CFC0915701C11112C010920E0185
:101F500041E06091510180E00E94F20361E08091D4
:101F60000E010E94F8030E94C0040E942704ACCC1A
:101F7000C13011F580915A01813071F441E06FE771
:101F800085E30E94F20361E08CE00E94D10210928E
:101F90005A0110920A0198CC811196CC41E060E080
:101FA00085E30E94F20360E08CE00E94D102C093BE
:101FB0005A01C0930A0188CCC230F1F48091040127
:101FC000813061F442E06FE785E30E94F20361E053
:101FD0008CE00E94D1021092040176CC811174CC65
:101FE00042E060E085E30E94F20360E08CE00E9442
:101FF000D1027092040168CCC33009F065CC8091A5
:102000000001813051F441E06FE787E70E94F2035D
:102010000E94C0041092000157CC811155CC41E0C0
:1020200060E087E70E94F2030E94C0047092000102
:102030004BCCC0915701C11112C070920E0141E00A
:102040006091510180E00E94F20361E080910E01F5
:102050000E94F8030E94C0040E94270451CCC130A2
:1020600011F580915B01813071F441E06FE786E307
:102070000E94F20361E08DE00E94D10210925B01A8
:1020800010920B013DCC81113BCC41E060E086E336
:102090000E94F20360E08DE00E94D102C0935B01D8
:1020A000C0930B012DCCC23009F043C080910501D3
:1020B0008130B1F442E06FE786E30E94F2031092B0
:1020C00005010E9492030E94920360934D01709358
:1020D0004E0180934F01909350010E947C0410CCDC
:1020E00081110ECC42E060E086E30E94F203709220
:1020F00005010E94920320914D0130914E014091C3
:102100004F0150915001DC01CB01821B930BA40BBA
:10211000B50BAC01BD014150510961097109473E40
:10212000534061057105C8F6909303018093020145
:10213000CACFC33009F0E4CB80910101813051F462
:1021400041E06FE788E70E94F2030E94C00410920A
:102150000101D6CB8111D4CB41E060E088E70E9439
:10216000F2030E94C00470920101CACBEE0FFF1F60
:102170000590F491E02D099481E090E0F8940C949E
:06218000C110F894FFCF2E
:102186000101580201010101010101010101803330
:10219600343536373802030405060708090A0B0CDE
:1021A6000D0E0F1011121300000000120272019F93
:1021B600015F02D001AE01C20100000000E607E2A5
:0221C600070010
:00000001FF
